{
  "contractName": "NotesMarketContract",
  "abi": [
    {
      "inputs": [],
      "stateMutability": "nonpayable",
      "type": "constructor"
    },
    {
      "anonymous": false,
      "inputs": [
        {
          "indexed": false,
          "internalType": "string",
          "name": "message",
          "type": "string"
        },
        {
          "indexed": true,
          "internalType": "bytes32",
          "name": "noteHash",
          "type": "bytes32"
        },
        {
          "indexed": false,
          "internalType": "string",
          "name": "title",
          "type": "string"
        },
        {
          "indexed": false,
          "internalType": "string",
          "name": "author",
          "type": "string"
        }
      ],
      "name": "NoteAdded",
      "type": "event"
    },
    {
      "anonymous": false,
      "inputs": [
        {
          "indexed": false,
          "internalType": "string",
          "name": "message",
          "type": "string"
        },
        {
          "indexed": true,
          "internalType": "bytes32",
          "name": "noteHash",
          "type": "bytes32"
        },
        {
          "indexed": true,
          "internalType": "address",
          "name": "buyer",
          "type": "address"
        },
        {
          "indexed": false,
          "internalType": "address",
          "name": "seller",
          "type": "address"
        }
      ],
      "name": "NoteBought",
      "type": "event"
    },
    {
      "anonymous": false,
      "inputs": [
        {
          "indexed": false,
          "internalType": "string",
          "name": "message",
          "type": "string"
        },
        {
          "indexed": false,
          "internalType": "uint256",
          "name": "price",
          "type": "uint256"
        }
      ],
      "name": "NotePriceUpdated",
      "type": "event"
    },
    {
      "anonymous": false,
      "inputs": [
        {
          "indexed": false,
          "internalType": "string",
          "name": "message",
          "type": "string"
        }
      ],
      "name": "NoteRemoved",
      "type": "event"
    },
    {
      "anonymous": false,
      "inputs": [
        {
          "indexed": false,
          "internalType": "string",
          "name": "message",
          "type": "string"
        },
        {
          "indexed": false,
          "internalType": "address",
          "name": "userAddress",
          "type": "address"
        },
        {
          "indexed": false,
          "internalType": "bool",
          "name": "isSeller",
          "type": "bool"
        }
      ],
      "name": "UserCreated",
      "type": "event"
    },
    {
      "anonymous": false,
      "inputs": [
        {
          "indexed": false,
          "internalType": "string",
          "name": "message",
          "type": "string"
        }
      ],
      "name": "UserRemoved",
      "type": "event"
    },
    {
      "anonymous": false,
      "inputs": [
        {
          "indexed": false,
          "internalType": "string",
          "name": "message",
          "type": "string"
        }
      ],
      "name": "UserSellerApproved",
      "type": "event"
    },
    {
      "inputs": [
        {
          "internalType": "uint256",
          "name": "",
          "type": "uint256"
        }
      ],
      "name": "notesArr",
      "outputs": [
        {
          "internalType": "bytes32",
          "name": "noteHash",
          "type": "bytes32"
        },
        {
          "internalType": "bytes32",
          "name": "IPFSHash",
          "type": "bytes32"
        },
        {
          "internalType": "uint256",
          "name": "id",
          "type": "uint256"
        },
        {
          "internalType": "address payable",
          "name": "owner",
          "type": "address"
        },
        {
          "internalType": "uint256",
          "name": "price",
          "type": "uint256"
        },
        {
          "internalType": "uint120",
          "name": "purchaseCount",
          "type": "uint120"
        },
        {
          "internalType": "uint8",
          "name": "exits",
          "type": "uint8"
        },
        {
          "internalType": "bool",
          "name": "isApproved",
          "type": "bool"
        },
        {
          "internalType": "string",
          "name": "title",
          "type": "string"
        },
        {
          "internalType": "string",
          "name": "description",
          "type": "string"
        },
        {
          "internalType": "string",
          "name": "author",
          "type": "string"
        }
      ],
      "stateMutability": "view",
      "type": "function",
      "constant": true
    },
    {
      "inputs": [
        {
          "internalType": "uint256",
          "name": "",
          "type": "uint256"
        }
      ],
      "name": "usersArr",
      "outputs": [
        {
          "internalType": "address",
          "name": "userAddr",
          "type": "address"
        },
        {
          "internalType": "bool",
          "name": "seller",
          "type": "bool"
        },
        {
          "internalType": "bool",
          "name": "isSellerApproved",
          "type": "bool"
        },
        {
          "internalType": "uint8",
          "name": "exits",
          "type": "uint8"
        }
      ],
      "stateMutability": "view",
      "type": "function",
      "constant": true
    },
    {
      "inputs": [],
      "name": "changeNotesMarketStatus",
      "outputs": [],
      "stateMutability": "nonpayable",
      "type": "function"
    },
    {
      "inputs": [
        {
          "internalType": "bool",
          "name": "isSeller",
          "type": "bool"
        }
      ],
      "name": "addUser",
      "outputs": [],
      "stateMutability": "nonpayable",
      "type": "function"
    },
    {
      "inputs": [],
      "name": "removeUser",
      "outputs": [],
      "stateMutability": "nonpayable",
      "type": "function"
    },
    {
      "inputs": [],
      "name": "getUser",
      "outputs": [
        {
          "internalType": "bool",
          "name": "_authStatus",
          "type": "bool"
        },
        {
          "internalType": "bool",
          "name": "_isSeller",
          "type": "bool"
        },
        {
          "internalType": "bool",
          "name": "_isAdmin",
          "type": "bool"
        },
        {
          "internalType": "bool",
          "name": "_isSellerApproved",
          "type": "bool"
        }
      ],
      "stateMutability": "view",
      "type": "function",
      "constant": true
    },
    {
      "inputs": [
        {
          "internalType": "address",
          "name": "userAddress",
          "type": "address"
        }
      ],
      "name": "approveSeller",
      "outputs": [],
      "stateMutability": "nonpayable",
      "type": "function"
    },
    {
      "inputs": [],
      "name": "getAllUsers",
      "outputs": [
        {
          "components": [
            {
              "internalType": "address",
              "name": "userAddr",
              "type": "address"
            },
            {
              "internalType": "bool",
              "name": "seller",
              "type": "bool"
            },
            {
              "internalType": "bool",
              "name": "isSellerApproved",
              "type": "bool"
            },
            {
              "internalType": "uint8",
              "name": "exits",
              "type": "uint8"
            }
          ],
          "internalType": "struct NotesMarketContract.User[]",
          "name": "",
          "type": "tuple[]"
        }
      ],
      "stateMutability": "view",
      "type": "function",
      "constant": true
    },
    {
      "inputs": [
        {
          "internalType": "bytes32",
          "name": "_IPFShash",
          "type": "bytes32"
        },
        {
          "internalType": "string",
          "name": "_title",
          "type": "string"
        },
        {
          "internalType": "string",
          "name": "_description",
          "type": "string"
        },
        {
          "internalType": "string",
          "name": "_author",
          "type": "string"
        },
        {
          "internalType": "uint256",
          "name": "_price",
          "type": "uint256"
        }
      ],
      "name": "addNote",
      "outputs": [],
      "stateMutability": "nonpayable",
      "type": "function"
    },
    {
      "inputs": [
        {
          "internalType": "bytes32",
          "name": "noteHash",
          "type": "bytes32"
        }
      ],
      "name": "removeNote",
      "outputs": [],
      "stateMutability": "nonpayable",
      "type": "function"
    },
    {
      "inputs": [],
      "name": "getAllNotes",
      "outputs": [
        {
          "components": [
            {
              "internalType": "bytes32",
              "name": "noteHash",
              "type": "bytes32"
            },
            {
              "internalType": "bytes32",
              "name": "IPFSHash",
              "type": "bytes32"
            },
            {
              "internalType": "uint256",
              "name": "id",
              "type": "uint256"
            },
            {
              "internalType": "address payable",
              "name": "owner",
              "type": "address"
            },
            {
              "internalType": "uint256",
              "name": "price",
              "type": "uint256"
            },
            {
              "internalType": "uint120",
              "name": "purchaseCount",
              "type": "uint120"
            },
            {
              "internalType": "uint8",
              "name": "exits",
              "type": "uint8"
            },
            {
              "internalType": "bool",
              "name": "isApproved",
              "type": "bool"
            },
            {
              "internalType": "string",
              "name": "title",
              "type": "string"
            },
            {
              "internalType": "string",
              "name": "description",
              "type": "string"
            },
            {
              "internalType": "string",
              "name": "author",
              "type": "string"
            }
          ],
          "internalType": "struct NotesMarketContract.Note[]",
          "name": "",
          "type": "tuple[]"
        }
      ],
      "stateMutability": "view",
      "type": "function",
      "constant": true
    },
    {
      "inputs": [
        {
          "internalType": "bytes32",
          "name": "noteHash",
          "type": "bytes32"
        }
      ],
      "name": "buyNote",
      "outputs": [],
      "stateMutability": "payable",
      "type": "function",
      "payable": true
    },
    {
      "inputs": [],
      "name": "getMyPurchasedNotes",
      "outputs": [
        {
          "internalType": "bytes32[]",
          "name": "_boughtNotes",
          "type": "bytes32[]"
        }
      ],
      "stateMutability": "view",
      "type": "function",
      "constant": true
    },
    {
      "inputs": [],
      "name": "getOwnedNotes",
      "outputs": [
        {
          "internalType": "bytes32[]",
          "name": "_ownedNotes",
          "type": "bytes32[]"
        }
      ],
      "stateMutability": "view",
      "type": "function",
      "constant": true
    }
  ],
  "bytecode": "0x608060405260008060006101000a81548160ff02191690831515021790555034801561002a57600080fd5b5033600060016101000a81548173ffffffffffffffffffffffffffffffffffffffff021916908373ffffffffffffffffffffffffffffffffffffffff1602179055506141d58061007b6000396000f3fe6080604052600436106100dd5760003560e01c8063832880e71161007f578063d32fe58311610059578063d32fe58314610299578063de8f430c146102c4578063e2842d79146102ef578063f944f4c71461031a576100dd565b8063832880e714610219578063c169d7e914610247578063c35b28b214610270576100dd565b80635b7eedf8116100bb5780635b7eedf81461017d5780635ec5d856146101bd578063678fc459146101e65780637de524ac14610202576100dd565b80632d731b69146100e2578063358a7b201461010d5780634367fc0314610136575b600080fd5b3480156100ee57600080fd5b506100f7610331565b6040516101049190613902565b60405180910390f35b34801561011957600080fd5b50610134600480360381019061012f9190612f60565b61060b565b005b34801561014257600080fd5b5061015d60048036038101906101589190613048565b61099f565b6040516101749b9a999897969594939291906139ad565b60405180910390f35b34801561018957600080fd5b506101a4600480360381019061019f9190613048565b610bf6565b6040516101b494939291906138bd565b60405180910390f35b3480156101c957600080fd5b506101e460048036038101906101df9190612f0e565b610c79565b005b61020060048036038101906101fb9190612f60565b610f24565b005b34801561020e57600080fd5b50610217611782565b005b34801561022557600080fd5b5061022e61183d565b60405161023e9493929190613968565b60405180910390f35b34801561025357600080fd5b5061026e60048036038101906102699190612f89565b611a3b565b005b34801561027c57600080fd5b5061029760048036038101906102929190612f37565b611f95565b005b3480156102a557600080fd5b506102ae6122ec565b6040516102bb9190613902565b60405180910390f35b3480156102d057600080fd5b506102d9612418565b6040516102e69190613924565b60405180910390f35b3480156102fb57600080fd5b506103046127c8565b6040516103119190613946565b60405180910390f35b34801561032657600080fd5b5061032f612964565b005b606033600560008273ffffffffffffffffffffffffffffffffffffffff1673ffffffffffffffffffffffffffffffffffffffff16815260200190815260200160002060000160149054906101000a900460ff1680156103dc5750600560008273ffffffffffffffffffffffffffffffffffffffff1673ffffffffffffffffffffffffffffffffffffffff16815260200190815260200160002060000160159054906101000a900460ff165b61041b576040517f08c379a000000000000000000000000000000000000000000000000000000000815260040161041290613ba5565b60405180910390fd5b336001600560008373ffffffffffffffffffffffffffffffffffffffff1673ffffffffffffffffffffffffffffffffffffffff16815260200190815260200160002060000160169054906101000a900460ff1660ff16146104b1576040517f08c379a00000000000000000000000000000000000000000000000000000000081526004016104a890613c45565b60405180910390fd5b600860003373ffffffffffffffffffffffffffffffffffffffff1673ffffffffffffffffffffffffffffffffffffffff16815260200190815260200160002080548060200260200160405190810160405280929190818152602001828054801561053a57602002820191906000526020600020905b815481526020019060010190808311610526575b5050505050925060005b83518110156106055760006003600086848151811061058c577f4e487b7100000000000000000000000000000000000000000000000000000000600052603260045260246000fd5b602002602001015181526020019081526020016000205414156105f2578381815181106105e2577f4e487b7100000000000000000000000000000000000000000000000000000000600052603260045260246000fd5b6020026020010160008019168152505b80806105fd90614023565b915050610544565b50505090565b80600060036000838152602001908152602001600020541415610663576040517f08c379a000000000000000000000000000000000000000000000000000000000815260040161065a90613b65565b60405180910390fd5b60006003600083815260200190815260200160002054905060006001808361068b9190613e81565b815481106106c2577f4e487b7100000000000000000000000000000000000000000000000000000000600052603260045260246000fd5b9060005260206000209060090201600201541415610715576040517f08c379a000000000000000000000000000000000000000000000000000000000815260040161070c90613b65565b60405180910390fd5b8260006003600083815260200190815260200160002054905060006001808361073e9190613e81565b81548110610775577f4e487b7100000000000000000000000000000000000000000000000000000000600052603260045260246000fd5b906000526020600020906009020160050160009054906101000a90046effffffffffffffffffffffffffffff166effffffffffffffffffffffffffffff16146107f3576040517f08c379a00000000000000000000000000000000000000000000000000000000081526004016107ea90613aad565b60405180910390fd5b3385600060036000838152602001908152602001600020549050600060019054906101000a900473ffffffffffffffffffffffffffffffffffffffff1673ffffffffffffffffffffffffffffffffffffffff168373ffffffffffffffffffffffffffffffffffffffff16148061090a5750600180826108729190613e81565b815481106108a9577f4e487b7100000000000000000000000000000000000000000000000000000000600052603260045260246000fd5b906000526020600020906009020160030160009054906101000a900473ffffffffffffffffffffffffffffffffffffffff1673ffffffffffffffffffffffffffffffffffffffff168373ffffffffffffffffffffffffffffffffffffffff16145b610949576040517f08c379a000000000000000000000000000000000000000000000000000000000815260040161094090613acd565b60405180910390fd5b60036000898152602001908152602001600020600090557fe41203db0fa61b8b33140f8fc1ca977ef1ae43ae15065035c505670c0b4e0ed560405161098d90613be5565b60405180910390a15050505050505050565b600181815481106109af57600080fd5b90600052602060002090600902016000915090508060000154908060010154908060020154908060030160009054906101000a900473ffffffffffffffffffffffffffffffffffffffff16908060040154908060050160009054906101000a90046effffffffffffffffffffffffffffff169080600501600f9054906101000a900460ff16908060050160109054906101000a900460ff1690806006018054610a5790613fb9565b80601f0160208091040260200160405190810160405280929190818152602001828054610a8390613fb9565b8015610ad05780601f10610aa557610100808354040283529160200191610ad0565b820191906000526020600020905b815481529060010190602001808311610ab357829003601f168201915b505050505090806007018054610ae590613fb9565b80601f0160208091040260200160405190810160405280929190818152602001828054610b1190613fb9565b8015610b5e5780601f10610b3357610100808354040283529160200191610b5e565b820191906000526020600020905b815481529060010190602001808311610b4157829003601f168201915b505050505090806008018054610b7390613fb9565b80601f0160208091040260200160405190810160405280929190818152602001828054610b9f90613fb9565b8015610bec5780601f10610bc157610100808354040283529160200191610bec565b820191906000526020600020905b815481529060010190602001808311610bcf57829003601f168201915b505050505090508b565b60028181548110610c0657600080fd5b906000526020600020016000915090508060000160009054906101000a900473ffffffffffffffffffffffffffffffffffffffff16908060000160149054906101000a900460ff16908060000160159054906101000a900460ff16908060000160169054906101000a900460ff16905084565b6000151560008054906101000a900460ff16151514610ccd576040517f08c379a0000000000000000000000000000000000000000000000000000000008152600401610cc490613c65565b60405180910390fd5b33600060019054906101000a900473ffffffffffffffffffffffffffffffffffffffff1673ffffffffffffffffffffffffffffffffffffffff168173ffffffffffffffffffffffffffffffffffffffff1614610d5e576040517f08c379a0000000000000000000000000000000000000000000000000000000008152600401610d5590613a6d565b60405180910390fd5b816001600560008373ffffffffffffffffffffffffffffffffffffffff1673ffffffffffffffffffffffffffffffffffffffff16815260200190815260200160002060000160169054906101000a900460ff1660ff1614610df4576040517f08c379a0000000000000000000000000000000000000000000000000000000008152600401610deb90613c45565b60405180910390fd5b600560008473ffffffffffffffffffffffffffffffffffffffff1673ffffffffffffffffffffffffffffffffffffffff16815260200190815260200160002060000160149054906101000a900460ff1615610ee4576000600560008573ffffffffffffffffffffffffffffffffffffffff1673ffffffffffffffffffffffffffffffffffffffff168152602001908152602001600020905060018160000160156101000a81548160ff0219169083151502179055507fae937c810850c4277a17aeb7e8b138034e898dbb0a85b262eb9ea276fedc9405604051610ed690613b85565b60405180910390a150610f1f565b6040517f08c379a0000000000000000000000000000000000000000000000000000000008152600401610f1690613a8d565b60405180910390fd5b505050565b6000151560008054906101000a900460ff16151514610f78576040517f08c379a0000000000000000000000000000000000000000000000000000000008152600401610f6f90613c65565b60405180910390fd5b336001600560008373ffffffffffffffffffffffffffffffffffffffff1673ffffffffffffffffffffffffffffffffffffffff16815260200190815260200160002060000160169054906101000a900460ff1660ff161461100e576040517f08c379a000000000000000000000000000000000000000000000000000000000815260040161100590613c45565b60405180910390fd5b81600060036000838152602001908152602001600020541415611066576040517f08c379a000000000000000000000000000000000000000000000000000000000815260040161105d90613b65565b60405180910390fd5b60006003600083815260200190815260200160002054905060006001808361108e9190613e81565b815481106110c5577f4e487b7100000000000000000000000000000000000000000000000000000000600052603260045260246000fd5b9060005260206000209060090201600201541415611118576040517f08c379a000000000000000000000000000000000000000000000000000000000815260040161110f90613b65565b60405180910390fd5b60018060036000878152602001908152602001600020546111399190613e81565b81548110611170577f4e487b7100000000000000000000000000000000000000000000000000000000600052603260045260246000fd5b9060005260206000209060090201600401543373ffffffffffffffffffffffffffffffffffffffff16318111156111dc576040517f08c379a00000000000000000000000000000000000000000000000000000000081526004016111d390613c25565b60405180910390fd5b6000600360008781526020019081526020016000205490506000600180836112049190613e81565b8154811061123b577f4e487b7100000000000000000000000000000000000000000000000000000000600052603260045260246000fd5b9060005260206000209060090201604051806101600160405290816000820154815260200160018201548152602001600282015481526020016003820160009054906101000a900473ffffffffffffffffffffffffffffffffffffffff1673ffffffffffffffffffffffffffffffffffffffff1673ffffffffffffffffffffffffffffffffffffffff168152602001600482015481526020016005820160009054906101000a90046effffffffffffffffffffffffffffff166effffffffffffffffffffffffffffff166effffffffffffffffffffffffffffff16815260200160058201600f9054906101000a900460ff1660ff1660ff1681526020016005820160109054906101000a900460ff1615151515815260200160068201805461136290613fb9565b80601f016020809104026020016040519081016040528092919081815260200182805461138e90613fb9565b80156113db5780601f106113b0576101008083540402835291602001916113db565b820191906000526020600020905b8154815290600101906020018083116113be57829003601f168201915b505050505081526020016007820180546113f490613fb9565b80601f016020809104026020016040519081016040528092919081815260200182805461142090613fb9565b801561146d5780601f106114425761010080835404028352916020019161146d565b820191906000526020600020905b81548152906001019060200180831161145057829003601f168201915b5050505050815260200160088201805461148690613fb9565b80601f01602080910402602001604051908101604052809291908181526020018280546114b290613fb9565b80156114ff5780601f106114d4576101008083540402835291602001916114ff565b820191906000526020600020905b8154815290600101906020018083116114e257829003601f168201915b5050505050815250509050600081606001519050600061152d60648460800151612c7490919063ffffffff16565b90506000611548828560800151612c8a90919063ffffffff16565b9050600760003373ffffffffffffffffffffffffffffffffffffffff1673ffffffffffffffffffffffffffffffffffffffff1681526020019081526020016000208a90806001815401808255809150506001900390600052602060002001600090919091909150558360a00180518091906115c290613feb565b6effffffffffffffffffffffffffffff166effffffffffffffffffffffffffffff16815250508360a00151600180876115fb9190613e81565b81548110611632577f4e487b7100000000000000000000000000000000000000000000000000000000600052603260045260246000fd5b906000526020600020906009020160050160006101000a8154816effffffffffffffffffffffffffffff02191690836effffffffffffffffffffffffffffff1602179055508273ffffffffffffffffffffffffffffffffffffffff166108fc829081150290604051600060405180830381858888f193505050501580156116bd573d6000803e3d6000fd5b50600060019054906101000a900473ffffffffffffffffffffffffffffffffffffffff1673ffffffffffffffffffffffffffffffffffffffff166108fc839081150290604051600060405180830381858888f19350505050158015611726573d6000803e3d6000fd5b503373ffffffffffffffffffffffffffffffffffffffff168a7fd1b3ceff01e1556a2936b8fef7e2e78b49634ac547f868ab32e3bdcb3c2b97af8560405161176e9190613aed565b60405180910390a350505050505050505050565b33600060019054906101000a900473ffffffffffffffffffffffffffffffffffffffff1673ffffffffffffffffffffffffffffffffffffffff168173ffffffffffffffffffffffffffffffffffffffff1614611813576040517f08c379a000000000000000000000000000000000000000000000000000000000815260040161180a90613a6d565b60405180910390fd5b60008054906101000a900460ff16156000806101000a81548160ff02191690831515021790555050565b600080600080336001600560008373ffffffffffffffffffffffffffffffffffffffff1673ffffffffffffffffffffffffffffffffffffffff16815260200190815260200160002060000160169054906101000a900460ff1660ff1614806118f25750600060019054906101000a900473ffffffffffffffffffffffffffffffffffffffff1673ffffffffffffffffffffffffffffffffffffffff168173ffffffffffffffffffffffffffffffffffffffff16145b611931576040517f08c379a000000000000000000000000000000000000000000000000000000000815260040161192890613c45565b60405180910390fd5b60019450600560003373ffffffffffffffffffffffffffffffffffffffff1673ffffffffffffffffffffffffffffffffffffffff16815260200190815260200160002060000160149054906101000a900460ff169350600560003373ffffffffffffffffffffffffffffffffffffffff1673ffffffffffffffffffffffffffffffffffffffff16815260200190815260200160002060000160159054906101000a900460ff169150600060019054906101000a900473ffffffffffffffffffffffffffffffffffffffff1673ffffffffffffffffffffffffffffffffffffffff163373ffffffffffffffffffffffffffffffffffffffff161415611a3457600192505b5090919293565b336001600560008373ffffffffffffffffffffffffffffffffffffffff1673ffffffffffffffffffffffffffffffffffffffff16815260200190815260200160002060000160169054906101000a900460ff1660ff1614611ad1576040517f08c379a0000000000000000000000000000000000000000000000000000000008152600401611ac890613c45565b60405180910390fd5b33600560008273ffffffffffffffffffffffffffffffffffffffff1673ffffffffffffffffffffffffffffffffffffffff16815260200190815260200160002060000160149054906101000a900460ff168015611b7a5750600560008273ffffffffffffffffffffffffffffffffffffffff1673ffffffffffffffffffffffffffffffffffffffff16815260200190815260200160002060000160159054906101000a900460ff165b611bb9576040517f08c379a0000000000000000000000000000000000000000000000000000000008152600401611bb090613ba5565b60405180910390fd5b60006004600089815260200190815260200160002054905060006003600083815260200190815260200160002054905060008114611c2c576040517f08c379a0000000000000000000000000000000000000000000000000000000008152600401611c2390613bc5565b60405180910390fd5b600060018080549050611c3f9190613dfa565b905080604051602001611c5291906138a2565b60405160208183030381529060405280519060200120925080600360008581526020019081526020016000208190555082600460008c815260200190815260200160002081905550600860003373ffffffffffffffffffffffffffffffffffffffff1673ffffffffffffffffffffffffffffffffffffffff168152602001908152602001600020839080600181540180825580915050600190039060005260206000200160009091909190915055611d08612ca0565b838160000181815250508a8160200181815250508181604001818152505033816060019073ffffffffffffffffffffffffffffffffffffffff16908173ffffffffffffffffffffffffffffffffffffffff16815250508681608001818152505060008160a001906effffffffffffffffffffffffffffff1690816effffffffffffffffffffffffffffff168152505060018160c0019060ff16908160ff168152505089816101000181905250888161012001819052508781610140018190525060018160e0019015159081151581525050600181908060018154018082558091505060019003906000526020600020906009020160009091909190915060008201518160000155602082015181600101556040820151816002015560608201518160030160006101000a81548173ffffffffffffffffffffffffffffffffffffffff021916908373ffffffffffffffffffffffffffffffffffffffff1602179055506080820151816004015560a08201518160050160006101000a8154816effffffffffffffffffffffffffffff02191690836effffffffffffffffffffffffffffff16021790555060c082015181600501600f6101000a81548160ff021916908360ff16021790555060e08201518160050160106101000a81548160ff021916908315150217905550610100820151816006019080519060200190611f0f929190612d2c565b50610120820151816007019080519060200190611f2d929190612d2c565b50610140820151816008019080519060200190611f4b929190612d2c565b505050837f61f7b06099d9d6c81bb3b480f2051f0190d343d909af3bdc90ff6b86cd83de588b8a604051611f80929190613b1b565b60405180910390a25050505050505050505050565b6000151560008054906101000a900460ff16151514611fe9576040517f08c379a0000000000000000000000000000000000000000000000000000000008152600401611fe090613c65565b60405180910390fd5b6000600560003373ffffffffffffffffffffffffffffffffffffffff1673ffffffffffffffffffffffffffffffffffffffff16815260200190815260200160002060000160169054906101000a900460ff1660ff161461207e576040517f08c379a000000000000000000000000000000000000000000000000000000000815260040161207590613c05565b60405180910390fd5b612086612db2565b33816000019073ffffffffffffffffffffffffffffffffffffffff16908173ffffffffffffffffffffffffffffffffffffffff16815250508181602001901515908115158152505060008160400190151590811515815250506001816060019060ff16908160ff168152505080600560003373ffffffffffffffffffffffffffffffffffffffff1673ffffffffffffffffffffffffffffffffffffffff16815260200190815260200160002060008201518160000160006101000a81548173ffffffffffffffffffffffffffffffffffffffff021916908373ffffffffffffffffffffffffffffffffffffffff16021790555060208201518160000160146101000a81548160ff02191690831515021790555060408201518160000160156101000a81548160ff02191690831515021790555060608201518160000160166101000a81548160ff021916908360ff1602179055509050506002819080600181540180825580915050600190039060005260206000200160009091909190915060008201518160000160006101000a81548173ffffffffffffffffffffffffffffffffffffffff021916908373ffffffffffffffffffffffffffffffffffffffff16021790555060208201518160000160146101000a81548160ff02191690831515021790555060408201518160000160156101000a81548160ff02191690831515021790555060608201518160000160166101000a81548160ff021916908360ff16021790555050507f6ed7fd9c095d25702b515b4fc3c80ddda04a36adc0a6619c93fe1a306784f51e33836040516122e0929190613c85565b60405180910390a15050565b6060336001600560008373ffffffffffffffffffffffffffffffffffffffff1673ffffffffffffffffffffffffffffffffffffffff16815260200190815260200160002060000160169054906101000a900460ff1660ff1614612384576040517f08c379a000000000000000000000000000000000000000000000000000000000815260040161237b90613c45565b60405180910390fd5b600760003373ffffffffffffffffffffffffffffffffffffffff1673ffffffffffffffffffffffffffffffffffffffff16815260200190815260200160002080548060200260200160405190810160405280929190818152602001828054801561240d57602002820191906000526020600020905b8154815260200190600101908083116123f9575b505050505091505090565b6060336001600560008373ffffffffffffffffffffffffffffffffffffffff1673ffffffffffffffffffffffffffffffffffffffff16815260200190815260200160002060000160169054906101000a900460ff1660ff16146124b0576040517f08c379a00000000000000000000000000000000000000000000000000000000081526004016124a790613c45565b60405180910390fd5b60606001805480602002602001604051908101604052809291908181526020016000905b828210156127ba5783829060005260206000209060090201604051806101600160405290816000820154815260200160018201548152602001600282015481526020016003820160009054906101000a900473ffffffffffffffffffffffffffffffffffffffff1673ffffffffffffffffffffffffffffffffffffffff1673ffffffffffffffffffffffffffffffffffffffff168152602001600482015481526020016005820160009054906101000a90046effffffffffffffffffffffffffffff166effffffffffffffffffffffffffffff166effffffffffffffffffffffffffffff16815260200160058201600f9054906101000a900460ff1660ff1660ff1681526020016005820160109054906101000a900460ff1615151515815260200160068201805461260590613fb9565b80601f016020809104026020016040519081016040528092919081815260200182805461263190613fb9565b801561267e5780601f106126535761010080835404028352916020019161267e565b820191906000526020600020905b81548152906001019060200180831161266157829003601f168201915b5050505050815260200160078201805461269790613fb9565b80601f01602080910402602001604051908101604052809291908181526020018280546126c390613fb9565b80156127105780601f106126e557610100808354040283529160200191612710565b820191906000526020600020905b8154815290600101906020018083116126f357829003601f168201915b5050505050815260200160088201805461272990613fb9565b80601f016020809104026020016040519081016040528092919081815260200182805461275590613fb9565b80156127a25780601f10612777576101008083540402835291602001916127a2565b820191906000526020600020905b81548152906001019060200180831161278557829003601f168201915b505050505081525050815260200190600101906124d4565b505050509050809250505090565b606033600060019054906101000a900473ffffffffffffffffffffffffffffffffffffffff1673ffffffffffffffffffffffffffffffffffffffff168173ffffffffffffffffffffffffffffffffffffffff161461285b576040517f08c379a000000000000000000000000000000000000000000000000000000000815260040161285290613a6d565b60405180910390fd5b60606002805480602002602001604051908101604052809291908181526020016000905b82821015612956578382906000526020600020016040518060800160405290816000820160009054906101000a900473ffffffffffffffffffffffffffffffffffffffff1673ffffffffffffffffffffffffffffffffffffffff1673ffffffffffffffffffffffffffffffffffffffff1681526020016000820160149054906101000a900460ff161515151581526020016000820160159054906101000a900460ff161515151581526020016000820160169054906101000a900460ff1660ff1660ff16815250508152602001906001019061287f565b505050509050809250505090565b336001600560008373ffffffffffffffffffffffffffffffffffffffff1673ffffffffffffffffffffffffffffffffffffffff16815260200190815260200160002060000160169054906101000a900460ff1660ff16146129fa576040517f08c379a00000000000000000000000000000000000000000000000000000000081526004016129f190613c45565b60405180910390fd5b600560003373ffffffffffffffffffffffffffffffffffffffff1673ffffffffffffffffffffffffffffffffffffffff16815260200190815260200160002060000160149054906101000a900460ff1615612b97576000600860003373ffffffffffffffffffffffffffffffffffffffff1673ffffffffffffffffffffffffffffffffffffffff168152602001908152602001600020805480602002602001604051908101604052809291908181526020018280548015612ada57602002820191906000526020600020905b815481526020019060010190808311612ac6575b5050505050905060005b8151811015612b4957612b36828281518110612b29577f4e487b7100000000000000000000000000000000000000000000000000000000600052603260045260246000fd5b602002602001015161060b565b8080612b4190614023565b915050612ae4565b50600860003373ffffffffffffffffffffffffffffffffffffffff1673ffffffffffffffffffffffffffffffffffffffff1681526020019081526020016000206000612b959190612df7565b505b600560003373ffffffffffffffffffffffffffffffffffffffff1673ffffffffffffffffffffffffffffffffffffffff168152602001908152602001600020600080820160006101000a81549073ffffffffffffffffffffffffffffffffffffffff02191690556000820160146101000a81549060ff02191690556000820160156101000a81549060ff02191690556000820160166101000a81549060ff021916905550507f5b8514bf599ab0e7b72a3b2d47ae13677daa88ebbf833cea7bad37b6df49ede3604051612c6990613be5565b60405180910390a150565b60008183612c829190613e50565b905092915050565b60008183612c989190613e81565b905092915050565b604051806101600160405280600080191681526020016000801916815260200160008152602001600073ffffffffffffffffffffffffffffffffffffffff1681526020016000815260200160006effffffffffffffffffffffffffffff168152602001600060ff1681526020016000151581526020016060815260200160608152602001606081525090565b828054612d3890613fb9565b90600052602060002090601f016020900481019282612d5a5760008555612da1565b82601f10612d7357805160ff1916838001178555612da1565b82800160010185558215612da1579182015b82811115612da0578251825591602001919060010190612d85565b5b509050612dae9190612e18565b5090565b6040518060800160405280600073ffffffffffffffffffffffffffffffffffffffff168152602001600015158152602001600015158152602001600060ff1681525090565b5080546000825590600052602060002090810190612e159190612e35565b50565b5b80821115612e31576000816000905550600101612e19565b5090565b5b80821115612e4e576000816000905550600101612e36565b5090565b6000612e65612e6084613cf2565b613cc1565b905082815260208101848484011115612e7d57600080fd5b612e88848285613f77565b509392505050565b600081359050612e9f81614143565b92915050565b600081359050612eb48161415a565b92915050565b600081359050612ec981614171565b92915050565b600082601f830112612ee057600080fd5b8135612ef0848260208601612e52565b91505092915050565b600081359050612f0881614188565b92915050565b600060208284031215612f2057600080fd5b6000612f2e84828501612e90565b91505092915050565b600060208284031215612f4957600080fd5b6000612f5784828501612ea5565b91505092915050565b600060208284031215612f7257600080fd5b6000612f8084828501612eba565b91505092915050565b600080600080600060a08688031215612fa157600080fd5b6000612faf88828901612eba565b955050602086013567ffffffffffffffff811115612fcc57600080fd5b612fd888828901612ecf565b945050604086013567ffffffffffffffff811115612ff557600080fd5b61300188828901612ecf565b935050606086013567ffffffffffffffff81111561301e57600080fd5b61302a88828901612ecf565b925050608061303b88828901612ef9565b9150509295509295909350565b60006020828403121561305a57600080fd5b600061306884828501612ef9565b91505092915050565b600061307d838361324f565b60208301905092915050565b600061309583836136df565b905092915050565b60006130a983836137dc565b60808301905092915050565b6130be81613f41565b82525050565b6130cd81613ec7565b82525050565b6130dc81613ec7565b82525050565b6130eb81613eb5565b82525050565b6130fa81613eb5565b82525050565b600061310b82613d52565b6131158185613da5565b935061312083613d22565b8060005b838110156131515781516131388882613071565b975061314383613d7e565b925050600181019050613124565b5085935050505092915050565b600061316982613d5d565b6131738185613db6565b93508360208202850161318585613d32565b8060005b858110156131c157848403895281516131a28582613089565b94506131ad83613d8b565b925060208a01995050600181019050613189565b50829750879550505050505092915050565b60006131de82613d68565b6131e88185613dc7565b93506131f383613d42565b8060005b8381101561322457815161320b888261309d565b975061321683613d98565b9250506001810190506131f7565b5085935050505092915050565b61323a81613ed9565b82525050565b61324981613ed9565b82525050565b61325881613ee5565b82525050565b61326781613ee5565b82525050565b600061327882613d73565b6132828185613dd8565b9350613292818560208601613f86565b61329b81614132565b840191505092915050565b60006132b182613d73565b6132bb8185613de9565b93506132cb818560208601613f86565b6132d481614132565b840191505092915050565b60006132ec600c83613de9565b91507f4973206e6f742061646d696e00000000000000000000000000000000000000006000830152602082019050919050565b600061332c601483613de9565b91507f55736572206973206e6f7420612073656c6c65720000000000000000000000006000830152602082019050919050565b600061336c601783613de9565b91507f4e6f746520686173206265656e207075726368617365640000000000000000006000830152602082019050919050565b60006133ac601f83613de9565b91507f4973206e6f742061646d696e206e6f7220746865206e6f7465206f776e6572006000830152602082019050919050565b60006133ec600b83613de9565b91507f6e6f746520626f756768740000000000000000000000000000000000000000006000830152602082019050919050565b600061342c601983613de9565b91507f4e6f7465207375636365737366756c6c792063726561746564000000000000006000830152602082019050919050565b600061346c601283613de9565b91507f4e6f746520646f65736e277420657869737400000000000000000000000000006000830152602082019050919050565b60006134ac602083613de9565b91507f557365722073656c6c657220697320617070726f76656420666f722073656c6c6000830152602082019050919050565b60006134ec601583613de9565b91507f557365722063616e27742073656c6c206e6f74657300000000000000000000006000830152602082019050919050565b600061352c601383613de9565b91507f4e6f746520616c726561647920657869737473000000000000000000000000006000830152602082019050919050565b600061356c601983613de9565b91507f55736572207375636365737366756c6c792064656c65746564000000000000006000830152602082019050919050565b60006135ac601783613de9565b91507f5573657220616c726561647920726567697374657265640000000000000000006000830152602082019050919050565b60006135ec601283613de9565b91507f696e73756666696369656e742066756e647300000000000000000000000000006000830152602082019050919050565b600061362c601283613de9565b91507f5573657220646f65736e277420657869737400000000000000000000000000006000830152602082019050919050565b600061366c601e83613de9565b91507f4e6f7465736d61726b657420697320636c6f7365642062792061646d696e00006000830152602082019050919050565b60006136ac601983613de9565b91507f55736572207375636365737366756c6c792063726561746564000000000000006000830152602082019050919050565b6000610160830160008301516136f8600086018261324f565b50602083015161370b602086018261324f565b50604083015161371e604086018261384f565b50606083015161373160608601826130c4565b506080830151613744608086018261384f565b5060a083015161375760a0860182613831565b5060c083015161376a60c0860182613884565b5060e083015161377d60e0860182613231565b50610100830151848203610100860152613797828261326d565b9150506101208301518482036101208601526137b3828261326d565b9150506101408301518482036101408601526137cf828261326d565b9150508091505092915050565b6080820160008201516137f260008501826130e2565b5060208201516138056020850182613231565b5060408201516138186040850182613231565b50606082015161382b6060850182613884565b50505050565b61383a81613eef565b82525050565b61384981613eef565b82525050565b61385881613f2a565b82525050565b61386781613f2a565b82525050565b61387e61387982613f2a565b61406c565b82525050565b61388d81613f34565b82525050565b61389c81613f34565b82525050565b60006138ae828461386d565b60208201915081905092915050565b60006080820190506138d260008301876130f1565b6138df6020830186613240565b6138ec6040830185613240565b6138f96060830184613893565b95945050505050565b6000602082019050818103600083015261391c8184613100565b905092915050565b6000602082019050818103600083015261393e818461315e565b905092915050565b6000602082019050818103600083015261396081846131d3565b905092915050565b600060808201905061397d6000830187613240565b61398a6020830186613240565b6139976040830185613240565b6139a46060830184613240565b95945050505050565b6000610160820190506139c3600083018e61325e565b6139d0602083018d61325e565b6139dd604083018c61385e565b6139ea606083018b6130d3565b6139f7608083018a61385e565b613a0460a0830189613840565b613a1160c0830188613893565b613a1e60e0830187613240565b818103610100830152613a3181866132a6565b9050818103610120830152613a4681856132a6565b9050818103610140830152613a5b81846132a6565b90509c9b505050505050505050505050565b60006020820190508181036000830152613a86816132df565b9050919050565b60006020820190508181036000830152613aa68161331f565b9050919050565b60006020820190508181036000830152613ac68161335f565b9050919050565b60006020820190508181036000830152613ae68161339f565b9050919050565b60006040820190508181036000830152613b06816133df565b9050613b1560208301846130b5565b92915050565b60006060820190508181036000830152613b348161341f565b90508181036020830152613b4881856132a6565b90508181036040830152613b5c81846132a6565b90509392505050565b60006020820190508181036000830152613b7e8161345f565b9050919050565b60006020820190508181036000830152613b9e8161349f565b9050919050565b60006020820190508181036000830152613bbe816134df565b9050919050565b60006020820190508181036000830152613bde8161351f565b9050919050565b60006020820190508181036000830152613bfe8161355f565b9050919050565b60006020820190508181036000830152613c1e8161359f565b9050919050565b60006020820190508181036000830152613c3e816135df565b9050919050565b60006020820190508181036000830152613c5e8161361f565b9050919050565b60006020820190508181036000830152613c7e8161365f565b9050919050565b60006060820190508181036000830152613c9e8161369f565b9050613cad60208301856130f1565b613cba6040830184613240565b9392505050565b6000604051905081810181811067ffffffffffffffff82111715613ce857613ce7614103565b5b8060405250919050565b600067ffffffffffffffff821115613d0d57613d0c614103565b5b601f19601f8301169050602081019050919050565b6000819050602082019050919050565b6000819050602082019050919050565b6000819050602082019050919050565b600081519050919050565b600081519050919050565b600081519050919050565b600081519050919050565b6000602082019050919050565b6000602082019050919050565b6000602082019050919050565b600082825260208201905092915050565b600082825260208201905092915050565b600082825260208201905092915050565b600082825260208201905092915050565b600082825260208201905092915050565b6000613e0582613f2a565b9150613e1083613f2a565b9250827fffffffffffffffffffffffffffffffffffffffffffffffffffffffffffffffff03821115613e4557613e44614076565b5b828201905092915050565b6000613e5b82613f2a565b9150613e6683613f2a565b925082613e7657613e756140a5565b5b828204905092915050565b6000613e8c82613f2a565b9150613e9783613f2a565b925082821015613eaa57613ea9614076565b5b828203905092915050565b6000613ec082613f0a565b9050919050565b6000613ed282613f0a565b9050919050565b60008115159050919050565b6000819050919050565b60006effffffffffffffffffffffffffffff82169050919050565b600073ffffffffffffffffffffffffffffffffffffffff82169050919050565b6000819050919050565b600060ff82169050919050565b6000613f4c82613f53565b9050919050565b6000613f5e82613f65565b9050919050565b6000613f7082613f0a565b9050919050565b82818337600083830152505050565b60005b83811015613fa4578082015181840152602081019050613f89565b83811115613fb3576000848401525b50505050565b60006002820490506001821680613fd157607f821691505b60208210811415613fe557613fe46140d4565b5b50919050565b6000613ff682613eef565b91506effffffffffffffffffffffffffffff82141561401857614017614076565b5b600182019050919050565b600061402e82613f2a565b91507fffffffffffffffffffffffffffffffffffffffffffffffffffffffffffffffff82141561406157614060614076565b5b600182019050919050565b6000819050919050565b7f4e487b7100000000000000000000000000000000000000000000000000000000600052601160045260246000fd5b7f4e487b7100000000000000000000000000000000000000000000000000000000600052601260045260246000fd5b7f4e487b7100000000000000000000000000000000000000000000000000000000600052602260045260246000fd5b7f4e487b7100000000000000000000000000000000000000000000000000000000600052604160045260246000fd5b6000601f19601f8301169050919050565b61414c81613eb5565b811461415757600080fd5b50565b61416381613ed9565b811461416e57600080fd5b50565b61417a81613ee5565b811461418557600080fd5b50565b61419181613f2a565b811461419c57600080fd5b5056fea26469706673582212201631e54540bf8e2dc17e5a811808271e608b80c6c04dd7b3aa349c4f1ba2276264736f6c63430008000033",
  "immutableReferences": {},
  "source": "// SPDX-License-Identifier: MIT\npragma solidity >=0.8.0;\nimport \"@openzeppelin/contracts/utils/math/SafeMath.sol\";\n\n/// @title NotesMarketContract\n/// @author The name of the author\n/// @notice Explain to an end user what this does\n/// @dev Contract for selling and bying notes market\n\n/**\n@title \n */\ncontract NotesMarketContract {\n\n  using SafeMath for uint256;\n    using SafeMath for uint16;\n\n  bool private notesMarketIsClosed = false;\n  address payable private admin;\n\n  constructor(){\n    admin = payable(msg.sender);\n  }\n\n  Note[] public notesArr;\n  User[] public usersArr;\n\n  // List of notes indexed by note hash -> numerical id\n  mapping(bytes32 => uint) private notesHashes;\n\n  // List of notes indexed by ifps hash -> note id hash\n  mapping(bytes32 => bytes32) private IPFSHashes;\n\n  // List of users indexed by address\n  mapping(address => User) private users;\n\n  // List of all note purchase tokens\n  // for each note(noteHash), there is a collection of buyers' accessTokens(add -> accessToken)\n  mapping(bytes32 => mapping(address => bytes32)) private purchaseTokens;\n\n  // List of notes bought by users\n  mapping(address => bytes32[]) private boughtNotes;\n\n  // List of notes owned by users\n  mapping(address => bytes32[]) private ownedNotes;\n\n\n  // STRUCTS\n\n  // User -> buyer and/or seller\n  // Buy -> All users can buy notes\n  // Sell -> Just approved users can sell notes\n  struct User{\n    address userAddr;\n    bool seller; // Note owner\n    bool isSellerApproved; // Is approved to sell\n    uint8 exits;  \n  }\n\n  struct Note{\n    bytes32 noteHash; // note id hash\n    bytes32 IPFSHash; // note ipfs reference\n    uint id; // id - 1 -> position of bote in dynamic array\n    address payable owner; \n    uint256 price; // price in tokens\n    uint120 purchaseCount; // number of notes purchases\n    uint8 exits;\n    bool isApproved; // approved for sale\n    string title;\n    string description;\n    string author;\n  }\n\n  // EVENTS\n  event UserCreated(string message, address userAddress, bool isSeller);\n  event UserRemoved(string message);\n  event UserSellerApproved(string message);\n\n  event NoteAdded(string message, bytes32 indexed noteHash, string title, string author);\n  event NoteRemoved(string message);\n  event NotePriceUpdated(string message, uint256 price);\n  event NoteBought(string message, bytes32 indexed noteHash, address indexed buyer, address seller);\n\n\n  // MODIFIERS\n  modifier isAdmin(address userAddress){\n    require(userAddress == admin, \"Is not admin\");\n    _;\n  }\n  \n  modifier notesMarketIsOpen(){\n    require(notesMarketIsClosed == false, \"Notesmarket is closed by admin\" );\n    _;\n  }\n\n  modifier userExists(address userAddress){\n    require(users[userAddress].exits == 1, \"User doesn't exist\" );\n    _;\n  }\n\n  modifier isUserOrAdmin(address userAddress){\n     require(users[userAddress].exits == 1 || userAddress == admin, \"User doesn't exist\" );\n    _;\n  }\n\n  modifier isNoteOwnerOrAdmin(address userAddress, bytes32 noteHash){\n    uint noteId = notesHashes[noteHash];\n    require(userAddress == admin || userAddress == notesArr[noteId - 1].owner, \"Is not admin nor the note owner\");\n    _;\n  }\n\n  modifier doesNoteExist(bytes32 noteHash){\n    require(notesHashes[noteHash] != 0, \"Note doesn't exist\");\n    uint noteId = notesHashes[noteHash];\n    require(notesArr[noteId - 1].id != 0, \"Note doesn't exist\");\n    _;\n  }\n\n  modifier notPurchased(bytes32 noteHash){\n    uint noteId = notesHashes[noteHash];\n    require(notesArr[noteId - 1].purchaseCount == 0, \"Note has been purchased\");\n    _;\n  }\n\n  modifier canSellNotes(address userAddress){\n    require(users[userAddress].seller && users[userAddress].isSellerApproved, \"User can't sell notes\");\n    _;\n  }\n\n  modifier sufficientFunds(uint price){\n    require(price <= msg.sender.balance, \"insufficient funds\");\n    _;\n  }\n\n\n  // FUNCTIONS\n\n  /* NoteMarket */\n\n  function changeNotesMarketStatus() isAdmin(msg.sender) external{\n    notesMarketIsClosed = !notesMarketIsClosed;\n  }\n\n  /* Users */\n  \n  function addUser(bool isSeller) notesMarketIsOpen external{\n    require(users[msg.sender].exits == 0, \"User already registered\");\n\n    User memory user;\n\n    user.userAddr = msg.sender;\n    user.seller = isSeller;\n    user.isSellerApproved = false; // Is approved to sell\n    user.exits = 1;\n  \n    users[msg.sender] = user;\n    usersArr.push(user);\n\n    emit UserCreated(\"User successfully created\", msg.sender, isSeller);\n  }\n\n  function removeUser() userExists(msg.sender) external{\n    if(users[(msg.sender)].seller){\n      bytes32[] memory hashes = ownedNotes[msg.sender];\n\n      for (uint i = 0; i < hashes.length; i++) {\n        removeNote(hashes[i]);\n      }\n      delete ownedNotes[msg.sender];\n    }\n    delete users[msg.sender];\n\n    emit UserRemoved(\"User successfully deleted\");\n  }\n\n  function getUser() isUserOrAdmin(msg.sender) view external returns(bool _authStatus, bool _isSeller, bool _isAdmin, bool _isSellerApproved){\n      _authStatus = true;\n      _isSeller = users[msg.sender].seller;\n      _isSellerApproved = users[msg.sender].isSellerApproved;\n      if(msg.sender == admin) _isAdmin = true;\n  }\n\n\n  function approveSeller(address userAddress) notesMarketIsOpen isAdmin(msg.sender) userExists(userAddress) external{\n    if(users[userAddress].seller){\n      User storage user = users[userAddress];\n      user.isSellerApproved = true;\n      emit UserSellerApproved(\"User seller is approved for sell\");\n    }else{\n      revert(\"User is not a seller\");\n    }\n  }\n\n  function getAllUsers() isAdmin(msg.sender) view external returns (User[] memory){\n    User[] memory _users;\n    _users = usersArr;\n    return _users;\n  }\n\n  /* Notes */\n\n  function addNote(bytes32 _IPFShash, string memory _title, string memory _description, string memory _author, uint256 _price) \n    userExists(msg.sender) canSellNotes(msg.sender) external{\n\n    bytes32 _noteHash = IPFSHashes[_IPFShash];\n    uint _noteId = notesHashes[_noteHash];\n    require(_noteId == 0, \"Note already exists\");\n\n    uint newNoteId = notesArr.length + 1;\n\n    _noteHash = keccak256(abi.encodePacked(newNoteId));\n\n    notesHashes[_noteHash] = newNoteId;\n    IPFSHashes[_IPFShash] = _noteHash;\n    ownedNotes[msg.sender].push(_noteHash);\n\n    Note memory note;\n    \n    note.noteHash = _noteHash;\n    note.IPFSHash = _IPFShash;\n    note.id = newNoteId;\n    note.owner = payable(msg.sender);\n    note.price = _price; // wei\n    note.purchaseCount = 0;\n    note.exits = 1;\n    note.title = _title;\n    note.description = _description;\n    note.author = _author;\n    note.isApproved = true;\n\n    notesArr.push(note);\n\n    emit NoteAdded(\"Note successfully created\", _noteHash, _title, _author);\n  }\n\n  function removeNote(bytes32 noteHash) doesNoteExist(noteHash) notPurchased(noteHash) isNoteOwnerOrAdmin(msg.sender, noteHash) public{\n    delete notesHashes[noteHash];\n    emit NoteRemoved(\"User successfully deleted\");\n  }\n\n  function getAllNotes() userExists(msg.sender) view external returns (Note[] memory){\n    Note[] memory _notes;\n    _notes = notesArr;\n    return _notes;\n  }\n\n  function buyNote(bytes32 noteHash) notesMarketIsOpen userExists(msg.sender) doesNoteExist(noteHash) sufficientFunds(notesArr[notesHashes[noteHash] - 1].price) payable external {\n    uint noteId = notesHashes[noteHash];\n    Note memory note = notesArr[noteId - 1];\n    \n    address payable seller = note.owner;\n    \n    uint commissionFunds = note.price.div(100);\n    uint paymentToSeller = note.price.sub(commissionFunds);\n    //bytes32 accessToken = generateAccessToken(msg.sender, note.IPFSHash);\n    // store access token\n    //purchaseTokens[noteHash][msg.sender] = accessToken;\n    // keep note purchase\n    boughtNotes[msg.sender].push(noteHash);\n    note.purchaseCount ++;\n    notesArr[noteId - 1].purchaseCount = note.purchaseCount;\n\n    seller.transfer(paymentToSeller);\n    admin.transfer(commissionFunds);\n    \n    emit NoteBought(\"note bought\", noteHash, msg.sender, seller);\n\n  }\n\n  function getMyPurchasedNotes() userExists(msg.sender) view public returns(bytes32[] memory _boughtNotes){\n    _boughtNotes = boughtNotes[msg.sender];\n  }\n\n  function generateAccessToken(address userAddr, bytes32 IPFShash) private pure returns(bytes32) { //isAdmin(msg.sender)\n    bytes32 salt = \"S}7#%*SD30o7D\";\n    bytes32 accessToken = keccak256(abi.encodePacked(userAddr, IPFShash, salt));\n    return accessToken;\n  }\n\n  function getOwnedNotes() canSellNotes(msg.sender) userExists(msg.sender) view external returns(bytes32[] memory _ownedNotes){\n    _ownedNotes = ownedNotes[msg.sender];\n    for(uint i=0; i < _ownedNotes.length; i++){\n      // exclude the leftover hashes in state array map ownedNotes\n      if(notesHashes[_ownedNotes[i]] == 0){\n        delete _ownedNotes[i];\n      }\n    }\n  }\n\n  \n}\n",
  "sourcePath": "/Users/idoia/Documents/blockchain/blockchain-developer-bootcamp-final-project/contracts/NotesMarketContract.sol",
  "compiler": {
    "name": "solc",
    "version": "0.8.0+commit.c7dfd78e.Emscripten.clang"
  },
  "schemaVersion": "3.4.3",
  "updatedAt": "2021-11-27T21:25:06.682Z",
  "networkType": "ethereum",
  "devdoc": {
    "kind": "dev",
    "methods": {},
    "version": 1
  },
  "userdoc": {
    "kind": "user",
    "methods": {},
    "version": 1
  }
}