{
  "contractName": "NotesMarketContract",
  "abi": [
    {
      "inputs": [
        {
          "internalType": "uint8",
          "name": "minCommission",
          "type": "uint8"
        }
      ],
      "stateMutability": "nonpayable",
      "type": "constructor"
    },
    {
      "anonymous": false,
      "inputs": [
        {
          "indexed": false,
          "internalType": "string",
          "name": "message",
          "type": "string"
        },
        {
          "indexed": true,
          "internalType": "bytes32",
          "name": "noteHash",
          "type": "bytes32"
        },
        {
          "indexed": false,
          "internalType": "string",
          "name": "title",
          "type": "string"
        },
        {
          "indexed": false,
          "internalType": "string",
          "name": "author",
          "type": "string"
        }
      ],
      "name": "NoteAdded",
      "type": "event"
    },
    {
      "anonymous": false,
      "inputs": [
        {
          "indexed": false,
          "internalType": "string",
          "name": "message",
          "type": "string"
        },
        {
          "indexed": true,
          "internalType": "bytes32",
          "name": "noteHash",
          "type": "bytes32"
        },
        {
          "indexed": true,
          "internalType": "address",
          "name": "buyer",
          "type": "address"
        },
        {
          "indexed": false,
          "internalType": "address",
          "name": "seller",
          "type": "address"
        }
      ],
      "name": "NoteBought",
      "type": "event"
    },
    {
      "anonymous": false,
      "inputs": [
        {
          "indexed": false,
          "internalType": "string",
          "name": "message",
          "type": "string"
        },
        {
          "indexed": false,
          "internalType": "uint256",
          "name": "price",
          "type": "uint256"
        }
      ],
      "name": "NotePriceUpdated",
      "type": "event"
    },
    {
      "anonymous": false,
      "inputs": [
        {
          "indexed": false,
          "internalType": "string",
          "name": "message",
          "type": "string"
        }
      ],
      "name": "NoteRemoved",
      "type": "event"
    },
    {
      "anonymous": false,
      "inputs": [
        {
          "indexed": false,
          "internalType": "string",
          "name": "message",
          "type": "string"
        },
        {
          "indexed": false,
          "internalType": "address",
          "name": "userAddress",
          "type": "address"
        },
        {
          "indexed": false,
          "internalType": "bool",
          "name": "isNoteOwner",
          "type": "bool"
        }
      ],
      "name": "UserCreated",
      "type": "event"
    },
    {
      "anonymous": false,
      "inputs": [
        {
          "indexed": false,
          "internalType": "string",
          "name": "message",
          "type": "string"
        }
      ],
      "name": "UserRemoved",
      "type": "event"
    },
    {
      "anonymous": false,
      "inputs": [
        {
          "indexed": false,
          "internalType": "string",
          "name": "message",
          "type": "string"
        }
      ],
      "name": "UserSellerApproved",
      "type": "event"
    },
    {
      "inputs": [],
      "name": "usersCount",
      "outputs": [
        {
          "internalType": "uint256",
          "name": "",
          "type": "uint256"
        }
      ],
      "stateMutability": "view",
      "type": "function",
      "constant": true
    },
    {
      "inputs": [],
      "name": "changeNotesMarketStatus",
      "outputs": [],
      "stateMutability": "nonpayable",
      "type": "function"
    },
    {
      "inputs": [
        {
          "internalType": "bool",
          "name": "noteOwner",
          "type": "bool"
        }
      ],
      "name": "addUser",
      "outputs": [],
      "stateMutability": "nonpayable",
      "type": "function"
    },
    {
      "inputs": [],
      "name": "removeUser",
      "outputs": [],
      "stateMutability": "nonpayable",
      "type": "function"
    },
    {
      "inputs": [],
      "name": "getUser",
      "outputs": [
        {
          "internalType": "bool",
          "name": "_authStatus",
          "type": "bool"
        },
        {
          "internalType": "bool",
          "name": "_isSeller",
          "type": "bool"
        },
        {
          "internalType": "bool",
          "name": "_isAdmin",
          "type": "bool"
        }
      ],
      "stateMutability": "view",
      "type": "function",
      "constant": true
    },
    {
      "inputs": [
        {
          "internalType": "address",
          "name": "userAddress",
          "type": "address"
        }
      ],
      "name": "approveSeller",
      "outputs": [],
      "stateMutability": "nonpayable",
      "type": "function"
    },
    {
      "inputs": [
        {
          "internalType": "bytes32",
          "name": "_IPFShash",
          "type": "bytes32"
        },
        {
          "internalType": "string",
          "name": "_title",
          "type": "string"
        },
        {
          "internalType": "string",
          "name": "_author",
          "type": "string"
        },
        {
          "internalType": "uint256",
          "name": "_price",
          "type": "uint256"
        },
        {
          "internalType": "uint8",
          "name": "_commission",
          "type": "uint8"
        }
      ],
      "name": "addNote",
      "outputs": [],
      "stateMutability": "nonpayable",
      "type": "function"
    },
    {
      "inputs": [
        {
          "internalType": "bytes32",
          "name": "noteHash",
          "type": "bytes32"
        }
      ],
      "name": "removeNote",
      "outputs": [],
      "stateMutability": "nonpayable",
      "type": "function"
    }
  ],
  "bytecode": "0x608060405260008060006101000a81548160ff0219169083151502179055503480156200002b57600080fd5b5060405162002440380380620024408339818101604052810190620000519190620000cb565b33600060016101000a81548173ffffffffffffffffffffffffffffffffffffffff021916908373ffffffffffffffffffffffffffffffffffffffff16021790555080600260006101000a81548160ff021916908360ff160217905550506200011e565b600081519050620000c58162000104565b92915050565b600060208284031215620000de57600080fd5b6000620000ee84828501620000b4565b91505092915050565b600060ff82169050919050565b6200010f81620000f7565b81146200011b57600080fd5b50565b612312806200012e6000396000f3fe608060405234801561001057600080fd5b50600436106100885760003560e01c8063832880e71161005b578063832880e7146100ed578063b89e8e561461010d578063c35b28b214610129578063f944f4c71461014557610088565b8063358a7b201461008d5780635ec5d856146100a95780636ba13a82146100c55780637de524ac146100e3575b600080fd5b6100a760048036038101906100a2919061177f565b61014f565b005b6100c360048036038101906100be919061172d565b6104e3565b005b6100cd61078e565b6040516100da9190611f8a565b60405180910390f35b6100eb610794565b005b6100f561084f565b60405161010493929190611d0d565b60405180910390f35b610127600480360381019061012291906117a8565b6109f9565b005b610143600480360381019061013e9190611756565b611008565b005b61014d611276565b005b806000600360008381526020019081526020016000205414156101a7576040517f08c379a000000000000000000000000000000000000000000000000000000000815260040161019e90611e2e565b60405180910390fd5b6000600360008381526020019081526020016000205490506000600180836101cf91906120d2565b81548110610206577f4e487b7100000000000000000000000000000000000000000000000000000000600052603260045260246000fd5b9060005260206000209060060201600201541415610259576040517f08c379a000000000000000000000000000000000000000000000000000000000815260040161025090611e2e565b60405180910390fd5b8260006003600083815260200190815260200160002054905060006001808361028291906120d2565b815481106102b9577f4e487b7100000000000000000000000000000000000000000000000000000000600052603260045260246000fd5b906000526020600020906006020160050160009054906101000a90046effffffffffffffffffffffffffffff166effffffffffffffffffffffffffffff1614610337576040517f08c379a000000000000000000000000000000000000000000000000000000000815260040161032e90611da4565b60405180910390fd5b3385600060036000838152602001908152602001600020549050600060019054906101000a900473ffffffffffffffffffffffffffffffffffffffff1673ffffffffffffffffffffffffffffffffffffffff168373ffffffffffffffffffffffffffffffffffffffff16148061044e5750600180826103b691906120d2565b815481106103ed577f4e487b7100000000000000000000000000000000000000000000000000000000600052603260045260246000fd5b906000526020600020906006020160030160009054906101000a900473ffffffffffffffffffffffffffffffffffffffff1673ffffffffffffffffffffffffffffffffffffffff168373ffffffffffffffffffffffffffffffffffffffff16145b61048d576040517f08c379a000000000000000000000000000000000000000000000000000000000815260040161048490611dc4565b60405180910390fd5b60036000898152602001908152602001600020600090557fe41203db0fa61b8b33140f8fc1ca977ef1ae43ae15065035c505670c0b4e0ed56040516104d190611eae565b60405180910390a15050505050505050565b6000151560008054906101000a900460ff16151514610537576040517f08c379a000000000000000000000000000000000000000000000000000000000815260040161052e90611f0e565b60405180910390fd5b33600060019054906101000a900473ffffffffffffffffffffffffffffffffffffffff1673ffffffffffffffffffffffffffffffffffffffff168173ffffffffffffffffffffffffffffffffffffffff16146105c8576040517f08c379a00000000000000000000000000000000000000000000000000000000081526004016105bf90611d44565b60405180910390fd5b816001600560008373ffffffffffffffffffffffffffffffffffffffff1673ffffffffffffffffffffffffffffffffffffffff16815260200190815260200160002060000160169054906101000a900460ff1660ff161461065e576040517f08c379a000000000000000000000000000000000000000000000000000000000815260040161065590611eee565b60405180910390fd5b600560008473ffffffffffffffffffffffffffffffffffffffff1673ffffffffffffffffffffffffffffffffffffffff16815260200190815260200160002060000160149054906101000a900460ff161561074e576000600560008573ffffffffffffffffffffffffffffffffffffffff1673ffffffffffffffffffffffffffffffffffffffff168152602001908152602001600020905060018160000160156101000a81548160ff0219169083151502179055507fae937c810850c4277a17aeb7e8b138034e898dbb0a85b262eb9ea276fedc940560405161074090611e4e565b60405180910390a150610789565b6040517f08c379a000000000000000000000000000000000000000000000000000000000815260040161078090611d64565b60405180910390fd5b505050565b60065481565b33600060019054906101000a900473ffffffffffffffffffffffffffffffffffffffff1673ffffffffffffffffffffffffffffffffffffffff168173ffffffffffffffffffffffffffffffffffffffff1614610825576040517f08c379a000000000000000000000000000000000000000000000000000000000815260040161081c90611d44565b60405180910390fd5b60008054906101000a900460ff16156000806101000a81548160ff02191690831515021790555050565b6000806000336001600560008373ffffffffffffffffffffffffffffffffffffffff1673ffffffffffffffffffffffffffffffffffffffff16815260200190815260200160002060000160169054906101000a900460ff1660ff1614806109035750600060019054906101000a900473ffffffffffffffffffffffffffffffffffffffff1673ffffffffffffffffffffffffffffffffffffffff168173ffffffffffffffffffffffffffffffffffffffff16145b610942576040517f08c379a000000000000000000000000000000000000000000000000000000000815260040161093990611eee565b60405180910390fd5b60019350600560003373ffffffffffffffffffffffffffffffffffffffff1673ffffffffffffffffffffffffffffffffffffffff16815260200190815260200160002060000160149054906101000a900460ff169250600060019054906101000a900473ffffffffffffffffffffffffffffffffffffffff1673ffffffffffffffffffffffffffffffffffffffff163373ffffffffffffffffffffffffffffffffffffffff1614156109f357600191505b50909192565b336001600560008373ffffffffffffffffffffffffffffffffffffffff1673ffffffffffffffffffffffffffffffffffffffff16815260200190815260200160002060000160169054906101000a900460ff1660ff1614610a8f576040517f08c379a0000000000000000000000000000000000000000000000000000000008152600401610a8690611eee565b60405180910390fd5b33600560008273ffffffffffffffffffffffffffffffffffffffff1673ffffffffffffffffffffffffffffffffffffffff16815260200190815260200160002060000160149054906101000a900460ff168015610b385750600560008273ffffffffffffffffffffffffffffffffffffffff1673ffffffffffffffffffffffffffffffffffffffff16815260200190815260200160002060000160159054906101000a900460ff165b610b77576040517f08c379a0000000000000000000000000000000000000000000000000000000008152600401610b6e90611e6e565b60405180910390fd5b8260008160ff1610158015610b90575060648160ff1611155b610bcf576040517f08c379a0000000000000000000000000000000000000000000000000000000008152600401610bc690611d84565b60405180910390fd5b600260009054906101000a900460ff1660ff168160ff161015610c27576040517f08c379a0000000000000000000000000000000000000000000000000000000008152600401610c1e90611f6a565b60405180910390fd5b6000600460008a815260200190815260200160002054905060006003600083815260200190815260200160002054905060008114610c9a576040517f08c379a0000000000000000000000000000000000000000000000000000000008152600401610c9190611e8e565b60405180910390fd5b6000600260009054906101000a900460ff1660ff168760ff1610610cbd57600190505b6000610cda8860ff16606461ffff1661158690919063ffffffff16565b9050600060018080549050610cef9190612022565b905080604051602001610d029190611cf2565b60405160208183030381529060405280519060200120945080600360008781526020019081526020016000208190555084600460008f815260200190815260200160002081905550600960003373ffffffffffffffffffffffffffffffffffffffff1673ffffffffffffffffffffffffffffffffffffffff168152602001908152602001600020859080600181540180825580915050600190039060005260206000200160009091909190915055610db861159c565b858160000181815250508d8160200181815250508181604001818152505033816060019073ffffffffffffffffffffffffffffffffffffffff16908173ffffffffffffffffffffffffffffffffffffffff16815250508a81608001818152505060008160a001906effffffffffffffffffffffffffffff1690816effffffffffffffffffffffffffffff1681525050828160c0019061ffff16908161ffff168152505060018160e0019060ff16908160ff16815250508381610100019015159081151581525050600181908060018154018082558091505060019003906000526020600020906006020160009091909190915060008201518160000155602082015181600101556040820151816002015560608201518160030160006101000a81548173ffffffffffffffffffffffffffffffffffffffff021916908373ffffffffffffffffffffffffffffffffffffffff1602179055506080820151816004015560a08201518160050160006101000a8154816effffffffffffffffffffffffffffff02191690836effffffffffffffffffffffffffffff16021790555060c082015181600501600f6101000a81548161ffff021916908361ffff16021790555060e08201518160050160116101000a81548160ff021916908360ff1602179055506101008201518160050160126101000a81548160ff0219169083151502179055505050857f61f7b06099d9d6c81bb3b480f2051f0190d343d909af3bdc90ff6b86cd83de588e8e604051610ff0929190611de4565b60405180910390a25050505050505050505050505050565b6000151560008054906101000a900460ff1615151461105c576040517f08c379a000000000000000000000000000000000000000000000000000000000815260040161105390611f0e565b60405180910390fd5b6000600560003373ffffffffffffffffffffffffffffffffffffffff1673ffffffffffffffffffffffffffffffffffffffff16815260200190815260200160002060000160169054906101000a900460ff1660ff16146110f1576040517f08c379a00000000000000000000000000000000000000000000000000000000081526004016110e890611ece565b60405180910390fd5b6000806001905060405180608001604052803373ffffffffffffffffffffffffffffffffffffffff168152602001841515815260200183151581526020018260ff16815250600560003373ffffffffffffffffffffffffffffffffffffffff1673ffffffffffffffffffffffffffffffffffffffff16815260200190815260200160002060008201518160000160006101000a81548173ffffffffffffffffffffffffffffffffffffffff021916908373ffffffffffffffffffffffffffffffffffffffff16021790555060208201518160000160146101000a81548160ff02191690831515021790555060408201518160000160156101000a81548160ff02191690831515021790555060608201518160000160166101000a81548160ff021916908360ff16021790555090505060066000815480929190611233906121a7565b91905055507f6ed7fd9c095d25702b515b4fc3c80ddda04a36adc0a6619c93fe1a306784f51e3384604051611269929190611f2e565b60405180910390a1505050565b336001600560008373ffffffffffffffffffffffffffffffffffffffff1673ffffffffffffffffffffffffffffffffffffffff16815260200190815260200160002060000160169054906101000a900460ff1660ff161461130c576040517f08c379a000000000000000000000000000000000000000000000000000000000815260040161130390611eee565b60405180910390fd5b600560003373ffffffffffffffffffffffffffffffffffffffff1673ffffffffffffffffffffffffffffffffffffffff16815260200190815260200160002060000160149054906101000a900460ff16156114a9576000600960003373ffffffffffffffffffffffffffffffffffffffff1673ffffffffffffffffffffffffffffffffffffffff1681526020019081526020016000208054806020026020016040519081016040528092919081815260200182805480156113ec57602002820191906000526020600020905b8154815260200190600101908083116113d8575b5050505050905060005b815181101561145b5761144882828151811061143b577f4e487b7100000000000000000000000000000000000000000000000000000000600052603260045260246000fd5b602002602001015161014f565b8080611453906121a7565b9150506113f6565b50600960003373ffffffffffffffffffffffffffffffffffffffff1673ffffffffffffffffffffffffffffffffffffffff16815260200190815260200160002060006114a7919061161e565b505b600560003373ffffffffffffffffffffffffffffffffffffffff1673ffffffffffffffffffffffffffffffffffffffff168152602001908152602001600020600080820160006101000a81549073ffffffffffffffffffffffffffffffffffffffff02191690556000820160146101000a81549060ff02191690556000820160156101000a81549060ff02191690556000820160166101000a81549060ff021916905550507f5b8514bf599ab0e7b72a3b2d47ae13677daa88ebbf833cea7bad37b6df49ede360405161157b90611eae565b60405180910390a150565b600081836115949190612078565b905092915050565b604051806101200160405280600080191681526020016000801916815260200160008152602001600073ffffffffffffffffffffffffffffffffffffffff1681526020016000815260200160006effffffffffffffffffffffffffffff168152602001600061ffff168152602001600060ff1681526020016000151581525090565b508054600082559060005260206000209081019061163c919061163f565b50565b5b80821115611658576000816000905550600101611640565b5090565b600061166f61166a84611fd6565b611fa5565b90508281526020810184848401111561168757600080fd5b611692848285612165565b509392505050565b6000813590506116a981612269565b92915050565b6000813590506116be81612280565b92915050565b6000813590506116d381612297565b92915050565b600082601f8301126116ea57600080fd5b81356116fa84826020860161165c565b91505092915050565b600081359050611712816122ae565b92915050565b600081359050611727816122c5565b92915050565b60006020828403121561173f57600080fd5b600061174d8482850161169a565b91505092915050565b60006020828403121561176857600080fd5b6000611776848285016116af565b91505092915050565b60006020828403121561179157600080fd5b600061179f848285016116c4565b91505092915050565b600080600080600060a086880312156117c057600080fd5b60006117ce888289016116c4565b955050602086013567ffffffffffffffff8111156117eb57600080fd5b6117f7888289016116d9565b945050604086013567ffffffffffffffff81111561181457600080fd5b611820888289016116d9565b935050606061183188828901611703565b925050608061184288828901611718565b9150509295509295909350565b61185881612106565b82525050565b61186781612118565b82525050565b600061187882612006565b6118828185612011565b9350611892818560208601612174565b61189b81612258565b840191505092915050565b60006118b3600c83612011565b91507f4973206e6f742061646d696e00000000000000000000000000000000000000006000830152602082019050919050565b60006118f3601483612011565b91507f55736572206973206e6f7420612073656c6c65720000000000000000000000006000830152602082019050919050565b6000611933602483612011565b91507f436f6d6d697373696f6e206d757374206265206265747765656e203020616e6460008301527f20313030000000000000000000000000000000000000000000000000000000006020830152604082019050919050565b6000611999601783612011565b91507f4e6f746520686173206265656e207075726368617365640000000000000000006000830152602082019050919050565b60006119d9601f83612011565b91507f4973206e6f742061646d696e206e6f7220746865206e6f7465206f776e6572006000830152602082019050919050565b6000611a19601983612011565b91507f4e6f7465207375636365737366756c6c792063726561746564000000000000006000830152602082019050919050565b6000611a59601283612011565b91507f4e6f746520646f65736e277420657869737400000000000000000000000000006000830152602082019050919050565b6000611a99602083612011565b91507f557365722073656c6c657220697320617070726f76656420666f722073656c6c6000830152602082019050919050565b6000611ad9601583612011565b91507f557365722063616e27742073656c6c206e6f74657300000000000000000000006000830152602082019050919050565b6000611b19601383612011565b91507f4e6f746520616c726561647920657869737473000000000000000000000000006000830152602082019050919050565b6000611b59601983612011565b91507f55736572207375636365737366756c6c792064656c65746564000000000000006000830152602082019050919050565b6000611b99601783612011565b91507f5573657220616c726561647920726567697374657265640000000000000000006000830152602082019050919050565b6000611bd9601283612011565b91507f5573657220646f65736e277420657869737400000000000000000000000000006000830152602082019050919050565b6000611c19601e83612011565b91507f4e6f7465736d61726b657420697320636c6f7365642062792061646d696e00006000830152602082019050919050565b6000611c59601983612011565b91507f55736572207375636365737366756c6c792063726561746564000000000000006000830152602082019050919050565b6000611c99601983612011565b91507f436f6d6d697373696f6e2069732073657420746f6f206c6f77000000000000006000830152602082019050919050565b611cd58161214e565b82525050565b611cec611ce78261214e565b6121f0565b82525050565b6000611cfe8284611cdb565b60208201915081905092915050565b6000606082019050611d22600083018661185e565b611d2f602083018561185e565b611d3c604083018461185e565b949350505050565b60006020820190508181036000830152611d5d816118a6565b9050919050565b60006020820190508181036000830152611d7d816118e6565b9050919050565b60006020820190508181036000830152611d9d81611926565b9050919050565b60006020820190508181036000830152611dbd8161198c565b9050919050565b60006020820190508181036000830152611ddd816119cc565b9050919050565b60006060820190508181036000830152611dfd81611a0c565b90508181036020830152611e11818561186d565b90508181036040830152611e25818461186d565b90509392505050565b60006020820190508181036000830152611e4781611a4c565b9050919050565b60006020820190508181036000830152611e6781611a8c565b9050919050565b60006020820190508181036000830152611e8781611acc565b9050919050565b60006020820190508181036000830152611ea781611b0c565b9050919050565b60006020820190508181036000830152611ec781611b4c565b9050919050565b60006020820190508181036000830152611ee781611b8c565b9050919050565b60006020820190508181036000830152611f0781611bcc565b9050919050565b60006020820190508181036000830152611f2781611c0c565b9050919050565b60006060820190508181036000830152611f4781611c4c565b9050611f56602083018561184f565b611f63604083018461185e565b9392505050565b60006020820190508181036000830152611f8381611c8c565b9050919050565b6000602082019050611f9f6000830184611ccc565b92915050565b6000604051905081810181811067ffffffffffffffff82111715611fcc57611fcb612229565b5b8060405250919050565b600067ffffffffffffffff821115611ff157611ff0612229565b5b601f19601f8301169050602081019050919050565b600081519050919050565b600082825260208201905092915050565b600061202d8261214e565b91506120388361214e565b9250827fffffffffffffffffffffffffffffffffffffffffffffffffffffffffffffffff0382111561206d5761206c6121fa565b5b828201905092915050565b60006120838261214e565b915061208e8361214e565b9250817fffffffffffffffffffffffffffffffffffffffffffffffffffffffffffffffff04831182151516156120c7576120c66121fa565b5b828202905092915050565b60006120dd8261214e565b91506120e88361214e565b9250828210156120fb576120fa6121fa565b5b828203905092915050565b60006121118261212e565b9050919050565b60008115159050919050565b6000819050919050565b600073ffffffffffffffffffffffffffffffffffffffff82169050919050565b6000819050919050565b600060ff82169050919050565b82818337600083830152505050565b60005b83811015612192578082015181840152602081019050612177565b838111156121a1576000848401525b50505050565b60006121b28261214e565b91507fffffffffffffffffffffffffffffffffffffffffffffffffffffffffffffffff8214156121e5576121e46121fa565b5b600182019050919050565b6000819050919050565b7f4e487b7100000000000000000000000000000000000000000000000000000000600052601160045260246000fd5b7f4e487b7100000000000000000000000000000000000000000000000000000000600052604160045260246000fd5b6000601f19601f8301169050919050565b61227281612106565b811461227d57600080fd5b50565b61228981612118565b811461229457600080fd5b50565b6122a081612124565b81146122ab57600080fd5b50565b6122b78161214e565b81146122c257600080fd5b50565b6122ce81612158565b81146122d957600080fd5b5056fea264697066735822122081b9a941f59139cefa0bbbea7cb44ba5d7ed662a27531baf4414ccb8551692b764736f6c63430008000033",
  "immutableReferences": {},
  "source": "// SPDX-License-Identifier: MIT\npragma solidity >=0.8.0;\nimport \"@openzeppelin/contracts/utils/math/SafeMath.sol\";\n\n/// @title NotesMarketContract\n/// @author The name of the author\n/// @notice Explain to an end user what this does\n/// @dev Contract for selling and bying notes market\n\n/**\n@title \n */\ncontract NotesMarketContract {\n\n  using SafeMath for uint256;\n    using SafeMath for uint16;\n\n  bool private notesMarketIsClosed = false;\n  address payable private admin;\n\n  constructor(uint8 minCommission){\n    admin = payable(msg.sender);\n    notesMarketMinCommission = minCommission;\n  }\n\n  Note[] private notesArr;\n\n  uint8 private notesMarketMinCommission;\n\n  // List of notes indexed by note hash -> numerical id\n  mapping(bytes32 => uint) private notesHashes;\n\n  // List of notes indexed by ifps hash -> note id hash\n  mapping(bytes32 => bytes32) private IPFSHashes;\n\n  // List of users indexed by address\n  mapping(address => User) private users;\n  uint public usersCount;\n\n  // List of all note purchase tokens\n  // for each note(noteHash), there is a collection of buyers' accessTokens(add -> accessToken)\n  mapping(bytes32 => mapping(address => bytes32)) private purchaseTokens;\n\n  // List of notes bought by users\n  mapping(address => bytes32[]) private boughtNotes;\n\n  // List of notes owned by users\n  mapping(address => bytes32[]) private ownedNotes;\n\n\n  // STRUCTS\n\n  // User -> buyer and/or seller\n  // Buy -> All users can buy notes\n  // Sell -> Just approved users can sell notes\n  struct User{\n    address userAddr;\n    bool seller; // Note owner\n    bool isSellerApproved; // Is approved to sell\n    uint8 exits;  \n  }\n\n  struct Note{\n    bytes32 noteHash; // note id hash\n    bytes32 IPFSHash; // note ipfs reference\n    uint id; // id - 1 -> position of bote in dynamic array\n    address payable owner; \n    uint256 price; // price in tokens\n    uint120 purchaseCount; // number of notes purchases\n      // percentage 0-100 commission to store\n      // 10000th (10% -> 1000) to keep 2dp\n    uint16 commission;\n    uint8 exits;\n    bool isApproved; // approved for sale\n  }\n\n  // EVENTS\n  event UserCreated(string message, address userAddress, bool isNoteOwner);\n  event UserRemoved(string message);\n  event UserSellerApproved(string message);\n\n  event NoteAdded(string message, bytes32 indexed noteHash, string title, string author);\n  event NoteRemoved(string message);\n  event NotePriceUpdated(string message, uint256 price);\n  event NoteBought(string message, bytes32 indexed noteHash, address indexed buyer, address seller);\n\n\n  // MODIFIERS\n  modifier isAdmin(address userAddress){\n    require(userAddress == admin, \"Is not admin\");\n    _;\n  }\n  \n  modifier notesMarketIsOpen(){\n    require(notesMarketIsClosed == false, \"Notesmarket is closed by admin\" );\n    _;\n  }\n\n  modifier userExists(address userAddress){\n    require(users[userAddress].exits == 1, \"User doesn't exist\" );\n    _;\n  }\n\n  modifier isUserOrAdmin(address userAddress){\n     require(users[userAddress].exits == 1 || userAddress == admin, \"User doesn't exist\" );\n    _;\n  }\n\n  modifier isNoteOwnerOrAdmin(address userAddress, bytes32 noteHash){\n    uint noteId = notesHashes[noteHash];\n    require(userAddress == admin || userAddress == notesArr[noteId - 1].owner, \"Is not admin nor the note owner\");\n    _;\n  }\n\n  modifier doesNoteExist(bytes32 noteHash){\n    require(notesHashes[noteHash] != 0, \"Note doesn't exist\");\n    uint noteId = notesHashes[noteHash];\n    require(notesArr[noteId - 1].id != 0, \"Note doesn't exist\");\n    _;\n  }\n\n  modifier notPurchased(bytes32 noteHash){\n    uint noteId = notesHashes[noteHash];\n    require(notesArr[noteId - 1].purchaseCount == 0, \"Note has been purchased\");\n    _;\n  }\n\n  modifier canSellNotes(address userAddress){\n    require(users[userAddress].seller && users[userAddress].isSellerApproved, \"User can't sell notes\");\n    _;\n  }\n\n  modifier validCommission(uint8 commission){\n    require(commission >=0 && commission <= 100, \"Commission must be between 0 and 100\");\n    require(commission >= notesMarketMinCommission, \"Commission is set too low\");\n    _;\n  }\n\n\n  // FUNCTIONS\n\n  /* NoteMarket */\n\n  function changeNotesMarketStatus() isAdmin(msg.sender) external{\n    notesMarketIsClosed = !notesMarketIsClosed;\n  }\n\n  /* Users */\n  \n  function addUser(bool noteOwner) notesMarketIsOpen external{\n    require(users[msg.sender].exits == 0, \"User already registered\");\n\n    bool isSellerApproved = false;\n    uint8 exists = 1;\n\n    users[msg.sender] = User(msg.sender, noteOwner, isSellerApproved, exists);\n    usersCount ++;\n\n    emit UserCreated(\"User successfully created\", msg.sender, noteOwner);\n  }\n\n  function removeUser() userExists(msg.sender) external{\n    if(users[(msg.sender)].seller){\n      bytes32[] memory hashes = ownedNotes[msg.sender];\n\n      for (uint i = 0; i < hashes.length; i++) {\n        removeNote(hashes[i]);\n      }\n      delete ownedNotes[msg.sender];\n    }\n    delete users[msg.sender];\n\n    emit UserRemoved(\"User successfully deleted\");\n  }\n\n  function getUser() isUserOrAdmin(msg.sender) view external returns(bool _authStatus, bool _isSeller, bool _isAdmin){\n      _authStatus = true;\n      _isSeller = users[msg.sender].seller;\n      if(msg.sender == admin) _isAdmin = true;\n  }\n\n\n  function approveSeller(address userAddress) notesMarketIsOpen isAdmin(msg.sender) userExists(userAddress) external{\n    if(users[userAddress].seller){\n      User storage user = users[userAddress];\n      user.isSellerApproved = true;\n      emit UserSellerApproved(\"User seller is approved for sell\");\n    }else{\n      revert(\"User is not a seller\");\n    }\n  }\n\n  /* Notes */\n\n  function addNote(bytes32 _IPFShash, string memory _title, string memory _author, uint256 _price, uint8 _commission) \n    userExists(msg.sender) canSellNotes(msg.sender) validCommission(_commission) external{\n\n    bytes32 _noteHash = IPFSHashes[_IPFShash];\n    uint _noteId = notesHashes[_noteHash];\n    require(_noteId == 0, \"Note already exists\");\n\n    bool isApproved;\n\n    if(_commission >= notesMarketMinCommission){\n      isApproved = true;\n    }\n\n    uint commission = uint16(100).mul(_commission);\n    uint newNoteId = notesArr.length + 1;\n\n    _noteHash = keccak256(abi.encodePacked(newNoteId));\n\n    notesHashes[_noteHash] = newNoteId;\n    IPFSHashes[_IPFShash] = _noteHash;\n    ownedNotes[msg.sender].push(_noteHash);\n\n    Note memory note;\n    \n    note.noteHash = _noteHash;\n    note.IPFSHash = _IPFShash;\n    note.id = newNoteId;\n    note.owner = payable(msg.sender);\n    note.price = _price;\n    note.purchaseCount = 0;\n    note.commission = uint16(commission);\n    note.exits = 1;\n    note.isApproved = isApproved;\n\n    notesArr.push(note);\n\n    emit NoteAdded(\"Note successfully created\", _noteHash, _title, _author);\n  }\n\n  function removeNote(bytes32 noteHash) doesNoteExist(noteHash) notPurchased(noteHash) isNoteOwnerOrAdmin(msg.sender, noteHash) public{\n    delete notesHashes[noteHash];\n    emit NoteRemoved(\"User successfully deleted\");\n  }\n\n\n}\n",
  "sourcePath": "/Users/idoia/Documents/blockchain/blockchain-developer-bootcamp-final-project/contracts/NotesMarketContract.sol",
  "compiler": {
    "name": "solc",
    "version": "0.8.0+commit.c7dfd78e.Emscripten.clang"
  },
  "schemaVersion": "3.4.3",
  "updatedAt": "2021-11-15T18:51:28.885Z",
  "networkType": "ethereum",
  "devdoc": {
    "kind": "dev",
    "methods": {},
    "version": 1
  },
  "userdoc": {
    "kind": "user",
    "methods": {},
    "version": 1
  }
}