{
  "contractName": "NotesMarketContract",
  "abi": [
    {
      "inputs": [
        {
          "internalType": "uint8",
          "name": "minCommission",
          "type": "uint8"
        }
      ],
      "stateMutability": "nonpayable",
      "type": "constructor"
    },
    {
      "anonymous": false,
      "inputs": [
        {
          "indexed": false,
          "internalType": "string",
          "name": "message",
          "type": "string"
        },
        {
          "indexed": true,
          "internalType": "bytes32",
          "name": "noteHash",
          "type": "bytes32"
        },
        {
          "indexed": false,
          "internalType": "string",
          "name": "title",
          "type": "string"
        },
        {
          "indexed": false,
          "internalType": "string",
          "name": "author",
          "type": "string"
        }
      ],
      "name": "NoteAdded",
      "type": "event"
    },
    {
      "anonymous": false,
      "inputs": [
        {
          "indexed": false,
          "internalType": "string",
          "name": "message",
          "type": "string"
        },
        {
          "indexed": true,
          "internalType": "bytes32",
          "name": "noteHash",
          "type": "bytes32"
        },
        {
          "indexed": true,
          "internalType": "address",
          "name": "buyer",
          "type": "address"
        },
        {
          "indexed": false,
          "internalType": "address",
          "name": "seller",
          "type": "address"
        }
      ],
      "name": "NoteBought",
      "type": "event"
    },
    {
      "anonymous": false,
      "inputs": [
        {
          "indexed": false,
          "internalType": "string",
          "name": "message",
          "type": "string"
        },
        {
          "indexed": false,
          "internalType": "uint256",
          "name": "price",
          "type": "uint256"
        }
      ],
      "name": "NotePriceUpdated",
      "type": "event"
    },
    {
      "anonymous": false,
      "inputs": [
        {
          "indexed": false,
          "internalType": "string",
          "name": "message",
          "type": "string"
        }
      ],
      "name": "NoteRemoved",
      "type": "event"
    },
    {
      "anonymous": false,
      "inputs": [
        {
          "indexed": false,
          "internalType": "string",
          "name": "message",
          "type": "string"
        },
        {
          "indexed": false,
          "internalType": "address",
          "name": "userAddress",
          "type": "address"
        },
        {
          "indexed": false,
          "internalType": "bool",
          "name": "isNoteOwner",
          "type": "bool"
        }
      ],
      "name": "UserCreated",
      "type": "event"
    },
    {
      "anonymous": false,
      "inputs": [
        {
          "indexed": false,
          "internalType": "string",
          "name": "message",
          "type": "string"
        }
      ],
      "name": "UserRemoved",
      "type": "event"
    },
    {
      "anonymous": false,
      "inputs": [
        {
          "indexed": false,
          "internalType": "string",
          "name": "message",
          "type": "string"
        }
      ],
      "name": "UserSellerApproved",
      "type": "event"
    },
    {
      "inputs": [
        {
          "internalType": "uint256",
          "name": "",
          "type": "uint256"
        }
      ],
      "name": "notesArr",
      "outputs": [
        {
          "internalType": "bytes32",
          "name": "noteHash",
          "type": "bytes32"
        },
        {
          "internalType": "bytes32",
          "name": "IPFSHash",
          "type": "bytes32"
        },
        {
          "internalType": "uint256",
          "name": "id",
          "type": "uint256"
        },
        {
          "internalType": "address payable",
          "name": "owner",
          "type": "address"
        },
        {
          "internalType": "uint256",
          "name": "price",
          "type": "uint256"
        },
        {
          "internalType": "uint120",
          "name": "purchaseCount",
          "type": "uint120"
        },
        {
          "internalType": "uint16",
          "name": "commission",
          "type": "uint16"
        },
        {
          "internalType": "uint8",
          "name": "exits",
          "type": "uint8"
        },
        {
          "internalType": "bool",
          "name": "isApproved",
          "type": "bool"
        },
        {
          "internalType": "string",
          "name": "title",
          "type": "string"
        },
        {
          "internalType": "string",
          "name": "author",
          "type": "string"
        }
      ],
      "stateMutability": "view",
      "type": "function",
      "constant": true
    },
    {
      "inputs": [],
      "name": "usersCount",
      "outputs": [
        {
          "internalType": "uint256",
          "name": "",
          "type": "uint256"
        }
      ],
      "stateMutability": "view",
      "type": "function",
      "constant": true
    },
    {
      "inputs": [],
      "name": "changeNotesMarketStatus",
      "outputs": [],
      "stateMutability": "nonpayable",
      "type": "function"
    },
    {
      "inputs": [
        {
          "internalType": "bool",
          "name": "noteOwner",
          "type": "bool"
        }
      ],
      "name": "addUser",
      "outputs": [],
      "stateMutability": "nonpayable",
      "type": "function"
    },
    {
      "inputs": [],
      "name": "removeUser",
      "outputs": [],
      "stateMutability": "nonpayable",
      "type": "function"
    },
    {
      "inputs": [],
      "name": "getUser",
      "outputs": [
        {
          "internalType": "bool",
          "name": "_authStatus",
          "type": "bool"
        },
        {
          "internalType": "bool",
          "name": "_isSeller",
          "type": "bool"
        },
        {
          "internalType": "bool",
          "name": "_isAdmin",
          "type": "bool"
        }
      ],
      "stateMutability": "view",
      "type": "function",
      "constant": true
    },
    {
      "inputs": [
        {
          "internalType": "address",
          "name": "userAddress",
          "type": "address"
        }
      ],
      "name": "approveSeller",
      "outputs": [],
      "stateMutability": "nonpayable",
      "type": "function"
    },
    {
      "inputs": [
        {
          "internalType": "bytes32",
          "name": "_IPFShash",
          "type": "bytes32"
        },
        {
          "internalType": "string",
          "name": "_title",
          "type": "string"
        },
        {
          "internalType": "string",
          "name": "_author",
          "type": "string"
        },
        {
          "internalType": "uint256",
          "name": "_price",
          "type": "uint256"
        },
        {
          "internalType": "uint8",
          "name": "_commission",
          "type": "uint8"
        }
      ],
      "name": "addNote",
      "outputs": [],
      "stateMutability": "nonpayable",
      "type": "function"
    },
    {
      "inputs": [
        {
          "internalType": "bytes32",
          "name": "noteHash",
          "type": "bytes32"
        }
      ],
      "name": "removeNote",
      "outputs": [],
      "stateMutability": "nonpayable",
      "type": "function"
    },
    {
      "inputs": [],
      "name": "getAllNotes",
      "outputs": [
        {
          "components": [
            {
              "internalType": "bytes32",
              "name": "noteHash",
              "type": "bytes32"
            },
            {
              "internalType": "bytes32",
              "name": "IPFSHash",
              "type": "bytes32"
            },
            {
              "internalType": "uint256",
              "name": "id",
              "type": "uint256"
            },
            {
              "internalType": "address payable",
              "name": "owner",
              "type": "address"
            },
            {
              "internalType": "uint256",
              "name": "price",
              "type": "uint256"
            },
            {
              "internalType": "uint120",
              "name": "purchaseCount",
              "type": "uint120"
            },
            {
              "internalType": "uint16",
              "name": "commission",
              "type": "uint16"
            },
            {
              "internalType": "uint8",
              "name": "exits",
              "type": "uint8"
            },
            {
              "internalType": "bool",
              "name": "isApproved",
              "type": "bool"
            },
            {
              "internalType": "string",
              "name": "title",
              "type": "string"
            },
            {
              "internalType": "string",
              "name": "author",
              "type": "string"
            }
          ],
          "internalType": "struct NotesMarketContract.Note[]",
          "name": "",
          "type": "tuple[]"
        }
      ],
      "stateMutability": "view",
      "type": "function",
      "constant": true
    },
    {
      "inputs": [
        {
          "internalType": "bytes32",
          "name": "noteHash",
          "type": "bytes32"
        }
      ],
      "name": "buyNote",
      "outputs": [],
      "stateMutability": "payable",
      "type": "function",
      "payable": true
    },
    {
      "inputs": [],
      "name": "getMyPurchasedNotes",
      "outputs": [
        {
          "internalType": "bytes32[]",
          "name": "_boughtNotes",
          "type": "bytes32[]"
        }
      ],
      "stateMutability": "view",
      "type": "function",
      "constant": true
    },
    {
      "inputs": [],
      "name": "getOwnedNotes",
      "outputs": [
        {
          "internalType": "bytes32[]",
          "name": "_ownedNotes",
          "type": "bytes32[]"
        }
      ],
      "stateMutability": "view",
      "type": "function",
      "constant": true
    }
  ],
  "bytecode": "0x608060405260008060006101000a81548160ff0219169083151502179055503480156200002b57600080fd5b5060405162004011380380620040118339818101604052810190620000519190620000cb565b33600060016101000a81548173ffffffffffffffffffffffffffffffffffffffff021916908373ffffffffffffffffffffffffffffffffffffffff16021790555080600260006101000a81548160ff021916908360ff160217905550506200011e565b600081519050620000c58162000104565b92915050565b600060208284031215620000de57600080fd5b6000620000ee84828501620000b4565b91505092915050565b600060ff82169050919050565b6200010f81620000f7565b81146200011b57600080fd5b50565b613ee3806200012e6000396000f3fe6080604052600436106100c25760003560e01c80637de524ac1161007f578063c35b28b211610059578063c35b28b21461023f578063d32fe58314610268578063de8f430c14610293578063f944f4c7146102be576100c2565b80637de524ac146101d2578063832880e7146101e9578063b89e8e5614610216576100c2565b80632d731b69146100c7578063358a7b20146100f25780634367fc031461011b5780635ec5d85614610162578063678fc4591461018b5780636ba13a82146101a7575b600080fd5b3480156100d357600080fd5b506100dc6102d5565b6040516100e991906135a3565b60405180910390f35b3480156100fe57600080fd5b5061011960048036038101906101149190612c10565b6105af565b005b34801561012757600080fd5b50610142600480360381019061013d9190612ce0565b610943565b6040516101599b9a9998979695949392919061361e565b60405180910390f35b34801561016e57600080fd5b5061018960048036038101906101849190612bbe565b610b20565b005b6101a560048036038101906101a09190612c10565b610dcb565b005b3480156101b357600080fd5b506101bc611628565b6040516101c9919061396b565b60405180910390f35b3480156101de57600080fd5b506101e761162e565b005b3480156101f557600080fd5b506101fe6116e9565b60405161020d939291906135e7565b60405180910390f35b34801561022257600080fd5b5061023d60048036038101906102389190612c39565b611893565b005b34801561024b57600080fd5b5061026660048036038101906102619190612be7565b611ef2565b005b34801561027457600080fd5b5061027d612160565b60405161028a91906135a3565b60405180910390f35b34801561029f57600080fd5b506102a861228c565b6040516102b591906135c5565b60405180910390f35b3480156102ca57600080fd5b506102d36125ca565b005b606033600560008273ffffffffffffffffffffffffffffffffffffffff1673ffffffffffffffffffffffffffffffffffffffff16815260200190815260200160002060000160149054906101000a900460ff1680156103805750600560008273ffffffffffffffffffffffffffffffffffffffff1673ffffffffffffffffffffffffffffffffffffffff16815260200190815260200160002060000160159054906101000a900460ff165b6103bf576040517f08c379a00000000000000000000000000000000000000000000000000000000081526004016103b69061382f565b60405180910390fd5b336001600560008373ffffffffffffffffffffffffffffffffffffffff1673ffffffffffffffffffffffffffffffffffffffff16815260200190815260200160002060000160169054906101000a900460ff1660ff1614610455576040517f08c379a000000000000000000000000000000000000000000000000000000000815260040161044c906138cf565b60405180910390fd5b600960003373ffffffffffffffffffffffffffffffffffffffff1673ffffffffffffffffffffffffffffffffffffffff1681526020019081526020016000208054806020026020016040519081016040528092919081815260200182805480156104de57602002820191906000526020600020905b8154815260200190600101908083116104ca575b5050505050925060005b83518110156105a957600060036000868481518110610530577f4e487b7100000000000000000000000000000000000000000000000000000000600052603260045260246000fd5b6020026020010151815260200190815260200160002054141561059657838181518110610586577f4e487b7100000000000000000000000000000000000000000000000000000000600052603260045260246000fd5b6020026020010160008019168152505b80806105a190613cdf565b9150506104e8565b50505090565b80600060036000838152602001908152602001600020541415610607576040517f08c379a00000000000000000000000000000000000000000000000000000000081526004016105fe906137ef565b60405180910390fd5b60006003600083815260200190815260200160002054905060006001808361062f9190613b67565b81548110610666577f4e487b7100000000000000000000000000000000000000000000000000000000600052603260045260246000fd5b90600052602060002090600802016002015414156106b9576040517f08c379a00000000000000000000000000000000000000000000000000000000081526004016106b0906137ef565b60405180910390fd5b826000600360008381526020019081526020016000205490506000600180836106e29190613b67565b81548110610719577f4e487b7100000000000000000000000000000000000000000000000000000000600052603260045260246000fd5b906000526020600020906008020160050160009054906101000a90046effffffffffffffffffffffffffffff166effffffffffffffffffffffffffffff1614610797576040517f08c379a000000000000000000000000000000000000000000000000000000000815260040161078e90613737565b60405180910390fd5b3385600060036000838152602001908152602001600020549050600060019054906101000a900473ffffffffffffffffffffffffffffffffffffffff1673ffffffffffffffffffffffffffffffffffffffff168373ffffffffffffffffffffffffffffffffffffffff1614806108ae5750600180826108169190613b67565b8154811061084d577f4e487b7100000000000000000000000000000000000000000000000000000000600052603260045260246000fd5b906000526020600020906008020160030160009054906101000a900473ffffffffffffffffffffffffffffffffffffffff1673ffffffffffffffffffffffffffffffffffffffff168373ffffffffffffffffffffffffffffffffffffffff16145b6108ed576040517f08c379a00000000000000000000000000000000000000000000000000000000081526004016108e490613757565b60405180910390fd5b60036000898152602001908152602001600020600090557fe41203db0fa61b8b33140f8fc1ca977ef1ae43ae15065035c505670c0b4e0ed56040516109319061386f565b60405180910390a15050505050505050565b6001818154811061095357600080fd5b90600052602060002090600802016000915090508060000154908060010154908060020154908060030160009054906101000a900473ffffffffffffffffffffffffffffffffffffffff16908060040154908060050160009054906101000a90046effffffffffffffffffffffffffffff169080600501600f9054906101000a900461ffff16908060050160119054906101000a900460ff16908060050160129054906101000a900460ff1690806006018054610a0f90613cad565b80601f0160208091040260200160405190810160405280929190818152602001828054610a3b90613cad565b8015610a885780601f10610a5d57610100808354040283529160200191610a88565b820191906000526020600020905b815481529060010190602001808311610a6b57829003601f168201915b505050505090806007018054610a9d90613cad565b80601f0160208091040260200160405190810160405280929190818152602001828054610ac990613cad565b8015610b165780601f10610aeb57610100808354040283529160200191610b16565b820191906000526020600020905b815481529060010190602001808311610af957829003601f168201915b505050505090508b565b6000151560008054906101000a900460ff16151514610b74576040517f08c379a0000000000000000000000000000000000000000000000000000000008152600401610b6b906138ef565b60405180910390fd5b33600060019054906101000a900473ffffffffffffffffffffffffffffffffffffffff1673ffffffffffffffffffffffffffffffffffffffff168173ffffffffffffffffffffffffffffffffffffffff1614610c05576040517f08c379a0000000000000000000000000000000000000000000000000000000008152600401610bfc906136d7565b60405180910390fd5b816001600560008373ffffffffffffffffffffffffffffffffffffffff1673ffffffffffffffffffffffffffffffffffffffff16815260200190815260200160002060000160169054906101000a900460ff1660ff1614610c9b576040517f08c379a0000000000000000000000000000000000000000000000000000000008152600401610c92906138cf565b60405180910390fd5b600560008473ffffffffffffffffffffffffffffffffffffffff1673ffffffffffffffffffffffffffffffffffffffff16815260200190815260200160002060000160149054906101000a900460ff1615610d8b576000600560008573ffffffffffffffffffffffffffffffffffffffff1673ffffffffffffffffffffffffffffffffffffffff168152602001908152602001600020905060018160000160156101000a81548160ff0219169083151502179055507fae937c810850c4277a17aeb7e8b138034e898dbb0a85b262eb9ea276fedc9405604051610d7d9061380f565b60405180910390a150610dc6565b6040517f08c379a0000000000000000000000000000000000000000000000000000000008152600401610dbd906136f7565b60405180910390fd5b505050565b6000151560008054906101000a900460ff16151514610e1f576040517f08c379a0000000000000000000000000000000000000000000000000000000008152600401610e16906138ef565b60405180910390fd5b336001600560008373ffffffffffffffffffffffffffffffffffffffff1673ffffffffffffffffffffffffffffffffffffffff16815260200190815260200160002060000160169054906101000a900460ff1660ff1614610eb5576040517f08c379a0000000000000000000000000000000000000000000000000000000008152600401610eac906138cf565b60405180910390fd5b81600060036000838152602001908152602001600020541415610f0d576040517f08c379a0000000000000000000000000000000000000000000000000000000008152600401610f04906137ef565b60405180910390fd5b600060036000838152602001908152602001600020549050600060018083610f359190613b67565b81548110610f6c577f4e487b7100000000000000000000000000000000000000000000000000000000600052603260045260246000fd5b9060005260206000209060080201600201541415610fbf576040517f08c379a0000000000000000000000000000000000000000000000000000000008152600401610fb6906137ef565b60405180910390fd5b6001806003600087815260200190815260200160002054610fe09190613b67565b81548110611017577f4e487b7100000000000000000000000000000000000000000000000000000000600052603260045260246000fd5b9060005260206000209060080201600401543481111561106c576040517f08c379a0000000000000000000000000000000000000000000000000000000008152600401611063906138af565b60405180910390fd5b600180600360008881526020019081526020016000205461108d9190613b67565b815481106110c4577f4e487b7100000000000000000000000000000000000000000000000000000000600052603260045260246000fd5b9060005260206000209060080201600401546000600360008881526020019081526020016000205490506000600180836110fe9190613b67565b81548110611135577f4e487b7100000000000000000000000000000000000000000000000000000000600052603260045260246000fd5b9060005260206000209060080201604051806101600160405290816000820154815260200160018201548152602001600282015481526020016003820160009054906101000a900473ffffffffffffffffffffffffffffffffffffffff1673ffffffffffffffffffffffffffffffffffffffff1673ffffffffffffffffffffffffffffffffffffffff168152602001600482015481526020016005820160009054906101000a90046effffffffffffffffffffffffffffff166effffffffffffffffffffffffffffff166effffffffffffffffffffffffffffff16815260200160058201600f9054906101000a900461ffff1661ffff1661ffff1681526020016005820160119054906101000a900460ff1660ff1660ff1681526020016005820160129054906101000a900460ff1615151515815260200160068201805461127c90613cad565b80601f01602080910402602001604051908101604052809291908181526020018280546112a890613cad565b80156112f55780601f106112ca576101008083540402835291602001916112f5565b820191906000526020600020905b8154815290600101906020018083116112d857829003601f168201915b5050505050815260200160078201805461130e90613cad565b80601f016020809104026020016040519081016040528092919081815260200182805461133a90613cad565b80156113875780601f1061135c57610100808354040283529160200191611387565b820191906000526020600020905b81548152906001019060200180831161136a57829003601f168201915b505050505081525050905060008160600151905060006113d06127106113c28560c0015161ffff1686608001516128da90919063ffffffff16565b6128f090919063ffffffff16565b905060006113eb82856080015161290690919063ffffffff16565b905060006113fd33866020015161291c565b905080600760008e815260200190815260200160002060003373ffffffffffffffffffffffffffffffffffffffff1673ffffffffffffffffffffffffffffffffffffffff16815260200190815260200160002081905550600860003373ffffffffffffffffffffffffffffffffffffffff1673ffffffffffffffffffffffffffffffffffffffff1681526020019081526020016000208c90806001815401808255809150506001900390600052602060002001600090919091909150558373ffffffffffffffffffffffffffffffffffffffff166108fc839081150290604051600060405180830381858888f19350505050158015611500573d6000803e3d6000fd5b50600060019054906101000a900473ffffffffffffffffffffffffffffffffffffffff1673ffffffffffffffffffffffffffffffffffffffff166108fc849081150290604051600060405180830381858888f19350505050158015611569573d6000803e3d6000fd5b503373ffffffffffffffffffffffffffffffffffffffff168c7fd1b3ceff01e1556a2936b8fef7e2e78b49634ac547f868ab32e3bdcb3c2b97af866040516115b19190613777565b60405180910390a35050505050508034111561162057600081346115d59190613b67565b90503373ffffffffffffffffffffffffffffffffffffffff166108fc829081150290604051600060405180830381858888f1935050505015801561161d573d6000803e3d6000fd5b50505b505050505050565b60065481565b33600060019054906101000a900473ffffffffffffffffffffffffffffffffffffffff1673ffffffffffffffffffffffffffffffffffffffff168173ffffffffffffffffffffffffffffffffffffffff16146116bf576040517f08c379a00000000000000000000000000000000000000000000000000000000081526004016116b6906136d7565b60405180910390fd5b60008054906101000a900460ff16156000806101000a81548160ff02191690831515021790555050565b6000806000336001600560008373ffffffffffffffffffffffffffffffffffffffff1673ffffffffffffffffffffffffffffffffffffffff16815260200190815260200160002060000160169054906101000a900460ff1660ff16148061179d5750600060019054906101000a900473ffffffffffffffffffffffffffffffffffffffff1673ffffffffffffffffffffffffffffffffffffffff168173ffffffffffffffffffffffffffffffffffffffff16145b6117dc576040517f08c379a00000000000000000000000000000000000000000000000000000000081526004016117d3906138cf565b60405180910390fd5b60019350600560003373ffffffffffffffffffffffffffffffffffffffff1673ffffffffffffffffffffffffffffffffffffffff16815260200190815260200160002060000160149054906101000a900460ff169250600060019054906101000a900473ffffffffffffffffffffffffffffffffffffffff1673ffffffffffffffffffffffffffffffffffffffff163373ffffffffffffffffffffffffffffffffffffffff16141561188d57600191505b50909192565b336001600560008373ffffffffffffffffffffffffffffffffffffffff1673ffffffffffffffffffffffffffffffffffffffff16815260200190815260200160002060000160169054906101000a900460ff1660ff1614611929576040517f08c379a0000000000000000000000000000000000000000000000000000000008152600401611920906138cf565b60405180910390fd5b33600560008273ffffffffffffffffffffffffffffffffffffffff1673ffffffffffffffffffffffffffffffffffffffff16815260200190815260200160002060000160149054906101000a900460ff1680156119d25750600560008273ffffffffffffffffffffffffffffffffffffffff1673ffffffffffffffffffffffffffffffffffffffff16815260200190815260200160002060000160159054906101000a900460ff165b611a11576040517f08c379a0000000000000000000000000000000000000000000000000000000008152600401611a089061382f565b60405180910390fd5b8260008160ff1610158015611a2a575060648160ff1611155b611a69576040517f08c379a0000000000000000000000000000000000000000000000000000000008152600401611a6090613717565b60405180910390fd5b600260009054906101000a900460ff1660ff168160ff161015611ac1576040517f08c379a0000000000000000000000000000000000000000000000000000000008152600401611ab89061394b565b60405180910390fd5b6000600460008a815260200190815260200160002054905060006003600083815260200190815260200160002054905060008114611b34576040517f08c379a0000000000000000000000000000000000000000000000000000000008152600401611b2b9061384f565b60405180910390fd5b6000600260009054906101000a900460ff1660ff168760ff1610611b5757600190505b6000611b748860ff16606461ffff166128da90919063ffffffff16565b9050600060018080549050611b899190613a86565b905080604051602001611b9c9190613588565b60405160208183030381529060405280519060200120945080600360008781526020019081526020016000208190555084600460008f815260200190815260200160002081905550600960003373ffffffffffffffffffffffffffffffffffffffff1673ffffffffffffffffffffffffffffffffffffffff168152602001908152602001600020859080600181540180825580915050600190039060005260206000200160009091909190915055611c5261297c565b858160000181815250508d8160200181815250508181604001818152505033816060019073ffffffffffffffffffffffffffffffffffffffff16908173ffffffffffffffffffffffffffffffffffffffff16815250508a81608001818152505060008160a001906effffffffffffffffffffffffffffff1690816effffffffffffffffffffffffffffff1681525050828160c0019061ffff16908161ffff168152505060018160e0019060ff16908160ff16815250508c8161012001819052508b8161014001819052508381610100019015159081151581525050600181908060018154018082558091505060019003906000526020600020906008020160009091909190915060008201518160000155602082015181600101556040820151816002015560608201518160030160006101000a81548173ffffffffffffffffffffffffffffffffffffffff021916908373ffffffffffffffffffffffffffffffffffffffff1602179055506080820151816004015560a08201518160050160006101000a8154816effffffffffffffffffffffffffffff02191690836effffffffffffffffffffffffffffff16021790555060c082015181600501600f6101000a81548161ffff021916908361ffff16021790555060e08201518160050160116101000a81548160ff021916908360ff1602179055506101008201518160050160126101000a81548160ff021916908315150217905550610120820151816006019080519060200190611e87929190612a0c565b50610140820151816007019080519060200190611ea5929190612a0c565b505050857f61f7b06099d9d6c81bb3b480f2051f0190d343d909af3bdc90ff6b86cd83de588e8e604051611eda9291906137a5565b60405180910390a25050505050505050505050505050565b6000151560008054906101000a900460ff16151514611f46576040517f08c379a0000000000000000000000000000000000000000000000000000000008152600401611f3d906138ef565b60405180910390fd5b6000600560003373ffffffffffffffffffffffffffffffffffffffff1673ffffffffffffffffffffffffffffffffffffffff16815260200190815260200160002060000160169054906101000a900460ff1660ff1614611fdb576040517f08c379a0000000000000000000000000000000000000000000000000000000008152600401611fd29061388f565b60405180910390fd5b6000806001905060405180608001604052803373ffffffffffffffffffffffffffffffffffffffff168152602001841515815260200183151581526020018260ff16815250600560003373ffffffffffffffffffffffffffffffffffffffff1673ffffffffffffffffffffffffffffffffffffffff16815260200190815260200160002060008201518160000160006101000a81548173ffffffffffffffffffffffffffffffffffffffff021916908373ffffffffffffffffffffffffffffffffffffffff16021790555060208201518160000160146101000a81548160ff02191690831515021790555060408201518160000160156101000a81548160ff02191690831515021790555060608201518160000160166101000a81548160ff021916908360ff1602179055509050506006600081548092919061211d90613cdf565b91905055507f6ed7fd9c095d25702b515b4fc3c80ddda04a36adc0a6619c93fe1a306784f51e338460405161215392919061390f565b60405180910390a1505050565b6060336001600560008373ffffffffffffffffffffffffffffffffffffffff1673ffffffffffffffffffffffffffffffffffffffff16815260200190815260200160002060000160169054906101000a900460ff1660ff16146121f8576040517f08c379a00000000000000000000000000000000000000000000000000000000081526004016121ef906138cf565b60405180910390fd5b600860003373ffffffffffffffffffffffffffffffffffffffff1673ffffffffffffffffffffffffffffffffffffffff16815260200190815260200160002080548060200260200160405190810160405280929190818152602001828054801561228157602002820191906000526020600020905b81548152602001906001019080831161226d575b505050505091505090565b6060336001600560008373ffffffffffffffffffffffffffffffffffffffff1673ffffffffffffffffffffffffffffffffffffffff16815260200190815260200160002060000160169054906101000a900460ff1660ff1614612324576040517f08c379a000000000000000000000000000000000000000000000000000000000815260040161231b906138cf565b60405180910390fd5b60606001805480602002602001604051908101604052809291908181526020016000905b828210156125bc5783829060005260206000209060080201604051806101600160405290816000820154815260200160018201548152602001600282015481526020016003820160009054906101000a900473ffffffffffffffffffffffffffffffffffffffff1673ffffffffffffffffffffffffffffffffffffffff1673ffffffffffffffffffffffffffffffffffffffff168152602001600482015481526020016005820160009054906101000a90046effffffffffffffffffffffffffffff166effffffffffffffffffffffffffffff166effffffffffffffffffffffffffffff16815260200160058201600f9054906101000a900461ffff1661ffff1661ffff1681526020016005820160119054906101000a900460ff1660ff1660ff1681526020016005820160129054906101000a900460ff1615151515815260200160068201805461249990613cad565b80601f01602080910402602001604051908101604052809291908181526020018280546124c590613cad565b80156125125780601f106124e757610100808354040283529160200191612512565b820191906000526020600020905b8154815290600101906020018083116124f557829003601f168201915b5050505050815260200160078201805461252b90613cad565b80601f016020809104026020016040519081016040528092919081815260200182805461255790613cad565b80156125a45780601f10612579576101008083540402835291602001916125a4565b820191906000526020600020905b81548152906001019060200180831161258757829003601f168201915b50505050508152505081526020019060010190612348565b505050509050809250505090565b336001600560008373ffffffffffffffffffffffffffffffffffffffff1673ffffffffffffffffffffffffffffffffffffffff16815260200190815260200160002060000160169054906101000a900460ff1660ff1614612660576040517f08c379a0000000000000000000000000000000000000000000000000000000008152600401612657906138cf565b60405180910390fd5b600560003373ffffffffffffffffffffffffffffffffffffffff1673ffffffffffffffffffffffffffffffffffffffff16815260200190815260200160002060000160149054906101000a900460ff16156127fd576000600960003373ffffffffffffffffffffffffffffffffffffffff1673ffffffffffffffffffffffffffffffffffffffff16815260200190815260200160002080548060200260200160405190810160405280929190818152602001828054801561274057602002820191906000526020600020905b81548152602001906001019080831161272c575b5050505050905060005b81518110156127af5761279c82828151811061278f577f4e487b7100000000000000000000000000000000000000000000000000000000600052603260045260246000fd5b60200260200101516105af565b80806127a790613cdf565b91505061274a565b50600960003373ffffffffffffffffffffffffffffffffffffffff1673ffffffffffffffffffffffffffffffffffffffff16815260200190815260200160002060006127fb9190612a92565b505b600560003373ffffffffffffffffffffffffffffffffffffffff1673ffffffffffffffffffffffffffffffffffffffff168152602001908152602001600020600080820160006101000a81549073ffffffffffffffffffffffffffffffffffffffff02191690556000820160146101000a81549060ff02191690556000820160156101000a81549060ff02191690556000820160166101000a81549060ff021916905550507f5b8514bf599ab0e7b72a3b2d47ae13677daa88ebbf833cea7bad37b6df49ede36040516128cf9061386f565b60405180910390a150565b600081836128e89190613b0d565b905092915050565b600081836128fe9190613adc565b905092915050565b600081836129149190613b67565b905092915050565b6000807f537d3723252a534433306f374400000000000000000000000000000000000000905060008484836040516020016129599392919061354b565b604051602081830303815290604052805190602001209050809250505092915050565b604051806101600160405280600080191681526020016000801916815260200160008152602001600073ffffffffffffffffffffffffffffffffffffffff1681526020016000815260200160006effffffffffffffffffffffffffffff168152602001600061ffff168152602001600060ff16815260200160001515815260200160608152602001606081525090565b828054612a1890613cad565b90600052602060002090601f016020900481019282612a3a5760008555612a81565b82601f10612a5357805160ff1916838001178555612a81565b82800160010185558215612a81579182015b82811115612a80578251825591602001919060010190612a65565b5b509050612a8e9190612ab3565b5090565b5080546000825590600052602060002090810190612ab09190612ad0565b50565b5b80821115612acc576000816000905550600101612ab4565b5090565b5b80821115612ae9576000816000905550600101612ad1565b5090565b6000612b00612afb846139b7565b613986565b905082815260208101848484011115612b1857600080fd5b612b23848285613c6b565b509392505050565b600081359050612b3a81613e3a565b92915050565b600081359050612b4f81613e51565b92915050565b600081359050612b6481613e68565b92915050565b600082601f830112612b7b57600080fd5b8135612b8b848260208601612aed565b91505092915050565b600081359050612ba381613e7f565b92915050565b600081359050612bb881613e96565b92915050565b600060208284031215612bd057600080fd5b6000612bde84828501612b2b565b91505092915050565b600060208284031215612bf957600080fd5b6000612c0784828501612b40565b91505092915050565b600060208284031215612c2257600080fd5b6000612c3084828501612b55565b91505092915050565b600080600080600060a08688031215612c5157600080fd5b6000612c5f88828901612b55565b955050602086013567ffffffffffffffff811115612c7c57600080fd5b612c8888828901612b6a565b945050604086013567ffffffffffffffff811115612ca557600080fd5b612cb188828901612b6a565b9350506060612cc288828901612b94565b9250506080612cd388828901612ba9565b9150509295509295909350565b600060208284031215612cf257600080fd5b6000612d0084828501612b94565b91505092915050565b6000612d158383612e79565b60208301905092915050565b6000612d2d83836133c6565b905092915050565b612d3e81613c35565b82525050565b612d4d81613bad565b82525050565b612d5c81613bad565b82525050565b612d6b81613b9b565b82525050565b612d82612d7d82613b9b565b613d28565b82525050565b6000612d9382613a07565b612d9d8185613a42565b9350612da8836139e7565b8060005b83811015612dd9578151612dc08882612d09565b9750612dcb83613a28565b925050600181019050612dac565b5085935050505092915050565b6000612df182613a12565b612dfb8185613a53565b935083602082028501612e0d856139f7565b8060005b85811015612e495784840389528151612e2a8582612d21565b9450612e3583613a35565b925060208a01995050600181019050612e11565b50829750879550505050505092915050565b612e6481613bbf565b82525050565b612e7381613bbf565b82525050565b612e8281613bcb565b82525050565b612e9181613bcb565b82525050565b612ea8612ea382613bcb565b613d3a565b82525050565b6000612eb982613a1d565b612ec38185613a64565b9350612ed3818560208601613c7a565b612edc81613e1c565b840191505092915050565b6000612ef282613a1d565b612efc8185613a75565b9350612f0c818560208601613c7a565b612f1581613e1c565b840191505092915050565b6000612f2d600c83613a75565b91507f4973206e6f742061646d696e00000000000000000000000000000000000000006000830152602082019050919050565b6000612f6d601483613a75565b91507f55736572206973206e6f7420612073656c6c65720000000000000000000000006000830152602082019050919050565b6000612fad602483613a75565b91507f436f6d6d697373696f6e206d757374206265206265747765656e203020616e6460008301527f20313030000000000000000000000000000000000000000000000000000000006020830152604082019050919050565b6000613013601783613a75565b91507f4e6f746520686173206265656e207075726368617365640000000000000000006000830152602082019050919050565b6000613053601f83613a75565b91507f4973206e6f742061646d696e206e6f7220746865206e6f7465206f776e6572006000830152602082019050919050565b6000613093600b83613a75565b91507f6e6f746520626f756768740000000000000000000000000000000000000000006000830152602082019050919050565b60006130d3601983613a75565b91507f4e6f7465207375636365737366756c6c792063726561746564000000000000006000830152602082019050919050565b6000613113601283613a75565b91507f4e6f746520646f65736e277420657869737400000000000000000000000000006000830152602082019050919050565b6000613153602083613a75565b91507f557365722073656c6c657220697320617070726f76656420666f722073656c6c6000830152602082019050919050565b6000613193601583613a75565b91507f557365722063616e27742073656c6c206e6f74657300000000000000000000006000830152602082019050919050565b60006131d3601383613a75565b91507f4e6f746520616c726561647920657869737473000000000000000000000000006000830152602082019050919050565b6000613213601983613a75565b91507f55736572207375636365737366756c6c792064656c65746564000000000000006000830152602082019050919050565b6000613253601783613a75565b91507f5573657220616c726561647920726567697374657265640000000000000000006000830152602082019050919050565b6000613293601283613a75565b91507f696e73756666696369656e742066756e647300000000000000000000000000006000830152602082019050919050565b60006132d3601283613a75565b91507f5573657220646f65736e277420657869737400000000000000000000000000006000830152602082019050919050565b6000613313601e83613a75565b91507f4e6f7465736d61726b657420697320636c6f7365642062792061646d696e00006000830152602082019050919050565b6000613353601983613a75565b91507f55736572207375636365737366756c6c792063726561746564000000000000006000830152602082019050919050565b6000613393601983613a75565b91507f436f6d6d697373696f6e2069732073657420746f6f206c6f77000000000000006000830152602082019050919050565b6000610160830160008301516133df6000860182612e79565b5060208301516133f26020860182612e79565b50604083015161340560408601826134f8565b5060608301516134186060860182612d44565b50608083015161342b60808601826134f8565b5060a083015161343e60a08601826134bc565b5060c083015161345160c08601826134da565b5060e083015161346460e086018261352d565b50610100830151613479610100860182612e5b565b506101208301518482036101208601526134938282612eae565b9150506101408301518482036101408601526134af8282612eae565b9150508091505092915050565b6134c581613bd5565b82525050565b6134d481613bd5565b82525050565b6134e381613bf0565b82525050565b6134f281613bf0565b82525050565b61350181613c1e565b82525050565b61351081613c1e565b82525050565b61352761352282613c1e565b613d56565b82525050565b61353681613c28565b82525050565b61354581613c28565b82525050565b60006135578286612d71565b6014820191506135678285612e97565b6020820191506135778284612e97565b602082019150819050949350505050565b60006135948284613516565b60208201915081905092915050565b600060208201905081810360008301526135bd8184612d88565b905092915050565b600060208201905081810360008301526135df8184612de6565b905092915050565b60006060820190506135fc6000830186612e6a565b6136096020830185612e6a565b6136166040830184612e6a565b949350505050565b600061016082019050613634600083018e612e88565b613641602083018d612e88565b61364e604083018c613507565b61365b606083018b612d53565b613668608083018a613507565b61367560a08301896134cb565b61368260c08301886134e9565b61368f60e083018761353c565b61369d610100830186612e6a565b8181036101208301526136b08185612ee7565b90508181036101408301526136c58184612ee7565b90509c9b505050505050505050505050565b600060208201905081810360008301526136f081612f20565b9050919050565b6000602082019050818103600083015261371081612f60565b9050919050565b6000602082019050818103600083015261373081612fa0565b9050919050565b6000602082019050818103600083015261375081613006565b9050919050565b6000602082019050818103600083015261377081613046565b9050919050565b6000604082019050818103600083015261379081613086565b905061379f6020830184612d35565b92915050565b600060608201905081810360008301526137be816130c6565b905081810360208301526137d28185612ee7565b905081810360408301526137e68184612ee7565b90509392505050565b6000602082019050818103600083015261380881613106565b9050919050565b6000602082019050818103600083015261382881613146565b9050919050565b6000602082019050818103600083015261384881613186565b9050919050565b60006020820190508181036000830152613868816131c6565b9050919050565b6000602082019050818103600083015261388881613206565b9050919050565b600060208201905081810360008301526138a881613246565b9050919050565b600060208201905081810360008301526138c881613286565b9050919050565b600060208201905081810360008301526138e8816132c6565b9050919050565b6000602082019050818103600083015261390881613306565b9050919050565b6000606082019050818103600083015261392881613346565b90506139376020830185612d62565b6139446040830184612e6a565b9392505050565b6000602082019050818103600083015261396481613386565b9050919050565b60006020820190506139806000830184613507565b92915050565b6000604051905081810181811067ffffffffffffffff821117156139ad576139ac613ded565b5b8060405250919050565b600067ffffffffffffffff8211156139d2576139d1613ded565b5b601f19601f8301169050602081019050919050565b6000819050602082019050919050565b6000819050602082019050919050565b600081519050919050565b600081519050919050565b600081519050919050565b6000602082019050919050565b6000602082019050919050565b600082825260208201905092915050565b600082825260208201905092915050565b600082825260208201905092915050565b600082825260208201905092915050565b6000613a9182613c1e565b9150613a9c83613c1e565b9250827fffffffffffffffffffffffffffffffffffffffffffffffffffffffffffffffff03821115613ad157613ad0613d60565b5b828201905092915050565b6000613ae782613c1e565b9150613af283613c1e565b925082613b0257613b01613d8f565b5b828204905092915050565b6000613b1882613c1e565b9150613b2383613c1e565b9250817fffffffffffffffffffffffffffffffffffffffffffffffffffffffffffffffff0483118215151615613b5c57613b5b613d60565b5b828202905092915050565b6000613b7282613c1e565b9150613b7d83613c1e565b925082821015613b9057613b8f613d60565b5b828203905092915050565b6000613ba682613bfe565b9050919050565b6000613bb882613bfe565b9050919050565b60008115159050919050565b6000819050919050565b60006effffffffffffffffffffffffffffff82169050919050565b600061ffff82169050919050565b600073ffffffffffffffffffffffffffffffffffffffff82169050919050565b6000819050919050565b600060ff82169050919050565b6000613c4082613c47565b9050919050565b6000613c5282613c59565b9050919050565b6000613c6482613bfe565b9050919050565b82818337600083830152505050565b60005b83811015613c98578082015181840152602081019050613c7d565b83811115613ca7576000848401525b50505050565b60006002820490506001821680613cc557607f821691505b60208210811415613cd957613cd8613dbe565b5b50919050565b6000613cea82613c1e565b91507fffffffffffffffffffffffffffffffffffffffffffffffffffffffffffffffff821415613d1d57613d1c613d60565b5b600182019050919050565b6000613d3382613d44565b9050919050565b6000819050919050565b6000613d4f82613e2d565b9050919050565b6000819050919050565b7f4e487b7100000000000000000000000000000000000000000000000000000000600052601160045260246000fd5b7f4e487b7100000000000000000000000000000000000000000000000000000000600052601260045260246000fd5b7f4e487b7100000000000000000000000000000000000000000000000000000000600052602260045260246000fd5b7f4e487b7100000000000000000000000000000000000000000000000000000000600052604160045260246000fd5b6000601f19601f8301169050919050565b60008160601b9050919050565b613e4381613b9b565b8114613e4e57600080fd5b50565b613e5a81613bbf565b8114613e6557600080fd5b50565b613e7181613bcb565b8114613e7c57600080fd5b50565b613e8881613c1e565b8114613e9357600080fd5b50565b613e9f81613c28565b8114613eaa57600080fd5b5056fea2646970667358221220b8de95de80d3cf30d768cf69ccb1bf4dc6a686f66d5b6b29dbddea6afbe5397864736f6c63430008000033",
  "immutableReferences": {},
  "source": "// SPDX-License-Identifier: MIT\npragma solidity >=0.8.0;\nimport \"@openzeppelin/contracts/utils/math/SafeMath.sol\";\n\n/// @title NotesMarketContract\n/// @author The name of the author\n/// @notice Explain to an end user what this does\n/// @dev Contract for selling and bying notes market\n\n/**\n@title \n */\ncontract NotesMarketContract {\n\n  using SafeMath for uint256;\n    using SafeMath for uint16;\n\n  bool private notesMarketIsClosed = false;\n  address payable private admin;\n\n  constructor(uint8 minCommission){\n    admin = payable(msg.sender);\n    notesMarketMinCommission = minCommission;\n  }\n\n  Note[] public notesArr;\n\n  uint8 private notesMarketMinCommission;\n\n  // List of notes indexed by note hash -> numerical id\n  mapping(bytes32 => uint) private notesHashes;\n\n  // List of notes indexed by ifps hash -> note id hash\n  mapping(bytes32 => bytes32) private IPFSHashes;\n\n  // List of users indexed by address\n  mapping(address => User) private users;\n  uint public usersCount;\n\n  // List of all note purchase tokens\n  // for each note(noteHash), there is a collection of buyers' accessTokens(add -> accessToken)\n  mapping(bytes32 => mapping(address => bytes32)) private purchaseTokens;\n\n  // List of notes bought by users\n  mapping(address => bytes32[]) private boughtNotes;\n\n  // List of notes owned by users\n  mapping(address => bytes32[]) private ownedNotes;\n\n\n  // STRUCTS\n\n  // User -> buyer and/or seller\n  // Buy -> All users can buy notes\n  // Sell -> Just approved users can sell notes\n  struct User{\n    address userAddr;\n    bool seller; // Note owner\n    bool isSellerApproved; // Is approved to sell\n    uint8 exits;  \n  }\n\n  struct Note{\n    bytes32 noteHash; // note id hash\n    bytes32 IPFSHash; // note ipfs reference\n    uint id; // id - 1 -> position of bote in dynamic array\n    address payable owner; \n    uint256 price; // price in tokens\n    uint120 purchaseCount; // number of notes purchases\n      // percentage 0-100 commission to store\n      // 10000th (10% -> 1000) to keep 2dp\n    uint16 commission;\n    uint8 exits;\n    bool isApproved; // approved for sale\n    string title;\n    string author;\n  }\n\n  // EVENTS\n  event UserCreated(string message, address userAddress, bool isNoteOwner);\n  event UserRemoved(string message);\n  event UserSellerApproved(string message);\n\n  event NoteAdded(string message, bytes32 indexed noteHash, string title, string author);\n  event NoteRemoved(string message);\n  event NotePriceUpdated(string message, uint256 price);\n  event NoteBought(string message, bytes32 indexed noteHash, address indexed buyer, address seller);\n\n\n  // MODIFIERS\n  modifier isAdmin(address userAddress){\n    require(userAddress == admin, \"Is not admin\");\n    _;\n  }\n  \n  modifier notesMarketIsOpen(){\n    require(notesMarketIsClosed == false, \"Notesmarket is closed by admin\" );\n    _;\n  }\n\n  modifier userExists(address userAddress){\n    require(users[userAddress].exits == 1, \"User doesn't exist\" );\n    _;\n  }\n\n  modifier isUserOrAdmin(address userAddress){\n     require(users[userAddress].exits == 1 || userAddress == admin, \"User doesn't exist\" );\n    _;\n  }\n\n  modifier isNoteOwnerOrAdmin(address userAddress, bytes32 noteHash){\n    uint noteId = notesHashes[noteHash];\n    require(userAddress == admin || userAddress == notesArr[noteId - 1].owner, \"Is not admin nor the note owner\");\n    _;\n  }\n\n  modifier doesNoteExist(bytes32 noteHash){\n    require(notesHashes[noteHash] != 0, \"Note doesn't exist\");\n    uint noteId = notesHashes[noteHash];\n    require(notesArr[noteId - 1].id != 0, \"Note doesn't exist\");\n    _;\n  }\n\n  modifier notPurchased(bytes32 noteHash){\n    uint noteId = notesHashes[noteHash];\n    require(notesArr[noteId - 1].purchaseCount == 0, \"Note has been purchased\");\n    _;\n  }\n\n  modifier canSellNotes(address userAddress){\n    require(users[userAddress].seller && users[userAddress].isSellerApproved, \"User can't sell notes\");\n    _;\n  }\n\n  modifier validCommission(uint8 commission){\n    require(commission >=0 && commission <= 100, \"Commission must be between 0 and 100\");\n    require(commission >= notesMarketMinCommission, \"Commission is set too low\");\n    _;\n  }\n\n  modifier sufficientFunds(uint price){\n    require(price <= msg.value, \"insufficient funds\");\n    _;\n  }\n\n  modifier returnExcess(uint price) {\n    //refund them after pay for note\n    _;\n    //this is a silent failure if \"there is no leftover to refund to buyer\"\n    if(msg.value > price){ \n      uint amountToRefund = msg.value - price;\n      payable(msg.sender).transfer(amountToRefund);\n    }        \n  }\n\n\n  // FUNCTIONS\n\n  /* NoteMarket */\n\n  function changeNotesMarketStatus() isAdmin(msg.sender) external{\n    notesMarketIsClosed = !notesMarketIsClosed;\n  }\n\n  /* Users */\n  \n  function addUser(bool noteOwner) notesMarketIsOpen external{\n    require(users[msg.sender].exits == 0, \"User already registered\");\n\n    bool isSellerApproved = false;\n    uint8 exists = 1;\n\n    users[msg.sender] = User(msg.sender, noteOwner, isSellerApproved, exists);\n    usersCount ++;\n\n    emit UserCreated(\"User successfully created\", msg.sender, noteOwner);\n  }\n\n  function removeUser() userExists(msg.sender) external{\n    if(users[(msg.sender)].seller){\n      bytes32[] memory hashes = ownedNotes[msg.sender];\n\n      for (uint i = 0; i < hashes.length; i++) {\n        removeNote(hashes[i]);\n      }\n      delete ownedNotes[msg.sender];\n    }\n    delete users[msg.sender];\n\n    emit UserRemoved(\"User successfully deleted\");\n  }\n\n  function getUser() isUserOrAdmin(msg.sender) view external returns(bool _authStatus, bool _isSeller, bool _isAdmin){\n      _authStatus = true;\n      _isSeller = users[msg.sender].seller;\n      if(msg.sender == admin) _isAdmin = true;\n  }\n\n\n  function approveSeller(address userAddress) notesMarketIsOpen isAdmin(msg.sender) userExists(userAddress) external{\n    if(users[userAddress].seller){\n      User storage user = users[userAddress];\n      user.isSellerApproved = true;\n      emit UserSellerApproved(\"User seller is approved for sell\");\n    }else{\n      revert(\"User is not a seller\");\n    }\n  }\n\n  /* Notes */\n\n  function addNote(bytes32 _IPFShash, string memory _title, string memory _author, uint256 _price, uint8 _commission) \n    userExists(msg.sender) canSellNotes(msg.sender) validCommission(_commission) external{\n\n    bytes32 _noteHash = IPFSHashes[_IPFShash];\n    uint _noteId = notesHashes[_noteHash];\n    require(_noteId == 0, \"Note already exists\");\n\n    bool isApproved;\n\n    if(_commission >= notesMarketMinCommission){\n      isApproved = true;\n    }\n\n    uint commission = uint16(100).mul(_commission);\n    uint newNoteId = notesArr.length + 1;\n\n    _noteHash = keccak256(abi.encodePacked(newNoteId));\n\n    notesHashes[_noteHash] = newNoteId;\n    IPFSHashes[_IPFShash] = _noteHash;\n    ownedNotes[msg.sender].push(_noteHash);\n\n    Note memory note;\n    \n    note.noteHash = _noteHash;\n    note.IPFSHash = _IPFShash;\n    note.id = newNoteId;\n    note.owner = payable(msg.sender);\n    note.price = _price;\n    note.purchaseCount = 0;\n    note.commission = uint16(commission);\n    note.exits = 1;\n    note.title = _title;\n    note.author = _author;\n    note.isApproved = isApproved;\n\n    notesArr.push(note);\n\n    emit NoteAdded(\"Note successfully created\", _noteHash, _title, _author);\n  }\n\n  function removeNote(bytes32 noteHash) doesNoteExist(noteHash) notPurchased(noteHash) isNoteOwnerOrAdmin(msg.sender, noteHash) public{\n    delete notesHashes[noteHash];\n    emit NoteRemoved(\"User successfully deleted\");\n  }\n\n  function getAllNotes() userExists(msg.sender) view external returns (Note[] memory){\n    \n    Note[] memory notes;\n    notes = notesArr;\n    return notes;\n  }\n\n  function buyNote(bytes32 noteHash) notesMarketIsOpen userExists(msg.sender) doesNoteExist(noteHash) sufficientFunds(notesArr[notesHashes[noteHash] - 1].price) returnExcess(notesArr[notesHashes[noteHash] - 1].price) payable external {\n    uint noteId = notesHashes[noteHash];\n    Note memory note = notesArr[noteId - 1];\n    \n    address payable seller = note.owner;\n    \n    uint commissionFunds = note.price.mul(note.commission).div(10000);\n    uint paymentToSeller = note.price.sub(commissionFunds);\n    bytes32 accessToken = generateAccessToken(msg.sender, note.IPFSHash);\n    // store access token\n    purchaseTokens[noteHash][msg.sender] = accessToken;\n    // keep note purchase\n    boughtNotes[msg.sender].push(noteHash);\n\n    seller.transfer(paymentToSeller);\n    admin.transfer(commissionFunds);        \n    \n    emit NoteBought(\"note bought\", noteHash, msg.sender, seller);\n\n  }\n\n  function getMyPurchasedNotes() userExists(msg.sender) view public returns(bytes32[] memory _boughtNotes){\n    _boughtNotes = boughtNotes[msg.sender];\n  }\n\n  function generateAccessToken(address userAddr, bytes32 IPFShash) private pure returns(bytes32) { //isAdmin(msg.sender)\n    bytes32 salt = \"S}7#%*SD30o7D\";\n    bytes32 accessToken = keccak256(abi.encodePacked(userAddr, IPFShash, salt));\n    return accessToken;\n  }\n\n  function getOwnedNotes() canSellNotes(msg.sender) userExists(msg.sender) view external returns(bytes32[] memory _ownedNotes){\n    _ownedNotes = ownedNotes[msg.sender];\n    for(uint i=0; i < _ownedNotes.length; i++){\n      // exclude the leftover hashes in state array map ownedNotes\n      if(notesHashes[_ownedNotes[i]] == 0){\n        delete _ownedNotes[i];\n      }\n    }\n  }\n\n  \n}\n",
  "sourcePath": "/Users/idoia/Documents/blockchain/blockchain-developer-bootcamp-final-project/contracts/NotesMarketContract.sol",
  "compiler": {
    "name": "solc",
    "version": "0.8.0+commit.c7dfd78e.Emscripten.clang"
  },
  "schemaVersion": "3.4.3",
  "updatedAt": "2021-11-24T16:04:05.828Z",
  "networkType": "ethereum",
  "devdoc": {
    "kind": "dev",
    "methods": {},
    "version": 1
  },
  "userdoc": {
    "kind": "user",
    "methods": {},
    "version": 1
  }
}