{
  "contractName": "NotesMarketContract",
  "abi": [
    {
      "inputs": [],
      "stateMutability": "nonpayable",
      "type": "constructor"
    },
    {
      "anonymous": false,
      "inputs": [
        {
          "indexed": false,
          "internalType": "string",
          "name": "message",
          "type": "string"
        },
        {
          "indexed": true,
          "internalType": "bytes32",
          "name": "noteHash",
          "type": "bytes32"
        },
        {
          "indexed": false,
          "internalType": "string",
          "name": "title",
          "type": "string"
        },
        {
          "indexed": false,
          "internalType": "string",
          "name": "author",
          "type": "string"
        }
      ],
      "name": "NoteAdded",
      "type": "event"
    },
    {
      "anonymous": false,
      "inputs": [
        {
          "indexed": false,
          "internalType": "string",
          "name": "message",
          "type": "string"
        },
        {
          "indexed": true,
          "internalType": "bytes32",
          "name": "noteHash",
          "type": "bytes32"
        },
        {
          "indexed": true,
          "internalType": "address",
          "name": "buyer",
          "type": "address"
        },
        {
          "indexed": false,
          "internalType": "address",
          "name": "seller",
          "type": "address"
        }
      ],
      "name": "NoteBought",
      "type": "event"
    },
    {
      "anonymous": false,
      "inputs": [
        {
          "indexed": false,
          "internalType": "string",
          "name": "message",
          "type": "string"
        },
        {
          "indexed": false,
          "internalType": "uint256",
          "name": "price",
          "type": "uint256"
        }
      ],
      "name": "NotePriceUpdated",
      "type": "event"
    },
    {
      "anonymous": false,
      "inputs": [
        {
          "indexed": false,
          "internalType": "string",
          "name": "message",
          "type": "string"
        }
      ],
      "name": "NoteRemoved",
      "type": "event"
    },
    {
      "anonymous": false,
      "inputs": [
        {
          "indexed": false,
          "internalType": "string",
          "name": "message",
          "type": "string"
        },
        {
          "indexed": false,
          "internalType": "address",
          "name": "userAddress",
          "type": "address"
        },
        {
          "indexed": false,
          "internalType": "bool",
          "name": "isSeller",
          "type": "bool"
        }
      ],
      "name": "UserCreated",
      "type": "event"
    },
    {
      "anonymous": false,
      "inputs": [
        {
          "indexed": false,
          "internalType": "string",
          "name": "message",
          "type": "string"
        }
      ],
      "name": "UserRemoved",
      "type": "event"
    },
    {
      "anonymous": false,
      "inputs": [
        {
          "indexed": false,
          "internalType": "string",
          "name": "message",
          "type": "string"
        }
      ],
      "name": "UserSellerApproved",
      "type": "event"
    },
    {
      "inputs": [
        {
          "internalType": "uint256",
          "name": "",
          "type": "uint256"
        }
      ],
      "name": "notesArr",
      "outputs": [
        {
          "internalType": "bytes32",
          "name": "noteHash",
          "type": "bytes32"
        },
        {
          "internalType": "bytes32",
          "name": "IPFSHash",
          "type": "bytes32"
        },
        {
          "internalType": "uint256",
          "name": "id",
          "type": "uint256"
        },
        {
          "internalType": "address payable",
          "name": "owner",
          "type": "address"
        },
        {
          "internalType": "uint256",
          "name": "price",
          "type": "uint256"
        },
        {
          "internalType": "uint120",
          "name": "purchaseCount",
          "type": "uint120"
        },
        {
          "internalType": "uint8",
          "name": "exits",
          "type": "uint8"
        },
        {
          "internalType": "bool",
          "name": "isApproved",
          "type": "bool"
        },
        {
          "internalType": "string",
          "name": "title",
          "type": "string"
        },
        {
          "internalType": "string",
          "name": "description",
          "type": "string"
        },
        {
          "internalType": "string",
          "name": "author",
          "type": "string"
        }
      ],
      "stateMutability": "view",
      "type": "function"
    },
    {
      "inputs": [
        {
          "internalType": "uint256",
          "name": "",
          "type": "uint256"
        }
      ],
      "name": "usersArr",
      "outputs": [
        {
          "internalType": "address",
          "name": "userAddr",
          "type": "address"
        },
        {
          "internalType": "bool",
          "name": "seller",
          "type": "bool"
        },
        {
          "internalType": "bool",
          "name": "isSellerApproved",
          "type": "bool"
        },
        {
          "internalType": "uint8",
          "name": "exits",
          "type": "uint8"
        }
      ],
      "stateMutability": "view",
      "type": "function"
    },
    {
      "inputs": [],
      "name": "changeNotesMarketStatus",
      "outputs": [],
      "stateMutability": "nonpayable",
      "type": "function"
    },
    {
      "inputs": [
        {
          "internalType": "bool",
          "name": "isSeller",
          "type": "bool"
        }
      ],
      "name": "addUser",
      "outputs": [],
      "stateMutability": "nonpayable",
      "type": "function"
    },
    {
      "inputs": [],
      "name": "removeUser",
      "outputs": [],
      "stateMutability": "nonpayable",
      "type": "function"
    },
    {
      "inputs": [],
      "name": "getUser",
      "outputs": [
        {
          "internalType": "bool",
          "name": "_authStatus",
          "type": "bool"
        },
        {
          "internalType": "bool",
          "name": "_isSeller",
          "type": "bool"
        },
        {
          "internalType": "bool",
          "name": "_isAdmin",
          "type": "bool"
        },
        {
          "internalType": "bool",
          "name": "_isSellerApproved",
          "type": "bool"
        }
      ],
      "stateMutability": "view",
      "type": "function"
    },
    {
      "inputs": [
        {
          "internalType": "address",
          "name": "userAddress",
          "type": "address"
        }
      ],
      "name": "approveSeller",
      "outputs": [],
      "stateMutability": "nonpayable",
      "type": "function"
    },
    {
      "inputs": [],
      "name": "getAllUsers",
      "outputs": [
        {
          "components": [
            {
              "internalType": "address",
              "name": "userAddr",
              "type": "address"
            },
            {
              "internalType": "bool",
              "name": "seller",
              "type": "bool"
            },
            {
              "internalType": "bool",
              "name": "isSellerApproved",
              "type": "bool"
            },
            {
              "internalType": "uint8",
              "name": "exits",
              "type": "uint8"
            }
          ],
          "internalType": "struct NotesMarketContract.User[]",
          "name": "",
          "type": "tuple[]"
        }
      ],
      "stateMutability": "view",
      "type": "function"
    },
    {
      "inputs": [
        {
          "internalType": "bytes32",
          "name": "_IPFShash",
          "type": "bytes32"
        },
        {
          "internalType": "string",
          "name": "_title",
          "type": "string"
        },
        {
          "internalType": "string",
          "name": "_description",
          "type": "string"
        },
        {
          "internalType": "string",
          "name": "_author",
          "type": "string"
        },
        {
          "internalType": "uint256",
          "name": "_price",
          "type": "uint256"
        }
      ],
      "name": "addNote",
      "outputs": [],
      "stateMutability": "nonpayable",
      "type": "function"
    },
    {
      "inputs": [
        {
          "internalType": "bytes32",
          "name": "noteHash",
          "type": "bytes32"
        }
      ],
      "name": "removeNote",
      "outputs": [],
      "stateMutability": "nonpayable",
      "type": "function"
    },
    {
      "inputs": [],
      "name": "getAllNotes",
      "outputs": [
        {
          "components": [
            {
              "internalType": "bytes32",
              "name": "noteHash",
              "type": "bytes32"
            },
            {
              "internalType": "bytes32",
              "name": "IPFSHash",
              "type": "bytes32"
            },
            {
              "internalType": "uint256",
              "name": "id",
              "type": "uint256"
            },
            {
              "internalType": "address payable",
              "name": "owner",
              "type": "address"
            },
            {
              "internalType": "uint256",
              "name": "price",
              "type": "uint256"
            },
            {
              "internalType": "uint120",
              "name": "purchaseCount",
              "type": "uint120"
            },
            {
              "internalType": "uint8",
              "name": "exits",
              "type": "uint8"
            },
            {
              "internalType": "bool",
              "name": "isApproved",
              "type": "bool"
            },
            {
              "internalType": "string",
              "name": "title",
              "type": "string"
            },
            {
              "internalType": "string",
              "name": "description",
              "type": "string"
            },
            {
              "internalType": "string",
              "name": "author",
              "type": "string"
            }
          ],
          "internalType": "struct NotesMarketContract.Note[]",
          "name": "",
          "type": "tuple[]"
        }
      ],
      "stateMutability": "view",
      "type": "function"
    },
    {
      "inputs": [
        {
          "internalType": "bytes32",
          "name": "noteHash",
          "type": "bytes32"
        }
      ],
      "name": "buyNote",
      "outputs": [],
      "stateMutability": "payable",
      "type": "function"
    },
    {
      "inputs": [],
      "name": "getMyPurchasedNotes",
      "outputs": [
        {
          "internalType": "bytes32[]",
          "name": "_boughtNotes",
          "type": "bytes32[]"
        }
      ],
      "stateMutability": "view",
      "type": "function"
    },
    {
      "inputs": [],
      "name": "getOwnedNotes",
      "outputs": [
        {
          "internalType": "bytes32[]",
          "name": "_ownedNotes",
          "type": "bytes32[]"
        }
      ],
      "stateMutability": "view",
      "type": "function"
    }
  ],
  "bytecode": "0x608060405260008060006101000a81548160ff02191690831515021790555034801561002a57600080fd5b5033600060016101000a81548173ffffffffffffffffffffffffffffffffffffffff021916908373ffffffffffffffffffffffffffffffffffffffff1602179055506143438061007b6000396000f3fe6080604052600436106100dd5760003560e01c8063832880e71161007f578063d32fe58311610059578063d32fe58314610299578063de8f430c146102c4578063e2842d79146102ef578063f944f4c71461031a576100dd565b8063832880e714610219578063c169d7e914610247578063c35b28b214610270576100dd565b80635b7eedf8116100bb5780635b7eedf81461017d5780635ec5d856146101bd578063678fc459146101e65780637de524ac14610202576100dd565b80632d731b69146100e2578063358a7b201461010d5780634367fc0314610136575b600080fd5b3480156100ee57600080fd5b506100f7610331565b6040516101049190613a35565b60405180910390f35b34801561011957600080fd5b50610134600480360381019061012f9190613028565b61060b565b005b34801561014257600080fd5b5061015d60048036038101906101589190613110565b61099f565b6040516101749b9a99989796959493929190613ae0565b60405180910390f35b34801561018957600080fd5b506101a4600480360381019061019f9190613110565b610bf6565b6040516101b494939291906139f0565b60405180910390f35b3480156101c957600080fd5b506101e460048036038101906101df9190612fd6565b610c79565b005b61020060048036038101906101fb9190613028565b610f24565b005b34801561020e57600080fd5b506102176117ea565b005b34801561022557600080fd5b5061022e6118a5565b60405161023e9493929190613a9b565b60405180910390f35b34801561025357600080fd5b5061026e60048036038101906102699190613051565b611aa3565b005b34801561027c57600080fd5b5061029760048036038101906102929190612fff565b611ffd565b005b3480156102a557600080fd5b506102ae612354565b6040516102bb9190613a35565b60405180910390f35b3480156102d057600080fd5b506102d9612480565b6040516102e69190613a57565b60405180910390f35b3480156102fb57600080fd5b50610304612830565b6040516103119190613a79565b60405180910390f35b34801561032657600080fd5b5061032f6129cc565b005b606033600560008273ffffffffffffffffffffffffffffffffffffffff1673ffffffffffffffffffffffffffffffffffffffff16815260200190815260200160002060000160149054906101000a900460ff1680156103dc5750600560008273ffffffffffffffffffffffffffffffffffffffff1673ffffffffffffffffffffffffffffffffffffffff16815260200190815260200160002060000160159054906101000a900460ff165b61041b576040517f08c379a000000000000000000000000000000000000000000000000000000000815260040161041290613cd8565b60405180910390fd5b336001600560008373ffffffffffffffffffffffffffffffffffffffff1673ffffffffffffffffffffffffffffffffffffffff16815260200190815260200160002060000160169054906101000a900460ff1660ff16146104b1576040517f08c379a00000000000000000000000000000000000000000000000000000000081526004016104a890613d78565b60405180910390fd5b600860003373ffffffffffffffffffffffffffffffffffffffff1673ffffffffffffffffffffffffffffffffffffffff16815260200190815260200160002080548060200260200160405190810160405280929190818152602001828054801561053a57602002820191906000526020600020905b815481526020019060010190808311610526575b5050505050925060005b83518110156106055760006003600086848151811061058c577f4e487b7100000000000000000000000000000000000000000000000000000000600052603260045260246000fd5b602002602001015181526020019081526020016000205414156105f2578381815181106105e2577f4e487b7100000000000000000000000000000000000000000000000000000000600052603260045260246000fd5b6020026020010160008019168152505b80806105fd90614156565b915050610544565b50505090565b80600060036000838152602001908152602001600020541415610663576040517f08c379a000000000000000000000000000000000000000000000000000000000815260040161065a90613c98565b60405180910390fd5b60006003600083815260200190815260200160002054905060006001808361068b9190613fb4565b815481106106c2577f4e487b7100000000000000000000000000000000000000000000000000000000600052603260045260246000fd5b9060005260206000209060090201600201541415610715576040517f08c379a000000000000000000000000000000000000000000000000000000000815260040161070c90613c98565b60405180910390fd5b8260006003600083815260200190815260200160002054905060006001808361073e9190613fb4565b81548110610775577f4e487b7100000000000000000000000000000000000000000000000000000000600052603260045260246000fd5b906000526020600020906009020160050160009054906101000a90046effffffffffffffffffffffffffffff166effffffffffffffffffffffffffffff16146107f3576040517f08c379a00000000000000000000000000000000000000000000000000000000081526004016107ea90613be0565b60405180910390fd5b3385600060036000838152602001908152602001600020549050600060019054906101000a900473ffffffffffffffffffffffffffffffffffffffff1673ffffffffffffffffffffffffffffffffffffffff168373ffffffffffffffffffffffffffffffffffffffff16148061090a5750600180826108729190613fb4565b815481106108a9577f4e487b7100000000000000000000000000000000000000000000000000000000600052603260045260246000fd5b906000526020600020906009020160030160009054906101000a900473ffffffffffffffffffffffffffffffffffffffff1673ffffffffffffffffffffffffffffffffffffffff168373ffffffffffffffffffffffffffffffffffffffff16145b610949576040517f08c379a000000000000000000000000000000000000000000000000000000000815260040161094090613c00565b60405180910390fd5b60036000898152602001908152602001600020600090557fe41203db0fa61b8b33140f8fc1ca977ef1ae43ae15065035c505670c0b4e0ed560405161098d90613d18565b60405180910390a15050505050505050565b600181815481106109af57600080fd5b90600052602060002090600902016000915090508060000154908060010154908060020154908060030160009054906101000a900473ffffffffffffffffffffffffffffffffffffffff16908060040154908060050160009054906101000a90046effffffffffffffffffffffffffffff169080600501600f9054906101000a900460ff16908060050160109054906101000a900460ff1690806006018054610a57906140ec565b80601f0160208091040260200160405190810160405280929190818152602001828054610a83906140ec565b8015610ad05780601f10610aa557610100808354040283529160200191610ad0565b820191906000526020600020905b815481529060010190602001808311610ab357829003601f168201915b505050505090806007018054610ae5906140ec565b80601f0160208091040260200160405190810160405280929190818152602001828054610b11906140ec565b8015610b5e5780601f10610b3357610100808354040283529160200191610b5e565b820191906000526020600020905b815481529060010190602001808311610b4157829003601f168201915b505050505090806008018054610b73906140ec565b80601f0160208091040260200160405190810160405280929190818152602001828054610b9f906140ec565b8015610bec5780601f10610bc157610100808354040283529160200191610bec565b820191906000526020600020905b815481529060010190602001808311610bcf57829003601f168201915b505050505090508b565b60028181548110610c0657600080fd5b906000526020600020016000915090508060000160009054906101000a900473ffffffffffffffffffffffffffffffffffffffff16908060000160149054906101000a900460ff16908060000160159054906101000a900460ff16908060000160169054906101000a900460ff16905084565b6000151560008054906101000a900460ff16151514610ccd576040517f08c379a0000000000000000000000000000000000000000000000000000000008152600401610cc490613d98565b60405180910390fd5b33600060019054906101000a900473ffffffffffffffffffffffffffffffffffffffff1673ffffffffffffffffffffffffffffffffffffffff168173ffffffffffffffffffffffffffffffffffffffff1614610d5e576040517f08c379a0000000000000000000000000000000000000000000000000000000008152600401610d5590613ba0565b60405180910390fd5b816001600560008373ffffffffffffffffffffffffffffffffffffffff1673ffffffffffffffffffffffffffffffffffffffff16815260200190815260200160002060000160169054906101000a900460ff1660ff1614610df4576040517f08c379a0000000000000000000000000000000000000000000000000000000008152600401610deb90613d78565b60405180910390fd5b600560008473ffffffffffffffffffffffffffffffffffffffff1673ffffffffffffffffffffffffffffffffffffffff16815260200190815260200160002060000160149054906101000a900460ff1615610ee4576000600560008573ffffffffffffffffffffffffffffffffffffffff1673ffffffffffffffffffffffffffffffffffffffff168152602001908152602001600020905060018160000160156101000a81548160ff0219169083151502179055507fae937c810850c4277a17aeb7e8b138034e898dbb0a85b262eb9ea276fedc9405604051610ed690613cb8565b60405180910390a150610f1f565b6040517f08c379a0000000000000000000000000000000000000000000000000000000008152600401610f1690613bc0565b60405180910390fd5b505050565b6000151560008054906101000a900460ff16151514610f78576040517f08c379a0000000000000000000000000000000000000000000000000000000008152600401610f6f90613d98565b60405180910390fd5b336001600560008373ffffffffffffffffffffffffffffffffffffffff1673ffffffffffffffffffffffffffffffffffffffff16815260200190815260200160002060000160169054906101000a900460ff1660ff161461100e576040517f08c379a000000000000000000000000000000000000000000000000000000000815260040161100590613d78565b60405180910390fd5b81600060036000838152602001908152602001600020541415611066576040517f08c379a000000000000000000000000000000000000000000000000000000000815260040161105d90613c98565b60405180910390fd5b60006003600083815260200190815260200160002054905060006001808361108e9190613fb4565b815481106110c5577f4e487b7100000000000000000000000000000000000000000000000000000000600052603260045260246000fd5b9060005260206000209060090201600201541415611118576040517f08c379a000000000000000000000000000000000000000000000000000000000815260040161110f90613c98565b60405180910390fd5b60018060036000878152602001908152602001600020546111399190613fb4565b81548110611170577f4e487b7100000000000000000000000000000000000000000000000000000000600052603260045260246000fd5b9060005260206000209060090201600401543373ffffffffffffffffffffffffffffffffffffffff16318111156111dc576040517f08c379a00000000000000000000000000000000000000000000000000000000081526004016111d390613d58565b60405180910390fd5b6000600360008781526020019081526020016000205490506000600180836112049190613fb4565b8154811061123b577f4e487b7100000000000000000000000000000000000000000000000000000000600052603260045260246000fd5b9060005260206000209060090201604051806101600160405290816000820154815260200160018201548152602001600282015481526020016003820160009054906101000a900473ffffffffffffffffffffffffffffffffffffffff1673ffffffffffffffffffffffffffffffffffffffff1673ffffffffffffffffffffffffffffffffffffffff168152602001600482015481526020016005820160009054906101000a90046effffffffffffffffffffffffffffff166effffffffffffffffffffffffffffff166effffffffffffffffffffffffffffff16815260200160058201600f9054906101000a900460ff1660ff1660ff1681526020016005820160109054906101000a900460ff16151515158152602001600682018054611362906140ec565b80601f016020809104026020016040519081016040528092919081815260200182805461138e906140ec565b80156113db5780601f106113b0576101008083540402835291602001916113db565b820191906000526020600020905b8154815290600101906020018083116113be57829003601f168201915b505050505081526020016007820180546113f4906140ec565b80601f0160208091040260200160405190810160405280929190818152602001828054611420906140ec565b801561146d5780601f106114425761010080835404028352916020019161146d565b820191906000526020600020905b81548152906001019060200180831161145057829003601f168201915b50505050508152602001600882018054611486906140ec565b80601f01602080910402602001604051908101604052809291908181526020018280546114b2906140ec565b80156114ff5780601f106114d4576101008083540402835291602001916114ff565b820191906000526020600020905b8154815290600101906020018083116114e257829003601f168201915b5050505050815250509050600081606001519050600061152d60648460800151612cdc90919063ffffffff16565b90506000611548828560800151612cf290919063ffffffff16565b9050600061155a338660200151612d08565b905080600660008d815260200190815260200160002060003373ffffffffffffffffffffffffffffffffffffffff1673ffffffffffffffffffffffffffffffffffffffff16815260200190815260200160002081905550600760003373ffffffffffffffffffffffffffffffffffffffff1673ffffffffffffffffffffffffffffffffffffffff1681526020019081526020016000208b90806001815401808255809150506001900390600052602060002001600090919091909150558460a00180518091906116299061411e565b6effffffffffffffffffffffffffffff166effffffffffffffffffffffffffffff16815250508460a00151600180886116629190613fb4565b81548110611699577f4e487b7100000000000000000000000000000000000000000000000000000000600052603260045260246000fd5b906000526020600020906009020160050160006101000a8154816effffffffffffffffffffffffffffff02191690836effffffffffffffffffffffffffffff1602179055508373ffffffffffffffffffffffffffffffffffffffff166108fc839081150290604051600060405180830381858888f19350505050158015611724573d6000803e3d6000fd5b50600060019054906101000a900473ffffffffffffffffffffffffffffffffffffffff1673ffffffffffffffffffffffffffffffffffffffff166108fc849081150290604051600060405180830381858888f1935050505015801561178d573d6000803e3d6000fd5b503373ffffffffffffffffffffffffffffffffffffffff168b7fd1b3ceff01e1556a2936b8fef7e2e78b49634ac547f868ab32e3bdcb3c2b97af866040516117d59190613c20565b60405180910390a35050505050505050505050565b33600060019054906101000a900473ffffffffffffffffffffffffffffffffffffffff1673ffffffffffffffffffffffffffffffffffffffff168173ffffffffffffffffffffffffffffffffffffffff161461187b576040517f08c379a000000000000000000000000000000000000000000000000000000000815260040161187290613ba0565b60405180910390fd5b60008054906101000a900460ff16156000806101000a81548160ff02191690831515021790555050565b600080600080336001600560008373ffffffffffffffffffffffffffffffffffffffff1673ffffffffffffffffffffffffffffffffffffffff16815260200190815260200160002060000160169054906101000a900460ff1660ff16148061195a5750600060019054906101000a900473ffffffffffffffffffffffffffffffffffffffff1673ffffffffffffffffffffffffffffffffffffffff168173ffffffffffffffffffffffffffffffffffffffff16145b611999576040517f08c379a000000000000000000000000000000000000000000000000000000000815260040161199090613d78565b60405180910390fd5b60019450600560003373ffffffffffffffffffffffffffffffffffffffff1673ffffffffffffffffffffffffffffffffffffffff16815260200190815260200160002060000160149054906101000a900460ff169350600560003373ffffffffffffffffffffffffffffffffffffffff1673ffffffffffffffffffffffffffffffffffffffff16815260200190815260200160002060000160159054906101000a900460ff169150600060019054906101000a900473ffffffffffffffffffffffffffffffffffffffff1673ffffffffffffffffffffffffffffffffffffffff163373ffffffffffffffffffffffffffffffffffffffff161415611a9c57600192505b5090919293565b336001600560008373ffffffffffffffffffffffffffffffffffffffff1673ffffffffffffffffffffffffffffffffffffffff16815260200190815260200160002060000160169054906101000a900460ff1660ff1614611b39576040517f08c379a0000000000000000000000000000000000000000000000000000000008152600401611b3090613d78565b60405180910390fd5b33600560008273ffffffffffffffffffffffffffffffffffffffff1673ffffffffffffffffffffffffffffffffffffffff16815260200190815260200160002060000160149054906101000a900460ff168015611be25750600560008273ffffffffffffffffffffffffffffffffffffffff1673ffffffffffffffffffffffffffffffffffffffff16815260200190815260200160002060000160159054906101000a900460ff165b611c21576040517f08c379a0000000000000000000000000000000000000000000000000000000008152600401611c1890613cd8565b60405180910390fd5b60006004600089815260200190815260200160002054905060006003600083815260200190815260200160002054905060008114611c94576040517f08c379a0000000000000000000000000000000000000000000000000000000008152600401611c8b90613cf8565b60405180910390fd5b600060018080549050611ca79190613f2d565b905080604051602001611cba91906139d5565b60405160208183030381529060405280519060200120925080600360008581526020019081526020016000208190555082600460008c815260200190815260200160002081905550600860003373ffffffffffffffffffffffffffffffffffffffff1673ffffffffffffffffffffffffffffffffffffffff168152602001908152602001600020839080600181540180825580915050600190039060005260206000200160009091909190915055611d70612d68565b838160000181815250508a8160200181815250508181604001818152505033816060019073ffffffffffffffffffffffffffffffffffffffff16908173ffffffffffffffffffffffffffffffffffffffff16815250508681608001818152505060008160a001906effffffffffffffffffffffffffffff1690816effffffffffffffffffffffffffffff168152505060018160c0019060ff16908160ff168152505089816101000181905250888161012001819052508781610140018190525060018160e0019015159081151581525050600181908060018154018082558091505060019003906000526020600020906009020160009091909190915060008201518160000155602082015181600101556040820151816002015560608201518160030160006101000a81548173ffffffffffffffffffffffffffffffffffffffff021916908373ffffffffffffffffffffffffffffffffffffffff1602179055506080820151816004015560a08201518160050160006101000a8154816effffffffffffffffffffffffffffff02191690836effffffffffffffffffffffffffffff16021790555060c082015181600501600f6101000a81548160ff021916908360ff16021790555060e08201518160050160106101000a81548160ff021916908315150217905550610100820151816006019080519060200190611f77929190612df4565b50610120820151816007019080519060200190611f95929190612df4565b50610140820151816008019080519060200190611fb3929190612df4565b505050837f61f7b06099d9d6c81bb3b480f2051f0190d343d909af3bdc90ff6b86cd83de588b8a604051611fe8929190613c4e565b60405180910390a25050505050505050505050565b6000151560008054906101000a900460ff16151514612051576040517f08c379a000000000000000000000000000000000000000000000000000000000815260040161204890613d98565b60405180910390fd5b6000600560003373ffffffffffffffffffffffffffffffffffffffff1673ffffffffffffffffffffffffffffffffffffffff16815260200190815260200160002060000160169054906101000a900460ff1660ff16146120e6576040517f08c379a00000000000000000000000000000000000000000000000000000000081526004016120dd90613d38565b60405180910390fd5b6120ee612e7a565b33816000019073ffffffffffffffffffffffffffffffffffffffff16908173ffffffffffffffffffffffffffffffffffffffff16815250508181602001901515908115158152505060008160400190151590811515815250506001816060019060ff16908160ff168152505080600560003373ffffffffffffffffffffffffffffffffffffffff1673ffffffffffffffffffffffffffffffffffffffff16815260200190815260200160002060008201518160000160006101000a81548173ffffffffffffffffffffffffffffffffffffffff021916908373ffffffffffffffffffffffffffffffffffffffff16021790555060208201518160000160146101000a81548160ff02191690831515021790555060408201518160000160156101000a81548160ff02191690831515021790555060608201518160000160166101000a81548160ff021916908360ff1602179055509050506002819080600181540180825580915050600190039060005260206000200160009091909190915060008201518160000160006101000a81548173ffffffffffffffffffffffffffffffffffffffff021916908373ffffffffffffffffffffffffffffffffffffffff16021790555060208201518160000160146101000a81548160ff02191690831515021790555060408201518160000160156101000a81548160ff02191690831515021790555060608201518160000160166101000a81548160ff021916908360ff16021790555050507f6ed7fd9c095d25702b515b4fc3c80ddda04a36adc0a6619c93fe1a306784f51e3383604051612348929190613db8565b60405180910390a15050565b6060336001600560008373ffffffffffffffffffffffffffffffffffffffff1673ffffffffffffffffffffffffffffffffffffffff16815260200190815260200160002060000160169054906101000a900460ff1660ff16146123ec576040517f08c379a00000000000000000000000000000000000000000000000000000000081526004016123e390613d78565b60405180910390fd5b600760003373ffffffffffffffffffffffffffffffffffffffff1673ffffffffffffffffffffffffffffffffffffffff16815260200190815260200160002080548060200260200160405190810160405280929190818152602001828054801561247557602002820191906000526020600020905b815481526020019060010190808311612461575b505050505091505090565b6060336001600560008373ffffffffffffffffffffffffffffffffffffffff1673ffffffffffffffffffffffffffffffffffffffff16815260200190815260200160002060000160169054906101000a900460ff1660ff1614612518576040517f08c379a000000000000000000000000000000000000000000000000000000000815260040161250f90613d78565b60405180910390fd5b60606001805480602002602001604051908101604052809291908181526020016000905b828210156128225783829060005260206000209060090201604051806101600160405290816000820154815260200160018201548152602001600282015481526020016003820160009054906101000a900473ffffffffffffffffffffffffffffffffffffffff1673ffffffffffffffffffffffffffffffffffffffff1673ffffffffffffffffffffffffffffffffffffffff168152602001600482015481526020016005820160009054906101000a90046effffffffffffffffffffffffffffff166effffffffffffffffffffffffffffff166effffffffffffffffffffffffffffff16815260200160058201600f9054906101000a900460ff1660ff1660ff1681526020016005820160109054906101000a900460ff1615151515815260200160068201805461266d906140ec565b80601f0160208091040260200160405190810160405280929190818152602001828054612699906140ec565b80156126e65780601f106126bb576101008083540402835291602001916126e6565b820191906000526020600020905b8154815290600101906020018083116126c957829003601f168201915b505050505081526020016007820180546126ff906140ec565b80601f016020809104026020016040519081016040528092919081815260200182805461272b906140ec565b80156127785780601f1061274d57610100808354040283529160200191612778565b820191906000526020600020905b81548152906001019060200180831161275b57829003601f168201915b50505050508152602001600882018054612791906140ec565b80601f01602080910402602001604051908101604052809291908181526020018280546127bd906140ec565b801561280a5780601f106127df5761010080835404028352916020019161280a565b820191906000526020600020905b8154815290600101906020018083116127ed57829003601f168201915b5050505050815250508152602001906001019061253c565b505050509050809250505090565b606033600060019054906101000a900473ffffffffffffffffffffffffffffffffffffffff1673ffffffffffffffffffffffffffffffffffffffff168173ffffffffffffffffffffffffffffffffffffffff16146128c3576040517f08c379a00000000000000000000000000000000000000000000000000000000081526004016128ba90613ba0565b60405180910390fd5b60606002805480602002602001604051908101604052809291908181526020016000905b828210156129be578382906000526020600020016040518060800160405290816000820160009054906101000a900473ffffffffffffffffffffffffffffffffffffffff1673ffffffffffffffffffffffffffffffffffffffff1673ffffffffffffffffffffffffffffffffffffffff1681526020016000820160149054906101000a900460ff161515151581526020016000820160159054906101000a900460ff161515151581526020016000820160169054906101000a900460ff1660ff1660ff1681525050815260200190600101906128e7565b505050509050809250505090565b336001600560008373ffffffffffffffffffffffffffffffffffffffff1673ffffffffffffffffffffffffffffffffffffffff16815260200190815260200160002060000160169054906101000a900460ff1660ff1614612a62576040517f08c379a0000000000000000000000000000000000000000000000000000000008152600401612a5990613d78565b60405180910390fd5b600560003373ffffffffffffffffffffffffffffffffffffffff1673ffffffffffffffffffffffffffffffffffffffff16815260200190815260200160002060000160149054906101000a900460ff1615612bff576000600860003373ffffffffffffffffffffffffffffffffffffffff1673ffffffffffffffffffffffffffffffffffffffff168152602001908152602001600020805480602002602001604051908101604052809291908181526020018280548015612b4257602002820191906000526020600020905b815481526020019060010190808311612b2e575b5050505050905060005b8151811015612bb157612b9e828281518110612b91577f4e487b7100000000000000000000000000000000000000000000000000000000600052603260045260246000fd5b602002602001015161060b565b8080612ba990614156565b915050612b4c565b50600860003373ffffffffffffffffffffffffffffffffffffffff1673ffffffffffffffffffffffffffffffffffffffff1681526020019081526020016000206000612bfd9190612ebf565b505b600560003373ffffffffffffffffffffffffffffffffffffffff1673ffffffffffffffffffffffffffffffffffffffff168152602001908152602001600020600080820160006101000a81549073ffffffffffffffffffffffffffffffffffffffff02191690556000820160146101000a81549060ff02191690556000820160156101000a81549060ff02191690556000820160166101000a81549060ff021916905550507f5b8514bf599ab0e7b72a3b2d47ae13677daa88ebbf833cea7bad37b6df49ede3604051612cd190613d18565b60405180910390a150565b60008183612cea9190613f83565b905092915050565b60008183612d009190613fb4565b905092915050565b6000807f537d3723252a534433306f37440000000000000000000000000000000000000090506000848483604051602001612d4593929190613998565b604051602081830303815290604052805190602001209050809250505092915050565b604051806101600160405280600080191681526020016000801916815260200160008152602001600073ffffffffffffffffffffffffffffffffffffffff1681526020016000815260200160006effffffffffffffffffffffffffffff168152602001600060ff1681526020016000151581526020016060815260200160608152602001606081525090565b828054612e00906140ec565b90600052602060002090601f016020900481019282612e225760008555612e69565b82601f10612e3b57805160ff1916838001178555612e69565b82800160010185558215612e69579182015b82811115612e68578251825591602001919060010190612e4d565b5b509050612e769190612ee0565b5090565b6040518060800160405280600073ffffffffffffffffffffffffffffffffffffffff168152602001600015158152602001600015158152602001600060ff1681525090565b5080546000825590600052602060002090810190612edd9190612efd565b50565b5b80821115612ef9576000816000905550600101612ee1565b5090565b5b80821115612f16576000816000905550600101612efe565b5090565b6000612f2d612f2884613e25565b613df4565b905082815260208101848484011115612f4557600080fd5b612f508482856140aa565b509392505050565b600081359050612f67816142b1565b92915050565b600081359050612f7c816142c8565b92915050565b600081359050612f91816142df565b92915050565b600082601f830112612fa857600080fd5b8135612fb8848260208601612f1a565b91505092915050565b600081359050612fd0816142f6565b92915050565b600060208284031215612fe857600080fd5b6000612ff684828501612f58565b91505092915050565b60006020828403121561301157600080fd5b600061301f84828501612f6d565b91505092915050565b60006020828403121561303a57600080fd5b600061304884828501612f82565b91505092915050565b600080600080600060a0868803121561306957600080fd5b600061307788828901612f82565b955050602086013567ffffffffffffffff81111561309457600080fd5b6130a088828901612f97565b945050604086013567ffffffffffffffff8111156130bd57600080fd5b6130c988828901612f97565b935050606086013567ffffffffffffffff8111156130e657600080fd5b6130f288828901612f97565b925050608061310388828901612fc1565b9150509295509295909350565b60006020828403121561312257600080fd5b600061313084828501612fc1565b91505092915050565b6000613145838361332e565b60208301905092915050565b600061315d83836137d5565b905092915050565b600061317183836138d2565b60808301905092915050565b61318681614074565b82525050565b61319581613ffa565b82525050565b6131a481613ffa565b82525050565b6131b381613fe8565b82525050565b6131c281613fe8565b82525050565b6131d96131d482613fe8565b61419f565b82525050565b60006131ea82613e85565b6131f48185613ed8565b93506131ff83613e55565b8060005b838110156132305781516132178882613139565b975061322283613eb1565b925050600181019050613203565b5085935050505092915050565b600061324882613e90565b6132528185613ee9565b93508360208202850161326485613e65565b8060005b858110156132a057848403895281516132818582613151565b945061328c83613ebe565b925060208a01995050600181019050613268565b50829750879550505050505092915050565b60006132bd82613e9b565b6132c78185613efa565b93506132d283613e75565b8060005b838110156133035781516132ea8882613165565b97506132f583613ecb565b9250506001810190506132d6565b5085935050505092915050565b6133198161400c565b82525050565b6133288161400c565b82525050565b61333781614018565b82525050565b61334681614018565b82525050565b61335d61335882614018565b6141b1565b82525050565b600061336e82613ea6565b6133788185613f0b565b93506133888185602086016140b9565b61339181614293565b840191505092915050565b60006133a782613ea6565b6133b18185613f1c565b93506133c18185602086016140b9565b6133ca81614293565b840191505092915050565b60006133e2600c83613f1c565b91507f4973206e6f742061646d696e00000000000000000000000000000000000000006000830152602082019050919050565b6000613422601483613f1c565b91507f55736572206973206e6f7420612073656c6c65720000000000000000000000006000830152602082019050919050565b6000613462601783613f1c565b91507f4e6f746520686173206265656e207075726368617365640000000000000000006000830152602082019050919050565b60006134a2601f83613f1c565b91507f4973206e6f742061646d696e206e6f7220746865206e6f7465206f776e6572006000830152602082019050919050565b60006134e2600b83613f1c565b91507f6e6f746520626f756768740000000000000000000000000000000000000000006000830152602082019050919050565b6000613522601983613f1c565b91507f4e6f7465207375636365737366756c6c792063726561746564000000000000006000830152602082019050919050565b6000613562601283613f1c565b91507f4e6f746520646f65736e277420657869737400000000000000000000000000006000830152602082019050919050565b60006135a2602083613f1c565b91507f557365722073656c6c657220697320617070726f76656420666f722073656c6c6000830152602082019050919050565b60006135e2601583613f1c565b91507f557365722063616e27742073656c6c206e6f74657300000000000000000000006000830152602082019050919050565b6000613622601383613f1c565b91507f4e6f746520616c726561647920657869737473000000000000000000000000006000830152602082019050919050565b6000613662601983613f1c565b91507f55736572207375636365737366756c6c792064656c65746564000000000000006000830152602082019050919050565b60006136a2601783613f1c565b91507f5573657220616c726561647920726567697374657265640000000000000000006000830152602082019050919050565b60006136e2601283613f1c565b91507f696e73756666696369656e742066756e647300000000000000000000000000006000830152602082019050919050565b6000613722601283613f1c565b91507f5573657220646f65736e277420657869737400000000000000000000000000006000830152602082019050919050565b6000613762601e83613f1c565b91507f4e6f7465736d61726b657420697320636c6f7365642062792061646d696e00006000830152602082019050919050565b60006137a2601983613f1c565b91507f55736572207375636365737366756c6c792063726561746564000000000000006000830152602082019050919050565b6000610160830160008301516137ee600086018261332e565b506020830151613801602086018261332e565b5060408301516138146040860182613945565b506060830151613827606086018261318c565b50608083015161383a6080860182613945565b5060a083015161384d60a0860182613927565b5060c083015161386060c086018261397a565b5060e083015161387360e0860182613310565b5061010083015184820361010086015261388d8282613363565b9150506101208301518482036101208601526138a98282613363565b9150506101408301518482036101408601526138c58282613363565b9150508091505092915050565b6080820160008201516138e860008501826131aa565b5060208201516138fb6020850182613310565b50604082015161390e6040850182613310565b506060820151613921606085018261397a565b50505050565b61393081614022565b82525050565b61393f81614022565b82525050565b61394e8161405d565b82525050565b61395d8161405d565b82525050565b61397461396f8261405d565b6141cd565b82525050565b61398381614067565b82525050565b61399281614067565b82525050565b60006139a482866131c8565b6014820191506139b4828561334c565b6020820191506139c4828461334c565b602082019150819050949350505050565b60006139e18284613963565b60208201915081905092915050565b6000608082019050613a0560008301876131b9565b613a12602083018661331f565b613a1f604083018561331f565b613a2c6060830184613989565b95945050505050565b60006020820190508181036000830152613a4f81846131df565b905092915050565b60006020820190508181036000830152613a71818461323d565b905092915050565b60006020820190508181036000830152613a9381846132b2565b905092915050565b6000608082019050613ab0600083018761331f565b613abd602083018661331f565b613aca604083018561331f565b613ad7606083018461331f565b95945050505050565b600061016082019050613af6600083018e61333d565b613b03602083018d61333d565b613b10604083018c613954565b613b1d606083018b61319b565b613b2a608083018a613954565b613b3760a0830189613936565b613b4460c0830188613989565b613b5160e083018761331f565b818103610100830152613b64818661339c565b9050818103610120830152613b79818561339c565b9050818103610140830152613b8e818461339c565b90509c9b505050505050505050505050565b60006020820190508181036000830152613bb9816133d5565b9050919050565b60006020820190508181036000830152613bd981613415565b9050919050565b60006020820190508181036000830152613bf981613455565b9050919050565b60006020820190508181036000830152613c1981613495565b9050919050565b60006040820190508181036000830152613c39816134d5565b9050613c48602083018461317d565b92915050565b60006060820190508181036000830152613c6781613515565b90508181036020830152613c7b818561339c565b90508181036040830152613c8f818461339c565b90509392505050565b60006020820190508181036000830152613cb181613555565b9050919050565b60006020820190508181036000830152613cd181613595565b9050919050565b60006020820190508181036000830152613cf1816135d5565b9050919050565b60006020820190508181036000830152613d1181613615565b9050919050565b60006020820190508181036000830152613d3181613655565b9050919050565b60006020820190508181036000830152613d5181613695565b9050919050565b60006020820190508181036000830152613d71816136d5565b9050919050565b60006020820190508181036000830152613d9181613715565b9050919050565b60006020820190508181036000830152613db181613755565b9050919050565b60006060820190508181036000830152613dd181613795565b9050613de060208301856131b9565b613ded604083018461331f565b9392505050565b6000604051905081810181811067ffffffffffffffff82111715613e1b57613e1a614264565b5b8060405250919050565b600067ffffffffffffffff821115613e4057613e3f614264565b5b601f19601f8301169050602081019050919050565b6000819050602082019050919050565b6000819050602082019050919050565b6000819050602082019050919050565b600081519050919050565b600081519050919050565b600081519050919050565b600081519050919050565b6000602082019050919050565b6000602082019050919050565b6000602082019050919050565b600082825260208201905092915050565b600082825260208201905092915050565b600082825260208201905092915050565b600082825260208201905092915050565b600082825260208201905092915050565b6000613f388261405d565b9150613f438361405d565b9250827fffffffffffffffffffffffffffffffffffffffffffffffffffffffffffffffff03821115613f7857613f776141d7565b5b828201905092915050565b6000613f8e8261405d565b9150613f998361405d565b925082613fa957613fa8614206565b5b828204905092915050565b6000613fbf8261405d565b9150613fca8361405d565b925082821015613fdd57613fdc6141d7565b5b828203905092915050565b6000613ff38261403d565b9050919050565b60006140058261403d565b9050919050565b60008115159050919050565b6000819050919050565b60006effffffffffffffffffffffffffffff82169050919050565b600073ffffffffffffffffffffffffffffffffffffffff82169050919050565b6000819050919050565b600060ff82169050919050565b600061407f82614086565b9050919050565b600061409182614098565b9050919050565b60006140a38261403d565b9050919050565b82818337600083830152505050565b60005b838110156140d75780820151818401526020810190506140bc565b838111156140e6576000848401525b50505050565b6000600282049050600182168061410457607f821691505b6020821081141561411857614117614235565b5b50919050565b600061412982614022565b91506effffffffffffffffffffffffffffff82141561414b5761414a6141d7565b5b600182019050919050565b60006141618261405d565b91507fffffffffffffffffffffffffffffffffffffffffffffffffffffffffffffffff821415614194576141936141d7565b5b600182019050919050565b60006141aa826141bb565b9050919050565b6000819050919050565b60006141c6826142a4565b9050919050565b6000819050919050565b7f4e487b7100000000000000000000000000000000000000000000000000000000600052601160045260246000fd5b7f4e487b7100000000000000000000000000000000000000000000000000000000600052601260045260246000fd5b7f4e487b7100000000000000000000000000000000000000000000000000000000600052602260045260246000fd5b7f4e487b7100000000000000000000000000000000000000000000000000000000600052604160045260246000fd5b6000601f19601f8301169050919050565b60008160601b9050919050565b6142ba81613fe8565b81146142c557600080fd5b50565b6142d18161400c565b81146142dc57600080fd5b50565b6142e881614018565b81146142f357600080fd5b50565b6142ff8161405d565b811461430a57600080fd5b5056fea2646970667358221220e3fcb5dd09a270c491621c6e3af7ecafd06df59e88be4db34d19e41c0b11744464736f6c63430008000033",
  "immutableReferences": {},
  "source": "// SPDX-License-Identifier: MIT\npragma solidity >=0.8.0;\nimport \"@openzeppelin/contracts/utils/math/SafeMath.sol\";\n\n/// @title NotesMarketContract\n/// @author The name of the author\n/// @notice Explain to an end user what this does\n/// @dev Contract for selling and bying notes market\n\n/**\n@title \n */\ncontract NotesMarketContract {\n\n  using SafeMath for uint256;\n    using SafeMath for uint16;\n\n  bool private notesMarketIsClosed = false;\n  address payable private admin;\n\n  constructor(){\n    admin = payable(msg.sender);\n  }\n\n  Note[] public notesArr;\n  User[] public usersArr;\n\n  // List of notes indexed by note hash -> numerical id\n  mapping(bytes32 => uint) private notesHashes;\n\n  // List of notes indexed by ifps hash -> note id hash\n  mapping(bytes32 => bytes32) private IPFSHashes;\n\n  // List of users indexed by address\n  mapping(address => User) private users;\n\n  // List of all note purchase tokens\n  // for each note(noteHash), there is a collection of buyers' accessTokens(add -> accessToken)\n  mapping(bytes32 => mapping(address => bytes32)) private purchaseTokens;\n\n  // List of notes bought by users\n  mapping(address => bytes32[]) private boughtNotes;\n\n  // List of notes owned by users\n  mapping(address => bytes32[]) private ownedNotes;\n\n\n  // STRUCTS\n\n  // User -> buyer and/or seller\n  // Buy -> All users can buy notes\n  // Sell -> Just approved users can sell notes\n  struct User{\n    address userAddr;\n    bool seller; // Note owner\n    bool isSellerApproved; // Is approved to sell\n    uint8 exits;  \n  }\n\n  struct Note{\n    bytes32 noteHash; // note id hash\n    bytes32 IPFSHash; // note ipfs reference\n    uint id; // id - 1 -> position of bote in dynamic array\n    address payable owner; \n    uint256 price; // price in tokens\n    uint120 purchaseCount; // number of notes purchases\n    uint8 exits;\n    bool isApproved; // approved for sale\n    string title;\n    string description;\n    string author;\n  }\n\n  // EVENTS\n  event UserCreated(string message, address userAddress, bool isSeller);\n  event UserRemoved(string message);\n  event UserSellerApproved(string message);\n\n  event NoteAdded(string message, bytes32 indexed noteHash, string title, string author);\n  event NoteRemoved(string message);\n  event NotePriceUpdated(string message, uint256 price);\n  event NoteBought(string message, bytes32 indexed noteHash, address indexed buyer, address seller);\n\n\n  // MODIFIERS\n  modifier isAdmin(address userAddress){\n    require(userAddress == admin, \"Is not admin\");\n    _;\n  }\n  \n  modifier notesMarketIsOpen(){\n    require(notesMarketIsClosed == false, \"Notesmarket is closed by admin\" );\n    _;\n  }\n\n  modifier userExists(address userAddress){\n    require(users[userAddress].exits == 1, \"User doesn't exist\" );\n    _;\n  }\n\n  modifier isUserOrAdmin(address userAddress){\n     require(users[userAddress].exits == 1 || userAddress == admin, \"User doesn't exist\" );\n    _;\n  }\n\n  modifier isNoteOwnerOrAdmin(address userAddress, bytes32 noteHash){\n    uint noteId = notesHashes[noteHash];\n    require(userAddress == admin || userAddress == notesArr[noteId - 1].owner, \"Is not admin nor the note owner\");\n    _;\n  }\n\n  modifier doesNoteExist(bytes32 noteHash){\n    require(notesHashes[noteHash] != 0, \"Note doesn't exist\");\n    uint noteId = notesHashes[noteHash];\n    require(notesArr[noteId - 1].id != 0, \"Note doesn't exist\");\n    _;\n  }\n\n  modifier notPurchased(bytes32 noteHash){\n    uint noteId = notesHashes[noteHash];\n    require(notesArr[noteId - 1].purchaseCount == 0, \"Note has been purchased\");\n    _;\n  }\n\n  modifier canSellNotes(address userAddress){\n    require(users[userAddress].seller && users[userAddress].isSellerApproved, \"User can't sell notes\");\n    _;\n  }\n\n  modifier sufficientFunds(uint price){\n    require(price <= msg.sender.balance, \"insufficient funds\");\n    _;\n  }\n\n\n  // FUNCTIONS\n\n  /* NoteMarket */\n\n  function changeNotesMarketStatus() isAdmin(msg.sender) external{\n    notesMarketIsClosed = !notesMarketIsClosed;\n  }\n\n  /* Users */\n  \n  function addUser(bool isSeller) notesMarketIsOpen external{\n    require(users[msg.sender].exits == 0, \"User already registered\");\n\n    User memory user;\n\n    user.userAddr = msg.sender;\n    user.seller = isSeller;\n    user.isSellerApproved = false; // Is approved to sell\n    user.exits = 1;\n  \n    users[msg.sender] = user;\n    usersArr.push(user);\n\n    emit UserCreated(\"User successfully created\", msg.sender, isSeller);\n  }\n\n  function removeUser() userExists(msg.sender) external{\n    if(users[(msg.sender)].seller){\n      bytes32[] memory hashes = ownedNotes[msg.sender];\n\n      for (uint i = 0; i < hashes.length; i++) {\n        removeNote(hashes[i]);\n      }\n      delete ownedNotes[msg.sender];\n    }\n    delete users[msg.sender];\n\n    emit UserRemoved(\"User successfully deleted\");\n  }\n\n  function getUser() isUserOrAdmin(msg.sender) view external returns(bool _authStatus, bool _isSeller, bool _isAdmin, bool _isSellerApproved){\n      _authStatus = true;\n      _isSeller = users[msg.sender].seller;\n      _isSellerApproved = users[msg.sender].isSellerApproved;\n      if(msg.sender == admin) _isAdmin = true;\n  }\n\n\n  function approveSeller(address userAddress) notesMarketIsOpen isAdmin(msg.sender) userExists(userAddress) external{\n    if(users[userAddress].seller){\n      User storage user = users[userAddress];\n      user.isSellerApproved = true;\n      emit UserSellerApproved(\"User seller is approved for sell\");\n    }else{\n      revert(\"User is not a seller\");\n    }\n  }\n\n  function getAllUsers() isAdmin(msg.sender) view external returns (User[] memory){\n    User[] memory _users;\n    _users = usersArr;\n    return _users;\n  }\n\n  /* Notes */\n\n  function addNote(bytes32 _IPFShash, string memory _title, string memory _description, string memory _author, uint256 _price) \n    userExists(msg.sender) canSellNotes(msg.sender) external{\n\n    bytes32 _noteHash = IPFSHashes[_IPFShash];\n    uint _noteId = notesHashes[_noteHash];\n    require(_noteId == 0, \"Note already exists\");\n\n    uint newNoteId = notesArr.length + 1;\n\n    _noteHash = keccak256(abi.encodePacked(newNoteId));\n\n    notesHashes[_noteHash] = newNoteId;\n    IPFSHashes[_IPFShash] = _noteHash;\n    ownedNotes[msg.sender].push(_noteHash);\n\n    Note memory note;\n    \n    note.noteHash = _noteHash;\n    note.IPFSHash = _IPFShash;\n    note.id = newNoteId;\n    note.owner = payable(msg.sender);\n    note.price = _price; // wei\n    note.purchaseCount = 0;\n    note.exits = 1;\n    note.title = _title;\n    note.description = _description;\n    note.author = _author;\n    note.isApproved = true;\n\n    notesArr.push(note);\n\n    emit NoteAdded(\"Note successfully created\", _noteHash, _title, _author);\n  }\n\n  function removeNote(bytes32 noteHash) doesNoteExist(noteHash) notPurchased(noteHash) isNoteOwnerOrAdmin(msg.sender, noteHash) public{\n    delete notesHashes[noteHash];\n    emit NoteRemoved(\"User successfully deleted\");\n  }\n\n  function getAllNotes() userExists(msg.sender) view external returns (Note[] memory){\n    Note[] memory _notes;\n    _notes = notesArr;\n    return _notes;\n  }\n\n  function buyNote(bytes32 noteHash) notesMarketIsOpen userExists(msg.sender) doesNoteExist(noteHash) sufficientFunds(notesArr[notesHashes[noteHash] - 1].price) payable external {\n    uint noteId = notesHashes[noteHash];\n    Note memory note = notesArr[noteId - 1];\n    \n    address payable seller = note.owner;\n    \n    uint commissionFunds = note.price.div(100);\n    uint paymentToSeller = note.price.sub(commissionFunds);\n    bytes32 accessToken = generateAccessToken(msg.sender, note.IPFSHash);\n    // store access token\n    purchaseTokens[noteHash][msg.sender] = accessToken;\n    // keep note purchase\n    boughtNotes[msg.sender].push(noteHash);\n    note.purchaseCount ++;\n    notesArr[noteId - 1].purchaseCount = note.purchaseCount;\n\n    seller.transfer(paymentToSeller);\n    admin.transfer(commissionFunds);\n    \n    emit NoteBought(\"note bought\", noteHash, msg.sender, seller);\n\n  }\n\n  function getMyPurchasedNotes() userExists(msg.sender) view public returns(bytes32[] memory _boughtNotes){\n    _boughtNotes = boughtNotes[msg.sender];\n  }\n\n  function generateAccessToken(address userAddr, bytes32 IPFShash) private pure returns(bytes32) { //isAdmin(msg.sender)\n    bytes32 salt = \"S}7#%*SD30o7D\";\n    bytes32 accessToken = keccak256(abi.encodePacked(userAddr, IPFShash, salt));\n    return accessToken;\n  }\n\n  function getOwnedNotes() canSellNotes(msg.sender) userExists(msg.sender) view external returns(bytes32[] memory _ownedNotes){\n    _ownedNotes = ownedNotes[msg.sender];\n    for(uint i=0; i < _ownedNotes.length; i++){\n      // exclude the leftover hashes in state array map ownedNotes\n      if(notesHashes[_ownedNotes[i]] == 0){\n        delete _ownedNotes[i];\n      }\n    }\n  }\n\n  \n}\n",
  "sourcePath": "/Users/idoia/Documents/blockchain/blockchain-developer-bootcamp-final-project/contracts/NotesMarketContract.sol",
  "compiler": {
    "name": "solc",
    "version": "0.8.0+commit.c7dfd78e.Emscripten.clang"
  },
  "schemaVersion": "3.4.3",
  "updatedAt": "2021-11-27T20:30:55.500Z",
  "devdoc": {
    "kind": "dev",
    "methods": {},
    "version": 1
  },
  "userdoc": {
    "kind": "user",
    "methods": {},
    "version": 1
  }
}