{
  "contractName": "NotesMarketContract",
  "abi": [
    {
      "inputs": [
        {
          "internalType": "uint8",
          "name": "minCommission",
          "type": "uint8"
        }
      ],
      "stateMutability": "nonpayable",
      "type": "constructor"
    },
    {
      "anonymous": false,
      "inputs": [
        {
          "indexed": false,
          "internalType": "string",
          "name": "message",
          "type": "string"
        },
        {
          "indexed": true,
          "internalType": "bytes32",
          "name": "noteHash",
          "type": "bytes32"
        },
        {
          "indexed": false,
          "internalType": "string",
          "name": "title",
          "type": "string"
        },
        {
          "indexed": false,
          "internalType": "string",
          "name": "author",
          "type": "string"
        }
      ],
      "name": "NoteAdded",
      "type": "event"
    },
    {
      "anonymous": false,
      "inputs": [
        {
          "indexed": false,
          "internalType": "string",
          "name": "message",
          "type": "string"
        },
        {
          "indexed": true,
          "internalType": "bytes32",
          "name": "noteHash",
          "type": "bytes32"
        },
        {
          "indexed": true,
          "internalType": "address",
          "name": "buyer",
          "type": "address"
        },
        {
          "indexed": false,
          "internalType": "address",
          "name": "seller",
          "type": "address"
        }
      ],
      "name": "NoteBought",
      "type": "event"
    },
    {
      "anonymous": false,
      "inputs": [
        {
          "indexed": false,
          "internalType": "string",
          "name": "message",
          "type": "string"
        },
        {
          "indexed": false,
          "internalType": "uint256",
          "name": "price",
          "type": "uint256"
        }
      ],
      "name": "NotePriceUpdated",
      "type": "event"
    },
    {
      "anonymous": false,
      "inputs": [
        {
          "indexed": false,
          "internalType": "string",
          "name": "message",
          "type": "string"
        }
      ],
      "name": "NoteRemoved",
      "type": "event"
    },
    {
      "anonymous": false,
      "inputs": [
        {
          "indexed": false,
          "internalType": "string",
          "name": "message",
          "type": "string"
        },
        {
          "indexed": false,
          "internalType": "address",
          "name": "userAddress",
          "type": "address"
        },
        {
          "indexed": false,
          "internalType": "bool",
          "name": "isNoteOwner",
          "type": "bool"
        }
      ],
      "name": "UserCreated",
      "type": "event"
    },
    {
      "anonymous": false,
      "inputs": [
        {
          "indexed": false,
          "internalType": "string",
          "name": "message",
          "type": "string"
        }
      ],
      "name": "UserRemoved",
      "type": "event"
    },
    {
      "anonymous": false,
      "inputs": [
        {
          "indexed": false,
          "internalType": "string",
          "name": "message",
          "type": "string"
        }
      ],
      "name": "UserSellerApproved",
      "type": "event"
    },
    {
      "inputs": [
        {
          "internalType": "uint256",
          "name": "",
          "type": "uint256"
        }
      ],
      "name": "notesArr",
      "outputs": [
        {
          "internalType": "bytes32",
          "name": "noteHash",
          "type": "bytes32"
        },
        {
          "internalType": "bytes32",
          "name": "IPFSHash",
          "type": "bytes32"
        },
        {
          "internalType": "uint256",
          "name": "id",
          "type": "uint256"
        },
        {
          "internalType": "address payable",
          "name": "owner",
          "type": "address"
        },
        {
          "internalType": "uint256",
          "name": "price",
          "type": "uint256"
        },
        {
          "internalType": "uint120",
          "name": "purchaseCount",
          "type": "uint120"
        },
        {
          "internalType": "uint16",
          "name": "commission",
          "type": "uint16"
        },
        {
          "internalType": "uint8",
          "name": "exits",
          "type": "uint8"
        },
        {
          "internalType": "bool",
          "name": "isApproved",
          "type": "bool"
        },
        {
          "internalType": "string",
          "name": "title",
          "type": "string"
        },
        {
          "internalType": "string",
          "name": "author",
          "type": "string"
        }
      ],
      "stateMutability": "view",
      "type": "function",
      "constant": true
    },
    {
      "inputs": [],
      "name": "usersCount",
      "outputs": [
        {
          "internalType": "uint256",
          "name": "",
          "type": "uint256"
        }
      ],
      "stateMutability": "view",
      "type": "function",
      "constant": true
    },
    {
      "inputs": [],
      "name": "changeNotesMarketStatus",
      "outputs": [],
      "stateMutability": "nonpayable",
      "type": "function"
    },
    {
      "inputs": [
        {
          "internalType": "bool",
          "name": "noteOwner",
          "type": "bool"
        }
      ],
      "name": "addUser",
      "outputs": [],
      "stateMutability": "nonpayable",
      "type": "function"
    },
    {
      "inputs": [],
      "name": "removeUser",
      "outputs": [],
      "stateMutability": "nonpayable",
      "type": "function"
    },
    {
      "inputs": [],
      "name": "getUser",
      "outputs": [
        {
          "internalType": "bool",
          "name": "_authStatus",
          "type": "bool"
        },
        {
          "internalType": "bool",
          "name": "_isSeller",
          "type": "bool"
        },
        {
          "internalType": "bool",
          "name": "_isAdmin",
          "type": "bool"
        }
      ],
      "stateMutability": "view",
      "type": "function",
      "constant": true
    },
    {
      "inputs": [
        {
          "internalType": "address",
          "name": "userAddress",
          "type": "address"
        }
      ],
      "name": "approveSeller",
      "outputs": [],
      "stateMutability": "nonpayable",
      "type": "function"
    },
    {
      "inputs": [
        {
          "internalType": "bytes32",
          "name": "_IPFShash",
          "type": "bytes32"
        },
        {
          "internalType": "string",
          "name": "_title",
          "type": "string"
        },
        {
          "internalType": "string",
          "name": "_author",
          "type": "string"
        },
        {
          "internalType": "uint256",
          "name": "_price",
          "type": "uint256"
        },
        {
          "internalType": "uint8",
          "name": "_commission",
          "type": "uint8"
        }
      ],
      "name": "addNote",
      "outputs": [],
      "stateMutability": "nonpayable",
      "type": "function"
    },
    {
      "inputs": [
        {
          "internalType": "bytes32",
          "name": "noteHash",
          "type": "bytes32"
        }
      ],
      "name": "removeNote",
      "outputs": [],
      "stateMutability": "nonpayable",
      "type": "function"
    },
    {
      "inputs": [],
      "name": "getAllNotes",
      "outputs": [
        {
          "components": [
            {
              "internalType": "bytes32",
              "name": "noteHash",
              "type": "bytes32"
            },
            {
              "internalType": "bytes32",
              "name": "IPFSHash",
              "type": "bytes32"
            },
            {
              "internalType": "uint256",
              "name": "id",
              "type": "uint256"
            },
            {
              "internalType": "address payable",
              "name": "owner",
              "type": "address"
            },
            {
              "internalType": "uint256",
              "name": "price",
              "type": "uint256"
            },
            {
              "internalType": "uint120",
              "name": "purchaseCount",
              "type": "uint120"
            },
            {
              "internalType": "uint16",
              "name": "commission",
              "type": "uint16"
            },
            {
              "internalType": "uint8",
              "name": "exits",
              "type": "uint8"
            },
            {
              "internalType": "bool",
              "name": "isApproved",
              "type": "bool"
            },
            {
              "internalType": "string",
              "name": "title",
              "type": "string"
            },
            {
              "internalType": "string",
              "name": "author",
              "type": "string"
            }
          ],
          "internalType": "struct NotesMarketContract.Note[]",
          "name": "",
          "type": "tuple[]"
        }
      ],
      "stateMutability": "view",
      "type": "function",
      "constant": true
    },
    {
      "inputs": [
        {
          "internalType": "bytes32",
          "name": "noteHash",
          "type": "bytes32"
        }
      ],
      "name": "buyNote",
      "outputs": [],
      "stateMutability": "payable",
      "type": "function",
      "payable": true
    },
    {
      "inputs": [],
      "name": "getMyPurchasedNotes",
      "outputs": [
        {
          "internalType": "bytes32[]",
          "name": "_boughtNotes",
          "type": "bytes32[]"
        }
      ],
      "stateMutability": "view",
      "type": "function",
      "constant": true
    }
  ],
  "bytecode": "0x608060405260008060006101000a81548160ff0219169083151502179055503480156200002b57600080fd5b5060405162003bb238038062003bb28339818101604052810190620000519190620000cb565b33600060016101000a81548173ffffffffffffffffffffffffffffffffffffffff021916908373ffffffffffffffffffffffffffffffffffffffff16021790555080600260006101000a81548160ff021916908360ff160217905550506200011e565b600081519050620000c58162000104565b92915050565b600060208284031215620000de57600080fd5b6000620000ee84828501620000b4565b91505092915050565b600060ff82169050919050565b6200010f81620000f7565b81146200011b57600080fd5b50565b613a84806200012e6000396000f3fe6080604052600436106100a75760003560e01c8063832880e711610064578063832880e7146101a3578063b89e8e56146101d0578063c35b28b2146101f9578063d32fe58314610222578063de8f430c1461024d578063f944f4c714610278576100a7565b8063358a7b20146100ac5780634367fc03146100d55780635ec5d8561461011c578063678fc459146101455780636ba13a82146101615780637de524ac1461018c575b600080fd5b3480156100b857600080fd5b506100d360048036038101906100ce9190612811565b61028f565b005b3480156100e157600080fd5b506100fc60048036038101906100f791906128e1565b610623565b6040516101139b9a9998979695949392919061321f565b60405180910390f35b34801561012857600080fd5b50610143600480360381019061013e91906127bf565b610800565b005b61015f600480360381019061015a9190612811565b610aab565b005b34801561016d57600080fd5b50610176611255565b604051610183919061356c565b60405180910390f35b34801561019857600080fd5b506101a161125b565b005b3480156101af57600080fd5b506101b8611316565b6040516101c7939291906131e8565b60405180910390f35b3480156101dc57600080fd5b506101f760048036038101906101f2919061283a565b6114c0565b005b34801561020557600080fd5b50610220600480360381019061021b91906127e8565b611b1f565b005b34801561022e57600080fd5b50610237611d8d565b60405161024491906131a4565b60405180910390f35b34801561025957600080fd5b50610262611eb9565b60405161026f91906131c6565b60405180910390f35b34801561028457600080fd5b5061028d6121f7565b005b806000600360008381526020019081526020016000205414156102e7576040517f08c379a00000000000000000000000000000000000000000000000000000000081526004016102de906133c2565b60405180910390fd5b60006003600083815260200190815260200160002054905060006001808361030f9190613737565b81548110610346577f4e487b7100000000000000000000000000000000000000000000000000000000600052603260045260246000fd5b9060005260206000209060080201600201541415610399576040517f08c379a0000000000000000000000000000000000000000000000000000000008152600401610390906133c2565b60405180910390fd5b826000600360008381526020019081526020016000205490506000600180836103c29190613737565b815481106103f9577f4e487b7100000000000000000000000000000000000000000000000000000000600052603260045260246000fd5b906000526020600020906008020160050160009054906101000a90046effffffffffffffffffffffffffffff166effffffffffffffffffffffffffffff1614610477576040517f08c379a000000000000000000000000000000000000000000000000000000000815260040161046e90613338565b60405180910390fd5b3385600060036000838152602001908152602001600020549050600060019054906101000a900473ffffffffffffffffffffffffffffffffffffffff1673ffffffffffffffffffffffffffffffffffffffff168373ffffffffffffffffffffffffffffffffffffffff16148061058e5750600180826104f69190613737565b8154811061052d577f4e487b7100000000000000000000000000000000000000000000000000000000600052603260045260246000fd5b906000526020600020906008020160030160009054906101000a900473ffffffffffffffffffffffffffffffffffffffff1673ffffffffffffffffffffffffffffffffffffffff168373ffffffffffffffffffffffffffffffffffffffff16145b6105cd576040517f08c379a00000000000000000000000000000000000000000000000000000000081526004016105c490613358565b60405180910390fd5b60036000898152602001908152602001600020600090557fe41203db0fa61b8b33140f8fc1ca977ef1ae43ae15065035c505670c0b4e0ed560405161061190613442565b60405180910390a15050505050505050565b6001818154811061063357600080fd5b90600052602060002090600802016000915090508060000154908060010154908060020154908060030160009054906101000a900473ffffffffffffffffffffffffffffffffffffffff16908060040154908060050160009054906101000a90046effffffffffffffffffffffffffffff169080600501600f9054906101000a900461ffff16908060050160119054906101000a900460ff16908060050160129054906101000a900460ff16908060060180546106ef9061387d565b80601f016020809104026020016040519081016040528092919081815260200182805461071b9061387d565b80156107685780601f1061073d57610100808354040283529160200191610768565b820191906000526020600020905b81548152906001019060200180831161074b57829003601f168201915b50505050509080600701805461077d9061387d565b80601f01602080910402602001604051908101604052809291908181526020018280546107a99061387d565b80156107f65780601f106107cb576101008083540402835291602001916107f6565b820191906000526020600020905b8154815290600101906020018083116107d957829003601f168201915b505050505090508b565b6000151560008054906101000a900460ff16151514610854576040517f08c379a000000000000000000000000000000000000000000000000000000000815260040161084b906134c2565b60405180910390fd5b33600060019054906101000a900473ffffffffffffffffffffffffffffffffffffffff1673ffffffffffffffffffffffffffffffffffffffff168173ffffffffffffffffffffffffffffffffffffffff16146108e5576040517f08c379a00000000000000000000000000000000000000000000000000000000081526004016108dc906132d8565b60405180910390fd5b816001600560008373ffffffffffffffffffffffffffffffffffffffff1673ffffffffffffffffffffffffffffffffffffffff16815260200190815260200160002060000160169054906101000a900460ff1660ff161461097b576040517f08c379a0000000000000000000000000000000000000000000000000000000008152600401610972906134a2565b60405180910390fd5b600560008473ffffffffffffffffffffffffffffffffffffffff1673ffffffffffffffffffffffffffffffffffffffff16815260200190815260200160002060000160149054906101000a900460ff1615610a6b576000600560008573ffffffffffffffffffffffffffffffffffffffff1673ffffffffffffffffffffffffffffffffffffffff168152602001908152602001600020905060018160000160156101000a81548160ff0219169083151502179055507fae937c810850c4277a17aeb7e8b138034e898dbb0a85b262eb9ea276fedc9405604051610a5d906133e2565b60405180910390a150610aa6565b6040517f08c379a0000000000000000000000000000000000000000000000000000000008152600401610a9d906132f8565b60405180910390fd5b505050565b6000151560008054906101000a900460ff16151514610aff576040517f08c379a0000000000000000000000000000000000000000000000000000000008152600401610af6906134c2565b60405180910390fd5b336001600560008373ffffffffffffffffffffffffffffffffffffffff1673ffffffffffffffffffffffffffffffffffffffff16815260200190815260200160002060000160169054906101000a900460ff1660ff1614610b95576040517f08c379a0000000000000000000000000000000000000000000000000000000008152600401610b8c906134a2565b60405180910390fd5b81600060036000838152602001908152602001600020541415610bed576040517f08c379a0000000000000000000000000000000000000000000000000000000008152600401610be4906133c2565b60405180910390fd5b600060036000838152602001908152602001600020549050600060018083610c159190613737565b81548110610c4c577f4e487b7100000000000000000000000000000000000000000000000000000000600052603260045260246000fd5b9060005260206000209060080201600201541415610c9f576040517f08c379a0000000000000000000000000000000000000000000000000000000008152600401610c96906133c2565b60405180910390fd5b6001806003600087815260200190815260200160002054610cc09190613737565b81548110610cf7577f4e487b7100000000000000000000000000000000000000000000000000000000600052603260045260246000fd5b90600052602060002090600802016004015434811115610d4c576040517f08c379a0000000000000000000000000000000000000000000000000000000008152600401610d4390613482565b60405180910390fd5b6001806003600088815260200190815260200160002054610d6d9190613737565b81548110610da4577f4e487b7100000000000000000000000000000000000000000000000000000000600052603260045260246000fd5b906000526020600020906008020160040154600060036000888152602001908152602001600020549050600060018083610dde9190613737565b81548110610e15577f4e487b7100000000000000000000000000000000000000000000000000000000600052603260045260246000fd5b9060005260206000209060080201604051806101600160405290816000820154815260200160018201548152602001600282015481526020016003820160009054906101000a900473ffffffffffffffffffffffffffffffffffffffff1673ffffffffffffffffffffffffffffffffffffffff1673ffffffffffffffffffffffffffffffffffffffff168152602001600482015481526020016005820160009054906101000a90046effffffffffffffffffffffffffffff166effffffffffffffffffffffffffffff166effffffffffffffffffffffffffffff16815260200160058201600f9054906101000a900461ffff1661ffff1661ffff1681526020016005820160119054906101000a900460ff1660ff1660ff1681526020016005820160129054906101000a900460ff16151515158152602001600682018054610f5c9061387d565b80601f0160208091040260200160405190810160405280929190818152602001828054610f889061387d565b8015610fd55780601f10610faa57610100808354040283529160200191610fd5565b820191906000526020600020905b815481529060010190602001808311610fb857829003601f168201915b50505050508152602001600782018054610fee9061387d565b80601f016020809104026020016040519081016040528092919081815260200182805461101a9061387d565b80156110675780601f1061103c57610100808354040283529160200191611067565b820191906000526020600020905b81548152906001019060200180831161104a57829003601f168201915b5050505050815250509050600081606001519050600082608001519050600860003373ffffffffffffffffffffffffffffffffffffffff1673ffffffffffffffffffffffffffffffffffffffff1681526020019081526020016000208a90806001815401808255809150506001900390600052602060002001600090919091909150558173ffffffffffffffffffffffffffffffffffffffff166108fc829081150290604051600060405180830381858888f19350505050158015611130573d6000803e3d6000fd5b506000611141338560200151612507565b905080600760008d815260200190815260200160002060003373ffffffffffffffffffffffffffffffffffffffff1673ffffffffffffffffffffffffffffffffffffffff168152602001908152602001600020819055503373ffffffffffffffffffffffffffffffffffffffff168b7fd1b3ceff01e1556a2936b8fef7e2e78b49634ac547f868ab32e3bdcb3c2b97af856040516111df91906134e2565b60405180910390a350505050508034111561124d57600081346112029190613737565b90503373ffffffffffffffffffffffffffffffffffffffff166108fc829081150290604051600060405180830381858888f1935050505015801561124a573d6000803e3d6000fd5b50505b505050505050565b60065481565b33600060019054906101000a900473ffffffffffffffffffffffffffffffffffffffff1673ffffffffffffffffffffffffffffffffffffffff168173ffffffffffffffffffffffffffffffffffffffff16146112ec576040517f08c379a00000000000000000000000000000000000000000000000000000000081526004016112e3906132d8565b60405180910390fd5b60008054906101000a900460ff16156000806101000a81548160ff02191690831515021790555050565b6000806000336001600560008373ffffffffffffffffffffffffffffffffffffffff1673ffffffffffffffffffffffffffffffffffffffff16815260200190815260200160002060000160169054906101000a900460ff1660ff1614806113ca5750600060019054906101000a900473ffffffffffffffffffffffffffffffffffffffff1673ffffffffffffffffffffffffffffffffffffffff168173ffffffffffffffffffffffffffffffffffffffff16145b611409576040517f08c379a0000000000000000000000000000000000000000000000000000000008152600401611400906134a2565b60405180910390fd5b60019350600560003373ffffffffffffffffffffffffffffffffffffffff1673ffffffffffffffffffffffffffffffffffffffff16815260200190815260200160002060000160149054906101000a900460ff169250600060019054906101000a900473ffffffffffffffffffffffffffffffffffffffff1673ffffffffffffffffffffffffffffffffffffffff163373ffffffffffffffffffffffffffffffffffffffff1614156114ba57600191505b50909192565b336001600560008373ffffffffffffffffffffffffffffffffffffffff1673ffffffffffffffffffffffffffffffffffffffff16815260200190815260200160002060000160169054906101000a900460ff1660ff1614611556576040517f08c379a000000000000000000000000000000000000000000000000000000000815260040161154d906134a2565b60405180910390fd5b33600560008273ffffffffffffffffffffffffffffffffffffffff1673ffffffffffffffffffffffffffffffffffffffff16815260200190815260200160002060000160149054906101000a900460ff1680156115ff5750600560008273ffffffffffffffffffffffffffffffffffffffff1673ffffffffffffffffffffffffffffffffffffffff16815260200190815260200160002060000160159054906101000a900460ff165b61163e576040517f08c379a000000000000000000000000000000000000000000000000000000000815260040161163590613402565b60405180910390fd5b8260008160ff1610158015611657575060648160ff1611155b611696576040517f08c379a000000000000000000000000000000000000000000000000000000000815260040161168d90613318565b60405180910390fd5b600260009054906101000a900460ff1660ff168160ff1610156116ee576040517f08c379a00000000000000000000000000000000000000000000000000000000081526004016116e59061354c565b60405180910390fd5b6000600460008a815260200190815260200160002054905060006003600083815260200190815260200160002054905060008114611761576040517f08c379a000000000000000000000000000000000000000000000000000000000815260040161175890613422565b60405180910390fd5b6000600260009054906101000a900460ff1660ff168760ff161061178457600190505b60006117a18860ff16606461ffff1661256790919063ffffffff16565b90506000600180805490506117b69190613687565b9050806040516020016117c99190613189565b60405160208183030381529060405280519060200120945080600360008781526020019081526020016000208190555084600460008f815260200190815260200160002081905550600960003373ffffffffffffffffffffffffffffffffffffffff1673ffffffffffffffffffffffffffffffffffffffff16815260200190815260200160002085908060018154018082558091505060019003906000526020600020016000909190919091505561187f61257d565b858160000181815250508d8160200181815250508181604001818152505033816060019073ffffffffffffffffffffffffffffffffffffffff16908173ffffffffffffffffffffffffffffffffffffffff16815250508a81608001818152505060008160a001906effffffffffffffffffffffffffffff1690816effffffffffffffffffffffffffffff1681525050828160c0019061ffff16908161ffff168152505060018160e0019060ff16908160ff16815250508c8161012001819052508b8161014001819052508381610100019015159081151581525050600181908060018154018082558091505060019003906000526020600020906008020160009091909190915060008201518160000155602082015181600101556040820151816002015560608201518160030160006101000a81548173ffffffffffffffffffffffffffffffffffffffff021916908373ffffffffffffffffffffffffffffffffffffffff1602179055506080820151816004015560a08201518160050160006101000a8154816effffffffffffffffffffffffffffff02191690836effffffffffffffffffffffffffffff16021790555060c082015181600501600f6101000a81548161ffff021916908361ffff16021790555060e08201518160050160116101000a81548160ff021916908360ff1602179055506101008201518160050160126101000a81548160ff021916908315150217905550610120820151816006019080519060200190611ab492919061260d565b50610140820151816007019080519060200190611ad292919061260d565b505050857f61f7b06099d9d6c81bb3b480f2051f0190d343d909af3bdc90ff6b86cd83de588e8e604051611b07929190613378565b60405180910390a25050505050505050505050505050565b6000151560008054906101000a900460ff16151514611b73576040517f08c379a0000000000000000000000000000000000000000000000000000000008152600401611b6a906134c2565b60405180910390fd5b6000600560003373ffffffffffffffffffffffffffffffffffffffff1673ffffffffffffffffffffffffffffffffffffffff16815260200190815260200160002060000160169054906101000a900460ff1660ff1614611c08576040517f08c379a0000000000000000000000000000000000000000000000000000000008152600401611bff90613462565b60405180910390fd5b6000806001905060405180608001604052803373ffffffffffffffffffffffffffffffffffffffff168152602001841515815260200183151581526020018260ff16815250600560003373ffffffffffffffffffffffffffffffffffffffff1673ffffffffffffffffffffffffffffffffffffffff16815260200190815260200160002060008201518160000160006101000a81548173ffffffffffffffffffffffffffffffffffffffff021916908373ffffffffffffffffffffffffffffffffffffffff16021790555060208201518160000160146101000a81548160ff02191690831515021790555060408201518160000160156101000a81548160ff02191690831515021790555060608201518160000160166101000a81548160ff021916908360ff16021790555090505060066000815480929190611d4a906138af565b91905055507f6ed7fd9c095d25702b515b4fc3c80ddda04a36adc0a6619c93fe1a306784f51e3384604051611d80929190613510565b60405180910390a1505050565b6060336001600560008373ffffffffffffffffffffffffffffffffffffffff1673ffffffffffffffffffffffffffffffffffffffff16815260200190815260200160002060000160169054906101000a900460ff1660ff1614611e25576040517f08c379a0000000000000000000000000000000000000000000000000000000008152600401611e1c906134a2565b60405180910390fd5b600860003373ffffffffffffffffffffffffffffffffffffffff1673ffffffffffffffffffffffffffffffffffffffff168152602001908152602001600020805480602002602001604051908101604052809291908181526020018280548015611eae57602002820191906000526020600020905b815481526020019060010190808311611e9a575b505050505091505090565b6060336001600560008373ffffffffffffffffffffffffffffffffffffffff1673ffffffffffffffffffffffffffffffffffffffff16815260200190815260200160002060000160169054906101000a900460ff1660ff1614611f51576040517f08c379a0000000000000000000000000000000000000000000000000000000008152600401611f48906134a2565b60405180910390fd5b60606001805480602002602001604051908101604052809291908181526020016000905b828210156121e95783829060005260206000209060080201604051806101600160405290816000820154815260200160018201548152602001600282015481526020016003820160009054906101000a900473ffffffffffffffffffffffffffffffffffffffff1673ffffffffffffffffffffffffffffffffffffffff1673ffffffffffffffffffffffffffffffffffffffff168152602001600482015481526020016005820160009054906101000a90046effffffffffffffffffffffffffffff166effffffffffffffffffffffffffffff166effffffffffffffffffffffffffffff16815260200160058201600f9054906101000a900461ffff1661ffff1661ffff1681526020016005820160119054906101000a900460ff1660ff1660ff1681526020016005820160129054906101000a900460ff161515151581526020016006820180546120c69061387d565b80601f01602080910402602001604051908101604052809291908181526020018280546120f29061387d565b801561213f5780601f106121145761010080835404028352916020019161213f565b820191906000526020600020905b81548152906001019060200180831161212257829003601f168201915b505050505081526020016007820180546121589061387d565b80601f01602080910402602001604051908101604052809291908181526020018280546121849061387d565b80156121d15780601f106121a6576101008083540402835291602001916121d1565b820191906000526020600020905b8154815290600101906020018083116121b457829003601f168201915b50505050508152505081526020019060010190611f75565b505050509050809250505090565b336001600560008373ffffffffffffffffffffffffffffffffffffffff1673ffffffffffffffffffffffffffffffffffffffff16815260200190815260200160002060000160169054906101000a900460ff1660ff161461228d576040517f08c379a0000000000000000000000000000000000000000000000000000000008152600401612284906134a2565b60405180910390fd5b600560003373ffffffffffffffffffffffffffffffffffffffff1673ffffffffffffffffffffffffffffffffffffffff16815260200190815260200160002060000160149054906101000a900460ff161561242a576000600960003373ffffffffffffffffffffffffffffffffffffffff1673ffffffffffffffffffffffffffffffffffffffff16815260200190815260200160002080548060200260200160405190810160405280929190818152602001828054801561236d57602002820191906000526020600020905b815481526020019060010190808311612359575b5050505050905060005b81518110156123dc576123c98282815181106123bc577f4e487b7100000000000000000000000000000000000000000000000000000000600052603260045260246000fd5b602002602001015161028f565b80806123d4906138af565b915050612377565b50600960003373ffffffffffffffffffffffffffffffffffffffff1673ffffffffffffffffffffffffffffffffffffffff16815260200190815260200160002060006124289190612693565b505b600560003373ffffffffffffffffffffffffffffffffffffffff1673ffffffffffffffffffffffffffffffffffffffff168152602001908152602001600020600080820160006101000a81549073ffffffffffffffffffffffffffffffffffffffff02191690556000820160146101000a81549060ff02191690556000820160156101000a81549060ff02191690556000820160166101000a81549060ff021916905550507f5b8514bf599ab0e7b72a3b2d47ae13677daa88ebbf833cea7bad37b6df49ede36040516124fc90613442565b60405180910390a150565b6000807f537d3723252a534433306f374400000000000000000000000000000000000000905060008484836040516020016125449392919061314c565b604051602081830303815290604052805190602001209050809250505092915050565b6000818361257591906136dd565b905092915050565b604051806101600160405280600080191681526020016000801916815260200160008152602001600073ffffffffffffffffffffffffffffffffffffffff1681526020016000815260200160006effffffffffffffffffffffffffffff168152602001600061ffff168152602001600060ff16815260200160001515815260200160608152602001606081525090565b8280546126199061387d565b90600052602060002090601f01602090048101928261263b5760008555612682565b82601f1061265457805160ff1916838001178555612682565b82800160010185558215612682579182015b82811115612681578251825591602001919060010190612666565b5b50905061268f91906126b4565b5090565b50805460008255906000526020600020908101906126b191906126d1565b50565b5b808211156126cd5760008160009055506001016126b5565b5090565b5b808211156126ea5760008160009055506001016126d2565b5090565b60006127016126fc846135b8565b613587565b90508281526020810184848401111561271957600080fd5b61272484828561383b565b509392505050565b60008135905061273b816139db565b92915050565b600081359050612750816139f2565b92915050565b60008135905061276581613a09565b92915050565b600082601f83011261277c57600080fd5b813561278c8482602086016126ee565b91505092915050565b6000813590506127a481613a20565b92915050565b6000813590506127b981613a37565b92915050565b6000602082840312156127d157600080fd5b60006127df8482850161272c565b91505092915050565b6000602082840312156127fa57600080fd5b600061280884828501612741565b91505092915050565b60006020828403121561282357600080fd5b600061283184828501612756565b91505092915050565b600080600080600060a0868803121561285257600080fd5b600061286088828901612756565b955050602086013567ffffffffffffffff81111561287d57600080fd5b6128898882890161276b565b945050604086013567ffffffffffffffff8111156128a657600080fd5b6128b28882890161276b565b93505060606128c388828901612795565b92505060806128d4888289016127aa565b9150509295509295909350565b6000602082840312156128f357600080fd5b600061290184828501612795565b91505092915050565b60006129168383612a7a565b60208301905092915050565b600061292e8383612fc7565b905092915050565b61293f81613805565b82525050565b61294e8161377d565b82525050565b61295d8161377d565b82525050565b61296c8161376b565b82525050565b61298361297e8261376b565b6138f8565b82525050565b600061299482613608565b61299e8185613643565b93506129a9836135e8565b8060005b838110156129da5781516129c1888261290a565b97506129cc83613629565b9250506001810190506129ad565b5085935050505092915050565b60006129f282613613565b6129fc8185613654565b935083602082028501612a0e856135f8565b8060005b85811015612a4a5784840389528151612a2b8582612922565b9450612a3683613636565b925060208a01995050600181019050612a12565b50829750879550505050505092915050565b612a658161378f565b82525050565b612a748161378f565b82525050565b612a838161379b565b82525050565b612a928161379b565b82525050565b612aa9612aa48261379b565b61390a565b82525050565b6000612aba8261361e565b612ac48185613665565b9350612ad481856020860161384a565b612add816139bd565b840191505092915050565b6000612af38261361e565b612afd8185613676565b9350612b0d81856020860161384a565b612b16816139bd565b840191505092915050565b6000612b2e600c83613676565b91507f4973206e6f742061646d696e00000000000000000000000000000000000000006000830152602082019050919050565b6000612b6e601483613676565b91507f55736572206973206e6f7420612073656c6c65720000000000000000000000006000830152602082019050919050565b6000612bae602483613676565b91507f436f6d6d697373696f6e206d757374206265206265747765656e203020616e6460008301527f20313030000000000000000000000000000000000000000000000000000000006020830152604082019050919050565b6000612c14601783613676565b91507f4e6f746520686173206265656e207075726368617365640000000000000000006000830152602082019050919050565b6000612c54601f83613676565b91507f4973206e6f742061646d696e206e6f7220746865206e6f7465206f776e6572006000830152602082019050919050565b6000612c94601983613676565b91507f4e6f7465207375636365737366756c6c792063726561746564000000000000006000830152602082019050919050565b6000612cd4601283613676565b91507f4e6f746520646f65736e277420657869737400000000000000000000000000006000830152602082019050919050565b6000612d14602083613676565b91507f557365722073656c6c657220697320617070726f76656420666f722073656c6c6000830152602082019050919050565b6000612d54601583613676565b91507f557365722063616e27742073656c6c206e6f74657300000000000000000000006000830152602082019050919050565b6000612d94601383613676565b91507f4e6f746520616c726561647920657869737473000000000000000000000000006000830152602082019050919050565b6000612dd4601983613676565b91507f55736572207375636365737366756c6c792064656c65746564000000000000006000830152602082019050919050565b6000612e14601783613676565b91507f5573657220616c726561647920726567697374657265640000000000000000006000830152602082019050919050565b6000612e54601283613676565b91507f696e73756666696369656e742066756e647300000000000000000000000000006000830152602082019050919050565b6000612e94601283613676565b91507f5573657220646f65736e277420657869737400000000000000000000000000006000830152602082019050919050565b6000612ed4601e83613676565b91507f4e6f7465736d61726b657420697320636c6f7365642062792061646d696e00006000830152602082019050919050565b6000612f14601883613676565b91507f4e6f7465207375636365737366756c6c7920626f7567687400000000000000006000830152602082019050919050565b6000612f54601983613676565b91507f55736572207375636365737366756c6c792063726561746564000000000000006000830152602082019050919050565b6000612f94601983613676565b91507f436f6d6d697373696f6e2069732073657420746f6f206c6f77000000000000006000830152602082019050919050565b600061016083016000830151612fe06000860182612a7a565b506020830151612ff36020860182612a7a565b50604083015161300660408601826130f9565b5060608301516130196060860182612945565b50608083015161302c60808601826130f9565b5060a083015161303f60a08601826130bd565b5060c083015161305260c08601826130db565b5060e083015161306560e086018261312e565b5061010083015161307a610100860182612a5c565b506101208301518482036101208601526130948282612aaf565b9150506101408301518482036101408601526130b08282612aaf565b9150508091505092915050565b6130c6816137a5565b82525050565b6130d5816137a5565b82525050565b6130e4816137c0565b82525050565b6130f3816137c0565b82525050565b613102816137ee565b82525050565b613111816137ee565b82525050565b613128613123826137ee565b613926565b82525050565b613137816137f8565b82525050565b613146816137f8565b82525050565b60006131588286612972565b6014820191506131688285612a98565b6020820191506131788284612a98565b602082019150819050949350505050565b60006131958284613117565b60208201915081905092915050565b600060208201905081810360008301526131be8184612989565b905092915050565b600060208201905081810360008301526131e081846129e7565b905092915050565b60006060820190506131fd6000830186612a6b565b61320a6020830185612a6b565b6132176040830184612a6b565b949350505050565b600061016082019050613235600083018e612a89565b613242602083018d612a89565b61324f604083018c613108565b61325c606083018b612954565b613269608083018a613108565b61327660a08301896130cc565b61328360c08301886130ea565b61329060e083018761313d565b61329e610100830186612a6b565b8181036101208301526132b18185612ae8565b90508181036101408301526132c68184612ae8565b90509c9b505050505050505050505050565b600060208201905081810360008301526132f181612b21565b9050919050565b6000602082019050818103600083015261331181612b61565b9050919050565b6000602082019050818103600083015261333181612ba1565b9050919050565b6000602082019050818103600083015261335181612c07565b9050919050565b6000602082019050818103600083015261337181612c47565b9050919050565b6000606082019050818103600083015261339181612c87565b905081810360208301526133a58185612ae8565b905081810360408301526133b98184612ae8565b90509392505050565b600060208201905081810360008301526133db81612cc7565b9050919050565b600060208201905081810360008301526133fb81612d07565b9050919050565b6000602082019050818103600083015261341b81612d47565b9050919050565b6000602082019050818103600083015261343b81612d87565b9050919050565b6000602082019050818103600083015261345b81612dc7565b9050919050565b6000602082019050818103600083015261347b81612e07565b9050919050565b6000602082019050818103600083015261349b81612e47565b9050919050565b600060208201905081810360008301526134bb81612e87565b9050919050565b600060208201905081810360008301526134db81612ec7565b9050919050565b600060408201905081810360008301526134fb81612f07565b905061350a6020830184612936565b92915050565b6000606082019050818103600083015261352981612f47565b90506135386020830185612963565b6135456040830184612a6b565b9392505050565b6000602082019050818103600083015261356581612f87565b9050919050565b60006020820190506135816000830184613108565b92915050565b6000604051905081810181811067ffffffffffffffff821117156135ae576135ad61398e565b5b8060405250919050565b600067ffffffffffffffff8211156135d3576135d261398e565b5b601f19601f8301169050602081019050919050565b6000819050602082019050919050565b6000819050602082019050919050565b600081519050919050565b600081519050919050565b600081519050919050565b6000602082019050919050565b6000602082019050919050565b600082825260208201905092915050565b600082825260208201905092915050565b600082825260208201905092915050565b600082825260208201905092915050565b6000613692826137ee565b915061369d836137ee565b9250827fffffffffffffffffffffffffffffffffffffffffffffffffffffffffffffffff038211156136d2576136d1613930565b5b828201905092915050565b60006136e8826137ee565b91506136f3836137ee565b9250817fffffffffffffffffffffffffffffffffffffffffffffffffffffffffffffffff048311821515161561372c5761372b613930565b5b828202905092915050565b6000613742826137ee565b915061374d836137ee565b9250828210156137605761375f613930565b5b828203905092915050565b6000613776826137ce565b9050919050565b6000613788826137ce565b9050919050565b60008115159050919050565b6000819050919050565b60006effffffffffffffffffffffffffffff82169050919050565b600061ffff82169050919050565b600073ffffffffffffffffffffffffffffffffffffffff82169050919050565b6000819050919050565b600060ff82169050919050565b600061381082613817565b9050919050565b600061382282613829565b9050919050565b6000613834826137ce565b9050919050565b82818337600083830152505050565b60005b8381101561386857808201518184015260208101905061384d565b83811115613877576000848401525b50505050565b6000600282049050600182168061389557607f821691505b602082108114156138a9576138a861395f565b5b50919050565b60006138ba826137ee565b91507fffffffffffffffffffffffffffffffffffffffffffffffffffffffffffffffff8214156138ed576138ec613930565b5b600182019050919050565b600061390382613914565b9050919050565b6000819050919050565b600061391f826139ce565b9050919050565b6000819050919050565b7f4e487b7100000000000000000000000000000000000000000000000000000000600052601160045260246000fd5b7f4e487b7100000000000000000000000000000000000000000000000000000000600052602260045260246000fd5b7f4e487b7100000000000000000000000000000000000000000000000000000000600052604160045260246000fd5b6000601f19601f8301169050919050565b60008160601b9050919050565b6139e48161376b565b81146139ef57600080fd5b50565b6139fb8161378f565b8114613a0657600080fd5b50565b613a128161379b565b8114613a1d57600080fd5b50565b613a29816137ee565b8114613a3457600080fd5b50565b613a40816137f8565b8114613a4b57600080fd5b5056fea2646970667358221220b43a71d654c3248f66184dc37d258a43d03ed749848ef115af25d255a141b97f64736f6c63430008000033",
  "immutableReferences": {},
  "source": "// SPDX-License-Identifier: MIT\npragma solidity >=0.8.0;\nimport \"@openzeppelin/contracts/utils/math/SafeMath.sol\";\n\n/// @title NotesMarketContract\n/// @author The name of the author\n/// @notice Explain to an end user what this does\n/// @dev Contract for selling and bying notes market\n\n/**\n@title \n */\ncontract NotesMarketContract {\n\n  using SafeMath for uint256;\n    using SafeMath for uint16;\n\n  bool private notesMarketIsClosed = false;\n  address payable private admin;\n\n  constructor(uint8 minCommission){\n    admin = payable(msg.sender);\n    notesMarketMinCommission = minCommission;\n  }\n\n  Note[] public notesArr;\n\n  uint8 private notesMarketMinCommission;\n\n  // List of notes indexed by note hash -> numerical id\n  mapping(bytes32 => uint) private notesHashes;\n\n  // List of notes indexed by ifps hash -> note id hash\n  mapping(bytes32 => bytes32) private IPFSHashes;\n\n  // List of users indexed by address\n  mapping(address => User) private users;\n  uint public usersCount;\n\n  // List of all note purchase tokens\n  // for each note(noteHash), there is a collection of buyers' accessTokens(add -> accessToken)\n  mapping(bytes32 => mapping(address => bytes32)) private purchaseTokens;\n\n  // List of notes bought by users\n  mapping(address => bytes32[]) private boughtNotes;\n\n  // List of notes owned by users\n  mapping(address => bytes32[]) private ownedNotes;\n\n\n  // STRUCTS\n\n  // User -> buyer and/or seller\n  // Buy -> All users can buy notes\n  // Sell -> Just approved users can sell notes\n  struct User{\n    address userAddr;\n    bool seller; // Note owner\n    bool isSellerApproved; // Is approved to sell\n    uint8 exits;  \n  }\n\n  struct Note{\n    bytes32 noteHash; // note id hash\n    bytes32 IPFSHash; // note ipfs reference\n    uint id; // id - 1 -> position of bote in dynamic array\n    address payable owner; \n    uint256 price; // price in tokens\n    uint120 purchaseCount; // number of notes purchases\n      // percentage 0-100 commission to store\n      // 10000th (10% -> 1000) to keep 2dp\n    uint16 commission;\n    uint8 exits;\n    bool isApproved; // approved for sale\n    string title;\n    string author;\n  }\n\n  // EVENTS\n  event UserCreated(string message, address userAddress, bool isNoteOwner);\n  event UserRemoved(string message);\n  event UserSellerApproved(string message);\n\n  event NoteAdded(string message, bytes32 indexed noteHash, string title, string author);\n  event NoteRemoved(string message);\n  event NotePriceUpdated(string message, uint256 price);\n  event NoteBought(string message, bytes32 indexed noteHash, address indexed buyer, address seller);\n\n\n  // MODIFIERS\n  modifier isAdmin(address userAddress){\n    require(userAddress == admin, \"Is not admin\");\n    _;\n  }\n  \n  modifier notesMarketIsOpen(){\n    require(notesMarketIsClosed == false, \"Notesmarket is closed by admin\" );\n    _;\n  }\n\n  modifier userExists(address userAddress){\n    require(users[userAddress].exits == 1, \"User doesn't exist\" );\n    _;\n  }\n\n  modifier isUserOrAdmin(address userAddress){\n     require(users[userAddress].exits == 1 || userAddress == admin, \"User doesn't exist\" );\n    _;\n  }\n\n  modifier isNoteOwnerOrAdmin(address userAddress, bytes32 noteHash){\n    uint noteId = notesHashes[noteHash];\n    require(userAddress == admin || userAddress == notesArr[noteId - 1].owner, \"Is not admin nor the note owner\");\n    _;\n  }\n\n  modifier doesNoteExist(bytes32 noteHash){\n    require(notesHashes[noteHash] != 0, \"Note doesn't exist\");\n    uint noteId = notesHashes[noteHash];\n    require(notesArr[noteId - 1].id != 0, \"Note doesn't exist\");\n    _;\n  }\n\n  modifier notPurchased(bytes32 noteHash){\n    uint noteId = notesHashes[noteHash];\n    require(notesArr[noteId - 1].purchaseCount == 0, \"Note has been purchased\");\n    _;\n  }\n\n  modifier canSellNotes(address userAddress){\n    require(users[userAddress].seller && users[userAddress].isSellerApproved, \"User can't sell notes\");\n    _;\n  }\n\n  modifier validCommission(uint8 commission){\n    require(commission >=0 && commission <= 100, \"Commission must be between 0 and 100\");\n    require(commission >= notesMarketMinCommission, \"Commission is set too low\");\n    _;\n  }\n\n  modifier sufficientFunds(uint price){\n    require(price <= msg.value, \"insufficient funds\");\n    _;\n  }\n\n  modifier returnExcess(uint price) {\n    //refund them after pay for note\n    _;\n    //this is a silent failure if \"there is no leftover to refund to buyer\"\n    if(msg.value > price){ \n      uint amountToRefund = msg.value - price;\n      payable(msg.sender).transfer(amountToRefund);\n    }        \n  }\n\n\n  // FUNCTIONS\n\n  /* NoteMarket */\n\n  function changeNotesMarketStatus() isAdmin(msg.sender) external{\n    notesMarketIsClosed = !notesMarketIsClosed;\n  }\n\n  /* Users */\n  \n  function addUser(bool noteOwner) notesMarketIsOpen external{\n    require(users[msg.sender].exits == 0, \"User already registered\");\n\n    bool isSellerApproved = false;\n    uint8 exists = 1;\n\n    users[msg.sender] = User(msg.sender, noteOwner, isSellerApproved, exists);\n    usersCount ++;\n\n    emit UserCreated(\"User successfully created\", msg.sender, noteOwner);\n  }\n\n  function removeUser() userExists(msg.sender) external{\n    if(users[(msg.sender)].seller){\n      bytes32[] memory hashes = ownedNotes[msg.sender];\n\n      for (uint i = 0; i < hashes.length; i++) {\n        removeNote(hashes[i]);\n      }\n      delete ownedNotes[msg.sender];\n    }\n    delete users[msg.sender];\n\n    emit UserRemoved(\"User successfully deleted\");\n  }\n\n  function getUser() isUserOrAdmin(msg.sender) view external returns(bool _authStatus, bool _isSeller, bool _isAdmin){\n      _authStatus = true;\n      _isSeller = users[msg.sender].seller;\n      if(msg.sender == admin) _isAdmin = true;\n  }\n\n\n  function approveSeller(address userAddress) notesMarketIsOpen isAdmin(msg.sender) userExists(userAddress) external{\n    if(users[userAddress].seller){\n      User storage user = users[userAddress];\n      user.isSellerApproved = true;\n      emit UserSellerApproved(\"User seller is approved for sell\");\n    }else{\n      revert(\"User is not a seller\");\n    }\n  }\n\n  /* Notes */\n\n  function addNote(bytes32 _IPFShash, string memory _title, string memory _author, uint256 _price, uint8 _commission) \n    userExists(msg.sender) canSellNotes(msg.sender) validCommission(_commission) external{\n\n    bytes32 _noteHash = IPFSHashes[_IPFShash];\n    uint _noteId = notesHashes[_noteHash];\n    require(_noteId == 0, \"Note already exists\");\n\n    bool isApproved;\n\n    if(_commission >= notesMarketMinCommission){\n      isApproved = true;\n    }\n\n    uint commission = uint16(100).mul(_commission);\n    uint newNoteId = notesArr.length + 1;\n\n    _noteHash = keccak256(abi.encodePacked(newNoteId));\n\n    notesHashes[_noteHash] = newNoteId;\n    IPFSHashes[_IPFShash] = _noteHash;\n    ownedNotes[msg.sender].push(_noteHash);\n\n    Note memory note;\n    \n    note.noteHash = _noteHash;\n    note.IPFSHash = _IPFShash;\n    note.id = newNoteId;\n    note.owner = payable(msg.sender);\n    note.price = _price;\n    note.purchaseCount = 0;\n    note.commission = uint16(commission);\n    note.exits = 1;\n    note.title = _title;\n    note.author = _author;\n    note.isApproved = isApproved;\n\n    notesArr.push(note);\n\n    emit NoteAdded(\"Note successfully created\", _noteHash, _title, _author);\n  }\n\n  function removeNote(bytes32 noteHash) doesNoteExist(noteHash) notPurchased(noteHash) isNoteOwnerOrAdmin(msg.sender, noteHash) public{\n    delete notesHashes[noteHash];\n    emit NoteRemoved(\"User successfully deleted\");\n  }\n\n  function getAllNotes() userExists(msg.sender) view external returns (Note[] memory){\n    \n    Note[] memory notes;\n    notes = notesArr;\n    return notes;\n  }\n\n  function buyNote(bytes32 noteHash) notesMarketIsOpen userExists(msg.sender) doesNoteExist(noteHash) sufficientFunds(notesArr[notesHashes[noteHash] - 1].price) returnExcess(notesArr[notesHashes[noteHash] - 1].price) payable external {\n    uint noteId = notesHashes[noteHash];\n    Note memory note = notesArr[noteId - 1];\n    \n    address payable seller = note.owner;\n\n    uint paymentToSeller = note.price;\n\n    boughtNotes[msg.sender].push(noteHash);\n\n    seller.transfer(paymentToSeller);\n    bytes32 accessToken = generateAccessToken(msg.sender, note.IPFSHash);\n    // store access token\n    purchaseTokens[noteHash][msg.sender] = accessToken;\n\n    emit NoteBought(\"Note successfully bought\", noteHash, msg.sender, seller);\n  }\n\n  function getMyPurchasedNotes() userExists(msg.sender) view public returns(bytes32[] memory _boughtNotes){\n    _boughtNotes = boughtNotes[msg.sender];\n  }\n\n  function generateAccessToken(address userAddr, bytes32 IPFShash) private pure returns(bytes32) { //isAdmin(msg.sender)\n    bytes32 salt = \"S}7#%*SD30o7D\";\n    bytes32 accessToken = keccak256(abi.encodePacked(userAddr, IPFShash, salt));\n    return accessToken;\n  }\n\n  \n}\n",
  "sourcePath": "/Users/idoia/Documents/blockchain/blockchain-developer-bootcamp-final-project/contracts/NotesMarketContract.sol",
  "compiler": {
    "name": "solc",
    "version": "0.8.0+commit.c7dfd78e.Emscripten.clang"
  },
  "schemaVersion": "3.4.3",
  "updatedAt": "2021-11-23T18:40:02.454Z",
  "networkType": "ethereum",
  "devdoc": {
    "kind": "dev",
    "methods": {},
    "version": 1
  },
  "userdoc": {
    "kind": "user",
    "methods": {},
    "version": 1
  }
}