{
  "contractName": "NotesMarketContract",
  "abi": [
    {
      "inputs": [
        {
          "internalType": "uint8",
          "name": "minCommission",
          "type": "uint8"
        }
      ],
      "stateMutability": "nonpayable",
      "type": "constructor"
    },
    {
      "anonymous": false,
      "inputs": [
        {
          "indexed": false,
          "internalType": "string",
          "name": "message",
          "type": "string"
        },
        {
          "indexed": true,
          "internalType": "bytes32",
          "name": "noteHash",
          "type": "bytes32"
        },
        {
          "indexed": false,
          "internalType": "string",
          "name": "title",
          "type": "string"
        },
        {
          "indexed": false,
          "internalType": "string",
          "name": "author",
          "type": "string"
        }
      ],
      "name": "NoteAdded",
      "type": "event"
    },
    {
      "anonymous": false,
      "inputs": [
        {
          "indexed": false,
          "internalType": "string",
          "name": "message",
          "type": "string"
        },
        {
          "indexed": true,
          "internalType": "bytes32",
          "name": "noteHash",
          "type": "bytes32"
        },
        {
          "indexed": true,
          "internalType": "address",
          "name": "buyer",
          "type": "address"
        },
        {
          "indexed": false,
          "internalType": "address",
          "name": "seller",
          "type": "address"
        }
      ],
      "name": "NoteBought",
      "type": "event"
    },
    {
      "anonymous": false,
      "inputs": [
        {
          "indexed": false,
          "internalType": "string",
          "name": "message",
          "type": "string"
        },
        {
          "indexed": false,
          "internalType": "uint256",
          "name": "price",
          "type": "uint256"
        }
      ],
      "name": "NotePriceUpdated",
      "type": "event"
    },
    {
      "anonymous": false,
      "inputs": [
        {
          "indexed": false,
          "internalType": "string",
          "name": "message",
          "type": "string"
        }
      ],
      "name": "NoteRemoved",
      "type": "event"
    },
    {
      "anonymous": false,
      "inputs": [
        {
          "indexed": false,
          "internalType": "string",
          "name": "message",
          "type": "string"
        },
        {
          "indexed": false,
          "internalType": "address",
          "name": "userAddress",
          "type": "address"
        },
        {
          "indexed": false,
          "internalType": "bool",
          "name": "isNoteOwner",
          "type": "bool"
        }
      ],
      "name": "UserCreated",
      "type": "event"
    },
    {
      "anonymous": false,
      "inputs": [
        {
          "indexed": false,
          "internalType": "string",
          "name": "message",
          "type": "string"
        }
      ],
      "name": "UserRemoved",
      "type": "event"
    },
    {
      "anonymous": false,
      "inputs": [
        {
          "indexed": false,
          "internalType": "string",
          "name": "message",
          "type": "string"
        }
      ],
      "name": "UserSellerApproved",
      "type": "event"
    },
    {
      "inputs": [
        {
          "internalType": "uint256",
          "name": "",
          "type": "uint256"
        }
      ],
      "name": "notesArr",
      "outputs": [
        {
          "internalType": "bytes32",
          "name": "noteHash",
          "type": "bytes32"
        },
        {
          "internalType": "bytes32",
          "name": "IPFSHash",
          "type": "bytes32"
        },
        {
          "internalType": "uint256",
          "name": "id",
          "type": "uint256"
        },
        {
          "internalType": "address payable",
          "name": "owner",
          "type": "address"
        },
        {
          "internalType": "uint256",
          "name": "price",
          "type": "uint256"
        },
        {
          "internalType": "uint120",
          "name": "purchaseCount",
          "type": "uint120"
        },
        {
          "internalType": "uint16",
          "name": "commission",
          "type": "uint16"
        },
        {
          "internalType": "uint8",
          "name": "exits",
          "type": "uint8"
        },
        {
          "internalType": "bool",
          "name": "isApproved",
          "type": "bool"
        }
      ],
      "stateMutability": "view",
      "type": "function",
      "constant": true
    },
    {
      "inputs": [],
      "name": "usersCount",
      "outputs": [
        {
          "internalType": "uint256",
          "name": "",
          "type": "uint256"
        }
      ],
      "stateMutability": "view",
      "type": "function",
      "constant": true
    },
    {
      "inputs": [],
      "name": "changeNotesMarketStatus",
      "outputs": [],
      "stateMutability": "nonpayable",
      "type": "function"
    },
    {
      "inputs": [
        {
          "internalType": "bool",
          "name": "noteOwner",
          "type": "bool"
        }
      ],
      "name": "addUser",
      "outputs": [],
      "stateMutability": "nonpayable",
      "type": "function"
    },
    {
      "inputs": [],
      "name": "removeUser",
      "outputs": [],
      "stateMutability": "nonpayable",
      "type": "function"
    },
    {
      "inputs": [],
      "name": "getUser",
      "outputs": [
        {
          "internalType": "bool",
          "name": "_authStatus",
          "type": "bool"
        },
        {
          "internalType": "bool",
          "name": "_isSeller",
          "type": "bool"
        },
        {
          "internalType": "bool",
          "name": "_isAdmin",
          "type": "bool"
        }
      ],
      "stateMutability": "view",
      "type": "function",
      "constant": true
    },
    {
      "inputs": [
        {
          "internalType": "address",
          "name": "userAddress",
          "type": "address"
        }
      ],
      "name": "approveSeller",
      "outputs": [],
      "stateMutability": "nonpayable",
      "type": "function"
    },
    {
      "inputs": [
        {
          "internalType": "bytes32",
          "name": "_IPFShash",
          "type": "bytes32"
        },
        {
          "internalType": "string",
          "name": "_title",
          "type": "string"
        },
        {
          "internalType": "string",
          "name": "_author",
          "type": "string"
        },
        {
          "internalType": "uint256",
          "name": "_price",
          "type": "uint256"
        },
        {
          "internalType": "uint8",
          "name": "_commission",
          "type": "uint8"
        }
      ],
      "name": "addNote",
      "outputs": [],
      "stateMutability": "nonpayable",
      "type": "function"
    },
    {
      "inputs": [
        {
          "internalType": "bytes32",
          "name": "noteHash",
          "type": "bytes32"
        }
      ],
      "name": "removeNote",
      "outputs": [],
      "stateMutability": "nonpayable",
      "type": "function"
    },
    {
      "inputs": [],
      "name": "getAllNotes",
      "outputs": [
        {
          "components": [
            {
              "internalType": "bytes32",
              "name": "noteHash",
              "type": "bytes32"
            },
            {
              "internalType": "bytes32",
              "name": "IPFSHash",
              "type": "bytes32"
            },
            {
              "internalType": "uint256",
              "name": "id",
              "type": "uint256"
            },
            {
              "internalType": "address payable",
              "name": "owner",
              "type": "address"
            },
            {
              "internalType": "uint256",
              "name": "price",
              "type": "uint256"
            },
            {
              "internalType": "uint120",
              "name": "purchaseCount",
              "type": "uint120"
            },
            {
              "internalType": "uint16",
              "name": "commission",
              "type": "uint16"
            },
            {
              "internalType": "uint8",
              "name": "exits",
              "type": "uint8"
            },
            {
              "internalType": "bool",
              "name": "isApproved",
              "type": "bool"
            }
          ],
          "internalType": "struct NotesMarketContract.Note[]",
          "name": "",
          "type": "tuple[]"
        }
      ],
      "stateMutability": "view",
      "type": "function",
      "constant": true
    },
    {
      "inputs": [
        {
          "internalType": "address",
          "name": "userAddress",
          "type": "address"
        }
      ],
      "name": "getUserPurchasedNotes",
      "outputs": [
        {
          "internalType": "bytes32[]",
          "name": "_boughtNotes",
          "type": "bytes32[]"
        }
      ],
      "stateMutability": "view",
      "type": "function",
      "constant": true
    }
  ],
  "bytecode": "0x608060405260008060006101000a81548160ff0219169083151502179055503480156200002b57600080fd5b5060405162002cef38038062002cef8339818101604052810190620000519190620000cb565b33600060016101000a81548173ffffffffffffffffffffffffffffffffffffffff021916908373ffffffffffffffffffffffffffffffffffffffff16021790555080600260006101000a81548160ff021916908360ff160217905550506200011e565b600081519050620000c58162000104565b92915050565b600060208284031215620000de57600080fd5b6000620000ee84828501620000b4565b91505092915050565b600060ff82169050919050565b6200010f81620000f7565b81146200011b57600080fd5b50565b612bc1806200012e6000396000f3fe608060405234801561001057600080fd5b50600436106100a95760003560e01c8063832880e711610071578063832880e714610146578063b89e8e5614610166578063c35b28b214610182578063dae1ccf61461019e578063de8f430c146101ce578063f944f4c7146101ec576100a9565b8063358a7b20146100ae5780634367fc03146100ca5780635ec5d856146101025780636ba13a821461011e5780637de524ac1461013c575b600080fd5b6100c860048036038101906100c39190611c2f565b6101f6565b005b6100e460048036038101906100df9190611cff565b61058a565b6040516100f9999897969594939291906124b9565b60405180910390f35b61011c60048036038101906101179190611bdd565b61064b565b005b6101266108f6565b604051610133919061278c565b60405180910390f35b6101446108fc565b005b61014e6109b7565b60405161015d93929190612482565b60405180910390f35b610180600480360381019061017b9190611c58565b610b61565b005b61019c60048036038101906101979190611c06565b611170565b005b6101b860048036038101906101b39190611bdd565b6113de565b6040516101c5919061243e565b60405180910390f35b6101d661150c565b6040516101e39190612460565b60405180910390f35b6101f4611726565b005b8060006003600083815260200190815260200160002054141561024e576040517f08c379a000000000000000000000000000000000000000000000000000000000815260040161024590612630565b60405180910390fd5b6000600360008381526020019081526020016000205490506000600180836102769190612946565b815481106102ad577f4e487b7100000000000000000000000000000000000000000000000000000000600052603260045260246000fd5b9060005260206000209060060201600201541415610300576040517f08c379a00000000000000000000000000000000000000000000000000000000081526004016102f790612630565b60405180910390fd5b826000600360008381526020019081526020016000205490506000600180836103299190612946565b81548110610360577f4e487b7100000000000000000000000000000000000000000000000000000000600052603260045260246000fd5b906000526020600020906006020160050160009054906101000a90046effffffffffffffffffffffffffffff166effffffffffffffffffffffffffffff16146103de576040517f08c379a00000000000000000000000000000000000000000000000000000000081526004016103d5906125a6565b60405180910390fd5b3385600060036000838152602001908152602001600020549050600060019054906101000a900473ffffffffffffffffffffffffffffffffffffffff1673ffffffffffffffffffffffffffffffffffffffff168373ffffffffffffffffffffffffffffffffffffffff1614806104f557506001808261045d9190612946565b81548110610494577f4e487b7100000000000000000000000000000000000000000000000000000000600052603260045260246000fd5b906000526020600020906006020160030160009054906101000a900473ffffffffffffffffffffffffffffffffffffffff1673ffffffffffffffffffffffffffffffffffffffff168373ffffffffffffffffffffffffffffffffffffffff16145b610534576040517f08c379a000000000000000000000000000000000000000000000000000000000815260040161052b906125c6565b60405180910390fd5b60036000898152602001908152602001600020600090557fe41203db0fa61b8b33140f8fc1ca977ef1ae43ae15065035c505670c0b4e0ed5604051610578906126b0565b60405180910390a15050505050505050565b6001818154811061059a57600080fd5b90600052602060002090600602016000915090508060000154908060010154908060020154908060030160009054906101000a900473ffffffffffffffffffffffffffffffffffffffff16908060040154908060050160009054906101000a90046effffffffffffffffffffffffffffff169080600501600f9054906101000a900461ffff16908060050160119054906101000a900460ff16908060050160129054906101000a900460ff16905089565b6000151560008054906101000a900460ff1615151461069f576040517f08c379a000000000000000000000000000000000000000000000000000000000815260040161069690612710565b60405180910390fd5b33600060019054906101000a900473ffffffffffffffffffffffffffffffffffffffff1673ffffffffffffffffffffffffffffffffffffffff168173ffffffffffffffffffffffffffffffffffffffff1614610730576040517f08c379a000000000000000000000000000000000000000000000000000000000815260040161072790612546565b60405180910390fd5b816001600560008373ffffffffffffffffffffffffffffffffffffffff1673ffffffffffffffffffffffffffffffffffffffff16815260200190815260200160002060000160169054906101000a900460ff1660ff16146107c6576040517f08c379a00000000000000000000000000000000000000000000000000000000081526004016107bd906126f0565b60405180910390fd5b600560008473ffffffffffffffffffffffffffffffffffffffff1673ffffffffffffffffffffffffffffffffffffffff16815260200190815260200160002060000160149054906101000a900460ff16156108b6576000600560008573ffffffffffffffffffffffffffffffffffffffff1673ffffffffffffffffffffffffffffffffffffffff168152602001908152602001600020905060018160000160156101000a81548160ff0219169083151502179055507fae937c810850c4277a17aeb7e8b138034e898dbb0a85b262eb9ea276fedc94056040516108a890612650565b60405180910390a1506108f1565b6040517f08c379a00000000000000000000000000000000000000000000000000000000081526004016108e890612566565b60405180910390fd5b505050565b60065481565b33600060019054906101000a900473ffffffffffffffffffffffffffffffffffffffff1673ffffffffffffffffffffffffffffffffffffffff168173ffffffffffffffffffffffffffffffffffffffff161461098d576040517f08c379a000000000000000000000000000000000000000000000000000000000815260040161098490612546565b60405180910390fd5b60008054906101000a900460ff16156000806101000a81548160ff02191690831515021790555050565b6000806000336001600560008373ffffffffffffffffffffffffffffffffffffffff1673ffffffffffffffffffffffffffffffffffffffff16815260200190815260200160002060000160169054906101000a900460ff1660ff161480610a6b5750600060019054906101000a900473ffffffffffffffffffffffffffffffffffffffff1673ffffffffffffffffffffffffffffffffffffffff168173ffffffffffffffffffffffffffffffffffffffff16145b610aaa576040517f08c379a0000000000000000000000000000000000000000000000000000000008152600401610aa1906126f0565b60405180910390fd5b60019350600560003373ffffffffffffffffffffffffffffffffffffffff1673ffffffffffffffffffffffffffffffffffffffff16815260200190815260200160002060000160149054906101000a900460ff169250600060019054906101000a900473ffffffffffffffffffffffffffffffffffffffff1673ffffffffffffffffffffffffffffffffffffffff163373ffffffffffffffffffffffffffffffffffffffff161415610b5b57600191505b50909192565b336001600560008373ffffffffffffffffffffffffffffffffffffffff1673ffffffffffffffffffffffffffffffffffffffff16815260200190815260200160002060000160169054906101000a900460ff1660ff1614610bf7576040517f08c379a0000000000000000000000000000000000000000000000000000000008152600401610bee906126f0565b60405180910390fd5b33600560008273ffffffffffffffffffffffffffffffffffffffff1673ffffffffffffffffffffffffffffffffffffffff16815260200190815260200160002060000160149054906101000a900460ff168015610ca05750600560008273ffffffffffffffffffffffffffffffffffffffff1673ffffffffffffffffffffffffffffffffffffffff16815260200190815260200160002060000160159054906101000a900460ff165b610cdf576040517f08c379a0000000000000000000000000000000000000000000000000000000008152600401610cd690612670565b60405180910390fd5b8260008160ff1610158015610cf8575060648160ff1611155b610d37576040517f08c379a0000000000000000000000000000000000000000000000000000000008152600401610d2e90612586565b60405180910390fd5b600260009054906101000a900460ff1660ff168160ff161015610d8f576040517f08c379a0000000000000000000000000000000000000000000000000000000008152600401610d869061276c565b60405180910390fd5b6000600460008a815260200190815260200160002054905060006003600083815260200190815260200160002054905060008114610e02576040517f08c379a0000000000000000000000000000000000000000000000000000000008152600401610df990612690565b60405180910390fd5b6000600260009054906101000a900460ff1660ff168760ff1610610e2557600190505b6000610e428860ff16606461ffff16611a3690919063ffffffff16565b9050600060018080549050610e579190612896565b905080604051602001610e6a9190612423565b60405160208183030381529060405280519060200120945080600360008781526020019081526020016000208190555084600460008f815260200190815260200160002081905550600960003373ffffffffffffffffffffffffffffffffffffffff1673ffffffffffffffffffffffffffffffffffffffff168152602001908152602001600020859080600181540180825580915050600190039060005260206000200160009091909190915055610f20611a4c565b858160000181815250508d8160200181815250508181604001818152505033816060019073ffffffffffffffffffffffffffffffffffffffff16908173ffffffffffffffffffffffffffffffffffffffff16815250508a81608001818152505060008160a001906effffffffffffffffffffffffffffff1690816effffffffffffffffffffffffffffff1681525050828160c0019061ffff16908161ffff168152505060018160e0019060ff16908160ff16815250508381610100019015159081151581525050600181908060018154018082558091505060019003906000526020600020906006020160009091909190915060008201518160000155602082015181600101556040820151816002015560608201518160030160006101000a81548173ffffffffffffffffffffffffffffffffffffffff021916908373ffffffffffffffffffffffffffffffffffffffff1602179055506080820151816004015560a08201518160050160006101000a8154816effffffffffffffffffffffffffffff02191690836effffffffffffffffffffffffffffff16021790555060c082015181600501600f6101000a81548161ffff021916908361ffff16021790555060e08201518160050160116101000a81548160ff021916908360ff1602179055506101008201518160050160126101000a81548160ff0219169083151502179055505050857f61f7b06099d9d6c81bb3b480f2051f0190d343d909af3bdc90ff6b86cd83de588e8e6040516111589291906125e6565b60405180910390a25050505050505050505050505050565b6000151560008054906101000a900460ff161515146111c4576040517f08c379a00000000000000000000000000000000000000000000000000000000081526004016111bb90612710565b60405180910390fd5b6000600560003373ffffffffffffffffffffffffffffffffffffffff1673ffffffffffffffffffffffffffffffffffffffff16815260200190815260200160002060000160169054906101000a900460ff1660ff1614611259576040517f08c379a0000000000000000000000000000000000000000000000000000000008152600401611250906126d0565b60405180910390fd5b6000806001905060405180608001604052803373ffffffffffffffffffffffffffffffffffffffff168152602001841515815260200183151581526020018260ff16815250600560003373ffffffffffffffffffffffffffffffffffffffff1673ffffffffffffffffffffffffffffffffffffffff16815260200190815260200160002060008201518160000160006101000a81548173ffffffffffffffffffffffffffffffffffffffff021916908373ffffffffffffffffffffffffffffffffffffffff16021790555060208201518160000160146101000a81548160ff02191690831515021790555060408201518160000160156101000a81548160ff02191690831515021790555060608201518160000160166101000a81548160ff021916908360ff1602179055509050506006600081548092919061139b90612a56565b91905055507f6ed7fd9c095d25702b515b4fc3c80ddda04a36adc0a6619c93fe1a306784f51e33846040516113d1929190612730565b60405180910390a1505050565b6060816001600560008373ffffffffffffffffffffffffffffffffffffffff1673ffffffffffffffffffffffffffffffffffffffff16815260200190815260200160002060000160169054906101000a900460ff1660ff1614611476576040517f08c379a000000000000000000000000000000000000000000000000000000000815260040161146d906126f0565b60405180910390fd5b600860008473ffffffffffffffffffffffffffffffffffffffff1673ffffffffffffffffffffffffffffffffffffffff1681526020019081526020016000208054806020026020016040519081016040528092919081815260200182805480156114ff57602002820191906000526020600020905b8154815260200190600101908083116114eb575b5050505050915050919050565b6060336001600560008373ffffffffffffffffffffffffffffffffffffffff1673ffffffffffffffffffffffffffffffffffffffff16815260200190815260200160002060000160169054906101000a900460ff1660ff16146115a4576040517f08c379a000000000000000000000000000000000000000000000000000000000815260040161159b906126f0565b60405180910390fd5b60606001805480602002602001604051908101604052809291908181526020016000905b828210156117185783829060005260206000209060060201604051806101200160405290816000820154815260200160018201548152602001600282015481526020016003820160009054906101000a900473ffffffffffffffffffffffffffffffffffffffff1673ffffffffffffffffffffffffffffffffffffffff1673ffffffffffffffffffffffffffffffffffffffff168152602001600482015481526020016005820160009054906101000a90046effffffffffffffffffffffffffffff166effffffffffffffffffffffffffffff166effffffffffffffffffffffffffffff16815260200160058201600f9054906101000a900461ffff1661ffff1661ffff1681526020016005820160119054906101000a900460ff1660ff1660ff1681526020016005820160129054906101000a900460ff161515151581525050815260200190600101906115c8565b505050509050809250505090565b336001600560008373ffffffffffffffffffffffffffffffffffffffff1673ffffffffffffffffffffffffffffffffffffffff16815260200190815260200160002060000160169054906101000a900460ff1660ff16146117bc576040517f08c379a00000000000000000000000000000000000000000000000000000000081526004016117b3906126f0565b60405180910390fd5b600560003373ffffffffffffffffffffffffffffffffffffffff1673ffffffffffffffffffffffffffffffffffffffff16815260200190815260200160002060000160149054906101000a900460ff1615611959576000600960003373ffffffffffffffffffffffffffffffffffffffff1673ffffffffffffffffffffffffffffffffffffffff16815260200190815260200160002080548060200260200160405190810160405280929190818152602001828054801561189c57602002820191906000526020600020905b815481526020019060010190808311611888575b5050505050905060005b815181101561190b576118f88282815181106118eb577f4e487b7100000000000000000000000000000000000000000000000000000000600052603260045260246000fd5b60200260200101516101f6565b808061190390612a56565b9150506118a6565b50600960003373ffffffffffffffffffffffffffffffffffffffff1673ffffffffffffffffffffffffffffffffffffffff16815260200190815260200160002060006119579190611ace565b505b600560003373ffffffffffffffffffffffffffffffffffffffff1673ffffffffffffffffffffffffffffffffffffffff168152602001908152602001600020600080820160006101000a81549073ffffffffffffffffffffffffffffffffffffffff02191690556000820160146101000a81549060ff02191690556000820160156101000a81549060ff02191690556000820160166101000a81549060ff021916905550507f5b8514bf599ab0e7b72a3b2d47ae13677daa88ebbf833cea7bad37b6df49ede3604051611a2b906126b0565b60405180910390a150565b60008183611a4491906128ec565b905092915050565b604051806101200160405280600080191681526020016000801916815260200160008152602001600073ffffffffffffffffffffffffffffffffffffffff1681526020016000815260200160006effffffffffffffffffffffffffffff168152602001600061ffff168152602001600060ff1681526020016000151581525090565b5080546000825590600052602060002090810190611aec9190611aef565b50565b5b80821115611b08576000816000905550600101611af0565b5090565b6000611b1f611b1a846127d8565b6127a7565b905082815260208101848484011115611b3757600080fd5b611b42848285612a14565b509392505050565b600081359050611b5981612b18565b92915050565b600081359050611b6e81612b2f565b92915050565b600081359050611b8381612b46565b92915050565b600082601f830112611b9a57600080fd5b8135611baa848260208601611b0c565b91505092915050565b600081359050611bc281612b5d565b92915050565b600081359050611bd781612b74565b92915050565b600060208284031215611bef57600080fd5b6000611bfd84828501611b4a565b91505092915050565b600060208284031215611c1857600080fd5b6000611c2684828501611b5f565b91505092915050565b600060208284031215611c4157600080fd5b6000611c4f84828501611b74565b91505092915050565b600080600080600060a08688031215611c7057600080fd5b6000611c7e88828901611b74565b955050602086013567ffffffffffffffff811115611c9b57600080fd5b611ca788828901611b89565b945050604086013567ffffffffffffffff811115611cc457600080fd5b611cd088828901611b89565b9350506060611ce188828901611bb3565b9250506080611cf288828901611bc8565b9150509295509295909350565b600060208284031215611d1157600080fd5b6000611d1f84828501611bb3565b91505092915050565b6000611d348383611e60565b60208301905092915050565b6000611d4c83836122dd565b6101208301905092915050565b611d628161298c565b82525050565b611d718161298c565b82525050565b611d808161297a565b82525050565b6000611d9182612828565b611d9b8185612863565b9350611da683612808565b8060005b83811015611dd7578151611dbe8882611d28565b9750611dc983612849565b925050600181019050611daa565b5085935050505092915050565b6000611def82612833565b611df98185612874565b9350611e0483612818565b8060005b83811015611e35578151611e1c8882611d40565b9750611e2783612856565b925050600181019050611e08565b5085935050505092915050565b611e4b8161299e565b82525050565b611e5a8161299e565b82525050565b611e69816129aa565b82525050565b611e78816129aa565b82525050565b6000611e898261283e565b611e938185612885565b9350611ea3818560208601612a23565b611eac81612b07565b840191505092915050565b6000611ec4600c83612885565b91507f4973206e6f742061646d696e00000000000000000000000000000000000000006000830152602082019050919050565b6000611f04601483612885565b91507f55736572206973206e6f7420612073656c6c65720000000000000000000000006000830152602082019050919050565b6000611f44602483612885565b91507f436f6d6d697373696f6e206d757374206265206265747765656e203020616e6460008301527f20313030000000000000000000000000000000000000000000000000000000006020830152604082019050919050565b6000611faa601783612885565b91507f4e6f746520686173206265656e207075726368617365640000000000000000006000830152602082019050919050565b6000611fea601f83612885565b91507f4973206e6f742061646d696e206e6f7220746865206e6f7465206f776e6572006000830152602082019050919050565b600061202a601983612885565b91507f4e6f7465207375636365737366756c6c792063726561746564000000000000006000830152602082019050919050565b600061206a601283612885565b91507f4e6f746520646f65736e277420657869737400000000000000000000000000006000830152602082019050919050565b60006120aa602083612885565b91507f557365722073656c6c657220697320617070726f76656420666f722073656c6c6000830152602082019050919050565b60006120ea601583612885565b91507f557365722063616e27742073656c6c206e6f74657300000000000000000000006000830152602082019050919050565b600061212a601383612885565b91507f4e6f746520616c726561647920657869737473000000000000000000000000006000830152602082019050919050565b600061216a601983612885565b91507f55736572207375636365737366756c6c792064656c65746564000000000000006000830152602082019050919050565b60006121aa601783612885565b91507f5573657220616c726561647920726567697374657265640000000000000000006000830152602082019050919050565b60006121ea601283612885565b91507f5573657220646f65736e277420657869737400000000000000000000000000006000830152602082019050919050565b600061222a601e83612885565b91507f4e6f7465736d61726b657420697320636c6f7365642062792061646d696e00006000830152602082019050919050565b600061226a601983612885565b91507f55736572207375636365737366756c6c792063726561746564000000000000006000830152602082019050919050565b60006122aa601983612885565b91507f436f6d6d697373696f6e2069732073657420746f6f206c6f77000000000000006000830152602082019050919050565b610120820160008201516122f46000850182611e60565b5060208201516123076020850182611e60565b50604082015161231a60408501826123d0565b50606082015161232d6060850182611d59565b50608082015161234060808501826123d0565b5060a082015161235360a0850182612394565b5060c082015161236660c08501826123b2565b5060e082015161237960e0850182612405565b5061010082015161238e610100850182611e42565b50505050565b61239d816129b4565b82525050565b6123ac816129b4565b82525050565b6123bb816129cf565b82525050565b6123ca816129cf565b82525050565b6123d9816129fd565b82525050565b6123e8816129fd565b82525050565b6123ff6123fa826129fd565b612a9f565b82525050565b61240e81612a07565b82525050565b61241d81612a07565b82525050565b600061242f82846123ee565b60208201915081905092915050565b600060208201905081810360008301526124588184611d86565b905092915050565b6000602082019050818103600083015261247a8184611de4565b905092915050565b60006060820190506124976000830186611e51565b6124a46020830185611e51565b6124b16040830184611e51565b949350505050565b6000610120820190506124cf600083018c611e6f565b6124dc602083018b611e6f565b6124e9604083018a6123df565b6124f66060830189611d68565b61250360808301886123df565b61251060a08301876123a3565b61251d60c08301866123c1565b61252a60e0830185612414565b612538610100830184611e51565b9a9950505050505050505050565b6000602082019050818103600083015261255f81611eb7565b9050919050565b6000602082019050818103600083015261257f81611ef7565b9050919050565b6000602082019050818103600083015261259f81611f37565b9050919050565b600060208201905081810360008301526125bf81611f9d565b9050919050565b600060208201905081810360008301526125df81611fdd565b9050919050565b600060608201905081810360008301526125ff8161201d565b905081810360208301526126138185611e7e565b905081810360408301526126278184611e7e565b90509392505050565b600060208201905081810360008301526126498161205d565b9050919050565b600060208201905081810360008301526126698161209d565b9050919050565b60006020820190508181036000830152612689816120dd565b9050919050565b600060208201905081810360008301526126a98161211d565b9050919050565b600060208201905081810360008301526126c98161215d565b9050919050565b600060208201905081810360008301526126e98161219d565b9050919050565b60006020820190508181036000830152612709816121dd565b9050919050565b600060208201905081810360008301526127298161221d565b9050919050565b600060608201905081810360008301526127498161225d565b90506127586020830185611d77565b6127656040830184611e51565b9392505050565b600060208201905081810360008301526127858161229d565b9050919050565b60006020820190506127a160008301846123df565b92915050565b6000604051905081810181811067ffffffffffffffff821117156127ce576127cd612ad8565b5b8060405250919050565b600067ffffffffffffffff8211156127f3576127f2612ad8565b5b601f19601f8301169050602081019050919050565b6000819050602082019050919050565b6000819050602082019050919050565b600081519050919050565b600081519050919050565b600081519050919050565b6000602082019050919050565b6000602082019050919050565b600082825260208201905092915050565b600082825260208201905092915050565b600082825260208201905092915050565b60006128a1826129fd565b91506128ac836129fd565b9250827fffffffffffffffffffffffffffffffffffffffffffffffffffffffffffffffff038211156128e1576128e0612aa9565b5b828201905092915050565b60006128f7826129fd565b9150612902836129fd565b9250817fffffffffffffffffffffffffffffffffffffffffffffffffffffffffffffffff048311821515161561293b5761293a612aa9565b5b828202905092915050565b6000612951826129fd565b915061295c836129fd565b92508282101561296f5761296e612aa9565b5b828203905092915050565b6000612985826129dd565b9050919050565b6000612997826129dd565b9050919050565b60008115159050919050565b6000819050919050565b60006effffffffffffffffffffffffffffff82169050919050565b600061ffff82169050919050565b600073ffffffffffffffffffffffffffffffffffffffff82169050919050565b6000819050919050565b600060ff82169050919050565b82818337600083830152505050565b60005b83811015612a41578082015181840152602081019050612a26565b83811115612a50576000848401525b50505050565b6000612a61826129fd565b91507fffffffffffffffffffffffffffffffffffffffffffffffffffffffffffffffff821415612a9457612a93612aa9565b5b600182019050919050565b6000819050919050565b7f4e487b7100000000000000000000000000000000000000000000000000000000600052601160045260246000fd5b7f4e487b7100000000000000000000000000000000000000000000000000000000600052604160045260246000fd5b6000601f19601f8301169050919050565b612b218161297a565b8114612b2c57600080fd5b50565b612b388161299e565b8114612b4357600080fd5b50565b612b4f816129aa565b8114612b5a57600080fd5b50565b612b66816129fd565b8114612b7157600080fd5b50565b612b7d81612a07565b8114612b8857600080fd5b5056fea26469706673582212206c6823eac710081733ef303b1f9ce4da153903730a2e5fdbe2dca4a53b105a0c64736f6c63430008000033",
  "immutableReferences": {},
  "source": "// SPDX-License-Identifier: MIT\npragma solidity >=0.8.0;\nimport \"@openzeppelin/contracts/utils/math/SafeMath.sol\";\n\n/// @title NotesMarketContract\n/// @author The name of the author\n/// @notice Explain to an end user what this does\n/// @dev Contract for selling and bying notes market\n\n/**\n@title \n */\ncontract NotesMarketContract {\n\n  using SafeMath for uint256;\n    using SafeMath for uint16;\n\n  bool private notesMarketIsClosed = false;\n  address payable private admin;\n\n  constructor(uint8 minCommission){\n    admin = payable(msg.sender);\n    notesMarketMinCommission = minCommission;\n  }\n\n  Note[] public notesArr;\n\n  uint8 private notesMarketMinCommission;\n\n  // List of notes indexed by note hash -> numerical id\n  mapping(bytes32 => uint) private notesHashes;\n\n  // List of notes indexed by ifps hash -> note id hash\n  mapping(bytes32 => bytes32) private IPFSHashes;\n\n  // List of users indexed by address\n  mapping(address => User) private users;\n  uint public usersCount;\n\n  // List of all note purchase tokens\n  // for each note(noteHash), there is a collection of buyers' accessTokens(add -> accessToken)\n  mapping(bytes32 => mapping(address => bytes32)) private purchaseTokens;\n\n  // List of notes bought by users\n  mapping(address => bytes32[]) private boughtNotes;\n\n  // List of notes owned by users\n  mapping(address => bytes32[]) private ownedNotes;\n\n\n  // STRUCTS\n\n  // User -> buyer and/or seller\n  // Buy -> All users can buy notes\n  // Sell -> Just approved users can sell notes\n  struct User{\n    address userAddr;\n    bool seller; // Note owner\n    bool isSellerApproved; // Is approved to sell\n    uint8 exits;  \n  }\n\n  struct Note{\n    bytes32 noteHash; // note id hash\n    bytes32 IPFSHash; // note ipfs reference\n    uint id; // id - 1 -> position of bote in dynamic array\n    address payable owner; \n    uint256 price; // price in tokens\n    uint120 purchaseCount; // number of notes purchases\n      // percentage 0-100 commission to store\n      // 10000th (10% -> 1000) to keep 2dp\n    uint16 commission;\n    uint8 exits;\n    bool isApproved; // approved for sale\n  }\n\n  // EVENTS\n  event UserCreated(string message, address userAddress, bool isNoteOwner);\n  event UserRemoved(string message);\n  event UserSellerApproved(string message);\n\n  event NoteAdded(string message, bytes32 indexed noteHash, string title, string author);\n  event NoteRemoved(string message);\n  event NotePriceUpdated(string message, uint256 price);\n  event NoteBought(string message, bytes32 indexed noteHash, address indexed buyer, address seller);\n\n\n  // MODIFIERS\n  modifier isAdmin(address userAddress){\n    require(userAddress == admin, \"Is not admin\");\n    _;\n  }\n  \n  modifier notesMarketIsOpen(){\n    require(notesMarketIsClosed == false, \"Notesmarket is closed by admin\" );\n    _;\n  }\n\n  modifier userExists(address userAddress){\n    require(users[userAddress].exits == 1, \"User doesn't exist\" );\n    _;\n  }\n\n  modifier isUserOrAdmin(address userAddress){\n     require(users[userAddress].exits == 1 || userAddress == admin, \"User doesn't exist\" );\n    _;\n  }\n\n  modifier isNoteOwnerOrAdmin(address userAddress, bytes32 noteHash){\n    uint noteId = notesHashes[noteHash];\n    require(userAddress == admin || userAddress == notesArr[noteId - 1].owner, \"Is not admin nor the note owner\");\n    _;\n  }\n\n  modifier doesNoteExist(bytes32 noteHash){\n    require(notesHashes[noteHash] != 0, \"Note doesn't exist\");\n    uint noteId = notesHashes[noteHash];\n    require(notesArr[noteId - 1].id != 0, \"Note doesn't exist\");\n    _;\n  }\n\n  modifier notPurchased(bytes32 noteHash){\n    uint noteId = notesHashes[noteHash];\n    require(notesArr[noteId - 1].purchaseCount == 0, \"Note has been purchased\");\n    _;\n  }\n\n  modifier canSellNotes(address userAddress){\n    require(users[userAddress].seller && users[userAddress].isSellerApproved, \"User can't sell notes\");\n    _;\n  }\n\n  modifier validCommission(uint8 commission){\n    require(commission >=0 && commission <= 100, \"Commission must be between 0 and 100\");\n    require(commission >= notesMarketMinCommission, \"Commission is set too low\");\n    _;\n  }\n\n\n  // FUNCTIONS\n\n  /* NoteMarket */\n\n  function changeNotesMarketStatus() isAdmin(msg.sender) external{\n    notesMarketIsClosed = !notesMarketIsClosed;\n  }\n\n  /* Users */\n  \n  function addUser(bool noteOwner) notesMarketIsOpen external{\n    require(users[msg.sender].exits == 0, \"User already registered\");\n\n    bool isSellerApproved = false;\n    uint8 exists = 1;\n\n    users[msg.sender] = User(msg.sender, noteOwner, isSellerApproved, exists);\n    usersCount ++;\n\n    emit UserCreated(\"User successfully created\", msg.sender, noteOwner);\n  }\n\n  function removeUser() userExists(msg.sender) external{\n    if(users[(msg.sender)].seller){\n      bytes32[] memory hashes = ownedNotes[msg.sender];\n\n      for (uint i = 0; i < hashes.length; i++) {\n        removeNote(hashes[i]);\n      }\n      delete ownedNotes[msg.sender];\n    }\n    delete users[msg.sender];\n\n    emit UserRemoved(\"User successfully deleted\");\n  }\n\n  function getUser() isUserOrAdmin(msg.sender) view external returns(bool _authStatus, bool _isSeller, bool _isAdmin){\n      _authStatus = true;\n      _isSeller = users[msg.sender].seller;\n      if(msg.sender == admin) _isAdmin = true;\n  }\n\n\n  function approveSeller(address userAddress) notesMarketIsOpen isAdmin(msg.sender) userExists(userAddress) external{\n    if(users[userAddress].seller){\n      User storage user = users[userAddress];\n      user.isSellerApproved = true;\n      emit UserSellerApproved(\"User seller is approved for sell\");\n    }else{\n      revert(\"User is not a seller\");\n    }\n  }\n\n  /* Notes */\n\n  function addNote(bytes32 _IPFShash, string memory _title, string memory _author, uint256 _price, uint8 _commission) \n    userExists(msg.sender) canSellNotes(msg.sender) validCommission(_commission) external{\n\n    bytes32 _noteHash = IPFSHashes[_IPFShash];\n    uint _noteId = notesHashes[_noteHash];\n    require(_noteId == 0, \"Note already exists\");\n\n    bool isApproved;\n\n    if(_commission >= notesMarketMinCommission){\n      isApproved = true;\n    }\n\n    uint commission = uint16(100).mul(_commission);\n    uint newNoteId = notesArr.length + 1;\n\n    _noteHash = keccak256(abi.encodePacked(newNoteId));\n\n    notesHashes[_noteHash] = newNoteId;\n    IPFSHashes[_IPFShash] = _noteHash;\n    ownedNotes[msg.sender].push(_noteHash);\n\n    Note memory note;\n    \n    note.noteHash = _noteHash;\n    note.IPFSHash = _IPFShash;\n    note.id = newNoteId;\n    note.owner = payable(msg.sender);\n    note.price = _price;\n    note.purchaseCount = 0;\n    note.commission = uint16(commission);\n    note.exits = 1;\n    note.isApproved = isApproved;\n\n    notesArr.push(note);\n\n    emit NoteAdded(\"Note successfully created\", _noteHash, _title, _author);\n  }\n\n  function removeNote(bytes32 noteHash) doesNoteExist(noteHash) notPurchased(noteHash) isNoteOwnerOrAdmin(msg.sender, noteHash) public{\n    delete notesHashes[noteHash];\n    emit NoteRemoved(\"User successfully deleted\");\n  }\n\n  function getAllNotes() userExists(msg.sender) view external returns (Note[] memory){\n    \n    Note[] memory notes;\n    notes = notesArr;\n    return notes;\n  }\n\n  // function getAvailableNotes(uint8 _count, uint _start) userExists(msg.sender) view external returns (bytes32[] memory){\n  //   require(_count <= 50, \"cannot fetch more than 50 notes at once\");\n        \n  //   // get already purchased notes for removal\n  //   bytes32[] memory myPurchasedNotes = getUserPurchasedNotes(msg.sender);\n  //   bytes32[] memory newNotesPool = new bytes32[](_count);\n  //   Note memory note;\n  //   bytes32[] memory responseNotesHashes = new bytes32[](_count);\n        \n  //   do{\n  //     // get notes from pool of all notes specifying expected count and starting noteID\n  //     newNotesPool = listNotes(_start, _count);\n            \n  //     for(uint i = 0; i < newNotesPool.length; i++){\n  //       for(uint j = 0; j < myPurchasedNotes.length; j++){\n  //         note = notesArr[notesHashes[newNotesPool[i]] - 1];\n  //           // remove from fetch pool unapproved or already purchased note\n  //         if(!note.isApproved || newNotesPool[i] == myPurchasedNotes[j]){\n  //           newNotesPool[i] = bytes32(0x0);\n  //           break;\n  //         }    \n  //       }\n  //       if(responseNotesHashes.length > _count){\n  //         break;\n  //       }\n                \n  //       // if note hash is not already deleted, add to response\n  //       if(newNotesPool[i] != bytes32(0x0)){\n  //         responseNotesHashes[i] = newNotesPool[i];\n  //       }\n  //     }\n  //   }while(responseNotesHashes.length < _count);\n  //   return responseNotesHashes;\n  // }\n\n  function getUserPurchasedNotes(address userAddress) userExists(userAddress) view public returns(bytes32[] memory _boughtNotes){\n    _boughtNotes = boughtNotes[userAddress];\n  }\n\n  function listNotes(uint _start, uint _count) userExists(msg.sender) view private returns(bytes32[] memory _notesHashes) {\n    uint maxIters = _count;\n    if( (_start + _count) > notesArr.length) {\n      maxIters = notesArr.length - _start;\n    }\n\n    _notesHashes = new bytes32[](maxIters);\n\n    for(uint i=0; i < maxIters; i++) {\n      uint noteId = _start + i;\n      _notesHashes[i] = notesArr[noteId].noteHash;\n    }\n  }\n\n  // /** \n  //    * @dev User fetches available notes using filters. Client fetches for max of 50 at a time\n  //    * @return _notesHashes IPFS Reference Hashes of available notes\n  //    */\n  //   function getAvailableNotes(uint _maxPrice, uint _minPrice, uint8 _count, uint _start) userExists(msg.sender) view external returns (bytes32[] memory){\n  //       require(_count <= 50, \"cannot fetch more than 50 notes at once\");\n        \n  //       // get already purchased notes for removal\n  //       bytes32[] memory myPurchasedNotes = getUserPurchasedNotes(msg.sender);\n  //       bytes32[] memory newNotesPool = new bytes32[](_count);\n  //       Note memory note;\n  //       bytes32[] memory responseNotesHashes = new bytes32[](_count);\n        \n  //       do{\n  //           // get notes from pool of all notes specifying expected count and starting noteID\n  //           newNotesPool = listNotes(_start, _count);\n            \n  //           for(uint i = 0; i < newNotesPool.length; i++){\n                \n  //               for(uint j = 0; j < myPurchasedNotes.length; j++){\n                    \n  //                   note = notesArr[notesHashes[newNotesPool[i]] - 1];\n                    \n  //                   // remove from fetch pool unapproved or already purchased note\n  //                   if(!note.isApproved || newNotesPool[i] == myPurchasedNotes[j]){\n  //                       newNotesPool[i] = bytes32(0x0);\n  //                       break;\n  //                   }    \n  //               }\n  //               if(responseNotesHashes.length > _count){\n  //                   break;\n  //               }\n                \n  //               // if note hash is not already deleted, add to response\n  //               if(newNotesPool[i] != bytes32(0x0)){\n  //                   responseNotesHashes[i] = newNotesPool[i];\n  //               }\n  //           }\n  //       }while(responseNotesHashes.length < _count);\n        \n  //       return responseNotesHashes;\n  //   }\n\n\n/** \n     * @dev Get some notes incrementally (with range) from the large pool of notes on blockchain\n     * @param _start Note Id to start from\n     * @param _count Number of notes to fetch\n     */\n    /*function listNotes(uint _start, uint _count) userExists(msg.sender) view private returns(bytes32[] memory _notesHashes) {\n\n        uint maxIters = _count;\n        if( (_start + _count) > notesArr.length) {\n            maxIters = notesArr.length - _start;\n        }\n\n        _notesHashes = new bytes32[](maxIters);\n\n        for(uint i=0; i < maxIters; i++) {\n            uint noteId = _start + i;\n\n            _notesHashes[i] = notesArr[noteId].noteHash;\n        }\n    }*/\n}\n",
  "sourcePath": "/Users/idoia/Documents/blockchain/blockchain-developer-bootcamp-final-project/contracts/NotesMarketContract.sol",
  "compiler": {
    "name": "solc",
    "version": "0.8.0+commit.c7dfd78e.Emscripten.clang"
  },
  "schemaVersion": "3.4.3",
  "updatedAt": "2021-11-21T08:23:59.256Z",
  "networkType": "ethereum",
  "devdoc": {
    "kind": "dev",
    "methods": {},
    "version": 1
  },
  "userdoc": {
    "kind": "user",
    "methods": {},
    "version": 1
  }
}