{
  "contractName": "NotesMarketContract",
  "abi": [
    {
      "inputs": [],
      "stateMutability": "nonpayable",
      "type": "constructor"
    },
    {
      "anonymous": false,
      "inputs": [
        {
          "indexed": false,
          "internalType": "string",
          "name": "message",
          "type": "string"
        },
        {
          "indexed": true,
          "internalType": "bytes32",
          "name": "noteHash",
          "type": "bytes32"
        },
        {
          "indexed": false,
          "internalType": "string",
          "name": "title",
          "type": "string"
        },
        {
          "indexed": false,
          "internalType": "string",
          "name": "author",
          "type": "string"
        }
      ],
      "name": "NoteAdded",
      "type": "event"
    },
    {
      "anonymous": false,
      "inputs": [
        {
          "indexed": false,
          "internalType": "string",
          "name": "message",
          "type": "string"
        },
        {
          "indexed": true,
          "internalType": "bytes32",
          "name": "noteHash",
          "type": "bytes32"
        },
        {
          "indexed": true,
          "internalType": "address",
          "name": "buyer",
          "type": "address"
        },
        {
          "indexed": false,
          "internalType": "address",
          "name": "seller",
          "type": "address"
        }
      ],
      "name": "NoteBought",
      "type": "event"
    },
    {
      "anonymous": false,
      "inputs": [
        {
          "indexed": false,
          "internalType": "string",
          "name": "message",
          "type": "string"
        },
        {
          "indexed": false,
          "internalType": "uint256",
          "name": "price",
          "type": "uint256"
        }
      ],
      "name": "NotePriceUpdated",
      "type": "event"
    },
    {
      "anonymous": false,
      "inputs": [
        {
          "indexed": false,
          "internalType": "string",
          "name": "message",
          "type": "string"
        }
      ],
      "name": "NoteRemoved",
      "type": "event"
    },
    {
      "anonymous": false,
      "inputs": [
        {
          "indexed": false,
          "internalType": "string",
          "name": "message",
          "type": "string"
        },
        {
          "indexed": false,
          "internalType": "address",
          "name": "userAddress",
          "type": "address"
        },
        {
          "indexed": false,
          "internalType": "bool",
          "name": "isNoteOwner",
          "type": "bool"
        }
      ],
      "name": "UserCreated",
      "type": "event"
    },
    {
      "anonymous": false,
      "inputs": [
        {
          "indexed": false,
          "internalType": "string",
          "name": "message",
          "type": "string"
        }
      ],
      "name": "UserRemoved",
      "type": "event"
    },
    {
      "anonymous": false,
      "inputs": [
        {
          "indexed": false,
          "internalType": "string",
          "name": "message",
          "type": "string"
        }
      ],
      "name": "UserSellerApproved",
      "type": "event"
    },
    {
      "inputs": [
        {
          "internalType": "uint256",
          "name": "",
          "type": "uint256"
        }
      ],
      "name": "notesArr",
      "outputs": [
        {
          "internalType": "bytes32",
          "name": "noteHash",
          "type": "bytes32"
        },
        {
          "internalType": "bytes32",
          "name": "IPFSHash",
          "type": "bytes32"
        },
        {
          "internalType": "uint256",
          "name": "id",
          "type": "uint256"
        },
        {
          "internalType": "address payable",
          "name": "owner",
          "type": "address"
        },
        {
          "internalType": "uint256",
          "name": "price",
          "type": "uint256"
        },
        {
          "internalType": "uint120",
          "name": "purchaseCount",
          "type": "uint120"
        },
        {
          "internalType": "uint8",
          "name": "exits",
          "type": "uint8"
        },
        {
          "internalType": "bool",
          "name": "isApproved",
          "type": "bool"
        },
        {
          "internalType": "string",
          "name": "title",
          "type": "string"
        },
        {
          "internalType": "string",
          "name": "description",
          "type": "string"
        },
        {
          "internalType": "string",
          "name": "author",
          "type": "string"
        }
      ],
      "stateMutability": "view",
      "type": "function",
      "constant": true
    },
    {
      "inputs": [],
      "name": "usersCount",
      "outputs": [
        {
          "internalType": "uint256",
          "name": "",
          "type": "uint256"
        }
      ],
      "stateMutability": "view",
      "type": "function",
      "constant": true
    },
    {
      "inputs": [],
      "name": "changeNotesMarketStatus",
      "outputs": [],
      "stateMutability": "nonpayable",
      "type": "function"
    },
    {
      "inputs": [
        {
          "internalType": "bool",
          "name": "noteOwner",
          "type": "bool"
        }
      ],
      "name": "addUser",
      "outputs": [],
      "stateMutability": "nonpayable",
      "type": "function"
    },
    {
      "inputs": [],
      "name": "removeUser",
      "outputs": [],
      "stateMutability": "nonpayable",
      "type": "function"
    },
    {
      "inputs": [],
      "name": "getUser",
      "outputs": [
        {
          "internalType": "bool",
          "name": "_authStatus",
          "type": "bool"
        },
        {
          "internalType": "bool",
          "name": "_isSeller",
          "type": "bool"
        },
        {
          "internalType": "bool",
          "name": "_isAdmin",
          "type": "bool"
        },
        {
          "internalType": "bool",
          "name": "_isSellerApproved",
          "type": "bool"
        }
      ],
      "stateMutability": "view",
      "type": "function",
      "constant": true
    },
    {
      "inputs": [
        {
          "internalType": "address",
          "name": "userAddress",
          "type": "address"
        }
      ],
      "name": "approveSeller",
      "outputs": [],
      "stateMutability": "nonpayable",
      "type": "function"
    },
    {
      "inputs": [
        {
          "internalType": "bytes32",
          "name": "_IPFShash",
          "type": "bytes32"
        },
        {
          "internalType": "string",
          "name": "_title",
          "type": "string"
        },
        {
          "internalType": "string",
          "name": "_description",
          "type": "string"
        },
        {
          "internalType": "string",
          "name": "_author",
          "type": "string"
        },
        {
          "internalType": "uint256",
          "name": "_price",
          "type": "uint256"
        }
      ],
      "name": "addNote",
      "outputs": [],
      "stateMutability": "nonpayable",
      "type": "function"
    },
    {
      "inputs": [
        {
          "internalType": "bytes32",
          "name": "noteHash",
          "type": "bytes32"
        }
      ],
      "name": "removeNote",
      "outputs": [],
      "stateMutability": "nonpayable",
      "type": "function"
    },
    {
      "inputs": [],
      "name": "getAllNotes",
      "outputs": [
        {
          "components": [
            {
              "internalType": "bytes32",
              "name": "noteHash",
              "type": "bytes32"
            },
            {
              "internalType": "bytes32",
              "name": "IPFSHash",
              "type": "bytes32"
            },
            {
              "internalType": "uint256",
              "name": "id",
              "type": "uint256"
            },
            {
              "internalType": "address payable",
              "name": "owner",
              "type": "address"
            },
            {
              "internalType": "uint256",
              "name": "price",
              "type": "uint256"
            },
            {
              "internalType": "uint120",
              "name": "purchaseCount",
              "type": "uint120"
            },
            {
              "internalType": "uint8",
              "name": "exits",
              "type": "uint8"
            },
            {
              "internalType": "bool",
              "name": "isApproved",
              "type": "bool"
            },
            {
              "internalType": "string",
              "name": "title",
              "type": "string"
            },
            {
              "internalType": "string",
              "name": "description",
              "type": "string"
            },
            {
              "internalType": "string",
              "name": "author",
              "type": "string"
            }
          ],
          "internalType": "struct NotesMarketContract.Note[]",
          "name": "",
          "type": "tuple[]"
        }
      ],
      "stateMutability": "view",
      "type": "function",
      "constant": true
    },
    {
      "inputs": [
        {
          "internalType": "bytes32",
          "name": "noteHash",
          "type": "bytes32"
        }
      ],
      "name": "buyNote",
      "outputs": [],
      "stateMutability": "payable",
      "type": "function",
      "payable": true
    },
    {
      "inputs": [],
      "name": "getMyPurchasedNotes",
      "outputs": [
        {
          "internalType": "bytes32[]",
          "name": "_boughtNotes",
          "type": "bytes32[]"
        }
      ],
      "stateMutability": "view",
      "type": "function",
      "constant": true
    },
    {
      "inputs": [],
      "name": "getOwnedNotes",
      "outputs": [
        {
          "internalType": "bytes32[]",
          "name": "_ownedNotes",
          "type": "bytes32[]"
        }
      ],
      "stateMutability": "view",
      "type": "function",
      "constant": true
    }
  ],
  "bytecode": "0x608060405260008060006101000a81548160ff02191690831515021790555034801561002a57600080fd5b5033600060016101000a81548173ffffffffffffffffffffffffffffffffffffffff021916908373ffffffffffffffffffffffffffffffffffffffff160217905550613df98061007b6000396000f3fe6080604052600436106100c25760003560e01c80637de524ac1161007f578063c35b28b211610059578063c35b28b214610240578063d32fe58314610269578063de8f430c14610294578063f944f4c7146102bf576100c2565b80637de524ac146101d2578063832880e7146101e9578063c169d7e914610217576100c2565b80632d731b69146100c7578063358a7b20146100f25780634367fc031461011b5780635ec5d85614610162578063678fc4591461018b5780636ba13a82146101a7575b600080fd5b3480156100d357600080fd5b506100dc6102d6565b6040516100e99190613563565b60405180910390f35b3480156100fe57600080fd5b5061011960048036038101906101149190612c75565b6105b0565b005b34801561012757600080fd5b50610142600480360381019061013d9190612d5d565b610944565b6040516101599b9a999897969594939291906135ec565b60405180910390f35b34801561016e57600080fd5b5061018960048036038101906101849190612c23565b610b9b565b005b6101a560048036038101906101a09190612c75565b610e46565b005b3480156101b357600080fd5b506101bc6116fb565b6040516101c99190613900565b60405180910390f35b3480156101de57600080fd5b506101e7611701565b005b3480156101f557600080fd5b506101fe6117bc565b60405161020e94939291906135a7565b60405180910390f35b34801561022357600080fd5b5061023e60048036038101906102399190612c9e565b6119ba565b005b34801561024c57600080fd5b5061026760048036038101906102629190612c4c565b611f14565b005b34801561027557600080fd5b5061027e612182565b60405161028b9190613563565b60405180910390f35b3480156102a057600080fd5b506102a96122ae565b6040516102b69190613585565b60405180910390f35b3480156102cb57600080fd5b506102d461265e565b005b606033600460008273ffffffffffffffffffffffffffffffffffffffff1673ffffffffffffffffffffffffffffffffffffffff16815260200190815260200160002060000160149054906101000a900460ff1680156103815750600460008273ffffffffffffffffffffffffffffffffffffffff1673ffffffffffffffffffffffffffffffffffffffff16815260200190815260200160002060000160159054906101000a900460ff165b6103c0576040517f08c379a00000000000000000000000000000000000000000000000000000000081526004016103b7906137e4565b60405180910390fd5b336001600460008373ffffffffffffffffffffffffffffffffffffffff1673ffffffffffffffffffffffffffffffffffffffff16815260200190815260200160002060000160169054906101000a900460ff1660ff1614610456576040517f08c379a000000000000000000000000000000000000000000000000000000000815260040161044d90613884565b60405180910390fd5b600860003373ffffffffffffffffffffffffffffffffffffffff1673ffffffffffffffffffffffffffffffffffffffff1681526020019081526020016000208054806020026020016040519081016040528092919081815260200182805480156104df57602002820191906000526020600020905b8154815260200190600101908083116104cb575b5050505050925060005b83518110156105aa57600060026000868481518110610531577f4e487b7100000000000000000000000000000000000000000000000000000000600052603260045260246000fd5b6020026020010151815260200190815260200160002054141561059757838181518110610587577f4e487b7100000000000000000000000000000000000000000000000000000000600052603260045260246000fd5b6020026020010160008019168152505b80806105a290613c0c565b9150506104e9565b50505090565b80600060026000838152602001908152602001600020541415610608576040517f08c379a00000000000000000000000000000000000000000000000000000000081526004016105ff906137a4565b60405180910390fd5b6000600260008381526020019081526020016000205490506000600180836106309190613aa2565b81548110610667577f4e487b7100000000000000000000000000000000000000000000000000000000600052603260045260246000fd5b90600052602060002090600902016002015414156106ba576040517f08c379a00000000000000000000000000000000000000000000000000000000081526004016106b1906137a4565b60405180910390fd5b826000600260008381526020019081526020016000205490506000600180836106e39190613aa2565b8154811061071a577f4e487b7100000000000000000000000000000000000000000000000000000000600052603260045260246000fd5b906000526020600020906009020160050160009054906101000a90046effffffffffffffffffffffffffffff166effffffffffffffffffffffffffffff1614610798576040517f08c379a000000000000000000000000000000000000000000000000000000000815260040161078f906136ec565b60405180910390fd5b3385600060026000838152602001908152602001600020549050600060019054906101000a900473ffffffffffffffffffffffffffffffffffffffff1673ffffffffffffffffffffffffffffffffffffffff168373ffffffffffffffffffffffffffffffffffffffff1614806108af5750600180826108179190613aa2565b8154811061084e577f4e487b7100000000000000000000000000000000000000000000000000000000600052603260045260246000fd5b906000526020600020906009020160030160009054906101000a900473ffffffffffffffffffffffffffffffffffffffff1673ffffffffffffffffffffffffffffffffffffffff168373ffffffffffffffffffffffffffffffffffffffff16145b6108ee576040517f08c379a00000000000000000000000000000000000000000000000000000000081526004016108e59061370c565b60405180910390fd5b60026000898152602001908152602001600020600090557fe41203db0fa61b8b33140f8fc1ca977ef1ae43ae15065035c505670c0b4e0ed560405161093290613824565b60405180910390a15050505050505050565b6001818154811061095457600080fd5b90600052602060002090600902016000915090508060000154908060010154908060020154908060030160009054906101000a900473ffffffffffffffffffffffffffffffffffffffff16908060040154908060050160009054906101000a90046effffffffffffffffffffffffffffff169080600501600f9054906101000a900460ff16908060050160109054906101000a900460ff16908060060180546109fc90613bda565b80601f0160208091040260200160405190810160405280929190818152602001828054610a2890613bda565b8015610a755780601f10610a4a57610100808354040283529160200191610a75565b820191906000526020600020905b815481529060010190602001808311610a5857829003601f168201915b505050505090806007018054610a8a90613bda565b80601f0160208091040260200160405190810160405280929190818152602001828054610ab690613bda565b8015610b035780601f10610ad857610100808354040283529160200191610b03565b820191906000526020600020905b815481529060010190602001808311610ae657829003601f168201915b505050505090806008018054610b1890613bda565b80601f0160208091040260200160405190810160405280929190818152602001828054610b4490613bda565b8015610b915780601f10610b6657610100808354040283529160200191610b91565b820191906000526020600020905b815481529060010190602001808311610b7457829003601f168201915b505050505090508b565b6000151560008054906101000a900460ff16151514610bef576040517f08c379a0000000000000000000000000000000000000000000000000000000008152600401610be6906138a4565b60405180910390fd5b33600060019054906101000a900473ffffffffffffffffffffffffffffffffffffffff1673ffffffffffffffffffffffffffffffffffffffff168173ffffffffffffffffffffffffffffffffffffffff1614610c80576040517f08c379a0000000000000000000000000000000000000000000000000000000008152600401610c77906136ac565b60405180910390fd5b816001600460008373ffffffffffffffffffffffffffffffffffffffff1673ffffffffffffffffffffffffffffffffffffffff16815260200190815260200160002060000160169054906101000a900460ff1660ff1614610d16576040517f08c379a0000000000000000000000000000000000000000000000000000000008152600401610d0d90613884565b60405180910390fd5b600460008473ffffffffffffffffffffffffffffffffffffffff1673ffffffffffffffffffffffffffffffffffffffff16815260200190815260200160002060000160149054906101000a900460ff1615610e06576000600460008573ffffffffffffffffffffffffffffffffffffffff1673ffffffffffffffffffffffffffffffffffffffff168152602001908152602001600020905060018160000160156101000a81548160ff0219169083151502179055507fae937c810850c4277a17aeb7e8b138034e898dbb0a85b262eb9ea276fedc9405604051610df8906137c4565b60405180910390a150610e41565b6040517f08c379a0000000000000000000000000000000000000000000000000000000008152600401610e38906136cc565b60405180910390fd5b505050565b6000151560008054906101000a900460ff16151514610e9a576040517f08c379a0000000000000000000000000000000000000000000000000000000008152600401610e91906138a4565b60405180910390fd5b336001600460008373ffffffffffffffffffffffffffffffffffffffff1673ffffffffffffffffffffffffffffffffffffffff16815260200190815260200160002060000160169054906101000a900460ff1660ff1614610f30576040517f08c379a0000000000000000000000000000000000000000000000000000000008152600401610f2790613884565b60405180910390fd5b81600060026000838152602001908152602001600020541415610f88576040517f08c379a0000000000000000000000000000000000000000000000000000000008152600401610f7f906137a4565b60405180910390fd5b600060026000838152602001908152602001600020549050600060018083610fb09190613aa2565b81548110610fe7577f4e487b7100000000000000000000000000000000000000000000000000000000600052603260045260246000fd5b906000526020600020906009020160020154141561103a576040517f08c379a0000000000000000000000000000000000000000000000000000000008152600401611031906137a4565b60405180910390fd5b600180600260008781526020019081526020016000205461105b9190613aa2565b81548110611092577f4e487b7100000000000000000000000000000000000000000000000000000000600052603260045260246000fd5b906000526020600020906009020160040154348111156110e7576040517f08c379a00000000000000000000000000000000000000000000000000000000081526004016110de90613864565b60405180910390fd5b60018060026000888152602001908152602001600020546111089190613aa2565b8154811061113f577f4e487b7100000000000000000000000000000000000000000000000000000000600052603260045260246000fd5b9060005260206000209060090201600401546000600260008881526020019081526020016000205490506000600180836111799190613aa2565b815481106111b0577f4e487b7100000000000000000000000000000000000000000000000000000000600052603260045260246000fd5b9060005260206000209060090201604051806101600160405290816000820154815260200160018201548152602001600282015481526020016003820160009054906101000a900473ffffffffffffffffffffffffffffffffffffffff1673ffffffffffffffffffffffffffffffffffffffff1673ffffffffffffffffffffffffffffffffffffffff168152602001600482015481526020016005820160009054906101000a90046effffffffffffffffffffffffffffff166effffffffffffffffffffffffffffff166effffffffffffffffffffffffffffff16815260200160058201600f9054906101000a900460ff1660ff1660ff1681526020016005820160109054906101000a900460ff161515151581526020016006820180546112d790613bda565b80601f016020809104026020016040519081016040528092919081815260200182805461130390613bda565b80156113505780601f1061132557610100808354040283529160200191611350565b820191906000526020600020905b81548152906001019060200180831161133357829003601f168201915b5050505050815260200160078201805461136990613bda565b80601f016020809104026020016040519081016040528092919081815260200182805461139590613bda565b80156113e25780601f106113b7576101008083540402835291602001916113e2565b820191906000526020600020905b8154815290600101906020018083116113c557829003601f168201915b505050505081526020016008820180546113fb90613bda565b80601f016020809104026020016040519081016040528092919081815260200182805461142790613bda565b80156114745780601f1061144957610100808354040283529160200191611474565b820191906000526020600020905b81548152906001019060200180831161145757829003601f168201915b505050505081525050905060008160600151905060006114a3612710846080015161296e90919063ffffffff16565b905060006114be82856080015161298490919063ffffffff16565b905060006114d033866020015161299a565b905080600660008e815260200190815260200160002060003373ffffffffffffffffffffffffffffffffffffffff1673ffffffffffffffffffffffffffffffffffffffff16815260200190815260200160002081905550600760003373ffffffffffffffffffffffffffffffffffffffff1673ffffffffffffffffffffffffffffffffffffffff1681526020019081526020016000208c90806001815401808255809150506001900390600052602060002001600090919091909150558373ffffffffffffffffffffffffffffffffffffffff166108fc839081150290604051600060405180830381858888f193505050501580156115d3573d6000803e3d6000fd5b50600060019054906101000a900473ffffffffffffffffffffffffffffffffffffffff1673ffffffffffffffffffffffffffffffffffffffff166108fc849081150290604051600060405180830381858888f1935050505015801561163c573d6000803e3d6000fd5b503373ffffffffffffffffffffffffffffffffffffffff168c7fd1b3ceff01e1556a2936b8fef7e2e78b49634ac547f868ab32e3bdcb3c2b97af86604051611684919061372c565b60405180910390a3505050505050803411156116f357600081346116a89190613aa2565b90503373ffffffffffffffffffffffffffffffffffffffff166108fc829081150290604051600060405180830381858888f193505050501580156116f0573d6000803e3d6000fd5b50505b505050505050565b60055481565b33600060019054906101000a900473ffffffffffffffffffffffffffffffffffffffff1673ffffffffffffffffffffffffffffffffffffffff168173ffffffffffffffffffffffffffffffffffffffff1614611792576040517f08c379a0000000000000000000000000000000000000000000000000000000008152600401611789906136ac565b60405180910390fd5b60008054906101000a900460ff16156000806101000a81548160ff02191690831515021790555050565b600080600080336001600460008373ffffffffffffffffffffffffffffffffffffffff1673ffffffffffffffffffffffffffffffffffffffff16815260200190815260200160002060000160169054906101000a900460ff1660ff1614806118715750600060019054906101000a900473ffffffffffffffffffffffffffffffffffffffff1673ffffffffffffffffffffffffffffffffffffffff168173ffffffffffffffffffffffffffffffffffffffff16145b6118b0576040517f08c379a00000000000000000000000000000000000000000000000000000000081526004016118a790613884565b60405180910390fd5b60019450600460003373ffffffffffffffffffffffffffffffffffffffff1673ffffffffffffffffffffffffffffffffffffffff16815260200190815260200160002060000160149054906101000a900460ff169350600460003373ffffffffffffffffffffffffffffffffffffffff1673ffffffffffffffffffffffffffffffffffffffff16815260200190815260200160002060000160159054906101000a900460ff169150600060019054906101000a900473ffffffffffffffffffffffffffffffffffffffff1673ffffffffffffffffffffffffffffffffffffffff163373ffffffffffffffffffffffffffffffffffffffff1614156119b357600192505b5090919293565b336001600460008373ffffffffffffffffffffffffffffffffffffffff1673ffffffffffffffffffffffffffffffffffffffff16815260200190815260200160002060000160169054906101000a900460ff1660ff1614611a50576040517f08c379a0000000000000000000000000000000000000000000000000000000008152600401611a4790613884565b60405180910390fd5b33600460008273ffffffffffffffffffffffffffffffffffffffff1673ffffffffffffffffffffffffffffffffffffffff16815260200190815260200160002060000160149054906101000a900460ff168015611af95750600460008273ffffffffffffffffffffffffffffffffffffffff1673ffffffffffffffffffffffffffffffffffffffff16815260200190815260200160002060000160159054906101000a900460ff165b611b38576040517f08c379a0000000000000000000000000000000000000000000000000000000008152600401611b2f906137e4565b60405180910390fd5b60006003600089815260200190815260200160002054905060006002600083815260200190815260200160002054905060008114611bab576040517f08c379a0000000000000000000000000000000000000000000000000000000008152600401611ba290613804565b60405180910390fd5b600060018080549050611bbe9190613a1b565b905080604051602001611bd19190613548565b60405160208183030381529060405280519060200120925080600260008581526020019081526020016000208190555082600360008c815260200190815260200160002081905550600860003373ffffffffffffffffffffffffffffffffffffffff1673ffffffffffffffffffffffffffffffffffffffff168152602001908152602001600020839080600181540180825580915050600190039060005260206000200160009091909190915055611c876129fa565b838160000181815250508a8160200181815250508181604001818152505033816060019073ffffffffffffffffffffffffffffffffffffffff16908173ffffffffffffffffffffffffffffffffffffffff16815250508681608001818152505060008160a001906effffffffffffffffffffffffffffff1690816effffffffffffffffffffffffffffff168152505060018160c0019060ff16908160ff168152505089816101000181905250888161012001819052508781610140018190525060018160e0019015159081151581525050600181908060018154018082558091505060019003906000526020600020906009020160009091909190915060008201518160000155602082015181600101556040820151816002015560608201518160030160006101000a81548173ffffffffffffffffffffffffffffffffffffffff021916908373ffffffffffffffffffffffffffffffffffffffff1602179055506080820151816004015560a08201518160050160006101000a8154816effffffffffffffffffffffffffffff02191690836effffffffffffffffffffffffffffff16021790555060c082015181600501600f6101000a81548160ff021916908360ff16021790555060e08201518160050160106101000a81548160ff021916908315150217905550610100820151816006019080519060200190611e8e929190612a86565b50610120820151816007019080519060200190611eac929190612a86565b50610140820151816008019080519060200190611eca929190612a86565b505050837f61f7b06099d9d6c81bb3b480f2051f0190d343d909af3bdc90ff6b86cd83de588b8a604051611eff92919061375a565b60405180910390a25050505050505050505050565b6000151560008054906101000a900460ff16151514611f68576040517f08c379a0000000000000000000000000000000000000000000000000000000008152600401611f5f906138a4565b60405180910390fd5b6000600460003373ffffffffffffffffffffffffffffffffffffffff1673ffffffffffffffffffffffffffffffffffffffff16815260200190815260200160002060000160169054906101000a900460ff1660ff1614611ffd576040517f08c379a0000000000000000000000000000000000000000000000000000000008152600401611ff490613844565b60405180910390fd5b6000806001905060405180608001604052803373ffffffffffffffffffffffffffffffffffffffff168152602001841515815260200183151581526020018260ff16815250600460003373ffffffffffffffffffffffffffffffffffffffff1673ffffffffffffffffffffffffffffffffffffffff16815260200190815260200160002060008201518160000160006101000a81548173ffffffffffffffffffffffffffffffffffffffff021916908373ffffffffffffffffffffffffffffffffffffffff16021790555060208201518160000160146101000a81548160ff02191690831515021790555060408201518160000160156101000a81548160ff02191690831515021790555060608201518160000160166101000a81548160ff021916908360ff1602179055509050506005600081548092919061213f90613c0c565b91905055507f6ed7fd9c095d25702b515b4fc3c80ddda04a36adc0a6619c93fe1a306784f51e33846040516121759291906138c4565b60405180910390a1505050565b6060336001600460008373ffffffffffffffffffffffffffffffffffffffff1673ffffffffffffffffffffffffffffffffffffffff16815260200190815260200160002060000160169054906101000a900460ff1660ff161461221a576040517f08c379a000000000000000000000000000000000000000000000000000000000815260040161221190613884565b60405180910390fd5b600760003373ffffffffffffffffffffffffffffffffffffffff1673ffffffffffffffffffffffffffffffffffffffff1681526020019081526020016000208054806020026020016040519081016040528092919081815260200182805480156122a357602002820191906000526020600020905b81548152602001906001019080831161228f575b505050505091505090565b6060336001600460008373ffffffffffffffffffffffffffffffffffffffff1673ffffffffffffffffffffffffffffffffffffffff16815260200190815260200160002060000160169054906101000a900460ff1660ff1614612346576040517f08c379a000000000000000000000000000000000000000000000000000000000815260040161233d90613884565b60405180910390fd5b60606001805480602002602001604051908101604052809291908181526020016000905b828210156126505783829060005260206000209060090201604051806101600160405290816000820154815260200160018201548152602001600282015481526020016003820160009054906101000a900473ffffffffffffffffffffffffffffffffffffffff1673ffffffffffffffffffffffffffffffffffffffff1673ffffffffffffffffffffffffffffffffffffffff168152602001600482015481526020016005820160009054906101000a90046effffffffffffffffffffffffffffff166effffffffffffffffffffffffffffff166effffffffffffffffffffffffffffff16815260200160058201600f9054906101000a900460ff1660ff1660ff1681526020016005820160109054906101000a900460ff1615151515815260200160068201805461249b90613bda565b80601f01602080910402602001604051908101604052809291908181526020018280546124c790613bda565b80156125145780601f106124e957610100808354040283529160200191612514565b820191906000526020600020905b8154815290600101906020018083116124f757829003601f168201915b5050505050815260200160078201805461252d90613bda565b80601f016020809104026020016040519081016040528092919081815260200182805461255990613bda565b80156125a65780601f1061257b576101008083540402835291602001916125a6565b820191906000526020600020905b81548152906001019060200180831161258957829003601f168201915b505050505081526020016008820180546125bf90613bda565b80601f01602080910402602001604051908101604052809291908181526020018280546125eb90613bda565b80156126385780601f1061260d57610100808354040283529160200191612638565b820191906000526020600020905b81548152906001019060200180831161261b57829003601f168201915b5050505050815250508152602001906001019061236a565b505050509050809250505090565b336001600460008373ffffffffffffffffffffffffffffffffffffffff1673ffffffffffffffffffffffffffffffffffffffff16815260200190815260200160002060000160169054906101000a900460ff1660ff16146126f4576040517f08c379a00000000000000000000000000000000000000000000000000000000081526004016126eb90613884565b60405180910390fd5b600460003373ffffffffffffffffffffffffffffffffffffffff1673ffffffffffffffffffffffffffffffffffffffff16815260200190815260200160002060000160149054906101000a900460ff1615612891576000600860003373ffffffffffffffffffffffffffffffffffffffff1673ffffffffffffffffffffffffffffffffffffffff1681526020019081526020016000208054806020026020016040519081016040528092919081815260200182805480156127d457602002820191906000526020600020905b8154815260200190600101908083116127c0575b5050505050905060005b815181101561284357612830828281518110612823577f4e487b7100000000000000000000000000000000000000000000000000000000600052603260045260246000fd5b60200260200101516105b0565b808061283b90613c0c565b9150506127de565b50600860003373ffffffffffffffffffffffffffffffffffffffff1673ffffffffffffffffffffffffffffffffffffffff168152602001908152602001600020600061288f9190612b0c565b505b600460003373ffffffffffffffffffffffffffffffffffffffff1673ffffffffffffffffffffffffffffffffffffffff168152602001908152602001600020600080820160006101000a81549073ffffffffffffffffffffffffffffffffffffffff02191690556000820160146101000a81549060ff02191690556000820160156101000a81549060ff02191690556000820160166101000a81549060ff021916905550507f5b8514bf599ab0e7b72a3b2d47ae13677daa88ebbf833cea7bad37b6df49ede360405161296390613824565b60405180910390a150565b6000818361297c9190613a71565b905092915050565b600081836129929190613aa2565b905092915050565b6000807f537d3723252a534433306f374400000000000000000000000000000000000000905060008484836040516020016129d79392919061350b565b604051602081830303815290604052805190602001209050809250505092915050565b604051806101600160405280600080191681526020016000801916815260200160008152602001600073ffffffffffffffffffffffffffffffffffffffff1681526020016000815260200160006effffffffffffffffffffffffffffff168152602001600060ff1681526020016000151581526020016060815260200160608152602001606081525090565b828054612a9290613bda565b90600052602060002090601f016020900481019282612ab45760008555612afb565b82601f10612acd57805160ff1916838001178555612afb565b82800160010185558215612afb579182015b82811115612afa578251825591602001919060010190612adf565b5b509050612b089190612b2d565b5090565b5080546000825590600052602060002090810190612b2a9190612b4a565b50565b5b80821115612b46576000816000905550600101612b2e565b5090565b5b80821115612b63576000816000905550600101612b4b565b5090565b6000612b7a612b758461394c565b61391b565b905082815260208101848484011115612b9257600080fd5b612b9d848285613b98565b509392505050565b600081359050612bb481613d67565b92915050565b600081359050612bc981613d7e565b92915050565b600081359050612bde81613d95565b92915050565b600082601f830112612bf557600080fd5b8135612c05848260208601612b67565b91505092915050565b600081359050612c1d81613dac565b92915050565b600060208284031215612c3557600080fd5b6000612c4384828501612ba5565b91505092915050565b600060208284031215612c5e57600080fd5b6000612c6c84828501612bba565b91505092915050565b600060208284031215612c8757600080fd5b6000612c9584828501612bcf565b91505092915050565b600080600080600060a08688031215612cb657600080fd5b6000612cc488828901612bcf565b955050602086013567ffffffffffffffff811115612ce157600080fd5b612ced88828901612be4565b945050604086013567ffffffffffffffff811115612d0a57600080fd5b612d1688828901612be4565b935050606086013567ffffffffffffffff811115612d3357600080fd5b612d3f88828901612be4565b9250506080612d5088828901612c0e565b9150509295509295909350565b600060208284031215612d6f57600080fd5b6000612d7d84828501612c0e565b91505092915050565b6000612d928383612ef6565b60208301905092915050565b6000612daa838361339d565b905092915050565b612dbb81613b62565b82525050565b612dca81613ae8565b82525050565b612dd981613ae8565b82525050565b612de881613ad6565b82525050565b612dff612dfa82613ad6565b613c55565b82525050565b6000612e108261399c565b612e1a81856139d7565b9350612e258361397c565b8060005b83811015612e56578151612e3d8882612d86565b9750612e48836139bd565b925050600181019050612e29565b5085935050505092915050565b6000612e6e826139a7565b612e7881856139e8565b935083602082028501612e8a8561398c565b8060005b85811015612ec65784840389528151612ea78582612d9e565b9450612eb2836139ca565b925060208a01995050600181019050612e8e565b50829750879550505050505092915050565b612ee181613afa565b82525050565b612ef081613afa565b82525050565b612eff81613b06565b82525050565b612f0e81613b06565b82525050565b612f25612f2082613b06565b613c67565b82525050565b6000612f36826139b2565b612f4081856139f9565b9350612f50818560208601613ba7565b612f5981613d49565b840191505092915050565b6000612f6f826139b2565b612f798185613a0a565b9350612f89818560208601613ba7565b612f9281613d49565b840191505092915050565b6000612faa600c83613a0a565b91507f4973206e6f742061646d696e00000000000000000000000000000000000000006000830152602082019050919050565b6000612fea601483613a0a565b91507f55736572206973206e6f7420612073656c6c65720000000000000000000000006000830152602082019050919050565b600061302a601783613a0a565b91507f4e6f746520686173206265656e207075726368617365640000000000000000006000830152602082019050919050565b600061306a601f83613a0a565b91507f4973206e6f742061646d696e206e6f7220746865206e6f7465206f776e6572006000830152602082019050919050565b60006130aa600b83613a0a565b91507f6e6f746520626f756768740000000000000000000000000000000000000000006000830152602082019050919050565b60006130ea601983613a0a565b91507f4e6f7465207375636365737366756c6c792063726561746564000000000000006000830152602082019050919050565b600061312a601283613a0a565b91507f4e6f746520646f65736e277420657869737400000000000000000000000000006000830152602082019050919050565b600061316a602083613a0a565b91507f557365722073656c6c657220697320617070726f76656420666f722073656c6c6000830152602082019050919050565b60006131aa601583613a0a565b91507f557365722063616e27742073656c6c206e6f74657300000000000000000000006000830152602082019050919050565b60006131ea601383613a0a565b91507f4e6f746520616c726561647920657869737473000000000000000000000000006000830152602082019050919050565b600061322a601983613a0a565b91507f55736572207375636365737366756c6c792064656c65746564000000000000006000830152602082019050919050565b600061326a601783613a0a565b91507f5573657220616c726561647920726567697374657265640000000000000000006000830152602082019050919050565b60006132aa601283613a0a565b91507f696e73756666696369656e742066756e647300000000000000000000000000006000830152602082019050919050565b60006132ea601283613a0a565b91507f5573657220646f65736e277420657869737400000000000000000000000000006000830152602082019050919050565b600061332a601e83613a0a565b91507f4e6f7465736d61726b657420697320636c6f7365642062792061646d696e00006000830152602082019050919050565b600061336a601983613a0a565b91507f55736572207375636365737366756c6c792063726561746564000000000000006000830152602082019050919050565b6000610160830160008301516133b66000860182612ef6565b5060208301516133c96020860182612ef6565b5060408301516133dc60408601826134b8565b5060608301516133ef6060860182612dc1565b50608083015161340260808601826134b8565b5060a083015161341560a086018261349a565b5060c083015161342860c08601826134ed565b5060e083015161343b60e0860182612ed8565b506101008301518482036101008601526134558282612f2b565b9150506101208301518482036101208601526134718282612f2b565b91505061014083015184820361014086015261348d8282612f2b565b9150508091505092915050565b6134a381613b10565b82525050565b6134b281613b10565b82525050565b6134c181613b4b565b82525050565b6134d081613b4b565b82525050565b6134e76134e282613b4b565b613c83565b82525050565b6134f681613b55565b82525050565b61350581613b55565b82525050565b60006135178286612dee565b6014820191506135278285612f14565b6020820191506135378284612f14565b602082019150819050949350505050565b600061355482846134d6565b60208201915081905092915050565b6000602082019050818103600083015261357d8184612e05565b905092915050565b6000602082019050818103600083015261359f8184612e63565b905092915050565b60006080820190506135bc6000830187612ee7565b6135c96020830186612ee7565b6135d66040830185612ee7565b6135e36060830184612ee7565b95945050505050565b600061016082019050613602600083018e612f05565b61360f602083018d612f05565b61361c604083018c6134c7565b613629606083018b612dd0565b613636608083018a6134c7565b61364360a08301896134a9565b61365060c08301886134fc565b61365d60e0830187612ee7565b8181036101008301526136708186612f64565b90508181036101208301526136858185612f64565b905081810361014083015261369a8184612f64565b90509c9b505050505050505050505050565b600060208201905081810360008301526136c581612f9d565b9050919050565b600060208201905081810360008301526136e581612fdd565b9050919050565b600060208201905081810360008301526137058161301d565b9050919050565b600060208201905081810360008301526137258161305d565b9050919050565b600060408201905081810360008301526137458161309d565b90506137546020830184612db2565b92915050565b60006060820190508181036000830152613773816130dd565b905081810360208301526137878185612f64565b9050818103604083015261379b8184612f64565b90509392505050565b600060208201905081810360008301526137bd8161311d565b9050919050565b600060208201905081810360008301526137dd8161315d565b9050919050565b600060208201905081810360008301526137fd8161319d565b9050919050565b6000602082019050818103600083015261381d816131dd565b9050919050565b6000602082019050818103600083015261383d8161321d565b9050919050565b6000602082019050818103600083015261385d8161325d565b9050919050565b6000602082019050818103600083015261387d8161329d565b9050919050565b6000602082019050818103600083015261389d816132dd565b9050919050565b600060208201905081810360008301526138bd8161331d565b9050919050565b600060608201905081810360008301526138dd8161335d565b90506138ec6020830185612ddf565b6138f96040830184612ee7565b9392505050565b600060208201905061391560008301846134c7565b92915050565b6000604051905081810181811067ffffffffffffffff8211171561394257613941613d1a565b5b8060405250919050565b600067ffffffffffffffff82111561396757613966613d1a565b5b601f19601f8301169050602081019050919050565b6000819050602082019050919050565b6000819050602082019050919050565b600081519050919050565b600081519050919050565b600081519050919050565b6000602082019050919050565b6000602082019050919050565b600082825260208201905092915050565b600082825260208201905092915050565b600082825260208201905092915050565b600082825260208201905092915050565b6000613a2682613b4b565b9150613a3183613b4b565b9250827fffffffffffffffffffffffffffffffffffffffffffffffffffffffffffffffff03821115613a6657613a65613c8d565b5b828201905092915050565b6000613a7c82613b4b565b9150613a8783613b4b565b925082613a9757613a96613cbc565b5b828204905092915050565b6000613aad82613b4b565b9150613ab883613b4b565b925082821015613acb57613aca613c8d565b5b828203905092915050565b6000613ae182613b2b565b9050919050565b6000613af382613b2b565b9050919050565b60008115159050919050565b6000819050919050565b60006effffffffffffffffffffffffffffff82169050919050565b600073ffffffffffffffffffffffffffffffffffffffff82169050919050565b6000819050919050565b600060ff82169050919050565b6000613b6d82613b74565b9050919050565b6000613b7f82613b86565b9050919050565b6000613b9182613b2b565b9050919050565b82818337600083830152505050565b60005b83811015613bc5578082015181840152602081019050613baa565b83811115613bd4576000848401525b50505050565b60006002820490506001821680613bf257607f821691505b60208210811415613c0657613c05613ceb565b5b50919050565b6000613c1782613b4b565b91507fffffffffffffffffffffffffffffffffffffffffffffffffffffffffffffffff821415613c4a57613c49613c8d565b5b600182019050919050565b6000613c6082613c71565b9050919050565b6000819050919050565b6000613c7c82613d5a565b9050919050565b6000819050919050565b7f4e487b7100000000000000000000000000000000000000000000000000000000600052601160045260246000fd5b7f4e487b7100000000000000000000000000000000000000000000000000000000600052601260045260246000fd5b7f4e487b7100000000000000000000000000000000000000000000000000000000600052602260045260246000fd5b7f4e487b7100000000000000000000000000000000000000000000000000000000600052604160045260246000fd5b6000601f19601f8301169050919050565b60008160601b9050919050565b613d7081613ad6565b8114613d7b57600080fd5b50565b613d8781613afa565b8114613d9257600080fd5b50565b613d9e81613b06565b8114613da957600080fd5b50565b613db581613b4b565b8114613dc057600080fd5b5056fea264697066735822122008f76fcd55d608be8d869a1e2a7ccfe2ea256aa9f61ae24958b1e0ae29d9259c64736f6c63430008000033",
  "immutableReferences": {},
  "source": "// SPDX-License-Identifier: MIT\npragma solidity >=0.8.0;\nimport \"@openzeppelin/contracts/utils/math/SafeMath.sol\";\n\n/// @title NotesMarketContract\n/// @author The name of the author\n/// @notice Explain to an end user what this does\n/// @dev Contract for selling and bying notes market\n\n/**\n@title \n */\ncontract NotesMarketContract {\n\n  using SafeMath for uint256;\n    using SafeMath for uint16;\n\n  bool private notesMarketIsClosed = false;\n  address payable private admin;\n\n  constructor(){\n    admin = payable(msg.sender);\n  }\n\n  Note[] public notesArr;\n\n  // List of notes indexed by note hash -> numerical id\n  mapping(bytes32 => uint) private notesHashes;\n\n  // List of notes indexed by ifps hash -> note id hash\n  mapping(bytes32 => bytes32) private IPFSHashes;\n\n  // List of users indexed by address\n  mapping(address => User) private users;\n  uint public usersCount;\n\n  // List of all note purchase tokens\n  // for each note(noteHash), there is a collection of buyers' accessTokens(add -> accessToken)\n  mapping(bytes32 => mapping(address => bytes32)) private purchaseTokens;\n\n  // List of notes bought by users\n  mapping(address => bytes32[]) private boughtNotes;\n\n  // List of notes owned by users\n  mapping(address => bytes32[]) private ownedNotes;\n\n\n  // STRUCTS\n\n  // User -> buyer and/or seller\n  // Buy -> All users can buy notes\n  // Sell -> Just approved users can sell notes\n  struct User{\n    address userAddr;\n    bool seller; // Note owner\n    bool isSellerApproved; // Is approved to sell\n    uint8 exits;  \n  }\n\n  struct Note{\n    bytes32 noteHash; // note id hash\n    bytes32 IPFSHash; // note ipfs reference\n    uint id; // id - 1 -> position of bote in dynamic array\n    address payable owner; \n    uint256 price; // price in tokens\n    uint120 purchaseCount; // number of notes purchases\n    uint8 exits;\n    bool isApproved; // approved for sale\n    string title;\n    string description;\n    string author;\n  }\n\n  // EVENTS\n  event UserCreated(string message, address userAddress, bool isNoteOwner);\n  event UserRemoved(string message);\n  event UserSellerApproved(string message);\n\n  event NoteAdded(string message, bytes32 indexed noteHash, string title, string author);\n  event NoteRemoved(string message);\n  event NotePriceUpdated(string message, uint256 price);\n  event NoteBought(string message, bytes32 indexed noteHash, address indexed buyer, address seller);\n\n\n  // MODIFIERS\n  modifier isAdmin(address userAddress){\n    require(userAddress == admin, \"Is not admin\");\n    _;\n  }\n  \n  modifier notesMarketIsOpen(){\n    require(notesMarketIsClosed == false, \"Notesmarket is closed by admin\" );\n    _;\n  }\n\n  modifier userExists(address userAddress){\n    require(users[userAddress].exits == 1, \"User doesn't exist\" );\n    _;\n  }\n\n  modifier isUserOrAdmin(address userAddress){\n     require(users[userAddress].exits == 1 || userAddress == admin, \"User doesn't exist\" );\n    _;\n  }\n\n  modifier isNoteOwnerOrAdmin(address userAddress, bytes32 noteHash){\n    uint noteId = notesHashes[noteHash];\n    require(userAddress == admin || userAddress == notesArr[noteId - 1].owner, \"Is not admin nor the note owner\");\n    _;\n  }\n\n  modifier doesNoteExist(bytes32 noteHash){\n    require(notesHashes[noteHash] != 0, \"Note doesn't exist\");\n    uint noteId = notesHashes[noteHash];\n    require(notesArr[noteId - 1].id != 0, \"Note doesn't exist\");\n    _;\n  }\n\n  modifier notPurchased(bytes32 noteHash){\n    uint noteId = notesHashes[noteHash];\n    require(notesArr[noteId - 1].purchaseCount == 0, \"Note has been purchased\");\n    _;\n  }\n\n  modifier canSellNotes(address userAddress){\n    require(users[userAddress].seller && users[userAddress].isSellerApproved, \"User can't sell notes\");\n    _;\n  }\n\n  modifier sufficientFunds(uint price){\n    require(price <= msg.value, \"insufficient funds\");\n    _;\n  }\n\n  modifier returnExcess(uint price) {\n    //refund them after pay for note\n    _;\n    //this is a silent failure if \"there is no leftover to refund to buyer\"\n    if(msg.value > price){ \n      uint amountToRefund = msg.value - price;\n      payable(msg.sender).transfer(amountToRefund);\n    }        \n  }\n\n\n  // FUNCTIONS\n\n  /* NoteMarket */\n\n  function changeNotesMarketStatus() isAdmin(msg.sender) external{\n    notesMarketIsClosed = !notesMarketIsClosed;\n  }\n\n  /* Users */\n  \n  function addUser(bool noteOwner) notesMarketIsOpen external{\n    require(users[msg.sender].exits == 0, \"User already registered\");\n\n    bool isSellerApproved = false;\n    uint8 exists = 1;\n\n    users[msg.sender] = User(msg.sender, noteOwner, isSellerApproved, exists);\n    usersCount ++;\n\n    emit UserCreated(\"User successfully created\", msg.sender, noteOwner);\n  }\n\n  function removeUser() userExists(msg.sender) external{\n    if(users[(msg.sender)].seller){\n      bytes32[] memory hashes = ownedNotes[msg.sender];\n\n      for (uint i = 0; i < hashes.length; i++) {\n        removeNote(hashes[i]);\n      }\n      delete ownedNotes[msg.sender];\n    }\n    delete users[msg.sender];\n\n    emit UserRemoved(\"User successfully deleted\");\n  }\n\n  function getUser() isUserOrAdmin(msg.sender) view external returns(bool _authStatus, bool _isSeller, bool _isAdmin, bool _isSellerApproved){\n      _authStatus = true;\n      _isSeller = users[msg.sender].seller;\n      _isSellerApproved = users[msg.sender].isSellerApproved;\n      if(msg.sender == admin) _isAdmin = true;\n  }\n\n\n  function approveSeller(address userAddress) notesMarketIsOpen isAdmin(msg.sender) userExists(userAddress) external{\n    if(users[userAddress].seller){\n      User storage user = users[userAddress];\n      user.isSellerApproved = true;\n      emit UserSellerApproved(\"User seller is approved for sell\");\n    }else{\n      revert(\"User is not a seller\");\n    }\n  }\n\n  /* Notes */\n\n  function addNote(bytes32 _IPFShash, string memory _title, string memory _description, string memory _author, uint256 _price) \n    userExists(msg.sender) canSellNotes(msg.sender) external{\n\n    bytes32 _noteHash = IPFSHashes[_IPFShash];\n    uint _noteId = notesHashes[_noteHash];\n    require(_noteId == 0, \"Note already exists\");\n\n    uint newNoteId = notesArr.length + 1;\n\n    _noteHash = keccak256(abi.encodePacked(newNoteId));\n\n    notesHashes[_noteHash] = newNoteId;\n    IPFSHashes[_IPFShash] = _noteHash;\n    ownedNotes[msg.sender].push(_noteHash);\n\n    Note memory note;\n    \n    note.noteHash = _noteHash;\n    note.IPFSHash = _IPFShash;\n    note.id = newNoteId;\n    note.owner = payable(msg.sender);\n    note.price = _price;\n    note.purchaseCount = 0;\n    note.exits = 1;\n    note.title = _title;\n    note.description = _description;\n    note.author = _author;\n    note.isApproved = true;\n\n    notesArr.push(note);\n\n    emit NoteAdded(\"Note successfully created\", _noteHash, _title, _author);\n  }\n\n  function removeNote(bytes32 noteHash) doesNoteExist(noteHash) notPurchased(noteHash) isNoteOwnerOrAdmin(msg.sender, noteHash) public{\n    delete notesHashes[noteHash];\n    emit NoteRemoved(\"User successfully deleted\");\n  }\n\n  function getAllNotes() userExists(msg.sender) view external returns (Note[] memory){\n    Note[] memory notes;\n    notes = notesArr;\n    return notes;\n  }\n\n  function buyNote(bytes32 noteHash) notesMarketIsOpen userExists(msg.sender) doesNoteExist(noteHash) sufficientFunds(notesArr[notesHashes[noteHash] - 1].price) returnExcess(notesArr[notesHashes[noteHash] - 1].price) payable external {\n    uint noteId = notesHashes[noteHash];\n    Note memory note = notesArr[noteId - 1];\n    \n    address payable seller = note.owner;\n    \n    uint commissionFunds = note.price.div(10000);\n    uint paymentToSeller = note.price.sub(commissionFunds);\n    bytes32 accessToken = generateAccessToken(msg.sender, note.IPFSHash);\n    // store access token\n    purchaseTokens[noteHash][msg.sender] = accessToken;\n    // keep note purchase\n    boughtNotes[msg.sender].push(noteHash);\n\n    seller.transfer(paymentToSeller);\n    admin.transfer(commissionFunds);        \n    \n    emit NoteBought(\"note bought\", noteHash, msg.sender, seller);\n\n  }\n\n  function getMyPurchasedNotes() userExists(msg.sender) view public returns(bytes32[] memory _boughtNotes){\n    _boughtNotes = boughtNotes[msg.sender];\n  }\n\n  function generateAccessToken(address userAddr, bytes32 IPFShash) private pure returns(bytes32) { //isAdmin(msg.sender)\n    bytes32 salt = \"S}7#%*SD30o7D\";\n    bytes32 accessToken = keccak256(abi.encodePacked(userAddr, IPFShash, salt));\n    return accessToken;\n  }\n\n  function getOwnedNotes() canSellNotes(msg.sender) userExists(msg.sender) view external returns(bytes32[] memory _ownedNotes){\n    _ownedNotes = ownedNotes[msg.sender];\n    for(uint i=0; i < _ownedNotes.length; i++){\n      // exclude the leftover hashes in state array map ownedNotes\n      if(notesHashes[_ownedNotes[i]] == 0){\n        delete _ownedNotes[i];\n      }\n    }\n  }\n\n  \n}\n",
  "sourcePath": "/Users/idoia/Documents/blockchain/blockchain-developer-bootcamp-final-project/contracts/NotesMarketContract.sol",
  "compiler": {
    "name": "solc",
    "version": "0.8.0+commit.c7dfd78e.Emscripten.clang"
  },
  "schemaVersion": "3.4.3",
  "updatedAt": "2021-11-26T21:47:58.125Z",
  "networkType": "ethereum",
  "devdoc": {
    "kind": "dev",
    "methods": {},
    "version": 1
  },
  "userdoc": {
    "kind": "user",
    "methods": {},
    "version": 1
  }
}