{
  "contractName": "TheLazyCornerContract",
  "abi": [
    {
      "inputs": [],
      "stateMutability": "nonpayable",
      "type": "constructor"
    },
    {
      "anonymous": false,
      "inputs": [
        {
          "indexed": false,
          "internalType": "string",
          "name": "message",
          "type": "string"
        },
        {
          "indexed": true,
          "internalType": "bytes32",
          "name": "noteHash",
          "type": "bytes32"
        },
        {
          "indexed": false,
          "internalType": "string",
          "name": "title",
          "type": "string"
        },
        {
          "indexed": false,
          "internalType": "string",
          "name": "author",
          "type": "string"
        }
      ],
      "name": "NoteAdded",
      "type": "event"
    },
    {
      "anonymous": false,
      "inputs": [
        {
          "indexed": false,
          "internalType": "string",
          "name": "message",
          "type": "string"
        },
        {
          "indexed": true,
          "internalType": "bytes32",
          "name": "noteHash",
          "type": "bytes32"
        },
        {
          "indexed": true,
          "internalType": "address",
          "name": "buyer",
          "type": "address"
        },
        {
          "indexed": false,
          "internalType": "address",
          "name": "seller",
          "type": "address"
        }
      ],
      "name": "NoteBought",
      "type": "event"
    },
    {
      "anonymous": false,
      "inputs": [
        {
          "indexed": false,
          "internalType": "string",
          "name": "message",
          "type": "string"
        },
        {
          "indexed": false,
          "internalType": "uint256",
          "name": "price",
          "type": "uint256"
        }
      ],
      "name": "NotePriceUpdated",
      "type": "event"
    },
    {
      "anonymous": false,
      "inputs": [
        {
          "indexed": false,
          "internalType": "string",
          "name": "message",
          "type": "string"
        }
      ],
      "name": "NoteRemoved",
      "type": "event"
    },
    {
      "anonymous": false,
      "inputs": [
        {
          "indexed": false,
          "internalType": "string",
          "name": "message",
          "type": "string"
        },
        {
          "indexed": false,
          "internalType": "address",
          "name": "userAddress",
          "type": "address"
        },
        {
          "indexed": false,
          "internalType": "bool",
          "name": "isSeller",
          "type": "bool"
        }
      ],
      "name": "UserCreated",
      "type": "event"
    },
    {
      "anonymous": false,
      "inputs": [
        {
          "indexed": false,
          "internalType": "string",
          "name": "message",
          "type": "string"
        }
      ],
      "name": "UserRemoved",
      "type": "event"
    },
    {
      "anonymous": false,
      "inputs": [
        {
          "indexed": false,
          "internalType": "string",
          "name": "message",
          "type": "string"
        }
      ],
      "name": "UserSellerApproved",
      "type": "event"
    },
    {
      "inputs": [
        {
          "internalType": "uint256",
          "name": "",
          "type": "uint256"
        }
      ],
      "name": "notesArr",
      "outputs": [
        {
          "internalType": "bytes32",
          "name": "noteHash",
          "type": "bytes32"
        },
        {
          "internalType": "bytes32",
          "name": "IPFSHash",
          "type": "bytes32"
        },
        {
          "internalType": "uint256",
          "name": "id",
          "type": "uint256"
        },
        {
          "internalType": "address payable",
          "name": "owner",
          "type": "address"
        },
        {
          "internalType": "uint256",
          "name": "price",
          "type": "uint256"
        },
        {
          "internalType": "uint120",
          "name": "purchaseCount",
          "type": "uint120"
        },
        {
          "internalType": "uint8",
          "name": "exits",
          "type": "uint8"
        },
        {
          "internalType": "bool",
          "name": "isApproved",
          "type": "bool"
        },
        {
          "internalType": "string",
          "name": "title",
          "type": "string"
        },
        {
          "internalType": "string",
          "name": "description",
          "type": "string"
        },
        {
          "internalType": "string",
          "name": "author",
          "type": "string"
        }
      ],
      "stateMutability": "view",
      "type": "function",
      "constant": true
    },
    {
      "inputs": [
        {
          "internalType": "uint256",
          "name": "",
          "type": "uint256"
        }
      ],
      "name": "usersArr",
      "outputs": [
        {
          "internalType": "uint256",
          "name": "id",
          "type": "uint256"
        },
        {
          "internalType": "address",
          "name": "userAddr",
          "type": "address"
        },
        {
          "internalType": "bool",
          "name": "seller",
          "type": "bool"
        },
        {
          "internalType": "bool",
          "name": "isSellerApproved",
          "type": "bool"
        },
        {
          "internalType": "uint8",
          "name": "exits",
          "type": "uint8"
        }
      ],
      "stateMutability": "view",
      "type": "function",
      "constant": true
    },
    {
      "inputs": [],
      "name": "changeTheLazyCornerStatus",
      "outputs": [],
      "stateMutability": "nonpayable",
      "type": "function"
    },
    {
      "inputs": [
        {
          "internalType": "bool",
          "name": "isSeller",
          "type": "bool"
        }
      ],
      "name": "addUser",
      "outputs": [],
      "stateMutability": "nonpayable",
      "type": "function"
    },
    {
      "inputs": [],
      "name": "removeUser",
      "outputs": [],
      "stateMutability": "nonpayable",
      "type": "function"
    },
    {
      "inputs": [],
      "name": "getUser",
      "outputs": [
        {
          "internalType": "bool",
          "name": "_authStatus",
          "type": "bool"
        },
        {
          "internalType": "bool",
          "name": "_isSeller",
          "type": "bool"
        },
        {
          "internalType": "bool",
          "name": "_isAdmin",
          "type": "bool"
        },
        {
          "internalType": "bool",
          "name": "_isSellerApproved",
          "type": "bool"
        }
      ],
      "stateMutability": "view",
      "type": "function",
      "constant": true
    },
    {
      "inputs": [
        {
          "internalType": "address",
          "name": "userAddress",
          "type": "address"
        }
      ],
      "name": "approveSeller",
      "outputs": [],
      "stateMutability": "nonpayable",
      "type": "function"
    },
    {
      "inputs": [],
      "name": "getAllUsers",
      "outputs": [
        {
          "components": [
            {
              "internalType": "uint256",
              "name": "id",
              "type": "uint256"
            },
            {
              "internalType": "address",
              "name": "userAddr",
              "type": "address"
            },
            {
              "internalType": "bool",
              "name": "seller",
              "type": "bool"
            },
            {
              "internalType": "bool",
              "name": "isSellerApproved",
              "type": "bool"
            },
            {
              "internalType": "uint8",
              "name": "exits",
              "type": "uint8"
            }
          ],
          "internalType": "struct TheLazyCornerContract.User[]",
          "name": "_users",
          "type": "tuple[]"
        }
      ],
      "stateMutability": "view",
      "type": "function",
      "constant": true
    },
    {
      "inputs": [
        {
          "internalType": "bytes32",
          "name": "_IPFShash",
          "type": "bytes32"
        },
        {
          "internalType": "string",
          "name": "_title",
          "type": "string"
        },
        {
          "internalType": "string",
          "name": "_description",
          "type": "string"
        },
        {
          "internalType": "string",
          "name": "_author",
          "type": "string"
        },
        {
          "internalType": "uint256",
          "name": "_price",
          "type": "uint256"
        }
      ],
      "name": "addNote",
      "outputs": [],
      "stateMutability": "nonpayable",
      "type": "function"
    },
    {
      "inputs": [
        {
          "internalType": "bytes32",
          "name": "noteHash",
          "type": "bytes32"
        }
      ],
      "name": "removeNote",
      "outputs": [],
      "stateMutability": "nonpayable",
      "type": "function"
    },
    {
      "inputs": [],
      "name": "getAllNotes",
      "outputs": [
        {
          "components": [
            {
              "internalType": "bytes32",
              "name": "noteHash",
              "type": "bytes32"
            },
            {
              "internalType": "bytes32",
              "name": "IPFSHash",
              "type": "bytes32"
            },
            {
              "internalType": "uint256",
              "name": "id",
              "type": "uint256"
            },
            {
              "internalType": "address payable",
              "name": "owner",
              "type": "address"
            },
            {
              "internalType": "uint256",
              "name": "price",
              "type": "uint256"
            },
            {
              "internalType": "uint120",
              "name": "purchaseCount",
              "type": "uint120"
            },
            {
              "internalType": "uint8",
              "name": "exits",
              "type": "uint8"
            },
            {
              "internalType": "bool",
              "name": "isApproved",
              "type": "bool"
            },
            {
              "internalType": "string",
              "name": "title",
              "type": "string"
            },
            {
              "internalType": "string",
              "name": "description",
              "type": "string"
            },
            {
              "internalType": "string",
              "name": "author",
              "type": "string"
            }
          ],
          "internalType": "struct TheLazyCornerContract.Note[]",
          "name": "",
          "type": "tuple[]"
        }
      ],
      "stateMutability": "view",
      "type": "function",
      "constant": true
    },
    {
      "inputs": [
        {
          "internalType": "bytes32",
          "name": "noteHash",
          "type": "bytes32"
        }
      ],
      "name": "buyNote",
      "outputs": [],
      "stateMutability": "payable",
      "type": "function",
      "payable": true
    },
    {
      "inputs": [],
      "name": "getMyPurchasedNotes",
      "outputs": [
        {
          "internalType": "bytes32[]",
          "name": "_boughtNotes",
          "type": "bytes32[]"
        }
      ],
      "stateMutability": "view",
      "type": "function",
      "constant": true
    },
    {
      "inputs": [],
      "name": "getOwnedNotes",
      "outputs": [
        {
          "internalType": "bytes32[]",
          "name": "_ownedNotes",
          "type": "bytes32[]"
        }
      ],
      "stateMutability": "view",
      "type": "function",
      "constant": true
    }
  ],
  "bytecode": "0x608060405260008060006101000a81548160ff02191690831515021790555034801561002a57600080fd5b5033600060016101000a81548173ffffffffffffffffffffffffffffffffffffffff021916908373ffffffffffffffffffffffffffffffffffffffff1602179055506146bc8061007b6000396000f3fe6080604052600436106100dd5760003560e01c8063832880e71161007f578063d32fe58311610059578063d32fe5831461029a578063de8f430c146102c5578063e2842d79146102f0578063f944f4c71461031b576100dd565b8063832880e71461021a578063c169d7e914610248578063c35b28b214610271576100dd565b80635b7eedf8116100bb5780635b7eedf81461017d5780635ec5d856146101be578063617bc704146101e7578063678fc459146101fe576100dd565b80632d731b69146100e2578063358a7b201461010d5780634367fc0314610136575b600080fd5b3480156100ee57600080fd5b506100f7610332565b6040516101049190613d2b565b60405180910390f35b34801561011957600080fd5b50610134600480360381019061012f9190613280565b61060c565b005b34801561014257600080fd5b5061015d60048036038101906101589190613368565b6109a0565b6040516101749b9a99989796959493929190613dd6565b60405180910390f35b34801561018957600080fd5b506101a4600480360381019061019f9190613368565b610bf7565b6040516101b595949392919061414a565b60405180910390f35b3480156101ca57600080fd5b506101e560048036038101906101e0919061322e565b610c84565b005b3480156101f357600080fd5b506101fc610fa3565b005b61021860048036038101906102139190613280565b61105e565b005b34801561022657600080fd5b5061022f611a83565b60405161023f9493929190613d91565b60405180910390f35b34801561025457600080fd5b5061026f600480360381019061026a91906132a9565b611c81565b005b34801561027d57600080fd5b5061029860048036038101906102939190613257565b6121db565b005b3480156102a657600080fd5b506102af612565565b6040516102bc9190613d2b565b60405180910390f35b3480156102d157600080fd5b506102da612691565b6040516102e79190613d4d565b60405180910390f35b3480156102fc57600080fd5b50610305612a89565b6040516103129190613d6f565b60405180910390f35b34801561032757600080fd5b50610330612c75565b005b606033600560008273ffffffffffffffffffffffffffffffffffffffff1673ffffffffffffffffffffffffffffffffffffffff16815260200190815260200160002060010160149054906101000a900460ff1680156103dd5750600560008273ffffffffffffffffffffffffffffffffffffffff1673ffffffffffffffffffffffffffffffffffffffff16815260200190815260200160002060010160159054906101000a900460ff165b61041c576040517f08c379a000000000000000000000000000000000000000000000000000000000815260040161041390613fee565b60405180910390fd5b336001600560008373ffffffffffffffffffffffffffffffffffffffff1673ffffffffffffffffffffffffffffffffffffffff16815260200190815260200160002060010160169054906101000a900460ff1660ff16146104b2576040517f08c379a00000000000000000000000000000000000000000000000000000000081526004016104a9906140ce565b60405180910390fd5b600860003373ffffffffffffffffffffffffffffffffffffffff1673ffffffffffffffffffffffffffffffffffffffff16815260200190815260200160002080548060200260200160405190810160405280929190818152602001828054801561053b57602002820191906000526020600020905b815481526020019060010190808311610527575b5050505050925060005b83518110156106065760006003600086848151811061058d577f4e487b7100000000000000000000000000000000000000000000000000000000600052603260045260246000fd5b602002602001015181526020019081526020016000205414156105f3578381815181106105e3577f4e487b7100000000000000000000000000000000000000000000000000000000600052603260045260246000fd5b6020026020010160008019168152505b80806105fe9061450a565b915050610545565b50505090565b80600060036000838152602001908152602001600020541415610664576040517f08c379a000000000000000000000000000000000000000000000000000000000815260040161065b90613fae565b60405180910390fd5b60006003600083815260200190815260200160002054905060006001808361068c9190614368565b815481106106c3577f4e487b7100000000000000000000000000000000000000000000000000000000600052603260045260246000fd5b9060005260206000209060090201600201541415610716576040517f08c379a000000000000000000000000000000000000000000000000000000000815260040161070d90613fae565b60405180910390fd5b8260006003600083815260200190815260200160002054905060006001808361073f9190614368565b81548110610776577f4e487b7100000000000000000000000000000000000000000000000000000000600052603260045260246000fd5b906000526020600020906009020160050160009054906101000a90046effffffffffffffffffffffffffffff166effffffffffffffffffffffffffffff16146107f4576040517f08c379a00000000000000000000000000000000000000000000000000000000081526004016107eb90613ed6565b60405180910390fd5b3385600060036000838152602001908152602001600020549050600060019054906101000a900473ffffffffffffffffffffffffffffffffffffffff1673ffffffffffffffffffffffffffffffffffffffff168373ffffffffffffffffffffffffffffffffffffffff16148061090b5750600180826108739190614368565b815481106108aa577f4e487b7100000000000000000000000000000000000000000000000000000000600052603260045260246000fd5b906000526020600020906009020160030160009054906101000a900473ffffffffffffffffffffffffffffffffffffffff1673ffffffffffffffffffffffffffffffffffffffff168373ffffffffffffffffffffffffffffffffffffffff16145b61094a576040517f08c379a000000000000000000000000000000000000000000000000000000000815260040161094190613ef6565b60405180910390fd5b60036000898152602001908152602001600020600090557fe41203db0fa61b8b33140f8fc1ca977ef1ae43ae15065035c505670c0b4e0ed560405161098e9061406e565b60405180910390a15050505050505050565b600181815481106109b057600080fd5b90600052602060002090600902016000915090508060000154908060010154908060020154908060030160009054906101000a900473ffffffffffffffffffffffffffffffffffffffff16908060040154908060050160009054906101000a90046effffffffffffffffffffffffffffff169080600501600f9054906101000a900460ff16908060050160109054906101000a900460ff1690806006018054610a58906144a0565b80601f0160208091040260200160405190810160405280929190818152602001828054610a84906144a0565b8015610ad15780601f10610aa657610100808354040283529160200191610ad1565b820191906000526020600020905b815481529060010190602001808311610ab457829003601f168201915b505050505090806007018054610ae6906144a0565b80601f0160208091040260200160405190810160405280929190818152602001828054610b12906144a0565b8015610b5f5780601f10610b3457610100808354040283529160200191610b5f565b820191906000526020600020905b815481529060010190602001808311610b4257829003601f168201915b505050505090806008018054610b74906144a0565b80601f0160208091040260200160405190810160405280929190818152602001828054610ba0906144a0565b8015610bed5780601f10610bc257610100808354040283529160200191610bed565b820191906000526020600020905b815481529060010190602001808311610bd057829003601f168201915b505050505090508b565b60028181548110610c0757600080fd5b90600052602060002090600202016000915090508060000154908060010160009054906101000a900473ffffffffffffffffffffffffffffffffffffffff16908060010160149054906101000a900460ff16908060010160159054906101000a900460ff16908060010160169054906101000a900460ff16905085565b6000151560008054906101000a900460ff16151514610cd8576040517f08c379a0000000000000000000000000000000000000000000000000000000008152600401610ccf906140ee565b60405180910390fd5b33600060019054906101000a900473ffffffffffffffffffffffffffffffffffffffff1673ffffffffffffffffffffffffffffffffffffffff168173ffffffffffffffffffffffffffffffffffffffff1614610d69576040517f08c379a0000000000000000000000000000000000000000000000000000000008152600401610d6090613e96565b60405180910390fd5b816001600560008373ffffffffffffffffffffffffffffffffffffffff1673ffffffffffffffffffffffffffffffffffffffff16815260200190815260200160002060010160169054906101000a900460ff1660ff1614610dff576040517f08c379a0000000000000000000000000000000000000000000000000000000008152600401610df6906140ce565b60405180910390fd5b600560008473ffffffffffffffffffffffffffffffffffffffff1673ffffffffffffffffffffffffffffffffffffffff16815260200190815260200160002060010160149054906101000a900460ff1615610f63576000600560008573ffffffffffffffffffffffffffffffffffffffff1673ffffffffffffffffffffffffffffffffffffffff168152602001908152602001600020905060018160010160156101000a81548160ff0219169083151502179055506001600260018360000154610ec99190614368565b81548110610f00577f4e487b7100000000000000000000000000000000000000000000000000000000600052603260045260246000fd5b906000526020600020906002020160010160156101000a81548160ff0219169083151502179055507fae937c810850c4277a17aeb7e8b138034e898dbb0a85b262eb9ea276fedc9405604051610f5590613fce565b60405180910390a150610f9e565b6040517f08c379a0000000000000000000000000000000000000000000000000000000008152600401610f9590613eb6565b60405180910390fd5b505050565b33600060019054906101000a900473ffffffffffffffffffffffffffffffffffffffff1673ffffffffffffffffffffffffffffffffffffffff168173ffffffffffffffffffffffffffffffffffffffff1614611034576040517f08c379a000000000000000000000000000000000000000000000000000000000815260040161102b90613e96565b60405180910390fd5b60008054906101000a900460ff16156000806101000a81548160ff02191690831515021790555050565b6000151560008054906101000a900460ff161515146110b2576040517f08c379a00000000000000000000000000000000000000000000000000000000081526004016110a9906140ee565b60405180910390fd5b336001600560008373ffffffffffffffffffffffffffffffffffffffff1673ffffffffffffffffffffffffffffffffffffffff16815260200190815260200160002060010160169054906101000a900460ff1660ff1614611148576040517f08c379a000000000000000000000000000000000000000000000000000000000815260040161113f906140ce565b60405180910390fd5b816000600360008381526020019081526020016000205414156111a0576040517f08c379a000000000000000000000000000000000000000000000000000000000815260040161119790613fae565b60405180910390fd5b6000600360008381526020019081526020016000205490506000600180836111c89190614368565b815481106111ff577f4e487b7100000000000000000000000000000000000000000000000000000000600052603260045260246000fd5b9060005260206000209060090201600201541415611252576040517f08c379a000000000000000000000000000000000000000000000000000000000815260040161124990613fae565b60405180910390fd5b60018060036000878152602001908152602001600020546112739190614368565b815481106112aa577f4e487b7100000000000000000000000000000000000000000000000000000000600052603260045260246000fd5b9060005260206000209060090201600401543373ffffffffffffffffffffffffffffffffffffffff1631811115611316576040517f08c379a000000000000000000000000000000000000000000000000000000000815260040161130d9061400e565b60405180910390fd5b60018060036000888152602001908152602001600020546113379190614368565b8154811061136e577f4e487b7100000000000000000000000000000000000000000000000000000000600052603260045260246000fd5b9060005260206000209060090201600401546000600360008881526020019081526020016000205490506000600180836113a89190614368565b815481106113df577f4e487b7100000000000000000000000000000000000000000000000000000000600052603260045260246000fd5b9060005260206000209060090201604051806101600160405290816000820154815260200160018201548152602001600282015481526020016003820160009054906101000a900473ffffffffffffffffffffffffffffffffffffffff1673ffffffffffffffffffffffffffffffffffffffff1673ffffffffffffffffffffffffffffffffffffffff168152602001600482015481526020016005820160009054906101000a90046effffffffffffffffffffffffffffff166effffffffffffffffffffffffffffff166effffffffffffffffffffffffffffff16815260200160058201600f9054906101000a900460ff1660ff1660ff1681526020016005820160109054906101000a900460ff16151515158152602001600682018054611506906144a0565b80601f0160208091040260200160405190810160405280929190818152602001828054611532906144a0565b801561157f5780601f106115545761010080835404028352916020019161157f565b820191906000526020600020905b81548152906001019060200180831161156257829003601f168201915b50505050508152602001600782018054611598906144a0565b80601f01602080910402602001604051908101604052809291908181526020018280546115c4906144a0565b80156116115780601f106115e657610100808354040283529160200191611611565b820191906000526020600020905b8154815290600101906020018083116115f457829003601f168201915b5050505050815260200160088201805461162a906144a0565b80601f0160208091040260200160405190810160405280929190818152602001828054611656906144a0565b80156116a35780601f10611678576101008083540402835291602001916116a3565b820191906000526020600020905b81548152906001019060200180831161168657829003601f168201915b505050505081525050905060008160600151905060006116d160648460800151612f8d90919063ffffffff16565b905060006116ec828560800151612fa390919063ffffffff16565b9050600760003373ffffffffffffffffffffffffffffffffffffffff1673ffffffffffffffffffffffffffffffffffffffff1681526020019081526020016000208b90806001815401808255809150506001900390600052602060002001600090919091909150558360a0018051809190611766906144d2565b6effffffffffffffffffffffffffffff166effffffffffffffffffffffffffffff16815250508360a001516001808761179f9190614368565b815481106117d6577f4e487b7100000000000000000000000000000000000000000000000000000000600052603260045260246000fd5b906000526020600020906009020160050160006101000a8154816effffffffffffffffffffffffffffff02191690836effffffffffffffffffffffffffffff16021790555060008373ffffffffffffffffffffffffffffffffffffffff168260405161184190613cfb565b60006040518083038185875af1925050503d806000811461187e576040519150601f19603f3d011682016040523d82523d6000602084013e611883565b606091505b50509050806118c7576040517f08c379a00000000000000000000000000000000000000000000000000000000081526004016118be9061402e565b60405180910390fd5b60008060019054906101000a900473ffffffffffffffffffffffffffffffffffffffff1673ffffffffffffffffffffffffffffffffffffffff168460405161190e90613cfb565b60006040518083038185875af1925050503d806000811461194b576040519150601f19603f3d011682016040523d82523d6000602084013e611950565b606091505b5050905080611994576040517f08c379a000000000000000000000000000000000000000000000000000000000815260040161198b90613f16565b60405180910390fd5b3373ffffffffffffffffffffffffffffffffffffffff168d7fd1b3ceff01e1556a2936b8fef7e2e78b49634ac547f868ab32e3bdcb3c2b97af876040516119db9190613f36565b60405180910390a35050505050505080341115611a7b5760008134611a009190614368565b905060003373ffffffffffffffffffffffffffffffffffffffff1682604051611a2890613cfb565b60006040518083038185875af1925050503d8060008114611a65576040519150601f19603f3d011682016040523d82523d6000602084013e611a6a565b606091505b5050905080611a7857600080fd5b50505b505050505050565b600080600080336001600560008373ffffffffffffffffffffffffffffffffffffffff1673ffffffffffffffffffffffffffffffffffffffff16815260200190815260200160002060010160169054906101000a900460ff1660ff161480611b385750600060019054906101000a900473ffffffffffffffffffffffffffffffffffffffff1673ffffffffffffffffffffffffffffffffffffffff168173ffffffffffffffffffffffffffffffffffffffff16145b611b77576040517f08c379a0000000000000000000000000000000000000000000000000000000008152600401611b6e906140ce565b60405180910390fd5b60019450600560003373ffffffffffffffffffffffffffffffffffffffff1673ffffffffffffffffffffffffffffffffffffffff16815260200190815260200160002060010160149054906101000a900460ff169350600560003373ffffffffffffffffffffffffffffffffffffffff1673ffffffffffffffffffffffffffffffffffffffff16815260200190815260200160002060010160159054906101000a900460ff169150600060019054906101000a900473ffffffffffffffffffffffffffffffffffffffff1673ffffffffffffffffffffffffffffffffffffffff163373ffffffffffffffffffffffffffffffffffffffff161415611c7a57600192505b5090919293565b336001600560008373ffffffffffffffffffffffffffffffffffffffff1673ffffffffffffffffffffffffffffffffffffffff16815260200190815260200160002060010160169054906101000a900460ff1660ff1614611d17576040517f08c379a0000000000000000000000000000000000000000000000000000000008152600401611d0e906140ce565b60405180910390fd5b33600560008273ffffffffffffffffffffffffffffffffffffffff1673ffffffffffffffffffffffffffffffffffffffff16815260200190815260200160002060010160149054906101000a900460ff168015611dc05750600560008273ffffffffffffffffffffffffffffffffffffffff1673ffffffffffffffffffffffffffffffffffffffff16815260200190815260200160002060010160159054906101000a900460ff165b611dff576040517f08c379a0000000000000000000000000000000000000000000000000000000008152600401611df690613fee565b60405180910390fd5b60006004600089815260200190815260200160002054905060006003600083815260200190815260200160002054905060008114611e72576040517f08c379a0000000000000000000000000000000000000000000000000000000008152600401611e699061404e565b60405180910390fd5b600060018080549050611e8591906142e1565b905080604051602001611e989190613d10565b60405160208183030381529060405280519060200120925080600360008581526020019081526020016000208190555082600460008c815260200190815260200160002081905550600860003373ffffffffffffffffffffffffffffffffffffffff1673ffffffffffffffffffffffffffffffffffffffff168152602001908152602001600020839080600181540180825580915050600190039060005260206000200160009091909190915055611f4e612fb9565b838160000181815250508a8160200181815250508181604001818152505033816060019073ffffffffffffffffffffffffffffffffffffffff16908173ffffffffffffffffffffffffffffffffffffffff16815250508681608001818152505060008160a001906effffffffffffffffffffffffffffff1690816effffffffffffffffffffffffffffff168152505060018160c0019060ff16908160ff168152505089816101000181905250888161012001819052508781610140018190525060018160e0019015159081151581525050600181908060018154018082558091505060019003906000526020600020906009020160009091909190915060008201518160000155602082015181600101556040820151816002015560608201518160030160006101000a81548173ffffffffffffffffffffffffffffffffffffffff021916908373ffffffffffffffffffffffffffffffffffffffff1602179055506080820151816004015560a08201518160050160006101000a8154816effffffffffffffffffffffffffffff02191690836effffffffffffffffffffffffffffff16021790555060c082015181600501600f6101000a81548160ff021916908360ff16021790555060e08201518160050160106101000a81548160ff021916908315150217905550610100820151816006019080519060200190612155929190613045565b50610120820151816007019080519060200190612173929190613045565b50610140820151816008019080519060200190612191929190613045565b505050837f61f7b06099d9d6c81bb3b480f2051f0190d343d909af3bdc90ff6b86cd83de588b8a6040516121c6929190613f64565b60405180910390a25050505050505050505050565b6000151560008054906101000a900460ff1615151461222f576040517f08c379a0000000000000000000000000000000000000000000000000000000008152600401612226906140ee565b60405180910390fd5b6000600560003373ffffffffffffffffffffffffffffffffffffffff1673ffffffffffffffffffffffffffffffffffffffff16815260200190815260200160002060010160169054906101000a900460ff1660ff16146122c4576040517f08c379a00000000000000000000000000000000000000000000000000000000081526004016122bb906140ae565b60405180910390fd5b6122cc6130cb565b60016002805490506122de91906142e1565b81600001818152505033816020019073ffffffffffffffffffffffffffffffffffffffff16908173ffffffffffffffffffffffffffffffffffffffff16815250508181604001901515908115158152505060008160600190151590811515815250506001816080019060ff16908160ff168152505080600560003373ffffffffffffffffffffffffffffffffffffffff1673ffffffffffffffffffffffffffffffffffffffff1681526020019081526020016000206000820151816000015560208201518160010160006101000a81548173ffffffffffffffffffffffffffffffffffffffff021916908373ffffffffffffffffffffffffffffffffffffffff16021790555060408201518160010160146101000a81548160ff02191690831515021790555060608201518160010160156101000a81548160ff02191690831515021790555060808201518160010160166101000a81548160ff021916908360ff16021790555090505060028190806001815401808255809150506001900390600052602060002090600202016000909190919091506000820151816000015560208201518160010160006101000a81548173ffffffffffffffffffffffffffffffffffffffff021916908373ffffffffffffffffffffffffffffffffffffffff16021790555060408201518160010160146101000a81548160ff02191690831515021790555060608201518160010160156101000a81548160ff02191690831515021790555060808201518160010160166101000a81548160ff021916908360ff16021790555050507f6ed7fd9c095d25702b515b4fc3c80ddda04a36adc0a6619c93fe1a306784f51e338360405161255992919061410e565b60405180910390a15050565b6060336001600560008373ffffffffffffffffffffffffffffffffffffffff1673ffffffffffffffffffffffffffffffffffffffff16815260200190815260200160002060010160169054906101000a900460ff1660ff16146125fd576040517f08c379a00000000000000000000000000000000000000000000000000000000081526004016125f4906140ce565b60405180910390fd5b600760003373ffffffffffffffffffffffffffffffffffffffff1673ffffffffffffffffffffffffffffffffffffffff16815260200190815260200160002080548060200260200160405190810160405280929190818152602001828054801561268657602002820191906000526020600020905b815481526020019060010190808311612672575b505050505091505090565b6060336001600560008373ffffffffffffffffffffffffffffffffffffffff1673ffffffffffffffffffffffffffffffffffffffff16815260200190815260200160002060010160169054906101000a900460ff1660ff1614612729576040517f08c379a0000000000000000000000000000000000000000000000000000000008152600401612720906140ce565b60405180910390fd5b603260018054905010612771576040517f08c379a00000000000000000000000000000000000000000000000000000000081526004016127689061408e565b60405180910390fd5b60606001805480602002602001604051908101604052809291908181526020016000905b82821015612a7b5783829060005260206000209060090201604051806101600160405290816000820154815260200160018201548152602001600282015481526020016003820160009054906101000a900473ffffffffffffffffffffffffffffffffffffffff1673ffffffffffffffffffffffffffffffffffffffff1673ffffffffffffffffffffffffffffffffffffffff168152602001600482015481526020016005820160009054906101000a90046effffffffffffffffffffffffffffff166effffffffffffffffffffffffffffff166effffffffffffffffffffffffffffff16815260200160058201600f9054906101000a900460ff1660ff1660ff1681526020016005820160109054906101000a900460ff161515151581526020016006820180546128c6906144a0565b80601f01602080910402602001604051908101604052809291908181526020018280546128f2906144a0565b801561293f5780601f106129145761010080835404028352916020019161293f565b820191906000526020600020905b81548152906001019060200180831161292257829003601f168201915b50505050508152602001600782018054612958906144a0565b80601f0160208091040260200160405190810160405280929190818152602001828054612984906144a0565b80156129d15780601f106129a6576101008083540402835291602001916129d1565b820191906000526020600020905b8154815290600101906020018083116129b457829003601f168201915b505050505081526020016008820180546129ea906144a0565b80601f0160208091040260200160405190810160405280929190818152602001828054612a16906144a0565b8015612a635780601f10612a3857610100808354040283529160200191612a63565b820191906000526020600020905b815481529060010190602001808311612a4657829003601f168201915b50505050508152505081526020019060010190612795565b505050509050809250505090565b606033600060019054906101000a900473ffffffffffffffffffffffffffffffffffffffff1673ffffffffffffffffffffffffffffffffffffffff168173ffffffffffffffffffffffffffffffffffffffff1614612b1c576040517f08c379a0000000000000000000000000000000000000000000000000000000008152600401612b1390613e96565b60405180910390fd5b603260028054905010612b64576040517f08c379a0000000000000000000000000000000000000000000000000000000008152600401612b5b9061408e565b60405180910390fd5b6002805480602002602001604051908101604052809291908181526020016000905b82821015612c6b57838290600052602060002090600202016040518060a0016040529081600082015481526020016001820160009054906101000a900473ffffffffffffffffffffffffffffffffffffffff1673ffffffffffffffffffffffffffffffffffffffff1673ffffffffffffffffffffffffffffffffffffffff1681526020016001820160149054906101000a900460ff161515151581526020016001820160159054906101000a900460ff161515151581526020016001820160169054906101000a900460ff1660ff1660ff168152505081526020019060010190612b86565b5050505091505090565b336001600560008373ffffffffffffffffffffffffffffffffffffffff1673ffffffffffffffffffffffffffffffffffffffff16815260200190815260200160002060010160169054906101000a900460ff1660ff1614612d0b576040517f08c379a0000000000000000000000000000000000000000000000000000000008152600401612d02906140ce565b60405180910390fd5b600560003373ffffffffffffffffffffffffffffffffffffffff1673ffffffffffffffffffffffffffffffffffffffff16815260200190815260200160002060010160149054906101000a900460ff1615612ea8576000600860003373ffffffffffffffffffffffffffffffffffffffff1673ffffffffffffffffffffffffffffffffffffffff168152602001908152602001600020805480602002602001604051908101604052809291908181526020018280548015612deb57602002820191906000526020600020905b815481526020019060010190808311612dd7575b5050505050905060005b8151811015612e5a57612e47828281518110612e3a577f4e487b7100000000000000000000000000000000000000000000000000000000600052603260045260246000fd5b602002602001015161060c565b8080612e529061450a565b915050612df5565b50600860003373ffffffffffffffffffffffffffffffffffffffff1673ffffffffffffffffffffffffffffffffffffffff1681526020019081526020016000206000612ea69190613117565b505b600560003373ffffffffffffffffffffffffffffffffffffffff1673ffffffffffffffffffffffffffffffffffffffff1681526020019081526020016000206000808201600090556001820160006101000a81549073ffffffffffffffffffffffffffffffffffffffff02191690556001820160146101000a81549060ff02191690556001820160156101000a81549060ff02191690556001820160166101000a81549060ff021916905550507f5b8514bf599ab0e7b72a3b2d47ae13677daa88ebbf833cea7bad37b6df49ede3604051612f829061406e565b60405180910390a150565b60008183612f9b9190614337565b905092915050565b60008183612fb19190614368565b905092915050565b604051806101600160405280600080191681526020016000801916815260200160008152602001600073ffffffffffffffffffffffffffffffffffffffff1681526020016000815260200160006effffffffffffffffffffffffffffff168152602001600060ff1681526020016000151581526020016060815260200160608152602001606081525090565b828054613051906144a0565b90600052602060002090601f01602090048101928261307357600085556130ba565b82601f1061308c57805160ff19168380011785556130ba565b828001600101855582156130ba579182015b828111156130b957825182559160200191906001019061309e565b5b5090506130c79190613138565b5090565b6040518060a0016040528060008152602001600073ffffffffffffffffffffffffffffffffffffffff168152602001600015158152602001600015158152602001600060ff1681525090565b50805460008255906000526020600020908101906131359190613155565b50565b5b80821115613151576000816000905550600101613139565b5090565b5b8082111561316e576000816000905550600101613156565b5090565b6000613185613180846141ce565b61419d565b90508281526020810184848401111561319d57600080fd5b6131a884828561445e565b509392505050565b6000813590506131bf8161462a565b92915050565b6000813590506131d481614641565b92915050565b6000813590506131e981614658565b92915050565b600082601f83011261320057600080fd5b8135613210848260208601613172565b91505092915050565b6000813590506132288161466f565b92915050565b60006020828403121561324057600080fd5b600061324e848285016131b0565b91505092915050565b60006020828403121561326957600080fd5b6000613277848285016131c5565b91505092915050565b60006020828403121561329257600080fd5b60006132a0848285016131da565b91505092915050565b600080600080600060a086880312156132c157600080fd5b60006132cf888289016131da565b955050602086013567ffffffffffffffff8111156132ec57600080fd5b6132f8888289016131ef565b945050604086013567ffffffffffffffff81111561331557600080fd5b613321888289016131ef565b935050606086013567ffffffffffffffff81111561333e57600080fd5b61334a888289016131ef565b925050608061335b88828901613219565b9150509295509295909350565b60006020828403121561337a57600080fd5b600061338884828501613219565b91505092915050565b600061339d838361356f565b60208301905092915050565b60006133b58383613b25565b905092915050565b60006133c98383613c22565b60a08301905092915050565b6133de81614428565b82525050565b6133ed816143ae565b82525050565b6133fc816143ae565b82525050565b61340b8161439c565b82525050565b61341a8161439c565b82525050565b600061342b8261422e565b6134358185614281565b9350613440836141fe565b8060005b838110156134715781516134588882613391565b97506134638361425a565b925050600181019050613444565b5085935050505092915050565b600061348982614239565b6134938185614292565b9350836020820285016134a58561420e565b8060005b858110156134e157848403895281516134c285826133a9565b94506134cd83614267565b925060208a019950506001810190506134a9565b50829750879550505050505092915050565b60006134fe82614244565b61350881856142a3565b93506135138361421e565b8060005b8381101561354457815161352b88826133bd565b975061353683614274565b925050600181019050613517565b5085935050505092915050565b61355a816143c0565b82525050565b613569816143c0565b82525050565b613578816143cc565b82525050565b613587816143cc565b82525050565b60006135988261424f565b6135a281856142bf565b93506135b281856020860161446d565b6135bb81614619565b840191505092915050565b60006135d18261424f565b6135db81856142d0565b93506135eb81856020860161446d565b6135f481614619565b840191505092915050565b600061360c600c836142d0565b91507f4973206e6f742061646d696e00000000000000000000000000000000000000006000830152602082019050919050565b600061364c6014836142d0565b91507f55736572206973206e6f7420612073656c6c65720000000000000000000000006000830152602082019050919050565b600061368c6017836142d0565b91507f4e6f746520686173206265656e207075726368617365640000000000000000006000830152602082019050919050565b60006136cc601f836142d0565b91507f4973206e6f742061646d696e206e6f7220746865206e6f7465206f776e6572006000830152602082019050919050565b600061370c6022836142d0565b91507f4661696c656420746f2073656e6420636f6d6d697373696f6e20746f2061646d60008301527f696e0000000000000000000000000000000000000000000000000000000000006020830152604082019050919050565b6000613772600b836142d0565b91507f6e6f746520626f756768740000000000000000000000000000000000000000006000830152602082019050919050565b60006137b26019836142d0565b91507f4e6f7465207375636365737366756c6c792063726561746564000000000000006000830152602082019050919050565b60006137f26012836142d0565b91507f4e6f746520646f65736e277420657869737400000000000000000000000000006000830152602082019050919050565b60006138326020836142d0565b91507f557365722073656c6c657220697320617070726f76656420666f722073656c6c6000830152602082019050919050565b60006138726015836142d0565b91507f557365722063616e27742073656c6c206e6f74657300000000000000000000006000830152602082019050919050565b60006138b26012836142d0565b91507f496e73756666696369656e742066756e647300000000000000000000000000006000830152602082019050919050565b60006138f26020836142d0565b91507f4661696c656420746f2073656e64207061796d656e7420746f2073656c6c65726000830152602082019050919050565b60006139326013836142d0565b91507f4e6f746520616c726561647920657869737473000000000000000000000000006000830152602082019050919050565b60006139726019836142d0565b91507f55736572207375636365737366756c6c792064656c65746564000000000000006000830152602082019050919050565b60006139b26022836142d0565b91507f43616e206e6f74206665746368206d6f7265207468616e20353020726573756c60008301527f74730000000000000000000000000000000000000000000000000000000000006020830152604082019050919050565b6000613a186017836142d0565b91507f5573657220616c726561647920726567697374657265640000000000000000006000830152602082019050919050565b6000613a586000836142b4565b9150600082019050919050565b6000613a726012836142d0565b91507f5573657220646f65736e277420657869737400000000000000000000000000006000830152602082019050919050565b6000613ab2601e836142d0565b91507f4e6f7465736d61726b657420697320636c6f7365642062792061646d696e00006000830152602082019050919050565b6000613af26019836142d0565b91507f55736572207375636365737366756c6c792063726561746564000000000000006000830152602082019050919050565b600061016083016000830151613b3e600086018261356f565b506020830151613b51602086018261356f565b506040830151613b646040860182613ca8565b506060830151613b7760608601826133e4565b506080830151613b8a6080860182613ca8565b5060a0830151613b9d60a0860182613c8a565b5060c0830151613bb060c0860182613cdd565b5060e0830151613bc360e0860182613551565b50610100830151848203610100860152613bdd828261358d565b915050610120830151848203610120860152613bf9828261358d565b915050610140830151848203610140860152613c15828261358d565b9150508091505092915050565b60a082016000820151613c386000850182613ca8565b506020820151613c4b6020850182613402565b506040820151613c5e6040850182613551565b506060820151613c716060850182613551565b506080820151613c846080850182613cdd565b50505050565b613c93816143d6565b82525050565b613ca2816143d6565b82525050565b613cb181614411565b82525050565b613cc081614411565b82525050565b613cd7613cd282614411565b614553565b82525050565b613ce68161441b565b82525050565b613cf58161441b565b82525050565b6000613d0682613a4b565b9150819050919050565b6000613d1c8284613cc6565b60208201915081905092915050565b60006020820190508181036000830152613d458184613420565b905092915050565b60006020820190508181036000830152613d67818461347e565b905092915050565b60006020820190508181036000830152613d8981846134f3565b905092915050565b6000608082019050613da66000830187613560565b613db36020830186613560565b613dc06040830185613560565b613dcd6060830184613560565b95945050505050565b600061016082019050613dec600083018e61357e565b613df9602083018d61357e565b613e06604083018c613cb7565b613e13606083018b6133f3565b613e20608083018a613cb7565b613e2d60a0830189613c99565b613e3a60c0830188613cec565b613e4760e0830187613560565b818103610100830152613e5a81866135c6565b9050818103610120830152613e6f81856135c6565b9050818103610140830152613e8481846135c6565b90509c9b505050505050505050505050565b60006020820190508181036000830152613eaf816135ff565b9050919050565b60006020820190508181036000830152613ecf8161363f565b9050919050565b60006020820190508181036000830152613eef8161367f565b9050919050565b60006020820190508181036000830152613f0f816136bf565b9050919050565b60006020820190508181036000830152613f2f816136ff565b9050919050565b60006040820190508181036000830152613f4f81613765565b9050613f5e60208301846133d5565b92915050565b60006060820190508181036000830152613f7d816137a5565b90508181036020830152613f9181856135c6565b90508181036040830152613fa581846135c6565b90509392505050565b60006020820190508181036000830152613fc7816137e5565b9050919050565b60006020820190508181036000830152613fe781613825565b9050919050565b6000602082019050818103600083015261400781613865565b9050919050565b60006020820190508181036000830152614027816138a5565b9050919050565b60006020820190508181036000830152614047816138e5565b9050919050565b6000602082019050818103600083015261406781613925565b9050919050565b6000602082019050818103600083015261408781613965565b9050919050565b600060208201905081810360008301526140a7816139a5565b9050919050565b600060208201905081810360008301526140c781613a0b565b9050919050565b600060208201905081810360008301526140e781613a65565b9050919050565b6000602082019050818103600083015261410781613aa5565b9050919050565b6000606082019050818103600083015261412781613ae5565b90506141366020830185613411565b6141436040830184613560565b9392505050565b600060a08201905061415f6000830188613cb7565b61416c6020830187613411565b6141796040830186613560565b6141866060830185613560565b6141936080830184613cec565b9695505050505050565b6000604051905081810181811067ffffffffffffffff821117156141c4576141c36145ea565b5b8060405250919050565b600067ffffffffffffffff8211156141e9576141e86145ea565b5b601f19601f8301169050602081019050919050565b6000819050602082019050919050565b6000819050602082019050919050565b6000819050602082019050919050565b600081519050919050565b600081519050919050565b600081519050919050565b600081519050919050565b6000602082019050919050565b6000602082019050919050565b6000602082019050919050565b600082825260208201905092915050565b600082825260208201905092915050565b600082825260208201905092915050565b600081905092915050565b600082825260208201905092915050565b600082825260208201905092915050565b60006142ec82614411565b91506142f783614411565b9250827fffffffffffffffffffffffffffffffffffffffffffffffffffffffffffffffff0382111561432c5761432b61455d565b5b828201905092915050565b600061434282614411565b915061434d83614411565b92508261435d5761435c61458c565b5b828204905092915050565b600061437382614411565b915061437e83614411565b9250828210156143915761439061455d565b5b828203905092915050565b60006143a7826143f1565b9050919050565b60006143b9826143f1565b9050919050565b60008115159050919050565b6000819050919050565b60006effffffffffffffffffffffffffffff82169050919050565b600073ffffffffffffffffffffffffffffffffffffffff82169050919050565b6000819050919050565b600060ff82169050919050565b60006144338261443a565b9050919050565b60006144458261444c565b9050919050565b6000614457826143f1565b9050919050565b82818337600083830152505050565b60005b8381101561448b578082015181840152602081019050614470565b8381111561449a576000848401525b50505050565b600060028204905060018216806144b857607f821691505b602082108114156144cc576144cb6145bb565b5b50919050565b60006144dd826143d6565b91506effffffffffffffffffffffffffffff8214156144ff576144fe61455d565b5b600182019050919050565b600061451582614411565b91507fffffffffffffffffffffffffffffffffffffffffffffffffffffffffffffffff8214156145485761454761455d565b5b600182019050919050565b6000819050919050565b7f4e487b7100000000000000000000000000000000000000000000000000000000600052601160045260246000fd5b7f4e487b7100000000000000000000000000000000000000000000000000000000600052601260045260246000fd5b7f4e487b7100000000000000000000000000000000000000000000000000000000600052602260045260246000fd5b7f4e487b7100000000000000000000000000000000000000000000000000000000600052604160045260246000fd5b6000601f19601f8301169050919050565b6146338161439c565b811461463e57600080fd5b50565b61464a816143c0565b811461465557600080fd5b50565b614661816143cc565b811461466c57600080fd5b50565b61467881614411565b811461468357600080fd5b5056fea2646970667358221220e9d8eb2b8182246884b1ca368a886051736c79811a8ce56c3e03fce6fc53a3f464736f6c63430008000033",
  "immutableReferences": {},
  "source": "// SPDX-License-Identifier: MIT\npragma solidity >=0.8.0;\npragma experimental ABIEncoderV2;\nimport \"@openzeppelin/contracts/utils/math/SafeMath.sol\";\n\n/// @title The Lazy Corner Contract\n/// @author Idoia Rojo Lzaro\n/// @notice Explain to an end user what this does\n/// @dev Contract for selling and bying notes market\n\n/**\n@title \n */\ncontract TheLazyCornerContract {\n\n  using SafeMath for uint256;\n\n  bool private theLazyCornerIsClosed = false;\n  address payable private admin;\n\n  constructor(){\n    admin = payable(msg.sender);\n  }\n\n  Note[] public notesArr;\n  User[] public usersArr;\n\n  // List of notes indexed by note hash -> numerical id\n  mapping(bytes32 => uint) private notesHashes;\n\n  // List of notes indexed by ifps hash -> note id hash\n  mapping(bytes32 => bytes32) private IPFSHashes;\n\n  // List of users indexed by address\n  mapping(address => User) private users;\n\n  // List of all note purchase tokens\n  // for each note(noteHash), there is a collection of buyers' accessTokens(add -> accessToken)\n  mapping(bytes32 => mapping(address => bytes32)) private purchaseTokens;\n\n  // List of notes bought by users\n  mapping(address => bytes32[]) private boughtNotes;\n\n  // List of notes owned by users\n  mapping(address => bytes32[]) private ownedNotes;\n\n\n  // STRUCTS\n\n  // User -> buyer and/or seller\n  // Buy -> All users can buy notes\n  // Sell -> Just approved users can sell notes\n  struct User{\n    uint id;\n    address userAddr;\n    bool seller; // Note owner\n    bool isSellerApproved; // Is approved to sell\n    uint8 exits;  \n  }\n\n  struct Note{\n    bytes32 noteHash; // note id hash\n    bytes32 IPFSHash; // note ipfs reference\n    uint id; // id - 1 -> position of note in dynamic array\n    address payable owner; \n    uint256 price; // price in tokens\n    uint120 purchaseCount; // number of notes purchases\n    uint8 exits;\n    bool isApproved; // approved for sale\n    string title;\n    string description;\n    string author;\n  }\n\n  // EVENTS\n  event UserCreated(string message, address userAddress, bool isSeller);\n  event UserRemoved(string message);\n  event UserSellerApproved(string message);\n\n  event NoteAdded(string message, bytes32 indexed noteHash, string title, string author);\n  event NoteRemoved(string message);\n  event NotePriceUpdated(string message, uint256 price);\n  event NoteBought(string message, bytes32 indexed noteHash, address indexed buyer, address seller);\n\n\n  // MODIFIERS\n  modifier isAdmin(address userAddress){\n    require(userAddress == admin, \"Is not admin\");\n    _;\n  }\n  \n  modifier theLazyCornerIsOpen(){\n    require(theLazyCornerIsClosed == false, \"Notesmarket is closed by admin\" );\n    _;\n  }\n\n  modifier userExists(address userAddress){\n    require(users[userAddress].exits == 1, \"User doesn't exist\" );\n    _;\n  }\n\n  modifier isUserOrAdmin(address userAddress){\n     require(users[userAddress].exits == 1 || userAddress == admin, \"User doesn't exist\" );\n    _;\n  }\n\n  modifier isNoteOwnerOrAdmin(address userAddress, bytes32 noteHash){\n    uint noteId = notesHashes[noteHash];\n    require(userAddress == admin || userAddress == notesArr[noteId - 1].owner, \"Is not admin nor the note owner\");\n    _;\n  }\n\n  modifier doesNoteExist(bytes32 noteHash){\n    require(notesHashes[noteHash] != 0, \"Note doesn't exist\");\n    uint noteId = notesHashes[noteHash];\n    require(notesArr[noteId - 1].id != 0, \"Note doesn't exist\");\n    _;\n  }\n\n  modifier notPurchased(bytes32 noteHash){\n    uint noteId = notesHashes[noteHash];\n    require(notesArr[noteId - 1].purchaseCount == 0, \"Note has been purchased\");\n    _;\n  }\n\n  modifier canSellNotes(address userAddress){\n    require(users[userAddress].seller && users[userAddress].isSellerApproved, \"User can't sell notes\");\n    _;\n  }\n\n  modifier sufficientFunds(uint price){\n    require(price <= msg.sender.balance, \"Insufficient funds\");\n    _;\n  }\n\n  modifier returnExcess(uint price) {\n    //refund them after pay for book\n    _;\n    //this is a silent failure if \"there is no leftover to refund to buyer\"\n      if(msg.value > price){ \n        uint amountToRefund = msg.value - price;\n        // payable(msg.sender).transfer(amountToRefund);\n        \n        (bool success, ) = payable(msg.sender).call{value: amountToRefund}(\"\");\n        require(success);\n      }        \n  }\n\n  // FUNCTIONS\n\n  /* NoteMarket */\n\n  function changeTheLazyCornerStatus() isAdmin(msg.sender) external{\n    theLazyCornerIsClosed = !theLazyCornerIsClosed;\n  }\n\n  /* Users */\n  \n  function addUser(bool isSeller) theLazyCornerIsOpen external{\n    require(users[msg.sender].exits == 0, \"User already registered\");\n\n    User memory user;\n    user.id = usersArr.length + 1;\n    user.userAddr = msg.sender;\n    user.seller = isSeller;\n    user.isSellerApproved = false; // Is approved to sell\n    user.exits = 1;\n  \n    users[msg.sender] = user;\n    usersArr.push(user);\n\n    emit UserCreated(\"User successfully created\", msg.sender, isSeller);\n  }\n\n  function removeUser() userExists(msg.sender) external{\n    if(users[(msg.sender)].seller){\n      bytes32[] memory hashes = ownedNotes[msg.sender];\n\n      for (uint i = 0; i < hashes.length; i++) {\n        removeNote(hashes[i]);\n      }\n      delete ownedNotes[msg.sender];\n    }\n    delete users[msg.sender];\n\n    emit UserRemoved(\"User successfully deleted\");\n  }\n\n  function getUser() isUserOrAdmin(msg.sender) view external returns(bool _authStatus, bool _isSeller, bool _isAdmin, bool _isSellerApproved){\n      _authStatus = true;\n      _isSeller = users[msg.sender].seller;\n      _isSellerApproved = users[msg.sender].isSellerApproved;\n      if(msg.sender == admin) _isAdmin = true;\n  }\n\n\n  function approveSeller(address userAddress) theLazyCornerIsOpen isAdmin(msg.sender) userExists(userAddress) external{\n    if(users[userAddress].seller){\n      User storage user = users[userAddress];\n      user.isSellerApproved = true;\n      usersArr[user.id - 1].isSellerApproved = true;\n      emit UserSellerApproved(\"User seller is approved for sell\");\n    }else{\n      revert(\"User is not a seller\");\n    }\n  }\n\n  /** \n    * @dev Admin fetches users using filters, max 50 results\n    * @return _users array of users\n    */\n  function getAllUsers() isAdmin(msg.sender) view external returns (User[] memory _users){\n    //require(_start <= usersArr.length, \"No results for that page\");\n    \n    // uint perPage = 2; //per page\n    // uint maxIterations = perPage;\n    // address[] memory _users;\n\n    // _usersAddress = new address[](1);\n\n    // // if(_start.add(perPage) <  usersArr.length){\n    // //   maxIterations = usersArr.length - _start.add(perPage);\n    // // }\n\n    // // for(uint i=0; i < maxIterations; i++) {\n    // //   uint userId = _start + i;\n    // //   _users[i] = usersArr[userId].userAddr;\n    // // }\n\n    // return _users;\n\n    require(usersArr.length < 50 , \"Can not fetch more than 50 results\");\n\n    _users = usersArr;\n    return _users;\n  }\n\n  /* Notes */\n\n  function addNote(bytes32 _IPFShash, string memory _title, string memory _description, string memory _author, uint256 _price) \n    userExists(msg.sender) canSellNotes(msg.sender) external{\n\n    bytes32 _noteHash = IPFSHashes[_IPFShash];\n    uint _noteId = notesHashes[_noteHash];\n    require(_noteId == 0, \"Note already exists\");\n\n    uint newNoteId = notesArr.length + 1;\n\n    _noteHash = keccak256(abi.encodePacked(newNoteId));\n\n    notesHashes[_noteHash] = newNoteId;\n    IPFSHashes[_IPFShash] = _noteHash;\n    ownedNotes[msg.sender].push(_noteHash);\n\n    Note memory note;\n    \n    note.noteHash = _noteHash;\n    note.IPFSHash = _IPFShash;\n    note.id = newNoteId;\n    note.owner = payable(msg.sender);\n    note.price = _price; // wei\n    note.purchaseCount = 0;\n    note.exits = 1;\n    note.title = _title;\n    note.description = _description;\n    note.author = _author;\n    note.isApproved = true;\n\n    notesArr.push(note);\n\n    emit NoteAdded(\"Note successfully created\", _noteHash, _title, _author);\n  }\n\n  function removeNote(bytes32 noteHash) doesNoteExist(noteHash) notPurchased(noteHash) isNoteOwnerOrAdmin(msg.sender, noteHash) public{\n    delete notesHashes[noteHash];\n    emit NoteRemoved(\"User successfully deleted\");\n  }\n\n  function getAllNotes() userExists(msg.sender) view external returns (Note[] memory){\n    require(notesArr.length < 50 , \"Can not fetch more than 50 results\");\n\n    Note[] memory _notes;\n    _notes = notesArr;\n    return _notes;\n  }\n\n  function buyNote(bytes32 noteHash) theLazyCornerIsOpen userExists(msg.sender) doesNoteExist(noteHash) sufficientFunds(notesArr[notesHashes[noteHash] - 1].price) returnExcess(notesArr[notesHashes[noteHash] - 1].price) payable external {\n    \n    uint noteId = notesHashes[noteHash];\n    Note memory note = notesArr[noteId - 1];\n    \n    address payable seller = note.owner;\n    \n    uint commissionFunds = note.price.div(100);\n    uint paymentToSeller = note.price.sub(commissionFunds);\n    //bytes32 accessToken = generateAccessToken(msg.sender, note.IPFSHash);\n    // store access token\n    //purchaseTokens[noteHash][msg.sender] = accessToken;\n    // keep note purchase\n    boughtNotes[msg.sender].push(noteHash);\n    note.purchaseCount ++;\n    notesArr[noteId - 1].purchaseCount = note.purchaseCount;\n\n    // seller.transfer(paymentToSeller);\n    // admin.transfer(commissionFunds);\n    (bool successSellerPayment, ) = seller.call{value: paymentToSeller}(\"\");\n    require(successSellerPayment, \"Failed to send payment to seller\");\n    (bool successAdminPayment, ) = admin.call{value: commissionFunds}(\"\");\n    require(successAdminPayment, \"Failed to send commission to admin\");\n    \n    emit NoteBought(\"note bought\", noteHash, msg.sender, seller);\n\n  }\n\n  function getMyPurchasedNotes() userExists(msg.sender) view public returns(bytes32[] memory _boughtNotes){\n    _boughtNotes = boughtNotes[msg.sender];\n  }\n\n  function generateAccessToken(address userAddr, bytes32 IPFShash) private pure returns(bytes32) { //isAdmin(msg.sender)\n    bytes32 salt = \"S}7#%*SD30o7D\";\n    bytes32 accessToken = keccak256(abi.encodePacked(userAddr, IPFShash, salt));\n    return accessToken;\n  }\n\n  function getOwnedNotes() canSellNotes(msg.sender) userExists(msg.sender) view external returns(bytes32[] memory _ownedNotes){\n    _ownedNotes = ownedNotes[msg.sender];\n    for(uint i=0; i < _ownedNotes.length; i++){\n      // exclude the leftover hashes in state array map ownedNotes\n      if(notesHashes[_ownedNotes[i]] == 0){\n        delete _ownedNotes[i];\n      }\n    }\n  }\n\n  \n}\n",
  "sourcePath": "/Users/idoia/Documents/blockchain/blockchain-developer-bootcamp-final-project/contracts/TheLazyCornerContract.sol",
  "compiler": {
    "name": "solc",
    "version": "0.8.0+commit.c7dfd78e.Emscripten.clang"
  },
  "schemaVersion": "3.4.3",
  "updatedAt": "2021-11-28T17:02:38.365Z",
  "networkType": "ethereum",
  "devdoc": {
    "kind": "dev",
    "methods": {
      "getAllUsers()": {
        "details": "Admin fetches users using filters, max 50 results",
        "returns": {
          "_users": "array of users"
        }
      }
    },
    "version": 1
  },
  "userdoc": {
    "kind": "user",
    "methods": {},
    "version": 1
  }
}