{
  "contractName": "TheLazyCornerContract",
  "abi": [
    {
      "inputs": [],
      "stateMutability": "nonpayable",
      "type": "constructor"
    },
    {
      "anonymous": false,
      "inputs": [
        {
          "indexed": false,
          "internalType": "string",
          "name": "message",
          "type": "string"
        },
        {
          "indexed": true,
          "internalType": "bytes32",
          "name": "noteHash",
          "type": "bytes32"
        },
        {
          "indexed": false,
          "internalType": "string",
          "name": "title",
          "type": "string"
        },
        {
          "indexed": false,
          "internalType": "string",
          "name": "author",
          "type": "string"
        }
      ],
      "name": "NoteAdded",
      "type": "event"
    },
    {
      "anonymous": false,
      "inputs": [
        {
          "indexed": false,
          "internalType": "string",
          "name": "message",
          "type": "string"
        },
        {
          "indexed": true,
          "internalType": "bytes32",
          "name": "noteHash",
          "type": "bytes32"
        },
        {
          "indexed": true,
          "internalType": "address",
          "name": "buyer",
          "type": "address"
        },
        {
          "indexed": false,
          "internalType": "address",
          "name": "seller",
          "type": "address"
        }
      ],
      "name": "NoteBought",
      "type": "event"
    },
    {
      "anonymous": false,
      "inputs": [
        {
          "indexed": false,
          "internalType": "string",
          "name": "message",
          "type": "string"
        },
        {
          "indexed": false,
          "internalType": "uint256",
          "name": "price",
          "type": "uint256"
        }
      ],
      "name": "NotePriceUpdated",
      "type": "event"
    },
    {
      "anonymous": false,
      "inputs": [
        {
          "indexed": false,
          "internalType": "string",
          "name": "message",
          "type": "string"
        }
      ],
      "name": "NoteRemoved",
      "type": "event"
    },
    {
      "anonymous": false,
      "inputs": [
        {
          "indexed": false,
          "internalType": "string",
          "name": "message",
          "type": "string"
        },
        {
          "indexed": false,
          "internalType": "address",
          "name": "userAddress",
          "type": "address"
        },
        {
          "indexed": false,
          "internalType": "bool",
          "name": "isSeller",
          "type": "bool"
        }
      ],
      "name": "UserCreated",
      "type": "event"
    },
    {
      "anonymous": false,
      "inputs": [
        {
          "indexed": false,
          "internalType": "string",
          "name": "message",
          "type": "string"
        }
      ],
      "name": "UserRemoved",
      "type": "event"
    },
    {
      "anonymous": false,
      "inputs": [
        {
          "indexed": false,
          "internalType": "string",
          "name": "message",
          "type": "string"
        }
      ],
      "name": "UserSellerApproved",
      "type": "event"
    },
    {
      "inputs": [
        {
          "internalType": "uint256",
          "name": "",
          "type": "uint256"
        }
      ],
      "name": "notesArr",
      "outputs": [
        {
          "internalType": "bytes32",
          "name": "noteHash",
          "type": "bytes32"
        },
        {
          "internalType": "bytes32",
          "name": "IPFSHash",
          "type": "bytes32"
        },
        {
          "internalType": "uint256",
          "name": "id",
          "type": "uint256"
        },
        {
          "internalType": "address payable",
          "name": "owner",
          "type": "address"
        },
        {
          "internalType": "uint256",
          "name": "price",
          "type": "uint256"
        },
        {
          "internalType": "uint120",
          "name": "purchaseCount",
          "type": "uint120"
        },
        {
          "internalType": "uint8",
          "name": "exits",
          "type": "uint8"
        },
        {
          "internalType": "bool",
          "name": "isApproved",
          "type": "bool"
        },
        {
          "internalType": "string",
          "name": "title",
          "type": "string"
        },
        {
          "internalType": "string",
          "name": "description",
          "type": "string"
        },
        {
          "internalType": "string",
          "name": "author",
          "type": "string"
        }
      ],
      "stateMutability": "view",
      "type": "function",
      "constant": true
    },
    {
      "inputs": [
        {
          "internalType": "uint256",
          "name": "",
          "type": "uint256"
        }
      ],
      "name": "usersArr",
      "outputs": [
        {
          "internalType": "uint256",
          "name": "id",
          "type": "uint256"
        },
        {
          "internalType": "address",
          "name": "userAddr",
          "type": "address"
        },
        {
          "internalType": "bool",
          "name": "seller",
          "type": "bool"
        },
        {
          "internalType": "bool",
          "name": "isSellerApproved",
          "type": "bool"
        },
        {
          "internalType": "uint8",
          "name": "exits",
          "type": "uint8"
        }
      ],
      "stateMutability": "view",
      "type": "function",
      "constant": true
    },
    {
      "inputs": [],
      "name": "changeTheLazyCornerStatus",
      "outputs": [],
      "stateMutability": "nonpayable",
      "type": "function"
    },
    {
      "inputs": [
        {
          "internalType": "bool",
          "name": "isSeller",
          "type": "bool"
        }
      ],
      "name": "addUser",
      "outputs": [],
      "stateMutability": "nonpayable",
      "type": "function"
    },
    {
      "inputs": [],
      "name": "removeUser",
      "outputs": [],
      "stateMutability": "nonpayable",
      "type": "function"
    },
    {
      "inputs": [],
      "name": "getUser",
      "outputs": [
        {
          "internalType": "bool",
          "name": "_authStatus",
          "type": "bool"
        },
        {
          "internalType": "bool",
          "name": "_isSeller",
          "type": "bool"
        },
        {
          "internalType": "bool",
          "name": "_isAdmin",
          "type": "bool"
        },
        {
          "internalType": "bool",
          "name": "_isSellerApproved",
          "type": "bool"
        }
      ],
      "stateMutability": "view",
      "type": "function",
      "constant": true
    },
    {
      "inputs": [
        {
          "internalType": "address",
          "name": "userAddress",
          "type": "address"
        }
      ],
      "name": "approveSeller",
      "outputs": [],
      "stateMutability": "nonpayable",
      "type": "function"
    },
    {
      "inputs": [],
      "name": "getAllUsers",
      "outputs": [
        {
          "components": [
            {
              "internalType": "uint256",
              "name": "id",
              "type": "uint256"
            },
            {
              "internalType": "address",
              "name": "userAddr",
              "type": "address"
            },
            {
              "internalType": "bool",
              "name": "seller",
              "type": "bool"
            },
            {
              "internalType": "bool",
              "name": "isSellerApproved",
              "type": "bool"
            },
            {
              "internalType": "uint8",
              "name": "exits",
              "type": "uint8"
            }
          ],
          "internalType": "struct TheLazyCornerContract.User[]",
          "name": "_users",
          "type": "tuple[]"
        }
      ],
      "stateMutability": "view",
      "type": "function",
      "constant": true
    },
    {
      "inputs": [
        {
          "internalType": "bytes32",
          "name": "_IPFShash",
          "type": "bytes32"
        },
        {
          "internalType": "string",
          "name": "_title",
          "type": "string"
        },
        {
          "internalType": "string",
          "name": "_description",
          "type": "string"
        },
        {
          "internalType": "string",
          "name": "_author",
          "type": "string"
        },
        {
          "internalType": "uint256",
          "name": "_price",
          "type": "uint256"
        }
      ],
      "name": "addNote",
      "outputs": [],
      "stateMutability": "nonpayable",
      "type": "function"
    },
    {
      "inputs": [
        {
          "internalType": "bytes32",
          "name": "noteHash",
          "type": "bytes32"
        }
      ],
      "name": "removeNote",
      "outputs": [],
      "stateMutability": "nonpayable",
      "type": "function"
    },
    {
      "inputs": [
        {
          "internalType": "bytes32",
          "name": "noteHash",
          "type": "bytes32"
        }
      ],
      "name": "buyNote",
      "outputs": [],
      "stateMutability": "payable",
      "type": "function",
      "payable": true
    },
    {
      "inputs": [],
      "name": "getAllNotes",
      "outputs": [
        {
          "components": [
            {
              "internalType": "bytes32",
              "name": "noteHash",
              "type": "bytes32"
            },
            {
              "internalType": "bytes32",
              "name": "IPFSHash",
              "type": "bytes32"
            },
            {
              "internalType": "uint256",
              "name": "id",
              "type": "uint256"
            },
            {
              "internalType": "address payable",
              "name": "owner",
              "type": "address"
            },
            {
              "internalType": "uint256",
              "name": "price",
              "type": "uint256"
            },
            {
              "internalType": "uint120",
              "name": "purchaseCount",
              "type": "uint120"
            },
            {
              "internalType": "uint8",
              "name": "exits",
              "type": "uint8"
            },
            {
              "internalType": "bool",
              "name": "isApproved",
              "type": "bool"
            },
            {
              "internalType": "string",
              "name": "title",
              "type": "string"
            },
            {
              "internalType": "string",
              "name": "description",
              "type": "string"
            },
            {
              "internalType": "string",
              "name": "author",
              "type": "string"
            }
          ],
          "internalType": "struct TheLazyCornerContract.Note[]",
          "name": "",
          "type": "tuple[]"
        }
      ],
      "stateMutability": "view",
      "type": "function",
      "constant": true
    },
    {
      "inputs": [],
      "name": "getMyPurchasedNotes",
      "outputs": [
        {
          "internalType": "bytes32[]",
          "name": "_boughtNotes",
          "type": "bytes32[]"
        }
      ],
      "stateMutability": "view",
      "type": "function",
      "constant": true
    },
    {
      "inputs": [],
      "name": "getMyUploadedNotes",
      "outputs": [
        {
          "internalType": "bytes32[]",
          "name": "_ownedNotes",
          "type": "bytes32[]"
        }
      ],
      "stateMutability": "view",
      "type": "function",
      "constant": true
    }
  ],
  "bytecode": "0x608060405260008060006101000a81548160ff0219169083151502179055506000600360006101000a81548160ff02191690831515021790555034801561004557600080fd5b5033600060016101000a81548173ffffffffffffffffffffffffffffffffffffffff021916908373ffffffffffffffffffffffffffffffffffffffff160217905550614964806100966000396000f3fe6080604052600436106100dd5760003560e01c8063832880e71161007f578063d32fe58311610059578063d32fe5831461029a578063de8f430c146102c5578063e2842d79146102f0578063f944f4c71461031b576100dd565b8063832880e71461021a578063c169d7e914610248578063c35b28b214610271576100dd565b80635b7eedf8116100bb5780635b7eedf81461017d5780635ec5d856146101be578063617bc704146101e7578063678fc459146101fe576100dd565b8063358a7b20146100e25780634367fc031461010b5780634b3556de14610152575b600080fd5b3480156100ee57600080fd5b5061010960048036038101906101049190613422565b610332565b005b34801561011757600080fd5b50610132600480360381019061012d919061350a565b6106c6565b6040516101499b9a99989796959493929190614023565b60405180910390f35b34801561015e57600080fd5b5061016761091d565b6040516101749190613f78565b60405180910390f35b34801561018957600080fd5b506101a4600480360381019061019f919061350a565b610bf7565b6040516101b59594939291906143b7565b60405180910390f35b3480156101ca57600080fd5b506101e560048036038101906101e091906133d0565b610c84565b005b3480156101f357600080fd5b506101fc610fa3565b005b61021860048036038101906102139190613422565b61105e565b005b34801561022657600080fd5b5061022f611b71565b60405161023f9493929190613fde565b60405180910390f35b34801561025457600080fd5b5061026f600480360381019061026a919061344b565b611d6f565b005b34801561027d57600080fd5b50610298600480360381019061029391906133f9565b61231d565b005b3480156102a657600080fd5b506102af6126a7565b6040516102bc9190613f78565b60405180910390f35b3480156102d157600080fd5b506102da6127d3565b6040516102e79190613f9a565b60405180910390f35b3480156102fc57600080fd5b50610305612bcb565b6040516103129190613fbc565b60405180910390f35b34801561032757600080fd5b50610330612db7565b005b8060006004600083815260200190815260200160002054141561038a576040517f08c379a00000000000000000000000000000000000000000000000000000000081526004016103819061421b565b60405180910390fd5b6000600460008381526020019081526020016000205490506000600180836103b291906145d5565b815481106103e9577f4e487b7100000000000000000000000000000000000000000000000000000000600052603260045260246000fd5b906000526020600020906009020160020154141561043c576040517f08c379a00000000000000000000000000000000000000000000000000000000081526004016104339061421b565b60405180910390fd5b8260006004600083815260200190815260200160002054905060006001808361046591906145d5565b8154811061049c577f4e487b7100000000000000000000000000000000000000000000000000000000600052603260045260246000fd5b906000526020600020906009020160050160009054906101000a90046effffffffffffffffffffffffffffff166effffffffffffffffffffffffffffff161461051a576040517f08c379a000000000000000000000000000000000000000000000000000000000815260040161051190614143565b60405180910390fd5b3385600060046000838152602001908152602001600020549050600060019054906101000a900473ffffffffffffffffffffffffffffffffffffffff1673ffffffffffffffffffffffffffffffffffffffff168373ffffffffffffffffffffffffffffffffffffffff16148061063157506001808261059991906145d5565b815481106105d0577f4e487b7100000000000000000000000000000000000000000000000000000000600052603260045260246000fd5b906000526020600020906009020160030160009054906101000a900473ffffffffffffffffffffffffffffffffffffffff1673ffffffffffffffffffffffffffffffffffffffff168373ffffffffffffffffffffffffffffffffffffffff16145b610670576040517f08c379a000000000000000000000000000000000000000000000000000000000815260040161066790614163565b60405180910390fd5b60046000898152602001908152602001600020600090557fe41203db0fa61b8b33140f8fc1ca977ef1ae43ae15065035c505670c0b4e0ed56040516106b4906142db565b60405180910390a15050505050505050565b600181815481106106d657600080fd5b90600052602060002090600902016000915090508060000154908060010154908060020154908060030160009054906101000a900473ffffffffffffffffffffffffffffffffffffffff16908060040154908060050160009054906101000a90046effffffffffffffffffffffffffffff169080600501600f9054906101000a900460ff16908060050160109054906101000a900460ff169080600601805461077e9061470d565b80601f01602080910402602001604051908101604052809291908181526020018280546107aa9061470d565b80156107f75780601f106107cc576101008083540402835291602001916107f7565b820191906000526020600020905b8154815290600101906020018083116107da57829003601f168201915b50505050509080600701805461080c9061470d565b80601f01602080910402602001604051908101604052809291908181526020018280546108389061470d565b80156108855780601f1061085a57610100808354040283529160200191610885565b820191906000526020600020905b81548152906001019060200180831161086857829003601f168201915b50505050509080600801805461089a9061470d565b80601f01602080910402602001604051908101604052809291908181526020018280546108c69061470d565b80156109135780601f106108e857610100808354040283529160200191610913565b820191906000526020600020905b8154815290600101906020018083116108f657829003601f168201915b505050505090508b565b606033600660008273ffffffffffffffffffffffffffffffffffffffff1673ffffffffffffffffffffffffffffffffffffffff16815260200190815260200160002060010160149054906101000a900460ff1680156109c85750600660008273ffffffffffffffffffffffffffffffffffffffff1673ffffffffffffffffffffffffffffffffffffffff16815260200190815260200160002060010160159054906101000a900460ff165b610a07576040517f08c379a00000000000000000000000000000000000000000000000000000000081526004016109fe9061425b565b60405180910390fd5b336001600660008373ffffffffffffffffffffffffffffffffffffffff1673ffffffffffffffffffffffffffffffffffffffff16815260200190815260200160002060010160169054906101000a900460ff1660ff1614610a9d576040517f08c379a0000000000000000000000000000000000000000000000000000000008152600401610a949061433b565b60405180910390fd5b600960003373ffffffffffffffffffffffffffffffffffffffff1673ffffffffffffffffffffffffffffffffffffffff168152602001908152602001600020805480602002602001604051908101604052809291908181526020018280548015610b2657602002820191906000526020600020905b815481526020019060010190808311610b12575b5050505050925060005b8351811015610bf157600060046000868481518110610b78577f4e487b7100000000000000000000000000000000000000000000000000000000600052603260045260246000fd5b60200260200101518152602001908152602001600020541415610bde57838181518110610bce577f4e487b7100000000000000000000000000000000000000000000000000000000600052603260045260246000fd5b6020026020010160008019168152505b8080610be990614777565b915050610b30565b50505090565b60028181548110610c0757600080fd5b90600052602060002090600202016000915090508060000154908060010160009054906101000a900473ffffffffffffffffffffffffffffffffffffffff16908060010160149054906101000a900460ff16908060010160159054906101000a900460ff16908060010160169054906101000a900460ff16905085565b6000151560008054906101000a900460ff16151514610cd8576040517f08c379a0000000000000000000000000000000000000000000000000000000008152600401610ccf9061435b565b60405180910390fd5b33600060019054906101000a900473ffffffffffffffffffffffffffffffffffffffff1673ffffffffffffffffffffffffffffffffffffffff168173ffffffffffffffffffffffffffffffffffffffff1614610d69576040517f08c379a0000000000000000000000000000000000000000000000000000000008152600401610d60906140e3565b60405180910390fd5b816001600660008373ffffffffffffffffffffffffffffffffffffffff1673ffffffffffffffffffffffffffffffffffffffff16815260200190815260200160002060010160169054906101000a900460ff1660ff1614610dff576040517f08c379a0000000000000000000000000000000000000000000000000000000008152600401610df69061433b565b60405180910390fd5b600660008473ffffffffffffffffffffffffffffffffffffffff1673ffffffffffffffffffffffffffffffffffffffff16815260200190815260200160002060010160149054906101000a900460ff1615610f63576000600660008573ffffffffffffffffffffffffffffffffffffffff1673ffffffffffffffffffffffffffffffffffffffff168152602001908152602001600020905060018160010160156101000a81548160ff0219169083151502179055506001600260018360000154610ec991906145d5565b81548110610f00577f4e487b7100000000000000000000000000000000000000000000000000000000600052603260045260246000fd5b906000526020600020906002020160010160156101000a81548160ff0219169083151502179055507fae937c810850c4277a17aeb7e8b138034e898dbb0a85b262eb9ea276fedc9405604051610f559061423b565b60405180910390a150610f9e565b6040517f08c379a0000000000000000000000000000000000000000000000000000000008152600401610f9590614123565b60405180910390fd5b505050565b33600060019054906101000a900473ffffffffffffffffffffffffffffffffffffffff1673ffffffffffffffffffffffffffffffffffffffff168173ffffffffffffffffffffffffffffffffffffffff1614611034576040517f08c379a000000000000000000000000000000000000000000000000000000000815260040161102b906140e3565b60405180910390fd5b60008054906101000a900460ff16156000806101000a81548160ff02191690831515021790555050565b6000151560008054906101000a900460ff161515146110b2576040517f08c379a00000000000000000000000000000000000000000000000000000000081526004016110a99061435b565b60405180910390fd5b336001600660008373ffffffffffffffffffffffffffffffffffffffff1673ffffffffffffffffffffffffffffffffffffffff16815260200190815260200160002060010160169054906101000a900460ff1660ff1614611148576040517f08c379a000000000000000000000000000000000000000000000000000000000815260040161113f9061433b565b60405180910390fd5b816000600460008381526020019081526020016000205414156111a0576040517f08c379a00000000000000000000000000000000000000000000000000000000081526004016111979061421b565b60405180910390fd5b6000600460008381526020019081526020016000205490506000600180836111c891906145d5565b815481106111ff577f4e487b7100000000000000000000000000000000000000000000000000000000600052603260045260246000fd5b9060005260206000209060090201600201541415611252576040517f08c379a00000000000000000000000000000000000000000000000000000000081526004016112499061421b565b60405180910390fd5b600180600460008781526020019081526020016000205461127391906145d5565b815481106112aa577f4e487b7100000000000000000000000000000000000000000000000000000000600052603260045260246000fd5b9060005260206000209060090201600401543373ffffffffffffffffffffffffffffffffffffffff1631811115611316576040517f08c379a000000000000000000000000000000000000000000000000000000000815260040161130d9061427b565b60405180910390fd5b600180600460008881526020019081526020016000205461133791906145d5565b8154811061136e577f4e487b7100000000000000000000000000000000000000000000000000000000600052603260045260246000fd5b9060005260206000209060090201600401546000600460008881526020019081526020016000205490506000600180836113a891906145d5565b815481106113df577f4e487b7100000000000000000000000000000000000000000000000000000000600052603260045260246000fd5b9060005260206000209060090201604051806101600160405290816000820154815260200160018201548152602001600282015481526020016003820160009054906101000a900473ffffffffffffffffffffffffffffffffffffffff1673ffffffffffffffffffffffffffffffffffffffff1673ffffffffffffffffffffffffffffffffffffffff168152602001600482015481526020016005820160009054906101000a90046effffffffffffffffffffffffffffff166effffffffffffffffffffffffffffff166effffffffffffffffffffffffffffff16815260200160058201600f9054906101000a900460ff1660ff1660ff1681526020016005820160109054906101000a900460ff161515151581526020016006820180546115069061470d565b80601f01602080910402602001604051908101604052809291908181526020018280546115329061470d565b801561157f5780601f106115545761010080835404028352916020019161157f565b820191906000526020600020905b81548152906001019060200180831161156257829003601f168201915b505050505081526020016007820180546115989061470d565b80601f01602080910402602001604051908101604052809291908181526020018280546115c49061470d565b80156116115780601f106115e657610100808354040283529160200191611611565b820191906000526020600020905b8154815290600101906020018083116115f457829003601f168201915b5050505050815260200160088201805461162a9061470d565b80601f01602080910402602001604051908101604052809291908181526020018280546116569061470d565b80156116a35780601f10611678576101008083540402835291602001916116a3565b820191906000526020600020905b81548152906001019060200180831161168657829003601f168201915b505050505081525050905060008160600151905060006116d1606484608001516130cf90919063ffffffff16565b905060006116ec8285608001516130e590919063ffffffff16565b905060006116fe3386602001516130fb565b905080600760008e815260200190815260200160002060003373ffffffffffffffffffffffffffffffffffffffff1673ffffffffffffffffffffffffffffffffffffffff16815260200190815260200160002081905550600860003373ffffffffffffffffffffffffffffffffffffffff1673ffffffffffffffffffffffffffffffffffffffff1681526020019081526020016000208c90806001815401808255809150506001900390600052602060002001600090919091909150558460a00180518091906117cd9061473f565b6effffffffffffffffffffffffffffff166effffffffffffffffffffffffffffff16815250508460a001516001808861180691906145d5565b8154811061183d577f4e487b7100000000000000000000000000000000000000000000000000000000600052603260045260246000fd5b906000526020600020906009020160050160006101000a8154816effffffffffffffffffffffffffffff02191690836effffffffffffffffffffffffffffff16021790555060008473ffffffffffffffffffffffffffffffffffffffff16836040516118a890613f48565b60006040518083038185875af1925050503d80600081146118e5576040519150601f19603f3d011682016040523d82523d6000602084013e6118ea565b606091505b505090508061192e576040517f08c379a00000000000000000000000000000000000000000000000000000000081526004016119259061429b565b60405180910390fd5b60008060019054906101000a900473ffffffffffffffffffffffffffffffffffffffff1673ffffffffffffffffffffffffffffffffffffffff168560405161197590613f48565b60006040518083038185875af1925050503d80600081146119b2576040519150601f19603f3d011682016040523d82523d6000602084013e6119b7565b606091505b50509050806119fb576040517f08c379a00000000000000000000000000000000000000000000000000000000081526004016119f290614183565b60405180910390fd5b3373ffffffffffffffffffffffffffffffffffffffff168e7fd1b3ceff01e1556a2936b8fef7e2e78b49634ac547f868ab32e3bdcb3c2b97af88604051611a4291906141a3565b60405180910390a3505050505050505080341115611b6957600360009054906101000a900460ff1615611aaa576040517f08c379a0000000000000000000000000000000000000000000000000000000008152600401611aa190614103565b60405180910390fd5b6001600360006101000a81548160ff02191690831515021790555060008134611ad391906145d5565b905060003373ffffffffffffffffffffffffffffffffffffffff1682604051611afb90613f48565b60006040518083038185875af1925050503d8060008114611b38576040519150601f19603f3d011682016040523d82523d6000602084013e611b3d565b606091505b5050905080611b4b57600080fd5b6000600360006101000a81548160ff02191690831515021790555050505b505050505050565b600080600080336001600660008373ffffffffffffffffffffffffffffffffffffffff1673ffffffffffffffffffffffffffffffffffffffff16815260200190815260200160002060010160169054906101000a900460ff1660ff161480611c265750600060019054906101000a900473ffffffffffffffffffffffffffffffffffffffff1673ffffffffffffffffffffffffffffffffffffffff168173ffffffffffffffffffffffffffffffffffffffff16145b611c65576040517f08c379a0000000000000000000000000000000000000000000000000000000008152600401611c5c9061433b565b60405180910390fd5b60019450600660003373ffffffffffffffffffffffffffffffffffffffff1673ffffffffffffffffffffffffffffffffffffffff16815260200190815260200160002060010160149054906101000a900460ff169350600660003373ffffffffffffffffffffffffffffffffffffffff1673ffffffffffffffffffffffffffffffffffffffff16815260200190815260200160002060010160159054906101000a900460ff169150600060019054906101000a900473ffffffffffffffffffffffffffffffffffffffff1673ffffffffffffffffffffffffffffffffffffffff163373ffffffffffffffffffffffffffffffffffffffff161415611d6857600192505b5090919293565b6000151560008054906101000a900460ff16151514611dc3576040517f08c379a0000000000000000000000000000000000000000000000000000000008152600401611dba9061435b565b60405180910390fd5b336001600660008373ffffffffffffffffffffffffffffffffffffffff1673ffffffffffffffffffffffffffffffffffffffff16815260200190815260200160002060010160169054906101000a900460ff1660ff1614611e59576040517f08c379a0000000000000000000000000000000000000000000000000000000008152600401611e509061433b565b60405180910390fd5b33600660008273ffffffffffffffffffffffffffffffffffffffff1673ffffffffffffffffffffffffffffffffffffffff16815260200190815260200160002060010160149054906101000a900460ff168015611f025750600660008273ffffffffffffffffffffffffffffffffffffffff1673ffffffffffffffffffffffffffffffffffffffff16815260200190815260200160002060010160159054906101000a900460ff165b611f41576040517f08c379a0000000000000000000000000000000000000000000000000000000008152600401611f389061425b565b60405180910390fd5b60006005600089815260200190815260200160002054905060006004600083815260200190815260200160002054905060008114611fb4576040517f08c379a0000000000000000000000000000000000000000000000000000000008152600401611fab906142bb565b60405180910390fd5b600060018080549050611fc7919061454e565b905080604051602001611fda9190613f5d565b60405160208183030381529060405280519060200120925080600460008581526020019081526020016000208190555082600560008c815260200190815260200160002081905550600960003373ffffffffffffffffffffffffffffffffffffffff1673ffffffffffffffffffffffffffffffffffffffff16815260200190815260200160002083908060018154018082558091505060019003906000526020600020016000909190919091505561209061315b565b838160000181815250508a8160200181815250508181604001818152505033816060019073ffffffffffffffffffffffffffffffffffffffff16908173ffffffffffffffffffffffffffffffffffffffff16815250508681608001818152505060008160a001906effffffffffffffffffffffffffffff1690816effffffffffffffffffffffffffffff168152505060018160c0019060ff16908160ff168152505089816101000181905250888161012001819052508781610140018190525060018160e0019015159081151581525050600181908060018154018082558091505060019003906000526020600020906009020160009091909190915060008201518160000155602082015181600101556040820151816002015560608201518160030160006101000a81548173ffffffffffffffffffffffffffffffffffffffff021916908373ffffffffffffffffffffffffffffffffffffffff1602179055506080820151816004015560a08201518160050160006101000a8154816effffffffffffffffffffffffffffff02191690836effffffffffffffffffffffffffffff16021790555060c082015181600501600f6101000a81548160ff021916908360ff16021790555060e08201518160050160106101000a81548160ff0219169083151502179055506101008201518160060190805190602001906122979291906131e7565b506101208201518160070190805190602001906122b59291906131e7565b506101408201518160080190805190602001906122d39291906131e7565b505050837f61f7b06099d9d6c81bb3b480f2051f0190d343d909af3bdc90ff6b86cd83de588b8a6040516123089291906141d1565b60405180910390a25050505050505050505050565b6000151560008054906101000a900460ff16151514612371576040517f08c379a00000000000000000000000000000000000000000000000000000000081526004016123689061435b565b60405180910390fd5b6000600660003373ffffffffffffffffffffffffffffffffffffffff1673ffffffffffffffffffffffffffffffffffffffff16815260200190815260200160002060010160169054906101000a900460ff1660ff1614612406576040517f08c379a00000000000000000000000000000000000000000000000000000000081526004016123fd9061431b565b60405180910390fd5b61240e61326d565b6001600280549050612420919061454e565b81600001818152505033816020019073ffffffffffffffffffffffffffffffffffffffff16908173ffffffffffffffffffffffffffffffffffffffff16815250508181604001901515908115158152505060008160600190151590811515815250506001816080019060ff16908160ff168152505080600660003373ffffffffffffffffffffffffffffffffffffffff1673ffffffffffffffffffffffffffffffffffffffff1681526020019081526020016000206000820151816000015560208201518160010160006101000a81548173ffffffffffffffffffffffffffffffffffffffff021916908373ffffffffffffffffffffffffffffffffffffffff16021790555060408201518160010160146101000a81548160ff02191690831515021790555060608201518160010160156101000a81548160ff02191690831515021790555060808201518160010160166101000a81548160ff021916908360ff16021790555090505060028190806001815401808255809150506001900390600052602060002090600202016000909190919091506000820151816000015560208201518160010160006101000a81548173ffffffffffffffffffffffffffffffffffffffff021916908373ffffffffffffffffffffffffffffffffffffffff16021790555060408201518160010160146101000a81548160ff02191690831515021790555060608201518160010160156101000a81548160ff02191690831515021790555060808201518160010160166101000a81548160ff021916908360ff16021790555050507f6ed7fd9c095d25702b515b4fc3c80ddda04a36adc0a6619c93fe1a306784f51e338360405161269b92919061437b565b60405180910390a15050565b6060336001600660008373ffffffffffffffffffffffffffffffffffffffff1673ffffffffffffffffffffffffffffffffffffffff16815260200190815260200160002060010160169054906101000a900460ff1660ff161461273f576040517f08c379a00000000000000000000000000000000000000000000000000000000081526004016127369061433b565b60405180910390fd5b600860003373ffffffffffffffffffffffffffffffffffffffff1673ffffffffffffffffffffffffffffffffffffffff1681526020019081526020016000208054806020026020016040519081016040528092919081815260200182805480156127c857602002820191906000526020600020905b8154815260200190600101908083116127b4575b505050505091505090565b6060336001600660008373ffffffffffffffffffffffffffffffffffffffff1673ffffffffffffffffffffffffffffffffffffffff16815260200190815260200160002060010160169054906101000a900460ff1660ff161461286b576040517f08c379a00000000000000000000000000000000000000000000000000000000081526004016128629061433b565b60405180910390fd5b6032600180549050106128b3576040517f08c379a00000000000000000000000000000000000000000000000000000000081526004016128aa906142fb565b60405180910390fd5b60606001805480602002602001604051908101604052809291908181526020016000905b82821015612bbd5783829060005260206000209060090201604051806101600160405290816000820154815260200160018201548152602001600282015481526020016003820160009054906101000a900473ffffffffffffffffffffffffffffffffffffffff1673ffffffffffffffffffffffffffffffffffffffff1673ffffffffffffffffffffffffffffffffffffffff168152602001600482015481526020016005820160009054906101000a90046effffffffffffffffffffffffffffff166effffffffffffffffffffffffffffff166effffffffffffffffffffffffffffff16815260200160058201600f9054906101000a900460ff1660ff1660ff1681526020016005820160109054906101000a900460ff16151515158152602001600682018054612a089061470d565b80601f0160208091040260200160405190810160405280929190818152602001828054612a349061470d565b8015612a815780601f10612a5657610100808354040283529160200191612a81565b820191906000526020600020905b815481529060010190602001808311612a6457829003601f168201915b50505050508152602001600782018054612a9a9061470d565b80601f0160208091040260200160405190810160405280929190818152602001828054612ac69061470d565b8015612b135780601f10612ae857610100808354040283529160200191612b13565b820191906000526020600020905b815481529060010190602001808311612af657829003601f168201915b50505050508152602001600882018054612b2c9061470d565b80601f0160208091040260200160405190810160405280929190818152602001828054612b589061470d565b8015612ba55780601f10612b7a57610100808354040283529160200191612ba5565b820191906000526020600020905b815481529060010190602001808311612b8857829003601f168201915b505050505081525050815260200190600101906128d7565b505050509050809250505090565b606033600060019054906101000a900473ffffffffffffffffffffffffffffffffffffffff1673ffffffffffffffffffffffffffffffffffffffff168173ffffffffffffffffffffffffffffffffffffffff1614612c5e576040517f08c379a0000000000000000000000000000000000000000000000000000000008152600401612c55906140e3565b60405180910390fd5b603260028054905010612ca6576040517f08c379a0000000000000000000000000000000000000000000000000000000008152600401612c9d906142fb565b60405180910390fd5b6002805480602002602001604051908101604052809291908181526020016000905b82821015612dad57838290600052602060002090600202016040518060a0016040529081600082015481526020016001820160009054906101000a900473ffffffffffffffffffffffffffffffffffffffff1673ffffffffffffffffffffffffffffffffffffffff1673ffffffffffffffffffffffffffffffffffffffff1681526020016001820160149054906101000a900460ff161515151581526020016001820160159054906101000a900460ff161515151581526020016001820160169054906101000a900460ff1660ff1660ff168152505081526020019060010190612cc8565b5050505091505090565b336001600660008373ffffffffffffffffffffffffffffffffffffffff1673ffffffffffffffffffffffffffffffffffffffff16815260200190815260200160002060010160169054906101000a900460ff1660ff1614612e4d576040517f08c379a0000000000000000000000000000000000000000000000000000000008152600401612e449061433b565b60405180910390fd5b600660003373ffffffffffffffffffffffffffffffffffffffff1673ffffffffffffffffffffffffffffffffffffffff16815260200190815260200160002060010160149054906101000a900460ff1615612fea576000600960003373ffffffffffffffffffffffffffffffffffffffff1673ffffffffffffffffffffffffffffffffffffffff168152602001908152602001600020805480602002602001604051908101604052809291908181526020018280548015612f2d57602002820191906000526020600020905b815481526020019060010190808311612f19575b5050505050905060005b8151811015612f9c57612f89828281518110612f7c577f4e487b7100000000000000000000000000000000000000000000000000000000600052603260045260246000fd5b6020026020010151610332565b8080612f9490614777565b915050612f37565b50600960003373ffffffffffffffffffffffffffffffffffffffff1673ffffffffffffffffffffffffffffffffffffffff1681526020019081526020016000206000612fe891906132b9565b505b600660003373ffffffffffffffffffffffffffffffffffffffff1673ffffffffffffffffffffffffffffffffffffffff1681526020019081526020016000206000808201600090556001820160006101000a81549073ffffffffffffffffffffffffffffffffffffffff02191690556001820160146101000a81549060ff02191690556001820160156101000a81549060ff02191690556001820160166101000a81549060ff021916905550507f5b8514bf599ab0e7b72a3b2d47ae13677daa88ebbf833cea7bad37b6df49ede36040516130c4906142db565b60405180910390a150565b600081836130dd91906145a4565b905092915050565b600081836130f391906145d5565b905092915050565b6000807f537d3723252a534433306f3744000000000000000000000000000000000000009050600084848360405160200161313893929190613f0b565b604051602081830303815290604052805190602001209050809250505092915050565b604051806101600160405280600080191681526020016000801916815260200160008152602001600073ffffffffffffffffffffffffffffffffffffffff1681526020016000815260200160006effffffffffffffffffffffffffffff168152602001600060ff1681526020016000151581526020016060815260200160608152602001606081525090565b8280546131f39061470d565b90600052602060002090601f016020900481019282613215576000855561325c565b82601f1061322e57805160ff191683800117855561325c565b8280016001018555821561325c579182015b8281111561325b578251825591602001919060010190613240565b5b50905061326991906132da565b5090565b6040518060a0016040528060008152602001600073ffffffffffffffffffffffffffffffffffffffff168152602001600015158152602001600015158152602001600060ff1681525090565b50805460008255906000526020600020908101906132d791906132f7565b50565b5b808211156132f35760008160009055506001016132db565b5090565b5b808211156133105760008160009055506001016132f8565b5090565b60006133276133228461443b565b61440a565b90508281526020810184848401111561333f57600080fd5b61334a8482856146cb565b509392505050565b600081359050613361816148d2565b92915050565b600081359050613376816148e9565b92915050565b60008135905061338b81614900565b92915050565b600082601f8301126133a257600080fd5b81356133b2848260208601613314565b91505092915050565b6000813590506133ca81614917565b92915050565b6000602082840312156133e257600080fd5b60006133f084828501613352565b91505092915050565b60006020828403121561340b57600080fd5b600061341984828501613367565b91505092915050565b60006020828403121561343457600080fd5b60006134428482850161337c565b91505092915050565b600080600080600060a0868803121561346357600080fd5b60006134718882890161337c565b955050602086013567ffffffffffffffff81111561348e57600080fd5b61349a88828901613391565b945050604086013567ffffffffffffffff8111156134b757600080fd5b6134c388828901613391565b935050606086013567ffffffffffffffff8111156134e057600080fd5b6134ec88828901613391565b92505060806134fd888289016133bb565b9150509295509295909350565b60006020828403121561351c57600080fd5b600061352a848285016133bb565b91505092915050565b600061353f8383613728565b60208301905092915050565b60006135578383613d35565b905092915050565b600061356b8383613e32565b60a08301905092915050565b61358081614695565b82525050565b61358f8161461b565b82525050565b61359e8161461b565b82525050565b6135ad81614609565b82525050565b6135bc81614609565b82525050565b6135d36135ce82614609565b6147c0565b82525050565b60006135e48261449b565b6135ee81856144ee565b93506135f98361446b565b8060005b8381101561362a5781516136118882613533565b975061361c836144c7565b9250506001810190506135fd565b5085935050505092915050565b6000613642826144a6565b61364c81856144ff565b93508360208202850161365e8561447b565b8060005b8581101561369a578484038952815161367b858261354b565b9450613686836144d4565b925060208a01995050600181019050613662565b50829750879550505050505092915050565b60006136b7826144b1565b6136c18185614510565b93506136cc8361448b565b8060005b838110156136fd5781516136e4888261355f565b97506136ef836144e1565b9250506001810190506136d0565b5085935050505092915050565b6137138161462d565b82525050565b6137228161462d565b82525050565b61373181614639565b82525050565b61374081614639565b82525050565b61375761375282614639565b6147d2565b82525050565b6000613768826144bc565b613772818561452c565b93506137828185602086016146da565b61378b816148b4565b840191505092915050565b60006137a1826144bc565b6137ab818561453d565b93506137bb8185602086016146da565b6137c4816148b4565b840191505092915050565b60006137dc600c8361453d565b91507f4973206e6f742061646d696e00000000000000000000000000000000000000006000830152602082019050919050565b600061381c60188361453d565b91507f5265656e7472616e742063616c6c2064657465637465642100000000000000006000830152602082019050919050565b600061385c60148361453d565b91507f55736572206973206e6f7420612073656c6c65720000000000000000000000006000830152602082019050919050565b600061389c60178361453d565b91507f4e6f746520686173206265656e207075726368617365640000000000000000006000830152602082019050919050565b60006138dc601f8361453d565b91507f4973206e6f742061646d696e206e6f7220746865206e6f7465206f776e6572006000830152602082019050919050565b600061391c60228361453d565b91507f4661696c656420746f2073656e6420636f6d6d697373696f6e20746f2061646d60008301527f696e0000000000000000000000000000000000000000000000000000000000006020830152604082019050919050565b6000613982600b8361453d565b91507f6e6f746520626f756768740000000000000000000000000000000000000000006000830152602082019050919050565b60006139c260198361453d565b91507f4e6f7465207375636365737366756c6c792063726561746564000000000000006000830152602082019050919050565b6000613a0260128361453d565b91507f4e6f746520646f65736e277420657869737400000000000000000000000000006000830152602082019050919050565b6000613a4260208361453d565b91507f557365722073656c6c657220697320617070726f76656420666f722073656c6c6000830152602082019050919050565b6000613a8260158361453d565b91507f557365722063616e27742073656c6c206e6f74657300000000000000000000006000830152602082019050919050565b6000613ac260128361453d565b91507f496e73756666696369656e742066756e647300000000000000000000000000006000830152602082019050919050565b6000613b0260208361453d565b91507f4661696c656420746f2073656e64207061796d656e7420746f2073656c6c65726000830152602082019050919050565b6000613b4260138361453d565b91507f4e6f746520616c726561647920657869737473000000000000000000000000006000830152602082019050919050565b6000613b8260198361453d565b91507f55736572207375636365737366756c6c792064656c65746564000000000000006000830152602082019050919050565b6000613bc260228361453d565b91507f43616e206e6f74206665746368206d6f7265207468616e20353020726573756c60008301527f74730000000000000000000000000000000000000000000000000000000000006020830152604082019050919050565b6000613c2860178361453d565b91507f5573657220616c726561647920726567697374657265640000000000000000006000830152602082019050919050565b6000613c68600083614521565b9150600082019050919050565b6000613c8260128361453d565b91507f5573657220646f65736e277420657869737400000000000000000000000000006000830152602082019050919050565b6000613cc2601e8361453d565b91507f4e6f7465736d61726b657420697320636c6f7365642062792061646d696e00006000830152602082019050919050565b6000613d0260198361453d565b91507f55736572207375636365737366756c6c792063726561746564000000000000006000830152602082019050919050565b600061016083016000830151613d4e6000860182613728565b506020830151613d616020860182613728565b506040830151613d746040860182613eb8565b506060830151613d876060860182613586565b506080830151613d9a6080860182613eb8565b5060a0830151613dad60a0860182613e9a565b5060c0830151613dc060c0860182613eed565b5060e0830151613dd360e086018261370a565b50610100830151848203610100860152613ded828261375d565b915050610120830151848203610120860152613e09828261375d565b915050610140830151848203610140860152613e25828261375d565b9150508091505092915050565b60a082016000820151613e486000850182613eb8565b506020820151613e5b60208501826135a4565b506040820151613e6e604085018261370a565b506060820151613e81606085018261370a565b506080820151613e946080850182613eed565b50505050565b613ea381614643565b82525050565b613eb281614643565b82525050565b613ec18161467e565b82525050565b613ed08161467e565b82525050565b613ee7613ee28261467e565b6147ee565b82525050565b613ef681614688565b82525050565b613f0581614688565b82525050565b6000613f1782866135c2565b601482019150613f278285613746565b602082019150613f378284613746565b602082019150819050949350505050565b6000613f5382613c5b565b9150819050919050565b6000613f698284613ed6565b60208201915081905092915050565b60006020820190508181036000830152613f9281846135d9565b905092915050565b60006020820190508181036000830152613fb48184613637565b905092915050565b60006020820190508181036000830152613fd681846136ac565b905092915050565b6000608082019050613ff36000830187613719565b6140006020830186613719565b61400d6040830185613719565b61401a6060830184613719565b95945050505050565b600061016082019050614039600083018e613737565b614046602083018d613737565b614053604083018c613ec7565b614060606083018b613595565b61406d608083018a613ec7565b61407a60a0830189613ea9565b61408760c0830188613efc565b61409460e0830187613719565b8181036101008301526140a78186613796565b90508181036101208301526140bc8185613796565b90508181036101408301526140d18184613796565b90509c9b505050505050505050505050565b600060208201905081810360008301526140fc816137cf565b9050919050565b6000602082019050818103600083015261411c8161380f565b9050919050565b6000602082019050818103600083015261413c8161384f565b9050919050565b6000602082019050818103600083015261415c8161388f565b9050919050565b6000602082019050818103600083015261417c816138cf565b9050919050565b6000602082019050818103600083015261419c8161390f565b9050919050565b600060408201905081810360008301526141bc81613975565b90506141cb6020830184613577565b92915050565b600060608201905081810360008301526141ea816139b5565b905081810360208301526141fe8185613796565b905081810360408301526142128184613796565b90509392505050565b60006020820190508181036000830152614234816139f5565b9050919050565b6000602082019050818103600083015261425481613a35565b9050919050565b6000602082019050818103600083015261427481613a75565b9050919050565b6000602082019050818103600083015261429481613ab5565b9050919050565b600060208201905081810360008301526142b481613af5565b9050919050565b600060208201905081810360008301526142d481613b35565b9050919050565b600060208201905081810360008301526142f481613b75565b9050919050565b6000602082019050818103600083015261431481613bb5565b9050919050565b6000602082019050818103600083015261433481613c1b565b9050919050565b6000602082019050818103600083015261435481613c75565b9050919050565b6000602082019050818103600083015261437481613cb5565b9050919050565b6000606082019050818103600083015261439481613cf5565b90506143a360208301856135b3565b6143b06040830184613719565b9392505050565b600060a0820190506143cc6000830188613ec7565b6143d960208301876135b3565b6143e66040830186613719565b6143f36060830185613719565b6144006080830184613efc565b9695505050505050565b6000604051905081810181811067ffffffffffffffff8211171561443157614430614885565b5b8060405250919050565b600067ffffffffffffffff82111561445657614455614885565b5b601f19601f8301169050602081019050919050565b6000819050602082019050919050565b6000819050602082019050919050565b6000819050602082019050919050565b600081519050919050565b600081519050919050565b600081519050919050565b600081519050919050565b6000602082019050919050565b6000602082019050919050565b6000602082019050919050565b600082825260208201905092915050565b600082825260208201905092915050565b600082825260208201905092915050565b600081905092915050565b600082825260208201905092915050565b600082825260208201905092915050565b60006145598261467e565b91506145648361467e565b9250827fffffffffffffffffffffffffffffffffffffffffffffffffffffffffffffffff03821115614599576145986147f8565b5b828201905092915050565b60006145af8261467e565b91506145ba8361467e565b9250826145ca576145c9614827565b5b828204905092915050565b60006145e08261467e565b91506145eb8361467e565b9250828210156145fe576145fd6147f8565b5b828203905092915050565b60006146148261465e565b9050919050565b60006146268261465e565b9050919050565b60008115159050919050565b6000819050919050565b60006effffffffffffffffffffffffffffff82169050919050565b600073ffffffffffffffffffffffffffffffffffffffff82169050919050565b6000819050919050565b600060ff82169050919050565b60006146a0826146a7565b9050919050565b60006146b2826146b9565b9050919050565b60006146c48261465e565b9050919050565b82818337600083830152505050565b60005b838110156146f85780820151818401526020810190506146dd565b83811115614707576000848401525b50505050565b6000600282049050600182168061472557607f821691505b6020821081141561473957614738614856565b5b50919050565b600061474a82614643565b91506effffffffffffffffffffffffffffff82141561476c5761476b6147f8565b5b600182019050919050565b60006147828261467e565b91507fffffffffffffffffffffffffffffffffffffffffffffffffffffffffffffffff8214156147b5576147b46147f8565b5b600182019050919050565b60006147cb826147dc565b9050919050565b6000819050919050565b60006147e7826148c5565b9050919050565b6000819050919050565b7f4e487b7100000000000000000000000000000000000000000000000000000000600052601160045260246000fd5b7f4e487b7100000000000000000000000000000000000000000000000000000000600052601260045260246000fd5b7f4e487b7100000000000000000000000000000000000000000000000000000000600052602260045260246000fd5b7f4e487b7100000000000000000000000000000000000000000000000000000000600052604160045260246000fd5b6000601f19601f8301169050919050565b60008160601b9050919050565b6148db81614609565b81146148e657600080fd5b50565b6148f28161462d565b81146148fd57600080fd5b50565b61490981614639565b811461491457600080fd5b50565b6149208161467e565b811461492b57600080fd5b5056fea26469706673582212202f37ffd1d3c3a9f817afea763fd43a0cbdf686b337e3ae8e30ae2438679f40ba64736f6c63430008000033",
  "immutableReferences": {},
  "source": "// SPDX-License-Identifier: MIT\npragma solidity >=0.8.0;\npragma experimental ABIEncoderV2;\nimport \"@openzeppelin/contracts/utils/math/SafeMath.sol\";\n\n/** \n  * @title The Lazy Corner Contract\n  * @author Idoia Rojo Lzaro\n  * @dev Contract for selling and bying notes\n*/\n\ncontract TheLazyCornerContract {\n\n  using SafeMath for uint256;\n\n  bool private theLazyCornerIsClosed = false;\n  address payable private admin;\n\n  constructor(){\n    admin = payable(msg.sender);\n  }\n\n  Note[] public notesArr;\n  User[] public usersArr;\n  bool locked = false;\n\n  // List of notes indexed by note hash\n  mapping(bytes32 => uint) private notesHashes;\n\n  // List of notes indexed by ifps hash\n  mapping(bytes32 => bytes32) private IPFSHashes;\n\n  // List of users indexed by address\n  mapping(address => User) private users;\n\n  // List of all note purchase tokens\n  // Each note(noteHash) has a collection of buyers' accessTokens(addr -> accessToken)\n  mapping(bytes32 => mapping(address => bytes32)) private purchaseTokens;\n\n  // List of notes bought by buyers\n  mapping(address => bytes32[]) private boughtNotes;\n\n  // List of notes owned by sellers\n  mapping(address => bytes32[]) private ownedNotes;\n\n\n  // STRUCTS\n\n  // User -> buyer or seller\n  // Buy -> All buyers can buy notes\n  // Sell -> Just approved sellers can sell notes\n  struct User{\n    uint id; // id - 1 -> position of user in array\n    address userAddr;\n    bool seller; // Note owner\n    bool isSellerApproved; // Is approved to sell\n    uint8 exits;  // is registered\n  }\n\n  struct Note{\n    bytes32 noteHash; // note id hash\n    bytes32 IPFSHash; // note ipfs reference\n    uint id; // id - 1 -> position of note in array\n    address payable owner; \n    uint256 price; // price in tokens\n    uint120 purchaseCount; // number of notes purchases\n    uint8 exits;\n    bool isApproved; // approved for sale\n    string title;\n    string description;\n    string author;\n  }\n\n  // EVENTS\n  event UserCreated(string message, address userAddress, bool isSeller);\n  event UserRemoved(string message);\n  event UserSellerApproved(string message);\n\n  event NoteAdded(string message, bytes32 indexed noteHash, string title, string author);\n  event NoteRemoved(string message);\n  event NotePriceUpdated(string message, uint256 price);\n  event NoteBought(string message, bytes32 indexed noteHash, address indexed buyer, address seller);\n\n\n  // MODIFIERS\n  /** \n    * @dev Checks if caller is role admin\n    * @param userAddress Address of user\n  */\n  modifier isAdmin(address userAddress){\n    require(userAddress == admin, \"Is not admin\");\n    _;\n  }\n\n  /** \n    * @dev Checks if thelazycorner(market) is open - circuit breaker\n  */\n  modifier theLazyCornerIsOpen(){\n    require(theLazyCornerIsClosed == false, \"Notesmarket is closed by admin\" );\n    _;\n  }\n  \n  /** \n    * @dev Checks if the user exists\n    * @param userAddress Address of user\n  */\n  modifier userExists(address userAddress){\n    require(users[userAddress].exits == 1, \"User doesn't exist\" );\n    _;\n  }\n\n  /** \n    * @dev Checks if is the admin or a user that exists\n    * @param userAddress Address of user, noteHash hash of the note\n  */\n  modifier isUserOrAdmin(address userAddress){\n     require(users[userAddress].exits == 1 || userAddress == admin, \"User doesn't exist\" );\n    _;\n  }\n\n  /** \n    * @dev Checks if the user is the admin or the owner of the note\n    * @param userAddress Address of user, noteHash hash of the note\n    * @param noteHash hash of the note\n  */\n  modifier isNoteOwnerOrAdmin(address userAddress, bytes32 noteHash){\n    uint noteId = notesHashes[noteHash];\n    require(userAddress == admin || userAddress == notesArr[noteId - 1].owner, \"Is not admin nor the note owner\");\n    _;\n  }\n  \n  /** \n    * @dev Checks if a user is approved to sell notes\n    * @param userAddress Address of user, noteHash hash of the note\n  */\n  modifier canSellNotes(address userAddress){\n    require(users[userAddress].seller && users[userAddress].isSellerApproved, \"User can't sell notes\");\n    _;\n  }\n    \n  /** \n    * @dev Checks if the note exists\n    * @param noteHash hash of the note\n  */\n  modifier doesNoteExist(bytes32 noteHash){\n    require(notesHashes[noteHash] != 0, \"Note doesn't exist\");\n    uint noteId = notesHashes[noteHash];\n    require(notesArr[noteId - 1].id != 0, \"Note doesn't exist\");\n    _;\n  }\n\n  /** \n    * @dev Checks if the note has not been purchased\n    * @param noteHash hash of the note\n  */\n  modifier notPurchased(bytes32 noteHash){\n    uint noteId = notesHashes[noteHash];\n    require(notesArr[noteId - 1].purchaseCount == 0, \"Note has been purchased\");\n    _;\n  }\n\n  /** \n    * @dev Checks if a user has sufficient funds to buy a note\n    * @param price Price of the note\n  */\n  modifier sufficientFunds(uint price){\n    require(price <= msg.sender.balance, \"Insufficient funds\");\n    _;\n  }\n\n  /** \n    * @dev Refunds with excess money to buyer after payment\n    * @param price Price of the note\n  */\n  modifier returnExcess(uint price) {\n    //refund them after pay for note\n    _;\n    // Silent failure if \"there is no leftover to refund to buyer\"\n      if(msg.value > price){ \n        require(!locked, \"Reentrant call detected!\");\n        locked = true;\n        uint amountToRefund = msg.value - price;\n        \n        (bool success, ) = payable(msg.sender).call{value: amountToRefund}(\"\");\n        require(success);\n        locked = false;\n      }        \n  }\n\n  // FUNCTIONS\n\n  /* NoteMarket */\n      \n  /** \n    * @dev Toggle contract status(open/close), just the admin can do it(Circuit breaker)\n  */\n  function changeTheLazyCornerStatus() isAdmin(msg.sender) external{\n    theLazyCornerIsClosed = !theLazyCornerIsClosed;\n  }\n\n  /* Users */\n  /** \n    * @dev Register of a new user\n    * @param isSeller Is seller or buyer?\n  */\n  function addUser(bool isSeller) theLazyCornerIsOpen external{\n    require(users[msg.sender].exits == 0, \"User already registered\");\n\n    User memory user;\n    user.id = usersArr.length + 1;\n    user.userAddr = msg.sender;\n    user.seller = isSeller;\n    user.isSellerApproved = false; // Is approved to sell\n    user.exits = 1;\n  \n    users[msg.sender] = user;\n    usersArr.push(user);\n\n    emit UserCreated(\"User successfully created\", msg.sender, isSeller);\n  }\n\n  /** \n    * @dev Delete a user that exists, and delete all of its notes\n  */\n  function removeUser() userExists(msg.sender) external{\n    if(users[(msg.sender)].seller){\n      bytes32[] memory hashes = ownedNotes[msg.sender];\n\n      for (uint i = 0; i < hashes.length; i++) {\n        removeNote(hashes[i]);\n      }\n      delete ownedNotes[msg.sender];\n    }\n    delete users[msg.sender];\n\n    emit UserRemoved(\"User successfully deleted\");\n  }\n\n  /** \n    * @dev Get info of a user, just if it's the user itself or the admin\n    * @return _authStatus\n    * @return _isSeller\n    * @return _isAdmin\n    * @return _isSellerApproved\n  */\n  function getUser() isUserOrAdmin(msg.sender) view external returns(bool _authStatus, bool _isSeller, bool _isAdmin, bool _isSellerApproved){\n      _authStatus = true;\n      _isSeller = users[msg.sender].seller;\n      _isSellerApproved = users[msg.sender].isSellerApproved;\n      if(msg.sender == admin) _isAdmin = true;\n  }\n\n  /** \n    * @dev Approve a seller to sell notes and receive payments, just the admin can do it\n    * @param userAddress Address of user, noteHash hash of the note\n  */\n  function approveSeller(address userAddress) theLazyCornerIsOpen isAdmin(msg.sender) userExists(userAddress) external{\n    if(users[userAddress].seller){\n      User storage user = users[userAddress];\n      user.isSellerApproved = true;\n      usersArr[user.id - 1].isSellerApproved = true;\n      emit UserSellerApproved(\"User seller is approved for sell\");\n    }else{\n      revert(\"User is not a seller\");\n    }\n  }\n\n  /** \n    * @dev Admin fetches users using filters, max 50 results // TO-DO pagination\n    * @return _users array of users\n    */\n  function getAllUsers() isAdmin(msg.sender) view external returns (User[] memory _users){\n    require(usersArr.length < 50 , \"Can not fetch more than 50 results\");\n\n    _users = usersArr;\n    return _users;\n  }\n\n  /* Notes */\n  /** \n    * @dev Create a new note\n    * @param _IPFShash Hash of the file(note) uploaded to IPFS\n    * @param _title Title of the note\n    * @param _description Description of the note\n    * @param _author Author of the note\n    * @param _price Price of the note (eth)\n    */\n  function addNote(bytes32 _IPFShash, string memory _title, string memory _description, string memory _author, uint256 _price) \n    theLazyCornerIsOpen userExists(msg.sender) canSellNotes(msg.sender) external{\n\n    bytes32 _noteHash = IPFSHashes[_IPFShash];\n    uint _noteId = notesHashes[_noteHash];\n    require(_noteId == 0, \"Note already exists\");\n\n    uint newNoteId = notesArr.length + 1;\n\n    _noteHash = keccak256(abi.encodePacked(newNoteId));\n\n    notesHashes[_noteHash] = newNoteId;\n    IPFSHashes[_IPFShash] = _noteHash;\n    ownedNotes[msg.sender].push(_noteHash);\n\n    Note memory note;\n    \n    note.noteHash = _noteHash;\n    note.IPFSHash = _IPFShash;\n    note.id = newNoteId;\n    note.owner = payable(msg.sender);\n    note.price = _price; // wei\n    note.purchaseCount = 0;\n    note.exits = 1;\n    note.title = _title;\n    note.description = _description;\n    note.author = _author;\n    note.isApproved = true;\n\n    notesArr.push(note);\n\n    emit NoteAdded(\"Note successfully created\", _noteHash, _title, _author);\n  }\n\n  /** \n    * @dev Delete an existing note\n    * @param noteHash Hash of the note\n    */\n  function removeNote(bytes32 noteHash) doesNoteExist(noteHash) notPurchased(noteHash) isNoteOwnerOrAdmin(msg.sender, noteHash) public{\n    delete notesHashes[noteHash];\n    emit NoteRemoved(\"User successfully deleted\");\n  }\n\n  /** \n    * @dev Buyer buy a note, only if the market is open\n    * @param noteHash Hash of the note\n    */\n  function buyNote(bytes32 noteHash) theLazyCornerIsOpen userExists(msg.sender) doesNoteExist(noteHash) sufficientFunds(notesArr[notesHashes[noteHash] - 1].price) returnExcess(notesArr[notesHashes[noteHash] - 1].price) payable external {\n    \n    uint noteId = notesHashes[noteHash];\n    Note memory note = notesArr[noteId - 1];\n    \n    address payable seller = note.owner;\n    \n    uint commissionFunds = note.price.div(100);\n    uint paymentToSeller = note.price.sub(commissionFunds);\n    bytes32 accessToken = generateAccessToken(msg.sender, note.IPFSHash);\n    // store access token\n    purchaseTokens[noteHash][msg.sender] = accessToken;\n    // keep note purchase\n    boughtNotes[msg.sender].push(noteHash);\n    note.purchaseCount ++;\n    notesArr[noteId - 1].purchaseCount = note.purchaseCount;\n\n    (bool successSellerPayment, ) = seller.call{value: paymentToSeller}(\"\");\n    require(successSellerPayment, \"Failed to send payment to seller\");\n    (bool successAdminPayment, ) = admin.call{value: commissionFunds}(\"\");\n    require(successAdminPayment, \"Failed to send commission to admin\");\n    \n    emit NoteBought(\"note bought\", noteHash, msg.sender, seller);\n\n  }\n\n  /** \n    * @dev Admin fetches notes using filters, max 50 results // TO-DO pagination\n    * @return Array of notes\n    */\n  function getAllNotes() userExists(msg.sender) view external returns (Note[] memory){\n    require(notesArr.length < 50 , \"Can not fetch more than 50 results\");\n\n    Note[] memory _notes;\n    _notes = notesArr;\n    return _notes;\n  }\n\n  /** \n    * @dev Fetch all of the notes that the buyer bought\n    * @return _boughtNotes Array of hashes of the notes bought\n    */\n  function getMyPurchasedNotes() userExists(msg.sender) view public returns(bytes32[] memory _boughtNotes){\n    _boughtNotes = boughtNotes[msg.sender];\n  }\n\n  /** \n  * @dev Fetch all of the notes that the seller uploaded, just if it's a seller\n  * @return _ownedNotes Array of hashes of the owned bought\n  */\n  function getMyUploadedNotes() canSellNotes(msg.sender) userExists(msg.sender) view external returns(bytes32[] memory _ownedNotes){\n    _ownedNotes = ownedNotes[msg.sender];\n    for(uint i=0; i < _ownedNotes.length; i++){\n      // exclude the leftover hashes in state array map ownedNotes\n      if(notesHashes[_ownedNotes[i]] == 0){\n        delete _ownedNotes[i];\n      }\n    }\n  }\n\n  /** \n    * @dev Generate access token to verify that the buyer bought a note, before providing access to the file\n    * @param userAddr Address of user\n    * @param IPFShash Hash of the file(note) uploaded to IPFS\n    * @return Token\n    */\n  function generateAccessToken(address userAddr, bytes32 IPFShash) private pure returns(bytes32) { //isAdmin(msg.sender)\n    bytes32 salt = \"S}7#%*SD30o7D\";\n    bytes32 accessToken = keccak256(abi.encodePacked(userAddr, IPFShash, salt));\n    return accessToken;\n  }\n  \n}\n",
  "sourcePath": "/Users/idoia/Documents/blockchain/blockchain-developer-bootcamp-final-project/contracts/TheLazyCornerContract.sol",
  "compiler": {
    "name": "solc",
    "version": "0.8.0+commit.c7dfd78e.Emscripten.clang"
  },
  "schemaVersion": "3.4.3",
  "updatedAt": "2021-11-30T14:16:52.811Z",
  "networkType": "ethereum",
  "devdoc": {
    "author": "Idoia Rojo Lzaro",
    "details": "Contract for selling and bying notes",
    "kind": "dev",
    "methods": {
      "addNote(bytes32,string,string,string,uint256)": {
        "details": "Create a new note",
        "params": {
          "_IPFShash": "Hash of the file(note) uploaded to IPFS",
          "_author": "Author of the note",
          "_description": "Description of the note",
          "_price": "Price of the note (eth)",
          "_title": "Title of the note"
        }
      },
      "addUser(bool)": {
        "details": "Register of a new user",
        "params": {
          "isSeller": "Is seller or buyer?"
        }
      },
      "approveSeller(address)": {
        "details": "Approve a seller to sell notes and receive payments, just the admin can do it",
        "params": {
          "userAddress": "Address of user, noteHash hash of the note"
        }
      },
      "buyNote(bytes32)": {
        "details": "Buyer buy a note, only if the market is open",
        "params": {
          "noteHash": "Hash of the note"
        }
      },
      "changeTheLazyCornerStatus()": {
        "details": "Toggle contract status(open/close), just the admin can do it(Circuit breaker)"
      },
      "getAllNotes()": {
        "details": "Admin fetches notes using filters, max 50 results // TO-DO pagination",
        "returns": {
          "_0": "Array of notes"
        }
      },
      "getAllUsers()": {
        "details": "Admin fetches users using filters, max 50 results // TO-DO pagination",
        "returns": {
          "_users": "array of users"
        }
      },
      "getMyPurchasedNotes()": {
        "details": "Fetch all of the notes that the buyer bought",
        "returns": {
          "_boughtNotes": "Array of hashes of the notes bought"
        }
      },
      "getMyUploadedNotes()": {
        "details": "Fetch all of the notes that the seller uploaded, just if it's a seller",
        "returns": {
          "_ownedNotes": "Array of hashes of the owned bought"
        }
      },
      "getUser()": {
        "details": "Get info of a user, just if it's the user itself or the admin",
        "returns": {
          "_authStatus": "_authStatus",
          "_isAdmin": "_isAdmin",
          "_isSeller": "_isSeller",
          "_isSellerApproved": "_isSellerApproved"
        }
      },
      "removeNote(bytes32)": {
        "details": "Delete an existing note",
        "params": {
          "noteHash": "Hash of the note"
        }
      },
      "removeUser()": {
        "details": "Delete a user that exists, and delete all of its notes"
      }
    },
    "title": "The Lazy Corner Contract",
    "version": 1
  },
  "userdoc": {
    "kind": "user",
    "methods": {},
    "version": 1
  }
}