{
  "contractName": "TheLazyCornerContract",
  "abi": [
    {
      "inputs": [],
      "stateMutability": "nonpayable",
      "type": "constructor"
    },
    {
      "anonymous": false,
      "inputs": [
        {
          "indexed": false,
          "internalType": "string",
          "name": "message",
          "type": "string"
        },
        {
          "indexed": true,
          "internalType": "bytes32",
          "name": "noteHash",
          "type": "bytes32"
        },
        {
          "indexed": false,
          "internalType": "string",
          "name": "title",
          "type": "string"
        },
        {
          "indexed": false,
          "internalType": "string",
          "name": "author",
          "type": "string"
        }
      ],
      "name": "NoteAdded",
      "type": "event"
    },
    {
      "anonymous": false,
      "inputs": [
        {
          "indexed": false,
          "internalType": "string",
          "name": "message",
          "type": "string"
        },
        {
          "indexed": true,
          "internalType": "bytes32",
          "name": "noteHash",
          "type": "bytes32"
        },
        {
          "indexed": true,
          "internalType": "address",
          "name": "buyer",
          "type": "address"
        },
        {
          "indexed": false,
          "internalType": "address",
          "name": "seller",
          "type": "address"
        }
      ],
      "name": "NoteBought",
      "type": "event"
    },
    {
      "anonymous": false,
      "inputs": [
        {
          "indexed": false,
          "internalType": "string",
          "name": "message",
          "type": "string"
        },
        {
          "indexed": false,
          "internalType": "uint256",
          "name": "price",
          "type": "uint256"
        }
      ],
      "name": "NotePriceUpdated",
      "type": "event"
    },
    {
      "anonymous": false,
      "inputs": [
        {
          "indexed": false,
          "internalType": "string",
          "name": "message",
          "type": "string"
        }
      ],
      "name": "NoteRemoved",
      "type": "event"
    },
    {
      "anonymous": false,
      "inputs": [
        {
          "indexed": false,
          "internalType": "string",
          "name": "message",
          "type": "string"
        },
        {
          "indexed": false,
          "internalType": "address",
          "name": "userAddress",
          "type": "address"
        },
        {
          "indexed": false,
          "internalType": "bool",
          "name": "isSeller",
          "type": "bool"
        }
      ],
      "name": "UserCreated",
      "type": "event"
    },
    {
      "anonymous": false,
      "inputs": [
        {
          "indexed": false,
          "internalType": "string",
          "name": "message",
          "type": "string"
        }
      ],
      "name": "UserRemoved",
      "type": "event"
    },
    {
      "anonymous": false,
      "inputs": [
        {
          "indexed": false,
          "internalType": "string",
          "name": "message",
          "type": "string"
        }
      ],
      "name": "UserSellerApproved",
      "type": "event"
    },
    {
      "inputs": [
        {
          "internalType": "uint256",
          "name": "",
          "type": "uint256"
        }
      ],
      "name": "notesArr",
      "outputs": [
        {
          "internalType": "bytes32",
          "name": "noteHash",
          "type": "bytes32"
        },
        {
          "internalType": "bytes32",
          "name": "IPFSHash",
          "type": "bytes32"
        },
        {
          "internalType": "uint256",
          "name": "id",
          "type": "uint256"
        },
        {
          "internalType": "address payable",
          "name": "owner",
          "type": "address"
        },
        {
          "internalType": "uint256",
          "name": "price",
          "type": "uint256"
        },
        {
          "internalType": "uint120",
          "name": "purchaseCount",
          "type": "uint120"
        },
        {
          "internalType": "uint8",
          "name": "exits",
          "type": "uint8"
        },
        {
          "internalType": "bool",
          "name": "isApproved",
          "type": "bool"
        },
        {
          "internalType": "string",
          "name": "title",
          "type": "string"
        },
        {
          "internalType": "string",
          "name": "description",
          "type": "string"
        },
        {
          "internalType": "string",
          "name": "author",
          "type": "string"
        }
      ],
      "stateMutability": "view",
      "type": "function",
      "constant": true
    },
    {
      "inputs": [
        {
          "internalType": "uint256",
          "name": "",
          "type": "uint256"
        }
      ],
      "name": "usersArr",
      "outputs": [
        {
          "internalType": "address",
          "name": "userAddr",
          "type": "address"
        },
        {
          "internalType": "bool",
          "name": "seller",
          "type": "bool"
        },
        {
          "internalType": "bool",
          "name": "isSellerApproved",
          "type": "bool"
        },
        {
          "internalType": "uint8",
          "name": "exits",
          "type": "uint8"
        }
      ],
      "stateMutability": "view",
      "type": "function",
      "constant": true
    },
    {
      "inputs": [],
      "name": "changeTheLazyCornerStatus",
      "outputs": [],
      "stateMutability": "nonpayable",
      "type": "function"
    },
    {
      "inputs": [
        {
          "internalType": "bool",
          "name": "isSeller",
          "type": "bool"
        }
      ],
      "name": "addUser",
      "outputs": [],
      "stateMutability": "nonpayable",
      "type": "function"
    },
    {
      "inputs": [],
      "name": "removeUser",
      "outputs": [],
      "stateMutability": "nonpayable",
      "type": "function"
    },
    {
      "inputs": [],
      "name": "getUser",
      "outputs": [
        {
          "internalType": "bool",
          "name": "_authStatus",
          "type": "bool"
        },
        {
          "internalType": "bool",
          "name": "_isSeller",
          "type": "bool"
        },
        {
          "internalType": "bool",
          "name": "_isAdmin",
          "type": "bool"
        },
        {
          "internalType": "bool",
          "name": "_isSellerApproved",
          "type": "bool"
        }
      ],
      "stateMutability": "view",
      "type": "function",
      "constant": true
    },
    {
      "inputs": [
        {
          "internalType": "address",
          "name": "userAddress",
          "type": "address"
        }
      ],
      "name": "approveSeller",
      "outputs": [],
      "stateMutability": "nonpayable",
      "type": "function"
    },
    {
      "inputs": [
        {
          "internalType": "uint256",
          "name": "_start",
          "type": "uint256"
        }
      ],
      "name": "getAllUsers",
      "outputs": [
        {
          "components": [
            {
              "internalType": "address",
              "name": "userAddr",
              "type": "address"
            },
            {
              "internalType": "bool",
              "name": "seller",
              "type": "bool"
            },
            {
              "internalType": "bool",
              "name": "isSellerApproved",
              "type": "bool"
            },
            {
              "internalType": "uint8",
              "name": "exits",
              "type": "uint8"
            }
          ],
          "internalType": "struct TheLazyCornerContract.User[]",
          "name": "",
          "type": "tuple[]"
        }
      ],
      "stateMutability": "view",
      "type": "function",
      "constant": true
    },
    {
      "inputs": [
        {
          "internalType": "bytes32",
          "name": "_IPFShash",
          "type": "bytes32"
        },
        {
          "internalType": "string",
          "name": "_title",
          "type": "string"
        },
        {
          "internalType": "string",
          "name": "_description",
          "type": "string"
        },
        {
          "internalType": "string",
          "name": "_author",
          "type": "string"
        },
        {
          "internalType": "uint256",
          "name": "_price",
          "type": "uint256"
        }
      ],
      "name": "addNote",
      "outputs": [],
      "stateMutability": "nonpayable",
      "type": "function"
    },
    {
      "inputs": [
        {
          "internalType": "bytes32",
          "name": "noteHash",
          "type": "bytes32"
        }
      ],
      "name": "removeNote",
      "outputs": [],
      "stateMutability": "nonpayable",
      "type": "function"
    },
    {
      "inputs": [],
      "name": "getAllNotes",
      "outputs": [
        {
          "components": [
            {
              "internalType": "bytes32",
              "name": "noteHash",
              "type": "bytes32"
            },
            {
              "internalType": "bytes32",
              "name": "IPFSHash",
              "type": "bytes32"
            },
            {
              "internalType": "uint256",
              "name": "id",
              "type": "uint256"
            },
            {
              "internalType": "address payable",
              "name": "owner",
              "type": "address"
            },
            {
              "internalType": "uint256",
              "name": "price",
              "type": "uint256"
            },
            {
              "internalType": "uint120",
              "name": "purchaseCount",
              "type": "uint120"
            },
            {
              "internalType": "uint8",
              "name": "exits",
              "type": "uint8"
            },
            {
              "internalType": "bool",
              "name": "isApproved",
              "type": "bool"
            },
            {
              "internalType": "string",
              "name": "title",
              "type": "string"
            },
            {
              "internalType": "string",
              "name": "description",
              "type": "string"
            },
            {
              "internalType": "string",
              "name": "author",
              "type": "string"
            }
          ],
          "internalType": "struct TheLazyCornerContract.Note[]",
          "name": "",
          "type": "tuple[]"
        }
      ],
      "stateMutability": "view",
      "type": "function",
      "constant": true
    },
    {
      "inputs": [
        {
          "internalType": "bytes32",
          "name": "noteHash",
          "type": "bytes32"
        }
      ],
      "name": "buyNote",
      "outputs": [],
      "stateMutability": "payable",
      "type": "function",
      "payable": true
    },
    {
      "inputs": [],
      "name": "getMyPurchasedNotes",
      "outputs": [
        {
          "internalType": "bytes32[]",
          "name": "_boughtNotes",
          "type": "bytes32[]"
        }
      ],
      "stateMutability": "view",
      "type": "function",
      "constant": true
    },
    {
      "inputs": [],
      "name": "getOwnedNotes",
      "outputs": [
        {
          "internalType": "bytes32[]",
          "name": "_ownedNotes",
          "type": "bytes32[]"
        }
      ],
      "stateMutability": "view",
      "type": "function",
      "constant": true
    }
  ],
  "bytecode": "0x608060405260008060006101000a81548160ff02191690831515021790555034801561002a57600080fd5b5033600060016101000a81548173ffffffffffffffffffffffffffffffffffffffff021916908373ffffffffffffffffffffffffffffffffffffffff1602179055506143668061007b6000396000f3fe6080604052600436106100dd5760003560e01c8063678fc4591161007f578063c35b28b211610059578063c35b28b2146102ad578063d32fe583146102d6578063de8f430c14610301578063f944f4c71461032c576100dd565b8063678fc4591461023a578063832880e714610256578063c169d7e914610284576100dd565b80634367fc03116100bb5780634367fc03146101735780635b7eedf8146101ba5780635ec5d856146101fa578063617bc70414610223576100dd565b806304fb3344146100e25780632d731b691461011f578063358a7b201461014a575b600080fd5b3480156100ee57600080fd5b5061010960048036038101906101049190613179565b610343565b6040516101169190613ab7565b60405180910390f35b34801561012b57600080fd5b506101346105e8565b6040516101419190613a73565b60405180910390f35b34801561015657600080fd5b50610171600480360381019061016c9190613091565b6108c2565b005b34801561017f57600080fd5b5061019a60048036038101906101959190613179565b610c56565b6040516101b19b9a99989796959493929190613b1e565b60405180910390f35b3480156101c657600080fd5b506101e160048036038101906101dc9190613179565b610ead565b6040516101f19493929190613a2e565b60405180910390f35b34801561020657600080fd5b50610221600480360381019061021c919061303f565b610f30565b005b34801561022f57600080fd5b506102386111db565b005b610254600480360381019061024f9190613091565b611296565b005b34801561026257600080fd5b5061026b611af4565b60405161027b9493929190613ad9565b60405180910390f35b34801561029057600080fd5b506102ab60048036038101906102a691906130ba565b611cf2565b005b3480156102b957600080fd5b506102d460048036038101906102cf9190613068565b61224c565b005b3480156102e257600080fd5b506102eb6125a3565b6040516102f89190613a73565b60405180910390f35b34801561030d57600080fd5b506103166126cf565b6040516103239190613a95565b60405180910390f35b34801561033857600080fd5b50610341612a7f565b005b606033600060019054906101000a900473ffffffffffffffffffffffffffffffffffffffff1673ffffffffffffffffffffffffffffffffffffffff168173ffffffffffffffffffffffffffffffffffffffff16146103d6576040517f08c379a00000000000000000000000000000000000000000000000000000000081526004016103cd90613bfe565b60405180910390fd5b60028054905083111561041e576040517f08c379a000000000000000000000000000000000000000000000000000000000815260040161041590613bde565b60405180910390fd5b600060029050600081905060606002805490506104448488612d8f90919063ffffffff16565b10156104705761045d8387612d8f90919063ffffffff16565b60028054905061046d9190614012565b91505b60005b828110156105db57600081886104899190613f8b565b9050600281815481106104c5577f4e487b7100000000000000000000000000000000000000000000000000000000600052603260045260246000fd5b906000526020600020016040518060800160405290816000820160009054906101000a900473ffffffffffffffffffffffffffffffffffffffff1673ffffffffffffffffffffffffffffffffffffffff1673ffffffffffffffffffffffffffffffffffffffff1681526020016000820160149054906101000a900460ff161515151581526020016000820160159054906101000a900460ff161515151581526020016000820160169054906101000a900460ff1660ff1660ff16815250508383815181106105bc577f4e487b7100000000000000000000000000000000000000000000000000000000600052603260045260246000fd5b60200260200101819052505080806105d3906141b4565b915050610473565b5080945050505050919050565b606033600560008273ffffffffffffffffffffffffffffffffffffffff1673ffffffffffffffffffffffffffffffffffffffff16815260200190815260200160002060000160149054906101000a900460ff1680156106935750600560008273ffffffffffffffffffffffffffffffffffffffff1673ffffffffffffffffffffffffffffffffffffffff16815260200190815260200160002060000160159054906101000a900460ff165b6106d2576040517f08c379a00000000000000000000000000000000000000000000000000000000081526004016106c990613d36565b60405180910390fd5b336001600560008373ffffffffffffffffffffffffffffffffffffffff1673ffffffffffffffffffffffffffffffffffffffff16815260200190815260200160002060000160169054906101000a900460ff1660ff1614610768576040517f08c379a000000000000000000000000000000000000000000000000000000000815260040161075f90613dd6565b60405180910390fd5b600860003373ffffffffffffffffffffffffffffffffffffffff1673ffffffffffffffffffffffffffffffffffffffff1681526020019081526020016000208054806020026020016040519081016040528092919081815260200182805480156107f157602002820191906000526020600020905b8154815260200190600101908083116107dd575b5050505050925060005b83518110156108bc57600060036000868481518110610843577f4e487b7100000000000000000000000000000000000000000000000000000000600052603260045260246000fd5b602002602001015181526020019081526020016000205414156108a957838181518110610899577f4e487b7100000000000000000000000000000000000000000000000000000000600052603260045260246000fd5b6020026020010160008019168152505b80806108b4906141b4565b9150506107fb565b50505090565b8060006003600083815260200190815260200160002054141561091a576040517f08c379a000000000000000000000000000000000000000000000000000000000815260040161091190613cf6565b60405180910390fd5b6000600360008381526020019081526020016000205490506000600180836109429190614012565b81548110610979577f4e487b7100000000000000000000000000000000000000000000000000000000600052603260045260246000fd5b90600052602060002090600902016002015414156109cc576040517f08c379a00000000000000000000000000000000000000000000000000000000081526004016109c390613cf6565b60405180910390fd5b826000600360008381526020019081526020016000205490506000600180836109f59190614012565b81548110610a2c577f4e487b7100000000000000000000000000000000000000000000000000000000600052603260045260246000fd5b906000526020600020906009020160050160009054906101000a90046effffffffffffffffffffffffffffff166effffffffffffffffffffffffffffff1614610aaa576040517f08c379a0000000000000000000000000000000000000000000000000000000008152600401610aa190613c3e565b60405180910390fd5b3385600060036000838152602001908152602001600020549050600060019054906101000a900473ffffffffffffffffffffffffffffffffffffffff1673ffffffffffffffffffffffffffffffffffffffff168373ffffffffffffffffffffffffffffffffffffffff161480610bc1575060018082610b299190614012565b81548110610b60577f4e487b7100000000000000000000000000000000000000000000000000000000600052603260045260246000fd5b906000526020600020906009020160030160009054906101000a900473ffffffffffffffffffffffffffffffffffffffff1673ffffffffffffffffffffffffffffffffffffffff168373ffffffffffffffffffffffffffffffffffffffff16145b610c00576040517f08c379a0000000000000000000000000000000000000000000000000000000008152600401610bf790613c5e565b60405180910390fd5b60036000898152602001908152602001600020600090557fe41203db0fa61b8b33140f8fc1ca977ef1ae43ae15065035c505670c0b4e0ed5604051610c4490613d76565b60405180910390a15050505050505050565b60018181548110610c6657600080fd5b90600052602060002090600902016000915090508060000154908060010154908060020154908060030160009054906101000a900473ffffffffffffffffffffffffffffffffffffffff16908060040154908060050160009054906101000a90046effffffffffffffffffffffffffffff169080600501600f9054906101000a900460ff16908060050160109054906101000a900460ff1690806006018054610d0e9061414a565b80601f0160208091040260200160405190810160405280929190818152602001828054610d3a9061414a565b8015610d875780601f10610d5c57610100808354040283529160200191610d87565b820191906000526020600020905b815481529060010190602001808311610d6a57829003601f168201915b505050505090806007018054610d9c9061414a565b80601f0160208091040260200160405190810160405280929190818152602001828054610dc89061414a565b8015610e155780601f10610dea57610100808354040283529160200191610e15565b820191906000526020600020905b815481529060010190602001808311610df857829003601f168201915b505050505090806008018054610e2a9061414a565b80601f0160208091040260200160405190810160405280929190818152602001828054610e569061414a565b8015610ea35780601f10610e7857610100808354040283529160200191610ea3565b820191906000526020600020905b815481529060010190602001808311610e8657829003601f168201915b505050505090508b565b60028181548110610ebd57600080fd5b906000526020600020016000915090508060000160009054906101000a900473ffffffffffffffffffffffffffffffffffffffff16908060000160149054906101000a900460ff16908060000160159054906101000a900460ff16908060000160169054906101000a900460ff16905084565b6000151560008054906101000a900460ff16151514610f84576040517f08c379a0000000000000000000000000000000000000000000000000000000008152600401610f7b90613df6565b60405180910390fd5b33600060019054906101000a900473ffffffffffffffffffffffffffffffffffffffff1673ffffffffffffffffffffffffffffffffffffffff168173ffffffffffffffffffffffffffffffffffffffff1614611015576040517f08c379a000000000000000000000000000000000000000000000000000000000815260040161100c90613bfe565b60405180910390fd5b816001600560008373ffffffffffffffffffffffffffffffffffffffff1673ffffffffffffffffffffffffffffffffffffffff16815260200190815260200160002060000160169054906101000a900460ff1660ff16146110ab576040517f08c379a00000000000000000000000000000000000000000000000000000000081526004016110a290613dd6565b60405180910390fd5b600560008473ffffffffffffffffffffffffffffffffffffffff1673ffffffffffffffffffffffffffffffffffffffff16815260200190815260200160002060000160149054906101000a900460ff161561119b576000600560008573ffffffffffffffffffffffffffffffffffffffff1673ffffffffffffffffffffffffffffffffffffffff168152602001908152602001600020905060018160000160156101000a81548160ff0219169083151502179055507fae937c810850c4277a17aeb7e8b138034e898dbb0a85b262eb9ea276fedc940560405161118d90613d16565b60405180910390a1506111d6565b6040517f08c379a00000000000000000000000000000000000000000000000000000000081526004016111cd90613c1e565b60405180910390fd5b505050565b33600060019054906101000a900473ffffffffffffffffffffffffffffffffffffffff1673ffffffffffffffffffffffffffffffffffffffff168173ffffffffffffffffffffffffffffffffffffffff161461126c576040517f08c379a000000000000000000000000000000000000000000000000000000000815260040161126390613bfe565b60405180910390fd5b60008054906101000a900460ff16156000806101000a81548160ff02191690831515021790555050565b6000151560008054906101000a900460ff161515146112ea576040517f08c379a00000000000000000000000000000000000000000000000000000000081526004016112e190613df6565b60405180910390fd5b336001600560008373ffffffffffffffffffffffffffffffffffffffff1673ffffffffffffffffffffffffffffffffffffffff16815260200190815260200160002060000160169054906101000a900460ff1660ff1614611380576040517f08c379a000000000000000000000000000000000000000000000000000000000815260040161137790613dd6565b60405180910390fd5b816000600360008381526020019081526020016000205414156113d8576040517f08c379a00000000000000000000000000000000000000000000000000000000081526004016113cf90613cf6565b60405180910390fd5b6000600360008381526020019081526020016000205490506000600180836114009190614012565b81548110611437577f4e487b7100000000000000000000000000000000000000000000000000000000600052603260045260246000fd5b906000526020600020906009020160020154141561148a576040517f08c379a000000000000000000000000000000000000000000000000000000000815260040161148190613cf6565b60405180910390fd5b60018060036000878152602001908152602001600020546114ab9190614012565b815481106114e2577f4e487b7100000000000000000000000000000000000000000000000000000000600052603260045260246000fd5b9060005260206000209060090201600401543373ffffffffffffffffffffffffffffffffffffffff163181111561154e576040517f08c379a000000000000000000000000000000000000000000000000000000000815260040161154590613db6565b60405180910390fd5b6000600360008781526020019081526020016000205490506000600180836115769190614012565b815481106115ad577f4e487b7100000000000000000000000000000000000000000000000000000000600052603260045260246000fd5b9060005260206000209060090201604051806101600160405290816000820154815260200160018201548152602001600282015481526020016003820160009054906101000a900473ffffffffffffffffffffffffffffffffffffffff1673ffffffffffffffffffffffffffffffffffffffff1673ffffffffffffffffffffffffffffffffffffffff168152602001600482015481526020016005820160009054906101000a90046effffffffffffffffffffffffffffff166effffffffffffffffffffffffffffff166effffffffffffffffffffffffffffff16815260200160058201600f9054906101000a900460ff1660ff1660ff1681526020016005820160109054906101000a900460ff161515151581526020016006820180546116d49061414a565b80601f01602080910402602001604051908101604052809291908181526020018280546117009061414a565b801561174d5780601f106117225761010080835404028352916020019161174d565b820191906000526020600020905b81548152906001019060200180831161173057829003601f168201915b505050505081526020016007820180546117669061414a565b80601f01602080910402602001604051908101604052809291908181526020018280546117929061414a565b80156117df5780601f106117b4576101008083540402835291602001916117df565b820191906000526020600020905b8154815290600101906020018083116117c257829003601f168201915b505050505081526020016008820180546117f89061414a565b80601f01602080910402602001604051908101604052809291908181526020018280546118249061414a565b80156118715780601f1061184657610100808354040283529160200191611871565b820191906000526020600020905b81548152906001019060200180831161185457829003601f168201915b5050505050815250509050600081606001519050600061189f60648460800151612da590919063ffffffff16565b905060006118ba828560800151612dbb90919063ffffffff16565b9050600760003373ffffffffffffffffffffffffffffffffffffffff1673ffffffffffffffffffffffffffffffffffffffff1681526020019081526020016000208a90806001815401808255809150506001900390600052602060002001600090919091909150558360a00180518091906119349061417c565b6effffffffffffffffffffffffffffff166effffffffffffffffffffffffffffff16815250508360a001516001808761196d9190614012565b815481106119a4577f4e487b7100000000000000000000000000000000000000000000000000000000600052603260045260246000fd5b906000526020600020906009020160050160006101000a8154816effffffffffffffffffffffffffffff02191690836effffffffffffffffffffffffffffff1602179055508273ffffffffffffffffffffffffffffffffffffffff166108fc829081150290604051600060405180830381858888f19350505050158015611a2f573d6000803e3d6000fd5b50600060019054906101000a900473ffffffffffffffffffffffffffffffffffffffff1673ffffffffffffffffffffffffffffffffffffffff166108fc839081150290604051600060405180830381858888f19350505050158015611a98573d6000803e3d6000fd5b503373ffffffffffffffffffffffffffffffffffffffff168a7fd1b3ceff01e1556a2936b8fef7e2e78b49634ac547f868ab32e3bdcb3c2b97af85604051611ae09190613c7e565b60405180910390a350505050505050505050565b600080600080336001600560008373ffffffffffffffffffffffffffffffffffffffff1673ffffffffffffffffffffffffffffffffffffffff16815260200190815260200160002060000160169054906101000a900460ff1660ff161480611ba95750600060019054906101000a900473ffffffffffffffffffffffffffffffffffffffff1673ffffffffffffffffffffffffffffffffffffffff168173ffffffffffffffffffffffffffffffffffffffff16145b611be8576040517f08c379a0000000000000000000000000000000000000000000000000000000008152600401611bdf90613dd6565b60405180910390fd5b60019450600560003373ffffffffffffffffffffffffffffffffffffffff1673ffffffffffffffffffffffffffffffffffffffff16815260200190815260200160002060000160149054906101000a900460ff169350600560003373ffffffffffffffffffffffffffffffffffffffff1673ffffffffffffffffffffffffffffffffffffffff16815260200190815260200160002060000160159054906101000a900460ff169150600060019054906101000a900473ffffffffffffffffffffffffffffffffffffffff1673ffffffffffffffffffffffffffffffffffffffff163373ffffffffffffffffffffffffffffffffffffffff161415611ceb57600192505b5090919293565b336001600560008373ffffffffffffffffffffffffffffffffffffffff1673ffffffffffffffffffffffffffffffffffffffff16815260200190815260200160002060000160169054906101000a900460ff1660ff1614611d88576040517f08c379a0000000000000000000000000000000000000000000000000000000008152600401611d7f90613dd6565b60405180910390fd5b33600560008273ffffffffffffffffffffffffffffffffffffffff1673ffffffffffffffffffffffffffffffffffffffff16815260200190815260200160002060000160149054906101000a900460ff168015611e315750600560008273ffffffffffffffffffffffffffffffffffffffff1673ffffffffffffffffffffffffffffffffffffffff16815260200190815260200160002060000160159054906101000a900460ff165b611e70576040517f08c379a0000000000000000000000000000000000000000000000000000000008152600401611e6790613d36565b60405180910390fd5b60006004600089815260200190815260200160002054905060006003600083815260200190815260200160002054905060008114611ee3576040517f08c379a0000000000000000000000000000000000000000000000000000000008152600401611eda90613d56565b60405180910390fd5b600060018080549050611ef69190613f8b565b905080604051602001611f099190613a13565b60405160208183030381529060405280519060200120925080600360008581526020019081526020016000208190555082600460008c815260200190815260200160002081905550600860003373ffffffffffffffffffffffffffffffffffffffff1673ffffffffffffffffffffffffffffffffffffffff168152602001908152602001600020839080600181540180825580915050600190039060005260206000200160009091909190915055611fbf612dd1565b838160000181815250508a8160200181815250508181604001818152505033816060019073ffffffffffffffffffffffffffffffffffffffff16908173ffffffffffffffffffffffffffffffffffffffff16815250508681608001818152505060008160a001906effffffffffffffffffffffffffffff1690816effffffffffffffffffffffffffffff168152505060018160c0019060ff16908160ff168152505089816101000181905250888161012001819052508781610140018190525060018160e0019015159081151581525050600181908060018154018082558091505060019003906000526020600020906009020160009091909190915060008201518160000155602082015181600101556040820151816002015560608201518160030160006101000a81548173ffffffffffffffffffffffffffffffffffffffff021916908373ffffffffffffffffffffffffffffffffffffffff1602179055506080820151816004015560a08201518160050160006101000a8154816effffffffffffffffffffffffffffff02191690836effffffffffffffffffffffffffffff16021790555060c082015181600501600f6101000a81548160ff021916908360ff16021790555060e08201518160050160106101000a81548160ff0219169083151502179055506101008201518160060190805190602001906121c6929190612e5d565b506101208201518160070190805190602001906121e4929190612e5d565b50610140820151816008019080519060200190612202929190612e5d565b505050837f61f7b06099d9d6c81bb3b480f2051f0190d343d909af3bdc90ff6b86cd83de588b8a604051612237929190613cac565b60405180910390a25050505050505050505050565b6000151560008054906101000a900460ff161515146122a0576040517f08c379a000000000000000000000000000000000000000000000000000000000815260040161229790613df6565b60405180910390fd5b6000600560003373ffffffffffffffffffffffffffffffffffffffff1673ffffffffffffffffffffffffffffffffffffffff16815260200190815260200160002060000160169054906101000a900460ff1660ff1614612335576040517f08c379a000000000000000000000000000000000000000000000000000000000815260040161232c90613d96565b60405180910390fd5b61233d612ee3565b33816000019073ffffffffffffffffffffffffffffffffffffffff16908173ffffffffffffffffffffffffffffffffffffffff16815250508181602001901515908115158152505060008160400190151590811515815250506001816060019060ff16908160ff168152505080600560003373ffffffffffffffffffffffffffffffffffffffff1673ffffffffffffffffffffffffffffffffffffffff16815260200190815260200160002060008201518160000160006101000a81548173ffffffffffffffffffffffffffffffffffffffff021916908373ffffffffffffffffffffffffffffffffffffffff16021790555060208201518160000160146101000a81548160ff02191690831515021790555060408201518160000160156101000a81548160ff02191690831515021790555060608201518160000160166101000a81548160ff021916908360ff1602179055509050506002819080600181540180825580915050600190039060005260206000200160009091909190915060008201518160000160006101000a81548173ffffffffffffffffffffffffffffffffffffffff021916908373ffffffffffffffffffffffffffffffffffffffff16021790555060208201518160000160146101000a81548160ff02191690831515021790555060408201518160000160156101000a81548160ff02191690831515021790555060608201518160000160166101000a81548160ff021916908360ff16021790555050507f6ed7fd9c095d25702b515b4fc3c80ddda04a36adc0a6619c93fe1a306784f51e3383604051612597929190613e16565b60405180910390a15050565b6060336001600560008373ffffffffffffffffffffffffffffffffffffffff1673ffffffffffffffffffffffffffffffffffffffff16815260200190815260200160002060000160169054906101000a900460ff1660ff161461263b576040517f08c379a000000000000000000000000000000000000000000000000000000000815260040161263290613dd6565b60405180910390fd5b600760003373ffffffffffffffffffffffffffffffffffffffff1673ffffffffffffffffffffffffffffffffffffffff1681526020019081526020016000208054806020026020016040519081016040528092919081815260200182805480156126c457602002820191906000526020600020905b8154815260200190600101908083116126b0575b505050505091505090565b6060336001600560008373ffffffffffffffffffffffffffffffffffffffff1673ffffffffffffffffffffffffffffffffffffffff16815260200190815260200160002060000160169054906101000a900460ff1660ff1614612767576040517f08c379a000000000000000000000000000000000000000000000000000000000815260040161275e90613dd6565b60405180910390fd5b60606001805480602002602001604051908101604052809291908181526020016000905b82821015612a715783829060005260206000209060090201604051806101600160405290816000820154815260200160018201548152602001600282015481526020016003820160009054906101000a900473ffffffffffffffffffffffffffffffffffffffff1673ffffffffffffffffffffffffffffffffffffffff1673ffffffffffffffffffffffffffffffffffffffff168152602001600482015481526020016005820160009054906101000a90046effffffffffffffffffffffffffffff166effffffffffffffffffffffffffffff166effffffffffffffffffffffffffffff16815260200160058201600f9054906101000a900460ff1660ff1660ff1681526020016005820160109054906101000a900460ff161515151581526020016006820180546128bc9061414a565b80601f01602080910402602001604051908101604052809291908181526020018280546128e89061414a565b80156129355780601f1061290a57610100808354040283529160200191612935565b820191906000526020600020905b81548152906001019060200180831161291857829003601f168201915b5050505050815260200160078201805461294e9061414a565b80601f016020809104026020016040519081016040528092919081815260200182805461297a9061414a565b80156129c75780601f1061299c576101008083540402835291602001916129c7565b820191906000526020600020905b8154815290600101906020018083116129aa57829003601f168201915b505050505081526020016008820180546129e09061414a565b80601f0160208091040260200160405190810160405280929190818152602001828054612a0c9061414a565b8015612a595780601f10612a2e57610100808354040283529160200191612a59565b820191906000526020600020905b815481529060010190602001808311612a3c57829003601f168201915b5050505050815250508152602001906001019061278b565b505050509050809250505090565b336001600560008373ffffffffffffffffffffffffffffffffffffffff1673ffffffffffffffffffffffffffffffffffffffff16815260200190815260200160002060000160169054906101000a900460ff1660ff1614612b15576040517f08c379a0000000000000000000000000000000000000000000000000000000008152600401612b0c90613dd6565b60405180910390fd5b600560003373ffffffffffffffffffffffffffffffffffffffff1673ffffffffffffffffffffffffffffffffffffffff16815260200190815260200160002060000160149054906101000a900460ff1615612cb2576000600860003373ffffffffffffffffffffffffffffffffffffffff1673ffffffffffffffffffffffffffffffffffffffff168152602001908152602001600020805480602002602001604051908101604052809291908181526020018280548015612bf557602002820191906000526020600020905b815481526020019060010190808311612be1575b5050505050905060005b8151811015612c6457612c51828281518110612c44577f4e487b7100000000000000000000000000000000000000000000000000000000600052603260045260246000fd5b60200260200101516108c2565b8080612c5c906141b4565b915050612bff565b50600860003373ffffffffffffffffffffffffffffffffffffffff1673ffffffffffffffffffffffffffffffffffffffff1681526020019081526020016000206000612cb09190612f28565b505b600560003373ffffffffffffffffffffffffffffffffffffffff1673ffffffffffffffffffffffffffffffffffffffff168152602001908152602001600020600080820160006101000a81549073ffffffffffffffffffffffffffffffffffffffff02191690556000820160146101000a81549060ff02191690556000820160156101000a81549060ff02191690556000820160166101000a81549060ff021916905550507f5b8514bf599ab0e7b72a3b2d47ae13677daa88ebbf833cea7bad37b6df49ede3604051612d8490613d76565b60405180910390a150565b60008183612d9d9190613f8b565b905092915050565b60008183612db39190613fe1565b905092915050565b60008183612dc99190614012565b905092915050565b604051806101600160405280600080191681526020016000801916815260200160008152602001600073ffffffffffffffffffffffffffffffffffffffff1681526020016000815260200160006effffffffffffffffffffffffffffff168152602001600060ff1681526020016000151581526020016060815260200160608152602001606081525090565b828054612e699061414a565b90600052602060002090601f016020900481019282612e8b5760008555612ed2565b82601f10612ea457805160ff1916838001178555612ed2565b82800160010185558215612ed2579182015b82811115612ed1578251825591602001919060010190612eb6565b5b509050612edf9190612f49565b5090565b6040518060800160405280600073ffffffffffffffffffffffffffffffffffffffff168152602001600015158152602001600015158152602001600060ff1681525090565b5080546000825590600052602060002090810190612f469190612f66565b50565b5b80821115612f62576000816000905550600101612f4a565b5090565b5b80821115612f7f576000816000905550600101612f67565b5090565b6000612f96612f9184613e83565b613e52565b905082815260208101848484011115612fae57600080fd5b612fb9848285614108565b509392505050565b600081359050612fd0816142d4565b92915050565b600081359050612fe5816142eb565b92915050565b600081359050612ffa81614302565b92915050565b600082601f83011261301157600080fd5b8135613021848260208601612f83565b91505092915050565b60008135905061303981614319565b92915050565b60006020828403121561305157600080fd5b600061305f84828501612fc1565b91505092915050565b60006020828403121561307a57600080fd5b600061308884828501612fd6565b91505092915050565b6000602082840312156130a357600080fd5b60006130b184828501612feb565b91505092915050565b600080600080600060a086880312156130d257600080fd5b60006130e088828901612feb565b955050602086013567ffffffffffffffff8111156130fd57600080fd5b61310988828901613000565b945050604086013567ffffffffffffffff81111561312657600080fd5b61313288828901613000565b935050606086013567ffffffffffffffff81111561314f57600080fd5b61315b88828901613000565b925050608061316c8882890161302a565b9150509295509295909350565b60006020828403121561318b57600080fd5b60006131998482850161302a565b91505092915050565b60006131ae8383613380565b60208301905092915050565b60006131c68383613850565b905092915050565b60006131da838361394d565b60808301905092915050565b6131ef816140d2565b82525050565b6131fe81614058565b82525050565b61320d81614058565b82525050565b61321c81614046565b82525050565b61322b81614046565b82525050565b600061323c82613ee3565b6132468185613f36565b935061325183613eb3565b8060005b8381101561328257815161326988826131a2565b975061327483613f0f565b925050600181019050613255565b5085935050505092915050565b600061329a82613eee565b6132a48185613f47565b9350836020820285016132b685613ec3565b8060005b858110156132f257848403895281516132d385826131ba565b94506132de83613f1c565b925060208a019950506001810190506132ba565b50829750879550505050505092915050565b600061330f82613ef9565b6133198185613f58565b935061332483613ed3565b8060005b8381101561335557815161333c88826131ce565b975061334783613f29565b925050600181019050613328565b5085935050505092915050565b61336b8161406a565b82525050565b61337a8161406a565b82525050565b61338981614076565b82525050565b61339881614076565b82525050565b60006133a982613f04565b6133b38185613f69565b93506133c3818560208601614117565b6133cc816142c3565b840191505092915050565b60006133e282613f04565b6133ec8185613f7a565b93506133fc818560208601614117565b613405816142c3565b840191505092915050565b600061341d601883613f7a565b91507f4e6f20726573756c747320666f722074686174207061676500000000000000006000830152602082019050919050565b600061345d600c83613f7a565b91507f4973206e6f742061646d696e00000000000000000000000000000000000000006000830152602082019050919050565b600061349d601483613f7a565b91507f55736572206973206e6f7420612073656c6c65720000000000000000000000006000830152602082019050919050565b60006134dd601783613f7a565b91507f4e6f746520686173206265656e207075726368617365640000000000000000006000830152602082019050919050565b600061351d601f83613f7a565b91507f4973206e6f742061646d696e206e6f7220746865206e6f7465206f776e6572006000830152602082019050919050565b600061355d600b83613f7a565b91507f6e6f746520626f756768740000000000000000000000000000000000000000006000830152602082019050919050565b600061359d601983613f7a565b91507f4e6f7465207375636365737366756c6c792063726561746564000000000000006000830152602082019050919050565b60006135dd601283613f7a565b91507f4e6f746520646f65736e277420657869737400000000000000000000000000006000830152602082019050919050565b600061361d602083613f7a565b91507f557365722073656c6c657220697320617070726f76656420666f722073656c6c6000830152602082019050919050565b600061365d601583613f7a565b91507f557365722063616e27742073656c6c206e6f74657300000000000000000000006000830152602082019050919050565b600061369d601383613f7a565b91507f4e6f746520616c726561647920657869737473000000000000000000000000006000830152602082019050919050565b60006136dd601983613f7a565b91507f55736572207375636365737366756c6c792064656c65746564000000000000006000830152602082019050919050565b600061371d601783613f7a565b91507f5573657220616c726561647920726567697374657265640000000000000000006000830152602082019050919050565b600061375d601283613f7a565b91507f696e73756666696369656e742066756e647300000000000000000000000000006000830152602082019050919050565b600061379d601283613f7a565b91507f5573657220646f65736e277420657869737400000000000000000000000000006000830152602082019050919050565b60006137dd601e83613f7a565b91507f4e6f7465736d61726b657420697320636c6f7365642062792061646d696e00006000830152602082019050919050565b600061381d601983613f7a565b91507f55736572207375636365737366756c6c792063726561746564000000000000006000830152602082019050919050565b6000610160830160008301516138696000860182613380565b50602083015161387c6020860182613380565b50604083015161388f60408601826139c0565b5060608301516138a260608601826131f5565b5060808301516138b560808601826139c0565b5060a08301516138c860a08601826139a2565b5060c08301516138db60c08601826139f5565b5060e08301516138ee60e0860182613362565b50610100830151848203610100860152613908828261339e565b915050610120830151848203610120860152613924828261339e565b915050610140830151848203610140860152613940828261339e565b9150508091505092915050565b6080820160008201516139636000850182613213565b5060208201516139766020850182613362565b5060408201516139896040850182613362565b50606082015161399c60608501826139f5565b50505050565b6139ab81614080565b82525050565b6139ba81614080565b82525050565b6139c9816140bb565b82525050565b6139d8816140bb565b82525050565b6139ef6139ea826140bb565b6141fd565b82525050565b6139fe816140c5565b82525050565b613a0d816140c5565b82525050565b6000613a1f82846139de565b60208201915081905092915050565b6000608082019050613a436000830187613222565b613a506020830186613371565b613a5d6040830185613371565b613a6a6060830184613a04565b95945050505050565b60006020820190508181036000830152613a8d8184613231565b905092915050565b60006020820190508181036000830152613aaf818461328f565b905092915050565b60006020820190508181036000830152613ad18184613304565b905092915050565b6000608082019050613aee6000830187613371565b613afb6020830186613371565b613b086040830185613371565b613b156060830184613371565b95945050505050565b600061016082019050613b34600083018e61338f565b613b41602083018d61338f565b613b4e604083018c6139cf565b613b5b606083018b613204565b613b68608083018a6139cf565b613b7560a08301896139b1565b613b8260c0830188613a04565b613b8f60e0830187613371565b818103610100830152613ba281866133d7565b9050818103610120830152613bb781856133d7565b9050818103610140830152613bcc81846133d7565b90509c9b505050505050505050505050565b60006020820190508181036000830152613bf781613410565b9050919050565b60006020820190508181036000830152613c1781613450565b9050919050565b60006020820190508181036000830152613c3781613490565b9050919050565b60006020820190508181036000830152613c57816134d0565b9050919050565b60006020820190508181036000830152613c7781613510565b9050919050565b60006040820190508181036000830152613c9781613550565b9050613ca660208301846131e6565b92915050565b60006060820190508181036000830152613cc581613590565b90508181036020830152613cd981856133d7565b90508181036040830152613ced81846133d7565b90509392505050565b60006020820190508181036000830152613d0f816135d0565b9050919050565b60006020820190508181036000830152613d2f81613610565b9050919050565b60006020820190508181036000830152613d4f81613650565b9050919050565b60006020820190508181036000830152613d6f81613690565b9050919050565b60006020820190508181036000830152613d8f816136d0565b9050919050565b60006020820190508181036000830152613daf81613710565b9050919050565b60006020820190508181036000830152613dcf81613750565b9050919050565b60006020820190508181036000830152613def81613790565b9050919050565b60006020820190508181036000830152613e0f816137d0565b9050919050565b60006060820190508181036000830152613e2f81613810565b9050613e3e6020830185613222565b613e4b6040830184613371565b9392505050565b6000604051905081810181811067ffffffffffffffff82111715613e7957613e78614294565b5b8060405250919050565b600067ffffffffffffffff821115613e9e57613e9d614294565b5b601f19601f8301169050602081019050919050565b6000819050602082019050919050565b6000819050602082019050919050565b6000819050602082019050919050565b600081519050919050565b600081519050919050565b600081519050919050565b600081519050919050565b6000602082019050919050565b6000602082019050919050565b6000602082019050919050565b600082825260208201905092915050565b600082825260208201905092915050565b600082825260208201905092915050565b600082825260208201905092915050565b600082825260208201905092915050565b6000613f96826140bb565b9150613fa1836140bb565b9250827fffffffffffffffffffffffffffffffffffffffffffffffffffffffffffffffff03821115613fd657613fd5614207565b5b828201905092915050565b6000613fec826140bb565b9150613ff7836140bb565b92508261400757614006614236565b5b828204905092915050565b600061401d826140bb565b9150614028836140bb565b92508282101561403b5761403a614207565b5b828203905092915050565b60006140518261409b565b9050919050565b60006140638261409b565b9050919050565b60008115159050919050565b6000819050919050565b60006effffffffffffffffffffffffffffff82169050919050565b600073ffffffffffffffffffffffffffffffffffffffff82169050919050565b6000819050919050565b600060ff82169050919050565b60006140dd826140e4565b9050919050565b60006140ef826140f6565b9050919050565b60006141018261409b565b9050919050565b82818337600083830152505050565b60005b8381101561413557808201518184015260208101905061411a565b83811115614144576000848401525b50505050565b6000600282049050600182168061416257607f821691505b6020821081141561417657614175614265565b5b50919050565b600061418782614080565b91506effffffffffffffffffffffffffffff8214156141a9576141a8614207565b5b600182019050919050565b60006141bf826140bb565b91507fffffffffffffffffffffffffffffffffffffffffffffffffffffffffffffffff8214156141f2576141f1614207565b5b600182019050919050565b6000819050919050565b7f4e487b7100000000000000000000000000000000000000000000000000000000600052601160045260246000fd5b7f4e487b7100000000000000000000000000000000000000000000000000000000600052601260045260246000fd5b7f4e487b7100000000000000000000000000000000000000000000000000000000600052602260045260246000fd5b7f4e487b7100000000000000000000000000000000000000000000000000000000600052604160045260246000fd5b6000601f19601f8301169050919050565b6142dd81614046565b81146142e857600080fd5b50565b6142f48161406a565b81146142ff57600080fd5b50565b61430b81614076565b811461431657600080fd5b50565b614322816140bb565b811461432d57600080fd5b5056fea264697066735822122055f8c1a84246583c74072b7fdefede2b5ba438060bf6142fa2dd4865bd0be2ff64736f6c63430008000033",
  "immutableReferences": {},
  "source": "// SPDX-License-Identifier: MIT\npragma solidity >=0.8.0;\nimport \"@openzeppelin/contracts/utils/math/SafeMath.sol\";\n\n/// @title The Lazy Corner Contract\n/// @author Idoia Rojo Lzaro\n/// @notice Explain to an end user what this does\n/// @dev Contract for selling and bying notes market\n\n/**\n@title \n */\ncontract TheLazyCornerContract {\n\n  using SafeMath for uint256;\n    using SafeMath for uint16;\n\n  bool private theLazyCornerIsClosed = false;\n  address payable private admin;\n\n  constructor(){\n    admin = payable(msg.sender);\n  }\n\n  Note[] public notesArr;\n  User[] public usersArr;\n\n  // List of notes indexed by note hash -> numerical id\n  mapping(bytes32 => uint) private notesHashes;\n\n  // List of notes indexed by ifps hash -> note id hash\n  mapping(bytes32 => bytes32) private IPFSHashes;\n\n  // List of users indexed by address\n  mapping(address => User) private users;\n\n  // List of all note purchase tokens\n  // for each note(noteHash), there is a collection of buyers' accessTokens(add -> accessToken)\n  mapping(bytes32 => mapping(address => bytes32)) private purchaseTokens;\n\n  // List of notes bought by users\n  mapping(address => bytes32[]) private boughtNotes;\n\n  // List of notes owned by users\n  mapping(address => bytes32[]) private ownedNotes;\n\n\n  // STRUCTS\n\n  // User -> buyer and/or seller\n  // Buy -> All users can buy notes\n  // Sell -> Just approved users can sell notes\n  struct User{\n    address userAddr;\n    bool seller; // Note owner\n    bool isSellerApproved; // Is approved to sell\n    uint8 exits;  \n  }\n\n  struct Note{\n    bytes32 noteHash; // note id hash\n    bytes32 IPFSHash; // note ipfs reference\n    uint id; // id - 1 -> position of bote in dynamic array\n    address payable owner; \n    uint256 price; // price in tokens\n    uint120 purchaseCount; // number of notes purchases\n    uint8 exits;\n    bool isApproved; // approved for sale\n    string title;\n    string description;\n    string author;\n  }\n\n  // EVENTS\n  event UserCreated(string message, address userAddress, bool isSeller);\n  event UserRemoved(string message);\n  event UserSellerApproved(string message);\n\n  event NoteAdded(string message, bytes32 indexed noteHash, string title, string author);\n  event NoteRemoved(string message);\n  event NotePriceUpdated(string message, uint256 price);\n  event NoteBought(string message, bytes32 indexed noteHash, address indexed buyer, address seller);\n\n\n  // MODIFIERS\n  modifier isAdmin(address userAddress){\n    require(userAddress == admin, \"Is not admin\");\n    _;\n  }\n  \n  modifier theLazyCornerIsOpen(){\n    require(theLazyCornerIsClosed == false, \"Notesmarket is closed by admin\" );\n    _;\n  }\n\n  modifier userExists(address userAddress){\n    require(users[userAddress].exits == 1, \"User doesn't exist\" );\n    _;\n  }\n\n  modifier isUserOrAdmin(address userAddress){\n     require(users[userAddress].exits == 1 || userAddress == admin, \"User doesn't exist\" );\n    _;\n  }\n\n  modifier isNoteOwnerOrAdmin(address userAddress, bytes32 noteHash){\n    uint noteId = notesHashes[noteHash];\n    require(userAddress == admin || userAddress == notesArr[noteId - 1].owner, \"Is not admin nor the note owner\");\n    _;\n  }\n\n  modifier doesNoteExist(bytes32 noteHash){\n    require(notesHashes[noteHash] != 0, \"Note doesn't exist\");\n    uint noteId = notesHashes[noteHash];\n    require(notesArr[noteId - 1].id != 0, \"Note doesn't exist\");\n    _;\n  }\n\n  modifier notPurchased(bytes32 noteHash){\n    uint noteId = notesHashes[noteHash];\n    require(notesArr[noteId - 1].purchaseCount == 0, \"Note has been purchased\");\n    _;\n  }\n\n  modifier canSellNotes(address userAddress){\n    require(users[userAddress].seller && users[userAddress].isSellerApproved, \"User can't sell notes\");\n    _;\n  }\n\n  modifier sufficientFunds(uint price){\n    require(price <= msg.sender.balance, \"insufficient funds\");\n    _;\n  }\n\n\n  // FUNCTIONS\n\n  /* NoteMarket */\n\n  function changeTheLazyCornerStatus() isAdmin(msg.sender) external{\n    theLazyCornerIsClosed = !theLazyCornerIsClosed;\n  }\n\n  /* Users */\n  \n  function addUser(bool isSeller) theLazyCornerIsOpen external{\n    require(users[msg.sender].exits == 0, \"User already registered\");\n\n    User memory user;\n\n    user.userAddr = msg.sender;\n    user.seller = isSeller;\n    user.isSellerApproved = false; // Is approved to sell\n    user.exits = 1;\n  \n    users[msg.sender] = user;\n    usersArr.push(user);\n\n    emit UserCreated(\"User successfully created\", msg.sender, isSeller);\n  }\n\n  function removeUser() userExists(msg.sender) external{\n    if(users[(msg.sender)].seller){\n      bytes32[] memory hashes = ownedNotes[msg.sender];\n\n      for (uint i = 0; i < hashes.length; i++) {\n        removeNote(hashes[i]);\n      }\n      delete ownedNotes[msg.sender];\n    }\n    delete users[msg.sender];\n\n    emit UserRemoved(\"User successfully deleted\");\n  }\n\n  function getUser() isUserOrAdmin(msg.sender) view external returns(bool _authStatus, bool _isSeller, bool _isAdmin, bool _isSellerApproved){\n      _authStatus = true;\n      _isSeller = users[msg.sender].seller;\n      _isSellerApproved = users[msg.sender].isSellerApproved;\n      if(msg.sender == admin) _isAdmin = true;\n  }\n\n\n  function approveSeller(address userAddress) theLazyCornerIsOpen isAdmin(msg.sender) userExists(userAddress) external{\n    if(users[userAddress].seller){\n      User storage user = users[userAddress];\n      user.isSellerApproved = true;\n      emit UserSellerApproved(\"User seller is approved for sell\");\n    }else{\n      revert(\"User is not a seller\");\n    }\n  }\n\n  /** \n    * @dev Admin fetches users using filters, max of 20 per page\n    * @return array of users\n    */\n  function getAllUsers(uint _start) isAdmin(msg.sender) view external returns (User[] memory){\n    require(_start <= usersArr.length, \"No results for that page\");\n    \n    uint perPage = 2; //per page\n    uint maxIterations = perPage;\n    User[] memory _users;\n\n    if(_start.add(perPage) <  usersArr.length){\n      maxIterations = usersArr.length - _start.add(perPage);\n    }\n\n    for(uint i=0; i < maxIterations; i++) {\n      uint userId = _start + i;\n      _users[i] = usersArr[userId];\n    }\n\n    return _users;\n  }\n\n  /* Notes */\n\n  function addNote(bytes32 _IPFShash, string memory _title, string memory _description, string memory _author, uint256 _price) \n    userExists(msg.sender) canSellNotes(msg.sender) external{\n\n    bytes32 _noteHash = IPFSHashes[_IPFShash];\n    uint _noteId = notesHashes[_noteHash];\n    require(_noteId == 0, \"Note already exists\");\n\n    uint newNoteId = notesArr.length + 1;\n\n    _noteHash = keccak256(abi.encodePacked(newNoteId));\n\n    notesHashes[_noteHash] = newNoteId;\n    IPFSHashes[_IPFShash] = _noteHash;\n    ownedNotes[msg.sender].push(_noteHash);\n\n    Note memory note;\n    \n    note.noteHash = _noteHash;\n    note.IPFSHash = _IPFShash;\n    note.id = newNoteId;\n    note.owner = payable(msg.sender);\n    note.price = _price; // wei\n    note.purchaseCount = 0;\n    note.exits = 1;\n    note.title = _title;\n    note.description = _description;\n    note.author = _author;\n    note.isApproved = true;\n\n    notesArr.push(note);\n\n    emit NoteAdded(\"Note successfully created\", _noteHash, _title, _author);\n  }\n\n  function removeNote(bytes32 noteHash) doesNoteExist(noteHash) notPurchased(noteHash) isNoteOwnerOrAdmin(msg.sender, noteHash) public{\n    delete notesHashes[noteHash];\n    emit NoteRemoved(\"User successfully deleted\");\n  }\n\n  function getAllNotes() userExists(msg.sender) view external returns (Note[] memory){\n    Note[] memory _notes;\n    _notes = notesArr;\n    return _notes;\n  }\n\n  function buyNote(bytes32 noteHash) theLazyCornerIsOpen userExists(msg.sender) doesNoteExist(noteHash) sufficientFunds(notesArr[notesHashes[noteHash] - 1].price) payable external {\n    uint noteId = notesHashes[noteHash];\n    Note memory note = notesArr[noteId - 1];\n    \n    address payable seller = note.owner;\n    \n    uint commissionFunds = note.price.div(100);\n    uint paymentToSeller = note.price.sub(commissionFunds);\n    //bytes32 accessToken = generateAccessToken(msg.sender, note.IPFSHash);\n    // store access token\n    //purchaseTokens[noteHash][msg.sender] = accessToken;\n    // keep note purchase\n    boughtNotes[msg.sender].push(noteHash);\n    note.purchaseCount ++;\n    notesArr[noteId - 1].purchaseCount = note.purchaseCount;\n\n    seller.transfer(paymentToSeller);\n    admin.transfer(commissionFunds);\n    \n    emit NoteBought(\"note bought\", noteHash, msg.sender, seller);\n\n  }\n\n  function getMyPurchasedNotes() userExists(msg.sender) view public returns(bytes32[] memory _boughtNotes){\n    _boughtNotes = boughtNotes[msg.sender];\n  }\n\n  function generateAccessToken(address userAddr, bytes32 IPFShash) private pure returns(bytes32) { //isAdmin(msg.sender)\n    bytes32 salt = \"S}7#%*SD30o7D\";\n    bytes32 accessToken = keccak256(abi.encodePacked(userAddr, IPFShash, salt));\n    return accessToken;\n  }\n\n  function getOwnedNotes() canSellNotes(msg.sender) userExists(msg.sender) view external returns(bytes32[] memory _ownedNotes){\n    _ownedNotes = ownedNotes[msg.sender];\n    for(uint i=0; i < _ownedNotes.length; i++){\n      // exclude the leftover hashes in state array map ownedNotes\n      if(notesHashes[_ownedNotes[i]] == 0){\n        delete _ownedNotes[i];\n      }\n    }\n  }\n\n  \n}\n",
  "sourcePath": "/Users/idoia/Documents/blockchain/blockchain-developer-bootcamp-final-project/contracts/TheLazyCornerContract.sol",
  "compiler": {
    "name": "solc",
    "version": "0.8.0+commit.c7dfd78e.Emscripten.clang"
  },
  "schemaVersion": "3.4.3",
  "updatedAt": "2021-11-28T11:03:02.681Z",
  "networkType": "ethereum",
  "devdoc": {
    "kind": "dev",
    "methods": {
      "getAllUsers(uint256)": {
        "details": "Admin fetches users using filters, max of 20 per page",
        "returns": {
          "_0": "array of users"
        }
      }
    },
    "version": 1
  },
  "userdoc": {
    "kind": "user",
    "methods": {},
    "version": 1
  }
}